{
  "contractName": "Webaverse",
  "abi": [
    {
      "anonymous": false,
      "inputs": [
        {
          "indexed": true,
          "internalType": "address",
          "name": "previousOwner",
          "type": "address"
        },
        {
          "indexed": true,
          "internalType": "address",
          "name": "newOwner",
          "type": "address"
        }
      ],
      "name": "OwnershipTransferred",
      "type": "event"
    },
    {
      "inputs": [],
      "name": "owner",
      "outputs": [
        {
          "internalType": "address",
          "name": "",
          "type": "address"
        }
      ],
      "stateMutability": "view",
      "type": "function"
    },
    {
      "inputs": [],
      "name": "renounceOwnership",
      "outputs": [],
      "stateMutability": "nonpayable",
      "type": "function"
    },
    {
      "inputs": [
        {
          "internalType": "address",
          "name": "newOwner",
          "type": "address"
        }
      ],
      "name": "transferOwnership",
      "outputs": [],
      "stateMutability": "nonpayable",
      "type": "function"
    },
    {
      "inputs": [
        {
          "internalType": "address",
          "name": "_nftAddress",
          "type": "address"
        },
        {
          "internalType": "address",
          "name": "_silkAddress",
          "type": "address"
        },
        {
          "internalType": "uint256",
          "name": "mintFee_",
          "type": "uint256"
        },
        {
          "internalType": "address",
          "name": "treasuryAddress_",
          "type": "address"
        }
      ],
      "name": "initialize",
      "outputs": [],
      "stateMutability": "nonpayable",
      "type": "function"
    },
    {
      "inputs": [],
      "name": "mintFee",
      "outputs": [
        {
          "internalType": "uint256",
          "name": "",
          "type": "uint256"
        }
      ],
      "stateMutability": "view",
      "type": "function"
    },
    {
      "inputs": [],
      "name": "nftContractAddress",
      "outputs": [
        {
          "internalType": "address",
          "name": "",
          "type": "address"
        }
      ],
      "stateMutability": "view",
      "type": "function"
    },
    {
      "inputs": [],
      "name": "silkContractAddress",
      "outputs": [
        {
          "internalType": "address",
          "name": "",
          "type": "address"
        }
      ],
      "stateMutability": "view",
      "type": "function"
    },
    {
      "inputs": [
        {
          "internalType": "address",
          "name": "_nftContractAddress",
          "type": "address"
        }
      ],
      "name": "setNftAddress",
      "outputs": [],
      "stateMutability": "nonpayable",
      "type": "function"
    },
    {
      "inputs": [
        {
          "internalType": "address",
          "name": "_silkAddress",
          "type": "address"
        }
      ],
      "name": "setSilkAddress",
      "outputs": [],
      "stateMutability": "nonpayable",
      "type": "function"
    },
    {
      "inputs": [
        {
          "internalType": "uint256",
          "name": "mintFee_",
          "type": "uint256"
        }
      ],
      "name": "setMintFee",
      "outputs": [],
      "stateMutability": "nonpayable",
      "type": "function"
    },
    {
      "inputs": [],
      "name": "treasuryAddress",
      "outputs": [
        {
          "internalType": "address",
          "name": "",
          "type": "address"
        }
      ],
      "stateMutability": "view",
      "type": "function"
    },
    {
      "inputs": [
        {
          "internalType": "address",
          "name": "treasuryAddress_",
          "type": "address"
        }
      ],
      "name": "setTreasuryAddress",
      "outputs": [],
      "stateMutability": "nonpayable",
      "type": "function"
    },
    {
      "inputs": [
        {
          "internalType": "address",
          "name": "to",
          "type": "address"
        },
        {
          "internalType": "uint256",
          "name": "balance",
          "type": "uint256"
        },
        {
          "internalType": "string",
          "name": "uri",
          "type": "string"
        },
        {
          "internalType": "bytes",
          "name": "data",
          "type": "bytes"
        }
      ],
      "name": "mint",
      "outputs": [],
      "stateMutability": "nonpayable",
      "type": "function"
    },
    {
      "inputs": [
        {
          "internalType": "address",
          "name": "to",
          "type": "address"
        },
        {
          "internalType": "uint256",
          "name": "balance",
          "type": "uint256"
        },
        {
          "internalType": "string",
          "name": "uri",
          "type": "string"
        },
        {
          "internalType": "string[]",
          "name": "trait_types",
          "type": "string[]"
        },
        {
          "internalType": "string[]",
          "name": "values",
          "type": "string[]"
        },
        {
          "internalType": "string[]",
          "name": "display_types",
          "type": "string[]"
        },
        {
          "internalType": "bytes",
          "name": "data",
          "type": "bytes"
        }
      ],
      "name": "mintWithAttributes",
      "outputs": [],
      "stateMutability": "nonpayable",
      "type": "function"
    },
    {
      "inputs": [
        {
          "internalType": "uint256",
          "name": "tokenId",
          "type": "uint256"
        },
        {
          "internalType": "string",
          "name": "trait_type",
          "type": "string"
        },
        {
          "internalType": "string",
          "name": "value",
          "type": "string"
        },
        {
          "internalType": "string",
          "name": "display_type",
          "type": "string"
        }
      ],
      "name": "setAttribute",
      "outputs": [],
      "stateMutability": "nonpayable",
      "type": "function"
    }
  ],
  "bytecode": "0x608060405234801561001057600080fd5b506110b5806100206000396000f3fe608060405234801561001057600080fd5b50600436106100f55760003560e01c80638da5cb5b11610097578063c5f956af11610066578063c5f956af146101d3578063d2b04fd6146101e4578063eddd0d9c146101f7578063f2fde38b1461020a57600080fd5b80638da5cb5b14610179578063aae282e11461019e578063bc5350f3146101af578063be203094146101c057600080fd5b80636605bfda116100d35780636605bfda14610138578063715018a61461014b5780638ad0686e146101535780638d4fd6041461016657600080fd5b80630b102d1a146100fa5780630dc575981461010f57806313966db514610122575b600080fd5b61010d610108366004610c22565b61021d565b005b61010d61011d366004610e4f565b610272565b6067546040519081526020015b60405180910390f35b61010d610146366004610c22565b6102e0565b61010d61032c565b61010d610161366004610c22565b610362565b61010d610174366004610c91565b6103ae565b6033546001600160a01b03165b6040516001600160a01b03909116815260200161012f565b6065546001600160a01b0316610186565b6066546001600160a01b0316610186565b61010d6101ce366004610c44565b61064d565b6068546001600160a01b0316610186565b61010d6101f2366004610d7d565b610707565b61010d610205366004610e1d565b610891565b61010d610218366004610c22565b6108c0565b6033546001600160a01b031633146102505760405162461bcd60e51b815260040161024790610f85565b60405180910390fd5b606580546001600160a01b0319166001600160a01b0392909216919091179055565b6065546040516301b8aeb360e31b81526001600160a01b0390911690630dc57598906102a8908790879087908790600401610fba565b600060405180830381600087803b1580156102c257600080fd5b505af11580156102d6573d6000803e3d6000fd5b5050505050505050565b6033546001600160a01b0316331461030a5760405162461bcd60e51b815260040161024790610f85565b606880546001600160a01b0319166001600160a01b0392909216919091179055565b6033546001600160a01b031633146103565760405162461bcd60e51b815260040161024790610f85565b610360600061095b565b565b6033546001600160a01b0316331461038c5760405162461bcd60e51b815260040161024790610f85565b606680546001600160a01b0319166001600160a01b0392909216919091179055565b825184511480156103c0575081518451145b6104405760405162461bcd60e51b815260206004820152604560248201527f455243313135353a2074726169745f74797065732c2076616c75657320616e6460448201527f20646973706c61795f7479706573206d757374206265206f662073616d65206c6064820152640cadccee8d60db1b608482015260a401610247565b60675415610542576066546001600160a01b03166323b872dd3361046c6068546001600160a01b031690565b6067546040516001600160e01b031960e086901b1681526001600160a01b0393841660048201529290911660248301526044820152606401602060405180830381600087803b1580156104be57600080fd5b505af11580156104d2573d6000803e3d6000fd5b505050506040513d601f19601f820116820180604052508101906104f69190610dfb565b6105425760405162461bcd60e51b815260206004820152601f60248201527f5765626176657273653a204d696e74207472616e73666572206661696c6564006044820152606401610247565b60655460405163695827eb60e11b81526000916001600160a01b03169063d2b04fd690610579908b908b908b908890600401610ef3565b602060405180830381600087803b15801561059357600080fd5b505af11580156105a7573d6000803e3d6000fd5b505050506040513d601f19601f820116820180604052508101906105cb9190610e36565b905060005b855181101561064257610630828783815181106105ef576105ef611053565b602002602001015187848151811061060957610609611053565b602002602001015187858151811061062357610623611053565b6020026020010151610272565b8061063a8161102a565b9150506105d0565b505050505050505050565b600054610100900460ff1680610666575060005460ff16155b6106825760405162461bcd60e51b815260040161024790610f37565b600054610100900460ff161580156106a4576000805461ffff19166101011790555b6106ac6109ad565b606580546001600160a01b038088166001600160a01b03199283161790925560668054878416908316179055606785905560688054928516929091169190911790558015610700576000805461ff00191690555b5050505050565b60675415610809576066546001600160a01b03166323b872dd336107336068546001600160a01b031690565b6067546040516001600160e01b031960e086901b1681526001600160a01b0393841660048201529290911660248301526044820152606401602060405180830381600087803b15801561078557600080fd5b505af1158015610799573d6000803e3d6000fd5b505050506040513d601f19601f820116820180604052508101906107bd9190610dfb565b6108095760405162461bcd60e51b815260206004820152601f60248201527f5765626176657273653a204d696e74207472616e73666572206661696c6564006044820152606401610247565b60655460405163695827eb60e11b81526001600160a01b039091169063d2b04fd69061083f908790879087908790600401610ef3565b602060405180830381600087803b15801561085957600080fd5b505af115801561086d573d6000803e3d6000fd5b505050506040513d601f19601f820116820180604052508101906107009190610e36565b6033546001600160a01b031633146108bb5760405162461bcd60e51b815260040161024790610f85565b606755565b6033546001600160a01b031633146108ea5760405162461bcd60e51b815260040161024790610f85565b6001600160a01b03811661094f5760405162461bcd60e51b815260206004820152602660248201527f4f776e61626c653a206e6577206f776e657220697320746865207a65726f206160448201526564647265737360d01b6064820152608401610247565b6109588161095b565b50565b603380546001600160a01b038381166001600160a01b0319831681179093556040519116919082907f8be0079c531659141344cd1fd0a4f28419497f9722a3daafe3b4186f6b6457e090600090a35050565b600054610100900460ff16806109c6575060005460ff16155b6109e25760405162461bcd60e51b815260040161024790610f37565b600054610100900460ff16158015610a04576000805461ffff19166101011790555b610a0c610a28565b610a14610a92565b8015610958576000805461ff001916905550565b600054610100900460ff1680610a41575060005460ff16155b610a5d5760405162461bcd60e51b815260040161024790610f37565b600054610100900460ff16158015610a14576000805461ffff19166101011790558015610958576000805461ff001916905550565b600054610100900460ff1680610aab575060005460ff16155b610ac75760405162461bcd60e51b815260040161024790610f37565b600054610100900460ff16158015610ae9576000805461ffff19166101011790555b610a143361095b565b80356001600160a01b0381168114610b0957600080fd5b919050565b600082601f830112610b1f57600080fd5b8135602067ffffffffffffffff80831115610b3c57610b3c611069565b8260051b610b4b838201610ff9565b8481528381019087850183890186018a1015610b6657600080fd5b60009350835b87811015610ba357813586811115610b82578586fd5b610b908c89838e0101610bb2565b8552509286019290860190600101610b6c565b50909998505050505050505050565b600082601f830112610bc357600080fd5b813567ffffffffffffffff811115610bdd57610bdd611069565b610bf0601f8201601f1916602001610ff9565b818152846020838601011115610c0557600080fd5b816020850160208301376000918101602001919091529392505050565b600060208284031215610c3457600080fd5b610c3d82610af2565b9392505050565b60008060008060808587031215610c5a57600080fd5b610c6385610af2565b9350610c7160208601610af2565b925060408501359150610c8660608601610af2565b905092959194509250565b600080600080600080600060e0888a031215610cac57600080fd5b610cb588610af2565b965060208801359550604088013567ffffffffffffffff80821115610cd957600080fd5b610ce58b838c01610bb2565b965060608a0135915080821115610cfb57600080fd5b610d078b838c01610b0e565b955060808a0135915080821115610d1d57600080fd5b610d298b838c01610b0e565b945060a08a0135915080821115610d3f57600080fd5b610d4b8b838c01610b0e565b935060c08a0135915080821115610d6157600080fd5b50610d6e8a828b01610bb2565b91505092959891949750929550565b60008060008060808587031215610d9357600080fd5b610d9c85610af2565b935060208501359250604085013567ffffffffffffffff80821115610dc057600080fd5b610dcc88838901610bb2565b93506060870135915080821115610de257600080fd5b50610def87828801610bb2565b91505092959194509250565b600060208284031215610e0d57600080fd5b81518015158114610c3d57600080fd5b600060208284031215610e2f57600080fd5b5035919050565b600060208284031215610e4857600080fd5b5051919050565b60008060008060808587031215610e6557600080fd5b84359350602085013567ffffffffffffffff80821115610e8457600080fd5b610e9088838901610bb2565b94506040870135915080821115610dc057600080fd5b6000815180845260005b81811015610ecc57602081850181015186830182015201610eb0565b81811115610ede576000602083870101525b50601f01601f19169290920160200192915050565b60018060a01b0385168152836020820152608060408201526000610f1a6080830185610ea6565b8281036060840152610f2c8185610ea6565b979650505050505050565b6020808252602e908201527f496e697469616c697a61626c653a20636f6e747261637420697320616c72656160408201526d191e481a5b9a5d1a585b1a5e995960921b606082015260800190565b6020808252818101527f4f776e61626c653a2063616c6c6572206973206e6f7420746865206f776e6572604082015260600190565b848152608060208201526000610fd36080830186610ea6565b8281036040840152610fe58186610ea6565b90508281036060840152610f2c8185610ea6565b604051601f8201601f1916810167ffffffffffffffff8111828210171561102257611022611069565b604052919050565b600060001982141561104c57634e487b7160e01b600052601160045260246000fd5b5060010190565b634e487b7160e01b600052603260045260246000fd5b634e487b7160e01b600052604160045260246000fdfea264697066735822122050ca8c2b9302d5cf21545cbc8298c734d1ba7da25ebb04e52960bc93db2d895f64736f6c63430008070033",
  "immutableReferences": {},
  "source": "// SPDX-License-Identifier: MIT\n\npragma solidity ^0.8.7;\n\nimport \"@openzeppelin/contracts-upgradeable/access/OwnableUpgradeable.sol\";\nimport \"./WebaverseERC1155.sol\";\nimport \"./WebaverseERC20.sol\";\n\ncontract Webaverse is OwnableUpgradeable {\n    WebaverseERC1155 private _nftContract;\n    WebaverseERC20 private _silkContract;\n    uint256 private _mintFee; // ERC20 fee to mint ERC721\n    address private _treasuryAddress;\n\n    /**\n     * @dev Creates the Upgradeable Webaverse contract\n     * @param _nftAddress WebaverseERC721 contract address for Non-fungible tokens\n     * @param _silkAddress WebaverseERC20 contract address for fungible tokens\n     * @param mintFee_ The amount of WebaverseERC20 tokens required to mint a single NFT\n     * @param treasuryAddress_ Address of the treasury account\n     */\n    function initialize(\n        address _nftAddress,\n        address _silkAddress,\n        uint256 mintFee_,\n        address treasuryAddress_\n    ) public initializer {\n        __Ownable_init();\n        _nftContract = WebaverseERC1155(_nftAddress);\n        _silkContract = WebaverseERC20(_silkAddress);\n        _mintFee = mintFee_;\n        _treasuryAddress = treasuryAddress_;\n    }\n\n    /**\n     * @return The amount of ERC20 tokens required to mint the ERC721 NFT\n     */\n    function mintFee() public view returns (uint256) {\n        return _mintFee;\n    }\n\n    /**\n     * @return The address of Webaverse ERC721 contract\n     */\n    function nftContractAddress() public view returns (address) {\n        return address(_nftContract);\n    }\n\n    /**\n     * @return The address of Webaverse ERC20 contract\n     */\n    function silkContractAddress() public view returns (address) {\n        return address(_silkContract);\n    }\n\n    /**\n     * @dev Set the contract instance for ERC721\n     * @param _nftContractAddress The address of the ERC721 contract that needs to be set\n     */\n    function setNftAddress(address _nftContractAddress) public onlyOwner {\n        _nftContract = WebaverseERC1155(_nftContractAddress);\n    }\n\n    /**\n     * @dev Set the contract instance for ERC20\n     * @param _silkAddress The address of the ERC20 contract that needs to be set\n     */\n    function setSilkAddress(address _silkAddress) public onlyOwner {\n        _silkContract = WebaverseERC20(_silkAddress);\n    }\n\n    /**\n     * @dev Set the price to mint\n     * @param mintFee_ Minting fee, default is 10 FT\n     */\n    function setMintFee(uint256 mintFee_) public onlyOwner {\n        _mintFee = mintFee_;\n    }\n\n    /**\n     * @return The address that is used for receiving mint fee (ERC20 tokens)\n     */\n    function treasuryAddress() public view returns (address) {\n        return _treasuryAddress;\n    }\n\n    /**\n     * @dev Set the treasury address\n     * @param treasuryAddress_ Account address of the treasurer\n     */\n    function setTreasuryAddress(address treasuryAddress_) public onlyOwner {\n        _treasuryAddress = treasuryAddress_;\n    }\n\n    /**\n     * @notice Mints the a single NFT with given parameters.\n     * @param to The address on which the NFT will be minted.\n     * @param balance Total amount for the given token.\n     * @param uri URI of the NFT.\n     **/\n    function mint(\n        address to,\n        uint256 balance,\n        string memory uri,\n        bytes memory data\n    ) public {\n        if (mintFee() != 0) {\n            require(\n                _silkContract.transferFrom(\n                    msg.sender,\n                    treasuryAddress(),\n                    mintFee()\n                ),\n                \"Webaverse: Mint transfer failed\"\n            );\n        }\n        _nftContract.mint(to, balance, uri, data);\n    }\n\n    /**\n     * @notice Mints a single NFT with given parameters.\n     * @param to The address on which the NFT will be minted.\n     **/\n    function mintWithAttributes(\n        address to,\n        uint256 balance,\n        string memory uri,\n        string[] memory trait_types,\n        string[] memory values,\n        string[] memory display_types,\n        bytes memory data\n    ) public {\n        require(\n            trait_types.length == values.length &&\n                trait_types.length == display_types.length,\n            \"ERC1155: trait_types, values and display_types must be of same length\"\n        );\n        if (mintFee() != 0) {\n            require(\n                _silkContract.transferFrom(\n                    msg.sender,\n                    treasuryAddress(),\n                    mintFee()\n                ),\n                \"Webaverse: Mint transfer failed\"\n            );\n        }\n        uint256 tokenId = _nftContract.mint(to, balance, uri, data);\n        for (uint256 i = 0; i < trait_types.length; i++) {\n            setAttribute(tokenId, trait_types[i], values[i], display_types[i]);\n        }\n    }\n\n    /**\n     * @notice Mints the a single NFT with given parameters.\n     * @param tokenId The id of the token.\n     * @param trait_type Name of the attribute (as per opensea metadata standard).\n     * @param value String value of the atrribute being added or set (as per opensea metadata standard).\n     * @param display_type Display type of the attribute (as per opensea metadata standard).\n     **/\n    function setAttribute(\n        uint256 tokenId,\n        string memory trait_type,\n        string memory value,\n        string memory display_type\n    ) public {\n        // require(\n        //     _nftContract.balanceOf(msg.sender, tokenId) ==\n        //         _nftContract.getTokenBalance(tokenId),\n        //     \"Webaverse: Only owner can set attributes\"\n        // );\n        _nftContract.setAttribute(tokenId, trait_type, value, display_type);\n    }\n}\n",
  "sourcePath": "/home/mohsin/Desktop/sidechain/contracts/main/Webaverse.sol",
  "compiler": {
    "name": "solc",
    "version": "0.8.7+commit.e28d00a7.Emscripten.clang"
  },
  "schemaVersion": "3.4.3",
  "updatedAt": "2022-02-23T16:58:06.076Z",
  "devdoc": {
    "kind": "dev",
    "methods": {
      "initialize(address,address,uint256,address)": {
        "details": "Creates the Upgradeable Webaverse contract",
        "params": {
          "_nftAddress": "WebaverseERC721 contract address for Non-fungible tokens",
          "_silkAddress": "WebaverseERC20 contract address for fungible tokens",
          "mintFee_": "The amount of WebaverseERC20 tokens required to mint a single NFT",
          "treasuryAddress_": "Address of the treasury account"
        }
      },
      "mint(address,uint256,string,bytes)": {
        "params": {
          "balance": "Total amount for the given token.",
          "to": "The address on which the NFT will be minted.",
          "uri": "URI of the NFT.*"
        }
      },
      "mintFee()": {
        "returns": {
          "_0": "The amount of ERC20 tokens required to mint the ERC721 NFT"
        }
      },
      "mintWithAttributes(address,uint256,string,string[],string[],string[],bytes)": {
        "params": {
          "to": "The address on which the NFT will be minted.*"
        }
      },
      "nftContractAddress()": {
        "returns": {
          "_0": "The address of Webaverse ERC721 contract"
        }
      },
      "owner()": {
        "details": "Returns the address of the current owner."
      },
      "renounceOwnership()": {
        "details": "Leaves the contract without owner. It will not be possible to call `onlyOwner` functions anymore. Can only be called by the current owner. NOTE: Renouncing ownership will leave the contract without an owner, thereby removing any functionality that is only available to the owner."
      },
      "setAttribute(uint256,string,string,string)": {
        "params": {
          "display_type": "Display type of the attribute (as per opensea metadata standard).*",
          "tokenId": "The id of the token.",
          "trait_type": "Name of the attribute (as per opensea metadata standard).",
          "value": "String value of the atrribute being added or set (as per opensea metadata standard)."
        }
      },
      "setMintFee(uint256)": {
        "details": "Set the price to mint",
        "params": {
          "mintFee_": "Minting fee, default is 10 FT"
        }
      },
      "setNftAddress(address)": {
        "details": "Set the contract instance for ERC721",
        "params": {
          "_nftContractAddress": "The address of the ERC721 contract that needs to be set"
        }
      },
      "setSilkAddress(address)": {
        "details": "Set the contract instance for ERC20",
        "params": {
          "_silkAddress": "The address of the ERC20 contract that needs to be set"
        }
      },
      "setTreasuryAddress(address)": {
        "details": "Set the treasury address",
        "params": {
          "treasuryAddress_": "Account address of the treasurer"
        }
      },
      "silkContractAddress()": {
        "returns": {
          "_0": "The address of Webaverse ERC20 contract"
        }
      },
      "transferOwnership(address)": {
        "details": "Transfers ownership of the contract to a new account (`newOwner`). Can only be called by the current owner."
      },
      "treasuryAddress()": {
        "returns": {
          "_0": "The address that is used for receiving mint fee (ERC20 tokens)"
        }
      }
    },
    "version": 1
  },
  "userdoc": {
    "kind": "user",
    "methods": {
      "mint(address,uint256,string,bytes)": {
        "notice": "Mints the a single NFT with given parameters."
      },
      "mintWithAttributes(address,uint256,string,string[],string[],string[],bytes)": {
        "notice": "Mints a single NFT with given parameters."
      },
      "setAttribute(uint256,string,string,string)": {
        "notice": "Mints the a single NFT with given parameters."
      }
    },
    "version": 1
  }
}