{
  "contractName": "Webaverse",
  "abi": [
    {
      "anonymous": false,
      "inputs": [
        {
          "indexed": false,
          "internalType": "uint8",
          "name": "version",
          "type": "uint8"
        }
      ],
      "name": "Initialized",
      "type": "event"
    },
    {
      "anonymous": false,
      "inputs": [
        {
          "indexed": true,
          "internalType": "address",
          "name": "previousOwner",
          "type": "address"
        },
        {
          "indexed": true,
          "internalType": "address",
          "name": "newOwner",
          "type": "address"
        }
      ],
      "name": "OwnershipTransferred",
      "type": "event"
    },
    {
      "inputs": [
        {
          "components": [
            {
              "internalType": "uint256",
              "name": "tokenId",
              "type": "uint256"
            },
            {
              "internalType": "string",
              "name": "contentURL",
              "type": "string"
            },
            {
              "internalType": "uint256",
              "name": "balance",
              "type": "uint256"
            },
            {
              "internalType": "uint256",
              "name": "nonce",
              "type": "uint256"
            },
            {
              "internalType": "uint256",
              "name": "expiry",
              "type": "uint256"
            },
            {
              "internalType": "bytes",
              "name": "signature",
              "type": "bytes"
            }
          ],
          "internalType": "struct WebaverseVoucher.NFTVoucher",
          "name": "voucher",
          "type": "tuple"
        }
      ],
      "name": "_verify",
      "outputs": [
        {
          "internalType": "address",
          "name": "",
          "type": "address"
        }
      ],
      "stateMutability": "view",
      "type": "function",
      "constant": true
    },
    {
      "inputs": [],
      "name": "_webaverse_voucher_init",
      "outputs": [],
      "stateMutability": "nonpayable",
      "type": "function"
    },
    {
      "inputs": [
        {
          "internalType": "uint256",
          "name": "",
          "type": "uint256"
        }
      ],
      "name": "burnedNonces",
      "outputs": [
        {
          "internalType": "bool",
          "name": "",
          "type": "bool"
        }
      ],
      "stateMutability": "view",
      "type": "function",
      "constant": true
    },
    {
      "inputs": [],
      "name": "owner",
      "outputs": [
        {
          "internalType": "address",
          "name": "",
          "type": "address"
        }
      ],
      "stateMutability": "view",
      "type": "function",
      "constant": true
    },
    {
      "inputs": [],
      "name": "renounceOwnership",
      "outputs": [],
      "stateMutability": "nonpayable",
      "type": "function"
    },
    {
      "inputs": [
        {
          "internalType": "address",
          "name": "newOwner",
          "type": "address"
        }
      ],
      "name": "transferOwnership",
      "outputs": [],
      "stateMutability": "nonpayable",
      "type": "function"
    },
    {
      "inputs": [
        {
          "components": [
            {
              "internalType": "uint256",
              "name": "tokenId",
              "type": "uint256"
            },
            {
              "internalType": "string",
              "name": "contentURL",
              "type": "string"
            },
            {
              "internalType": "uint256",
              "name": "balance",
              "type": "uint256"
            },
            {
              "internalType": "uint256",
              "name": "nonce",
              "type": "uint256"
            },
            {
              "internalType": "uint256",
              "name": "expiry",
              "type": "uint256"
            },
            {
              "internalType": "bytes",
              "name": "signature",
              "type": "bytes"
            }
          ],
          "internalType": "struct WebaverseVoucher.NFTVoucher",
          "name": "voucher",
          "type": "tuple"
        }
      ],
      "name": "verifyVoucher",
      "outputs": [
        {
          "internalType": "address",
          "name": "",
          "type": "address"
        }
      ],
      "stateMutability": "nonpayable",
      "type": "function"
    },
    {
      "inputs": [
        {
          "internalType": "address",
          "name": "_nftAddress",
          "type": "address"
        },
        {
          "internalType": "address",
          "name": "_silkAddress",
          "type": "address"
        },
        {
          "internalType": "uint256",
          "name": "mintFee_",
          "type": "uint256"
        },
        {
          "internalType": "address",
          "name": "treasuryAddress_",
          "type": "address"
        }
      ],
      "name": "initialize",
      "outputs": [],
      "stateMutability": "nonpayable",
      "type": "function"
    },
    {
      "inputs": [],
      "name": "mintFee",
      "outputs": [
        {
          "internalType": "uint256",
          "name": "",
          "type": "uint256"
        }
      ],
      "stateMutability": "view",
      "type": "function",
      "constant": true
    },
    {
      "inputs": [],
      "name": "nftContractAddress",
      "outputs": [
        {
          "internalType": "address",
          "name": "",
          "type": "address"
        }
      ],
      "stateMutability": "view",
      "type": "function",
      "constant": true
    },
    {
      "inputs": [],
      "name": "silkContractAddress",
      "outputs": [
        {
          "internalType": "address",
          "name": "",
          "type": "address"
        }
      ],
      "stateMutability": "view",
      "type": "function",
      "constant": true
    },
    {
      "inputs": [
        {
          "internalType": "address",
          "name": "_nftContractAddress",
          "type": "address"
        }
      ],
      "name": "setNftAddress",
      "outputs": [],
      "stateMutability": "nonpayable",
      "type": "function"
    },
    {
      "inputs": [
        {
          "internalType": "address",
          "name": "_silkAddress",
          "type": "address"
        }
      ],
      "name": "setSilkAddress",
      "outputs": [],
      "stateMutability": "nonpayable",
      "type": "function"
    },
    {
      "inputs": [
        {
          "internalType": "uint256",
          "name": "mintFee_",
          "type": "uint256"
        }
      ],
      "name": "setMintFee",
      "outputs": [],
      "stateMutability": "nonpayable",
      "type": "function"
    },
    {
      "inputs": [],
      "name": "treasuryAddress",
      "outputs": [
        {
          "internalType": "address",
          "name": "",
          "type": "address"
        }
      ],
      "stateMutability": "view",
      "type": "function",
      "constant": true
    },
    {
      "inputs": [
        {
          "internalType": "address",
          "name": "treasuryAddress_",
          "type": "address"
        }
      ],
      "name": "setTreasuryAddress",
      "outputs": [],
      "stateMutability": "nonpayable",
      "type": "function"
    },
    {
      "inputs": [
        {
          "internalType": "address",
          "name": "to",
          "type": "address"
        },
        {
          "internalType": "uint256",
          "name": "balance",
          "type": "uint256"
        },
        {
          "internalType": "string",
          "name": "uri",
          "type": "string"
        },
        {
          "internalType": "bytes",
          "name": "data",
          "type": "bytes"
        }
      ],
      "name": "mint",
      "outputs": [],
      "stateMutability": "nonpayable",
      "type": "function"
    },
    {
      "inputs": [
        {
          "internalType": "address",
          "name": "to",
          "type": "address"
        },
        {
          "components": [
            {
              "internalType": "uint256",
              "name": "tokenId",
              "type": "uint256"
            },
            {
              "internalType": "string",
              "name": "contentURL",
              "type": "string"
            },
            {
              "internalType": "uint256",
              "name": "balance",
              "type": "uint256"
            },
            {
              "internalType": "uint256",
              "name": "nonce",
              "type": "uint256"
            },
            {
              "internalType": "uint256",
              "name": "expiry",
              "type": "uint256"
            },
            {
              "internalType": "bytes",
              "name": "signature",
              "type": "bytes"
            }
          ],
          "internalType": "struct WebaverseVoucher.NFTVoucher",
          "name": "voucher",
          "type": "tuple"
        }
      ],
      "name": "claim_NFT",
      "outputs": [],
      "stateMutability": "nonpayable",
      "type": "function"
    },
    {
      "inputs": [
        {
          "internalType": "address",
          "name": "to",
          "type": "address"
        },
        {
          "components": [
            {
              "internalType": "uint256",
              "name": "tokenId",
              "type": "uint256"
            },
            {
              "internalType": "string",
              "name": "contentURL",
              "type": "string"
            },
            {
              "internalType": "uint256",
              "name": "balance",
              "type": "uint256"
            },
            {
              "internalType": "uint256",
              "name": "nonce",
              "type": "uint256"
            },
            {
              "internalType": "uint256",
              "name": "expiry",
              "type": "uint256"
            },
            {
              "internalType": "bytes",
              "name": "signature",
              "type": "bytes"
            }
          ],
          "internalType": "struct WebaverseVoucher.NFTVoucher",
          "name": "voucher",
          "type": "tuple"
        }
      ],
      "name": "claim_FT",
      "outputs": [],
      "stateMutability": "nonpayable",
      "type": "function"
    },
    {
      "inputs": [
        {
          "internalType": "address",
          "name": "to",
          "type": "address"
        },
        {
          "internalType": "bytes",
          "name": "data",
          "type": "bytes"
        },
        {
          "components": [
            {
              "internalType": "uint256",
              "name": "tokenId",
              "type": "uint256"
            },
            {
              "internalType": "string",
              "name": "contentURL",
              "type": "string"
            },
            {
              "internalType": "uint256",
              "name": "balance",
              "type": "uint256"
            },
            {
              "internalType": "uint256",
              "name": "nonce",
              "type": "uint256"
            },
            {
              "internalType": "uint256",
              "name": "expiry",
              "type": "uint256"
            },
            {
              "internalType": "bytes",
              "name": "signature",
              "type": "bytes"
            }
          ],
          "internalType": "struct WebaverseVoucher.NFTVoucher",
          "name": "voucher",
          "type": "tuple"
        }
      ],
      "name": "claimServerDropNFT",
      "outputs": [],
      "stateMutability": "nonpayable",
      "type": "function"
    },
    {
      "inputs": [
        {
          "internalType": "address",
          "name": "to",
          "type": "address"
        },
        {
          "components": [
            {
              "internalType": "uint256",
              "name": "tokenId",
              "type": "uint256"
            },
            {
              "internalType": "string",
              "name": "contentURL",
              "type": "string"
            },
            {
              "internalType": "uint256",
              "name": "balance",
              "type": "uint256"
            },
            {
              "internalType": "uint256",
              "name": "nonce",
              "type": "uint256"
            },
            {
              "internalType": "uint256",
              "name": "expiry",
              "type": "uint256"
            },
            {
              "internalType": "bytes",
              "name": "signature",
              "type": "bytes"
            }
          ],
          "internalType": "struct WebaverseVoucher.NFTVoucher",
          "name": "voucher",
          "type": "tuple"
        }
      ],
      "name": "claimServerDropFT",
      "outputs": [],
      "stateMutability": "nonpayable",
      "type": "function"
    }
  ],
  "bytecode": "0x608060405234801561001057600080fd5b50612094806100206000396000f3fe608060405234801561001057600080fd5b50600436106101775760003560e01c80637b267107116100d8578063bc5350f31161008c578063d2b04fd611610066578063d2b04fd614610332578063eddd0d9c14610345578063f2fde38b1461035857600080fd5b8063bc5350f3146102e3578063be20309414610301578063c5f956af1461031457600080fd5b80638ad0686e116100bd5780638ad0686e146102945780638da5cb5b146102a7578063aae282e1146102c557600080fd5b80637b2671071461024e5780637e2499cc1461026157600080fd5b806359cce6871161012f5780636d33a377116101145780636d33a377146101fb578063715018a614610233578063754b38711461023b57600080fd5b806359cce687146101d55780636605bfda146101e857600080fd5b806313966db51161016057806313966db5146101a45780634355e53b146101ba5780634c710b23146101c257600080fd5b806309c702e41461017c5780630b102d1a14610191575b600080fd5b61018f61018a366004611bad565b61036b565b005b61018f61019f366004611ad1565b610408565b609c546040519081526020015b60405180910390f35b61018f610457565b61018f6101d0366004611bad565b610569565b61018f6101e3366004611bad565b610627565b61018f6101f6366004611ad1565b6107ef565b61020e610209366004611cb2565b61083e565b60405173ffffffffffffffffffffffffffffffffffffffff90911681526020016101b1565b61018f61089e565b61020e610249366004611cb2565b6108b0565b61018f61025c366004611b39565b6109e3565b61028461026f366004611cef565b60356020526000908152604090205460ff1681565b60405190151581526020016101b1565b61018f6102a2366004611ad1565b610bde565b60685473ffffffffffffffffffffffffffffffffffffffff1661020e565b609a5473ffffffffffffffffffffffffffffffffffffffff1661020e565b609b5473ffffffffffffffffffffffffffffffffffffffff1661020e565b61018f61030f366004611aec565b610c2d565b609d5473ffffffffffffffffffffffffffffffffffffffff1661020e565b61018f610340366004611bfb565b610e32565b61018f610353366004611cef565b610fe9565b61018f610366366004611ad1565b610ff6565b6000610376826108b0565b609b546040517f4ed3c01f00000000000000000000000000000000000000000000000000000000815291925073ffffffffffffffffffffffffffffffffffffffff1690634ed3c01f906103d190849087908790600401611eae565b600060405180830381600087803b1580156103eb57600080fd5b505af11580156103ff573d6000803e3d6000fd5b50505050505050565b6104106110ad565b609a80547fffffffffffffffffffffffff00000000000000000000000000000000000000001673ffffffffffffffffffffffffffffffffffffffff92909216919091179055565b600054610100900460ff166104f3576040517f08c379a000000000000000000000000000000000000000000000000000000000815260206004820152602b60248201527f496e697469616c697a61626c653a20636f6e7472616374206973206e6f74206960448201527f6e697469616c697a696e6700000000000000000000000000000000000000000060648201526084015b60405180910390fd5b6105676040518060400160405280601181526020017f5765626176657273652d766f75636865720000000000000000000000000000008152506040518060400160405280600181526020017f310000000000000000000000000000000000000000000000000000000000000081525061112e565b565b6000610574826108b0565b609b546040517fb6dcc9d900000000000000000000000000000000000000000000000000000000815291925073ffffffffffffffffffffffffffffffffffffffff169063b6dcc9d9906105cf90849087908790600401611eae565b602060405180830381600087803b1580156105e957600080fd5b505af11580156105fd573d6000803e3d6000fd5b505050506040513d601f19601f820116820180604052508101906106219190611d08565b50505050565b6000610632826108b0565b905061063d609c5490565b1561079557609b5473ffffffffffffffffffffffffffffffffffffffff166323b872dd33610680609d5473ffffffffffffffffffffffffffffffffffffffff1690565b609c546040517fffffffff0000000000000000000000000000000000000000000000000000000060e086901b16815273ffffffffffffffffffffffffffffffffffffffff93841660048201529290911660248301526044820152606401602060405180830381600087803b1580156106f757600080fd5b505af115801561070b573d6000803e3d6000fd5b505050506040513d601f19601f8201168201806040525081019061072f9190611c90565b610795576040517f08c379a000000000000000000000000000000000000000000000000000000000815260206004820152601f60248201527f5765626176657273653a204d696e74207472616e73666572206661696c65640060448201526064016104ea565b609a546040517fb6dcc9d900000000000000000000000000000000000000000000000000000000815273ffffffffffffffffffffffffffffffffffffffff9091169063b6dcc9d9906103d190849087908790600401611eae565b6107f76110ad565b609d80547fffffffffffffffffffffffff00000000000000000000000000000000000000001673ffffffffffffffffffffffffffffffffffffffff92909216919091179055565b60008061084a836111d3565b90506108978161085d60a0860186611f37565b8080601f0160208091040260200160405190810160405280939291908181526020018383808284376000920191909152506112b192505050565b9392505050565b6108a66110ad565b61056760006112d5565b60008160800135421115610920576040517f08c379a000000000000000000000000000000000000000000000000000000000815260206004820152601b60248201527f566f75636865722068617320616c72656164792065787069726564000000000060448201526064016104ea565b606082013560009081526035602052604090205460ff161561099e576040517f08c379a000000000000000000000000000000000000000000000000000000000815260206004820152601360248201527f496e76616c6964206e6f6e63652076616c75650000000000000000000000000060448201526064016104ea565b6060820135600090815260356020526040812080547fffffffffffffffffffffffffffffffffffffffffffffffffffffffffffffff001660011790556108978361083e565b609c5415610b3e57609b5473ffffffffffffffffffffffffffffffffffffffff166323b872dd33610a29609d5473ffffffffffffffffffffffffffffffffffffffff1690565b609c546040517fffffffff0000000000000000000000000000000000000000000000000000000060e086901b16815273ffffffffffffffffffffffffffffffffffffffff93841660048201529290911660248301526044820152606401602060405180830381600087803b158015610aa057600080fd5b505af1158015610ab4573d6000803e3d6000fd5b505050506040513d601f19601f82011682018060405250810190610ad89190611c90565b610b3e576040517f08c379a000000000000000000000000000000000000000000000000000000000815260206004820152601f60248201527f5765626176657273653a204d696e74207472616e73666572206661696c65640060448201526064016104ea565b6000610b49826108b0565b609a546040517f9962896f00000000000000000000000000000000000000000000000000000000815291925073ffffffffffffffffffffffffffffffffffffffff1690639962896f90610ba6908490889088908890600401611e58565b600060405180830381600087803b158015610bc057600080fd5b505af1158015610bd4573d6000803e3d6000fd5b5050505050505050565b610be66110ad565b609b80547fffffffffffffffffffffffff00000000000000000000000000000000000000001673ffffffffffffffffffffffffffffffffffffffff92909216919091179055565b600054610100900460ff1615808015610c4d5750600054600160ff909116105b80610c675750303b158015610c67575060005460ff166001145b610cf3576040517f08c379a000000000000000000000000000000000000000000000000000000000815260206004820152602e60248201527f496e697469616c697a61626c653a20636f6e747261637420697320616c72656160448201527f647920696e697469616c697a656400000000000000000000000000000000000060648201526084016104ea565b600080547fffffffffffffffffffffffffffffffffffffffffffffffffffffffffffffff001660011790558015610d5157600080547fffffffffffffffffffffffffffffffffffffffffffffffffffffffffffff00ff166101001790555b610d5961134c565b610d61610457565b609a805473ffffffffffffffffffffffffffffffffffffffff8088167fffffffffffffffffffffffff000000000000000000000000000000000000000092831617909255609b8054878416908316179055609c859055609d8054928516929091169190911790558015610e2b57600080547fffffffffffffffffffffffffffffffffffffffffffffffffffffffffffff00ff169055604051600181527f7f26b83ff96e1f2b6a682f133852f6798a09c465da95921460cefb38474024989060200160405180910390a15b5050505050565b609c5415610f8d57609b5473ffffffffffffffffffffffffffffffffffffffff166323b872dd33610e78609d5473ffffffffffffffffffffffffffffffffffffffff1690565b609c546040517fffffffff0000000000000000000000000000000000000000000000000000000060e086901b16815273ffffffffffffffffffffffffffffffffffffffff93841660048201529290911660248301526044820152606401602060405180830381600087803b158015610eef57600080fd5b505af1158015610f03573d6000803e3d6000fd5b505050506040513d601f19601f82011682018060405250810190610f279190611c90565b610f8d576040517f08c379a000000000000000000000000000000000000000000000000000000000815260206004820152601f60248201527f5765626176657273653a204d696e74207472616e73666572206661696c65640060448201526064016104ea565b609a546040517fd2b04fd600000000000000000000000000000000000000000000000000000000815273ffffffffffffffffffffffffffffffffffffffff9091169063d2b04fd690610ba6908790879087908790600401611ef0565b610ff16110ad565b609c55565b610ffe6110ad565b73ffffffffffffffffffffffffffffffffffffffff81166110a1576040517f08c379a000000000000000000000000000000000000000000000000000000000815260206004820152602660248201527f4f776e61626c653a206e6577206f776e657220697320746865207a65726f206160448201527f646472657373000000000000000000000000000000000000000000000000000060648201526084016104ea565b6110aa816112d5565b50565b60685473ffffffffffffffffffffffffffffffffffffffff163314610567576040517f08c379a000000000000000000000000000000000000000000000000000000000815260206004820181905260248201527f4f776e61626c653a2063616c6c6572206973206e6f7420746865206f776e657260448201526064016104ea565b600054610100900460ff166111c5576040517f08c379a000000000000000000000000000000000000000000000000000000000815260206004820152602b60248201527f496e697469616c697a61626c653a20636f6e7472616374206973206e6f74206960448201527f6e697469616c697a696e6700000000000000000000000000000000000000000060648201526084016104ea565b6111cf82826113eb565b5050565b60006112ab7f5ffd6690a098e0cacfcb33dc84f9cd3cca7021192543b042c1896ee834cabb1383356112086020860186611f37565b604051602001611219929190611e48565b604080517fffffffffffffffffffffffffffffffffffffffffffffffffffffffffffffffe0818403018152828252805160209182012061129095949390928901359160608a01359160808b01359101958652602086019490945260408501929092526060840152608083015260a082015260c00190565b6040516020818303038152906040528051906020012061149c565b92915050565b60008060006112c08585611505565b915091506112cd8161154b565b509392505050565b6068805473ffffffffffffffffffffffffffffffffffffffff8381167fffffffffffffffffffffffff0000000000000000000000000000000000000000831681179093556040519116919082907f8be0079c531659141344cd1fd0a4f28419497f9722a3daafe3b4186f6b6457e090600090a35050565b600054610100900460ff166113e3576040517f08c379a000000000000000000000000000000000000000000000000000000000815260206004820152602b60248201527f496e697469616c697a61626c653a20636f6e7472616374206973206e6f74206960448201527f6e697469616c697a696e6700000000000000000000000000000000000000000060648201526084016104ea565b6105676117a4565b600054610100900460ff16611482576040517f08c379a000000000000000000000000000000000000000000000000000000000815260206004820152602b60248201527f496e697469616c697a61626c653a20636f6e7472616374206973206e6f74206960448201527f6e697469616c697a696e6700000000000000000000000000000000000000000060648201526084016104ea565b815160209283012081519190920120600191909155600255565b60006112ab6114a9611844565b836040517f19010000000000000000000000000000000000000000000000000000000000006020820152602281018390526042810182905260009060620160405160208183030381529060405280519060200120905092915050565b60008082516041141561153c5760208301516040840151606085015160001a611530878285856118c4565b94509450505050611544565b506000905060025b9250929050565b600081600481111561155f5761155f612000565b14156115685750565b600181600481111561157c5761157c612000565b14156115e4576040517f08c379a000000000000000000000000000000000000000000000000000000000815260206004820152601860248201527f45434453413a20696e76616c6964207369676e6174757265000000000000000060448201526064016104ea565b60028160048111156115f8576115f8612000565b1415611660576040517f08c379a000000000000000000000000000000000000000000000000000000000815260206004820152601f60248201527f45434453413a20696e76616c6964207369676e6174757265206c656e6774680060448201526064016104ea565b600381600481111561167457611674612000565b1415611702576040517f08c379a000000000000000000000000000000000000000000000000000000000815260206004820152602260248201527f45434453413a20696e76616c6964207369676e6174757265202773272076616c60448201527f756500000000000000000000000000000000000000000000000000000000000060648201526084016104ea565b600481600481111561171657611716612000565b14156110aa576040517f08c379a000000000000000000000000000000000000000000000000000000000815260206004820152602260248201527f45434453413a20696e76616c6964207369676e6174757265202776272076616c60448201527f756500000000000000000000000000000000000000000000000000000000000060648201526084016104ea565b600054610100900460ff1661183b576040517f08c379a000000000000000000000000000000000000000000000000000000000815260206004820152602b60248201527f496e697469616c697a61626c653a20636f6e7472616374206973206e6f74206960448201527f6e697469616c697a696e6700000000000000000000000000000000000000000060648201526084016104ea565b610567336112d5565b60006118bf7f8b73c3c69bb8fe3d512ecc4cf759cc79239f7b179b0ffacaa9a75d522b39400f61187360015490565b6002546040805160208101859052908101839052606081018290524660808201523060a082015260009060c0016040516020818303038152906040528051906020012090509392505050565b905090565b6000807f7fffffffffffffffffffffffffffffff5d576e7357a4501ddfe92f46681b20a08311156118fb57506000905060036119d3565b8460ff16601b1415801561191357508460ff16601c14155b1561192457506000905060046119d3565b6040805160008082526020820180845289905260ff881692820192909252606081018690526080810185905260019060a0016020604051602081039080840390855afa158015611978573d6000803e3d6000fd5b50506040517fffffffffffffffffffffffffffffffffffffffffffffffffffffffffffffffe0015191505073ffffffffffffffffffffffffffffffffffffffff81166119cc576000600192509250506119d3565b9150600090505b94509492505050565b600067ffffffffffffffff808411156119f7576119f761202f565b604051601f85017fffffffffffffffffffffffffffffffffffffffffffffffffffffffffffffffe0908116603f01168101908282118183101715611a3d57611a3d61202f565b81604052809350858152868686011115611a5657600080fd5b858560208301376000602087830101525050509392505050565b803573ffffffffffffffffffffffffffffffffffffffff81168114611a9457600080fd5b919050565b600082601f830112611aaa57600080fd5b610897838335602085016119dc565b600060c08284031215611acb57600080fd5b50919050565b600060208284031215611ae357600080fd5b61089782611a70565b60008060008060808587031215611b0257600080fd5b611b0b85611a70565b9350611b1960208601611a70565b925060408501359150611b2e60608601611a70565b905092959194509250565b600080600060608486031215611b4e57600080fd5b611b5784611a70565b9250602084013567ffffffffffffffff80821115611b7457600080fd5b611b8087838801611a99565b93506040860135915080821115611b9657600080fd5b50611ba386828701611ab9565b9150509250925092565b60008060408385031215611bc057600080fd5b611bc983611a70565b9150602083013567ffffffffffffffff811115611be557600080fd5b611bf185828601611ab9565b9150509250929050565b60008060008060808587031215611c1157600080fd5b611c1a85611a70565b935060208501359250604085013567ffffffffffffffff80821115611c3e57600080fd5b818701915087601f830112611c5257600080fd5b611c61888335602085016119dc565b93506060870135915080821115611c7757600080fd5b50611c8487828801611a99565b91505092959194509250565b600060208284031215611ca257600080fd5b8151801515811461089757600080fd5b600060208284031215611cc457600080fd5b813567ffffffffffffffff811115611cdb57600080fd5b611ce784828501611ab9565b949350505050565b600060208284031215611d0157600080fd5b5035919050565b600060208284031215611d1a57600080fd5b5051919050565b8183528181602085013750600060208284010152600060207fffffffffffffffffffffffffffffffffffffffffffffffffffffffffffffffe0601f840116840101905092915050565b6000815180845260005b81811015611d9057602081850181015186830182015201611d74565b81811115611da2576000602083870101525b50601f017fffffffffffffffffffffffffffffffffffffffffffffffffffffffffffffffe0169290920160200192915050565b803582526000611de86020830183611f9c565b60c06020860152611dfd60c086018284611d21565b915050604083013560408501526060830135606085015260808301356080850152611e2b60a0840184611f9c565b85830360a0870152611e3e838284611d21565b9695505050505050565b8183823760009101908152919050565b600073ffffffffffffffffffffffffffffffffffffffff808716835280861660208401525060806040830152611e916080830185611d6a565b8281036060840152611ea38185611dd5565b979650505050505050565b600073ffffffffffffffffffffffffffffffffffffffff808616835280851660208401525060606040830152611ee76060830184611dd5565b95945050505050565b73ffffffffffffffffffffffffffffffffffffffff85168152836020820152608060408201526000611f256080830185611d6a565b8281036060840152611ea38185611d6a565b60008083357fffffffffffffffffffffffffffffffffffffffffffffffffffffffffffffffe1843603018112611f6c57600080fd5b83018035915067ffffffffffffffff821115611f8757600080fd5b60200191503681900382131561154457600080fd5b60008083357fffffffffffffffffffffffffffffffffffffffffffffffffffffffffffffffe1843603018112611fd157600080fd5b830160208101925035905067ffffffffffffffff811115611ff157600080fd5b80360383131561154457600080fd5b7f4e487b7100000000000000000000000000000000000000000000000000000000600052602160045260246000fd5b7f4e487b7100000000000000000000000000000000000000000000000000000000600052604160045260246000fdfea2646970667358221220c005b87ffcda6703ed0f94a11aa2aa8d4503a1b669177c65d26b2672eda1955064736f6c63430008070033",
  "immutableReferences": {},
  "source": "// SPDX-License-Identifier: MIT\n\npragma solidity ^0.8.7;\n\nimport \"@openzeppelin/contracts-upgradeable/access/OwnableUpgradeable.sol\";\nimport \"./WebaverseERC1155.sol\";\nimport \"./WebaverseERC20.sol\";\n\ncontract Webaverse is WebaverseVoucher, OwnableUpgradeable {\n    WebaverseERC1155 private _nftContract;\n    WebaverseERC20 private _silkContract;\n    uint256 private _mintFee; // ERC20 fee to mint ERC721\n    address private _treasuryAddress;\n    using ECDSA for bytes32;\n\n    /**\n     * @dev Creates the Upgradeable Webaverse contract\n     * @param _nftAddress WebaverseERC721 contract address for Non-fungible tokens\n     * @param _silkAddress WebaverseERC20 contract address for fungible tokens\n     * @param mintFee_ The amount of WebaverseERC20 tokens required to mint a single NFT\n     * @param treasuryAddress_ Address of the treasury account\n     */\n    function initialize(\n        address _nftAddress,\n        address _silkAddress,\n        uint256 mintFee_,\n        address treasuryAddress_\n    ) public initializer {\n        __Ownable_init();\n        _webaverse_voucher_init();\n        _nftContract = WebaverseERC1155(_nftAddress);\n        _silkContract = WebaverseERC20(_silkAddress);\n        _mintFee = mintFee_;\n        _treasuryAddress = treasuryAddress_;\n    }\n\n    /**\n     * @return The amount of ERC20 tokens required to mint the ERC721 NFT\n     */\n    function mintFee() public view returns (uint256) {\n        return _mintFee;\n    }\n\n    /**\n     * @return The address of Webaverse ERC721 contract\n     */\n    function nftContractAddress() public view returns (address) {\n        return address(_nftContract);\n    }\n\n    /**\n     * @return The address of Webaverse ERC20 contract\n     */\n    function silkContractAddress() public view returns (address) {\n        return address(_silkContract);\n    }\n\n    /**\n     * @dev Set the contract instance for ERC721\n     * @param _nftContractAddress The address of the ERC721 contract that needs to be set\n     */\n    function setNftAddress(address _nftContractAddress) public onlyOwner {\n        _nftContract = WebaverseERC1155(_nftContractAddress);\n    }\n\n    /**\n     * @dev Set the contract instance for ERC20\n     * @param _silkAddress The address of the ERC20 contract that needs to be set\n     */\n    function setSilkAddress(address _silkAddress) public onlyOwner {\n        _silkContract = WebaverseERC20(_silkAddress);\n    }\n\n    /**\n     * @dev Set the price to mint\n     * @param mintFee_ Minting fee, default is 10 FT\n     */\n    function setMintFee(uint256 mintFee_) public onlyOwner {\n        _mintFee = mintFee_;\n    }\n\n    /**\n     * @return The address that is used for receiving mint fee (ERC20 tokens)\n     */\n    function treasuryAddress() public view returns (address) {\n        return _treasuryAddress;\n    }\n\n    /**\n     * @dev Set the treasury address\n     * @param treasuryAddress_ Account address of the treasurer\n     */\n    function setTreasuryAddress(address treasuryAddress_) public onlyOwner {\n        _treasuryAddress = treasuryAddress_;\n    }\n\n    /**\n     * @notice Mints the a single NFT with given parameters.\n     * @param to The address on which the NFT will be minted.\n     * @param balance Total amount for the given token.\n     * @param uri URI of the NFT.\n     **/\n    function mint(\n        address to,\n        uint256 balance,\n        string memory uri,\n        bytes memory data\n    ) public {\n        if (mintFee() != 0) {\n            require(\n                _silkContract.transferFrom(\n                    msg.sender,\n                    treasuryAddress(),\n                    mintFee()\n                ),\n                \"Webaverse: Mint transfer failed\"\n            );\n        }\n        _nftContract.mint(to, balance, uri, data);\n    }\n\n    /**\n     * @notice Claims(Mints) the a single NFT with given parameters.\n     * @param to The address on which the NFT will be minted(claimed).\n     * @param voucher A signed NFTVoucher that describes the NFT to be redeemed.\n     **/\n    function claim_NFT(\n        address to,\n        NFTVoucher calldata voucher\n    ) public {\n        address signer = verifyVoucher(voucher);\n\n        if (mintFee() != 0) {\n            require(\n                _silkContract.transferFrom(\n                    msg.sender,\n                    treasuryAddress(),\n                    mintFee()\n                ),\n                \"Webaverse: Mint transfer failed\"\n            );\n        }\n        _nftContract.claim(signer, to, voucher);\n    }\n\n    /**\n     * @notice Claims(Mints) the a FT with given parameters.\n     * @param to The address on which the FT will be minted(claimed).\n     * @param voucher A signed NFTVoucher(FTVoucher) that describes the FT to be redeemed.\n     **/\n    function claim_FT(\n        address to,\n        NFTVoucher calldata voucher\n    ) public {\n        // make sure signature is valid and get the address of the signer\n        address signer = verifyVoucher(voucher);\n\n        _silkContract.claim(signer, to, voucher);\n    }\n\n    /**\n     * @notice Claims(Mints) the a single Server Drop NFT with given parameters.\n     * @param to The address on which the NFT will be minted(claimed).\n     * @param data The data to store when claim.\n     * @param voucher A signed NFTVoucher that describes the NFT to be redeemed.\n     **/\n    function claimServerDropNFT(\n        address to,\n        bytes memory data,\n        NFTVoucher calldata voucher\n    ) public {\n        if (mintFee() != 0) {\n            require(\n                _silkContract.transferFrom(\n                    msg.sender,\n                    treasuryAddress(),\n                    mintFee()\n                ),\n                \"Webaverse: Mint transfer failed\"\n            );\n        }\n\n        // make sure signature is valid and get the address of the signer\n        address signer = verifyVoucher(voucher);\n\n        _nftContract.mintServerDropNFT(signer, to, data, voucher);\n    }\n\n    /**\n     * @notice Claims(Mints) the a single Server Drop FT with given parameters.\n     * @param to The address on which the FT will be minted(claimed).\n     * @param voucher A signed NFTVoucher(FTVoucher) that describes the FT to be redeemed.\n     **/\n    function claimServerDropFT(\n        address to,\n        NFTVoucher calldata voucher\n    ) public {\n        // make sure signature is valid and get the address of the signer\n        address signer = verifyVoucher(voucher);\n\n        _silkContract.mintServerDropFT(signer, to, voucher);\n    }\n}\n",
  "sourcePath": "/opt/hedera/game-contracts/ethereum/Webaverse.sol",
  "compiler": {
    "name": "solc",
    "version": "0.8.7+commit.e28d00a7.Emscripten.clang"
  },
  "schemaVersion": "3.4.10",
  "updatedAt": "2022-10-04T02:08:41.969Z",
  "networkType": "ethereum",
  "devdoc": {
    "kind": "dev",
    "methods": {
      "_verify((uint256,string,uint256,uint256,uint256,bytes))": {
        "details": "Will revert if the signature is invalid. Does not verify that the signer is authorized to mint NFTs.",
        "params": {
          "voucher": "An NFTVoucher describing an NFT."
        },
        "returns": {
          "_0": "returns the address of the signer on succesful verification.*"
        }
      },
      "claimServerDropFT(address,(uint256,string,uint256,uint256,uint256,bytes))": {
        "params": {
          "to": "The address on which the FT will be minted(claimed).",
          "voucher": "A signed NFTVoucher(FTVoucher) that describes the FT to be redeemed.*"
        }
      },
      "claimServerDropNFT(address,bytes,(uint256,string,uint256,uint256,uint256,bytes))": {
        "params": {
          "data": "The data to store when claim.",
          "to": "The address on which the NFT will be minted(claimed).",
          "voucher": "A signed NFTVoucher that describes the NFT to be redeemed.*"
        }
      },
      "claim_FT(address,(uint256,string,uint256,uint256,uint256,bytes))": {
        "params": {
          "to": "The address on which the FT will be minted(claimed).",
          "voucher": "A signed NFTVoucher(FTVoucher) that describes the FT to be redeemed.*"
        }
      },
      "claim_NFT(address,(uint256,string,uint256,uint256,uint256,bytes))": {
        "params": {
          "to": "The address on which the NFT will be minted(claimed).",
          "voucher": "A signed NFTVoucher that describes the NFT to be redeemed.*"
        }
      },
      "initialize(address,address,uint256,address)": {
        "details": "Creates the Upgradeable Webaverse contract",
        "params": {
          "_nftAddress": "WebaverseERC721 contract address for Non-fungible tokens",
          "_silkAddress": "WebaverseERC20 contract address for fungible tokens",
          "mintFee_": "The amount of WebaverseERC20 tokens required to mint a single NFT",
          "treasuryAddress_": "Address of the treasury account"
        }
      },
      "mint(address,uint256,string,bytes)": {
        "params": {
          "balance": "Total amount for the given token.",
          "to": "The address on which the NFT will be minted.",
          "uri": "URI of the NFT.*"
        }
      },
      "mintFee()": {
        "returns": {
          "_0": "The amount of ERC20 tokens required to mint the ERC721 NFT"
        }
      },
      "nftContractAddress()": {
        "returns": {
          "_0": "The address of Webaverse ERC721 contract"
        }
      },
      "owner()": {
        "details": "Returns the address of the current owner."
      },
      "renounceOwnership()": {
        "details": "Leaves the contract without owner. It will not be possible to call `onlyOwner` functions anymore. Can only be called by the current owner. NOTE: Renouncing ownership will leave the contract without an owner, thereby removing any functionality that is only available to the owner."
      },
      "setMintFee(uint256)": {
        "details": "Set the price to mint",
        "params": {
          "mintFee_": "Minting fee, default is 10 FT"
        }
      },
      "setNftAddress(address)": {
        "details": "Set the contract instance for ERC721",
        "params": {
          "_nftContractAddress": "The address of the ERC721 contract that needs to be set"
        }
      },
      "setSilkAddress(address)": {
        "details": "Set the contract instance for ERC20",
        "params": {
          "_silkAddress": "The address of the ERC20 contract that needs to be set"
        }
      },
      "setTreasuryAddress(address)": {
        "details": "Set the treasury address",
        "params": {
          "treasuryAddress_": "Account address of the treasurer"
        }
      },
      "silkContractAddress()": {
        "returns": {
          "_0": "The address of Webaverse ERC20 contract"
        }
      },
      "transferOwnership(address)": {
        "details": "Transfers ownership of the contract to a new account (`newOwner`). Can only be called by the current owner."
      },
      "treasuryAddress()": {
        "returns": {
          "_0": "The address that is used for receiving mint fee (ERC20 tokens)"
        }
      },
      "verifyVoucher((uint256,string,uint256,uint256,uint256,bytes))": {
        "details": "Verification through ECDSA signature of 'typed' data.Voucher must contain valid signature, nonce, and expiry.*",
        "params": {
          "voucher": "A signed NFTVoucher that describes the NFT to be redeemed."
        }
      }
    },
    "version": 1
  },
  "userdoc": {
    "kind": "user",
    "methods": {
      "_verify((uint256,string,uint256,uint256,uint256,bytes))": {
        "notice": "Verifies the signature for a given NFTVoucher, returning the address of the signer."
      },
      "claimServerDropFT(address,(uint256,string,uint256,uint256,uint256,bytes))": {
        "notice": "Claims(Mints) the a single Server Drop FT with given parameters."
      },
      "claimServerDropNFT(address,bytes,(uint256,string,uint256,uint256,uint256,bytes))": {
        "notice": "Claims(Mints) the a single Server Drop NFT with given parameters."
      },
      "claim_FT(address,(uint256,string,uint256,uint256,uint256,bytes))": {
        "notice": "Claims(Mints) the a FT with given parameters."
      },
      "claim_NFT(address,(uint256,string,uint256,uint256,uint256,bytes))": {
        "notice": "Claims(Mints) the a single NFT with given parameters."
      },
      "mint(address,uint256,string,bytes)": {
        "notice": "Mints the a single NFT with given parameters."
      },
      "verifyVoucher((uint256,string,uint256,uint256,uint256,bytes))": {
        "notice": "Verifies an NFTVoucher for an actual NFT, authorized by the owner."
      }
    },
    "version": 1
  }
}