{
  "contractName": "WebaverseERC721",
  "abi": [
    {
      "inputs": [
        {
          "internalType": "string",
          "name": "name",
          "type": "string"
        },
        {
          "internalType": "string",
          "name": "symbol",
          "type": "string"
        },
        {
          "internalType": "string",
          "name": "baseUri",
          "type": "string"
        },
        {
          "internalType": "contract WebaverseERC20",
          "name": "_erc20Contract",
          "type": "address"
        },
        {
          "internalType": "uint256",
          "name": "_mintFee",
          "type": "uint256"
        },
        {
          "internalType": "address",
          "name": "_treasuryAddress",
          "type": "address"
        },
        {
          "internalType": "bool",
          "name": "_isSingleIssue",
          "type": "bool"
        },
        {
          "internalType": "bool",
          "name": "_isPublicallyMintable",
          "type": "bool"
        }
      ],
      "stateMutability": "nonpayable",
      "type": "constructor"
    },
    {
      "anonymous": false,
      "inputs": [
        {
          "indexed": true,
          "internalType": "address",
          "name": "owner",
          "type": "address"
        },
        {
          "indexed": true,
          "internalType": "address",
          "name": "approved",
          "type": "address"
        },
        {
          "indexed": true,
          "internalType": "uint256",
          "name": "tokenId",
          "type": "uint256"
        }
      ],
      "name": "Approval",
      "type": "event"
    },
    {
      "anonymous": false,
      "inputs": [
        {
          "indexed": true,
          "internalType": "address",
          "name": "owner",
          "type": "address"
        },
        {
          "indexed": true,
          "internalType": "address",
          "name": "operator",
          "type": "address"
        },
        {
          "indexed": false,
          "internalType": "bool",
          "name": "approved",
          "type": "bool"
        }
      ],
      "name": "ApprovalForAll",
      "type": "event"
    },
    {
      "anonymous": false,
      "inputs": [
        {
          "indexed": false,
          "internalType": "string",
          "name": "hash",
          "type": "string"
        },
        {
          "indexed": false,
          "internalType": "address",
          "name": "a",
          "type": "address"
        }
      ],
      "name": "CollaboratorAdded",
      "type": "event"
    },
    {
      "anonymous": false,
      "inputs": [
        {
          "indexed": false,
          "internalType": "string",
          "name": "hash",
          "type": "string"
        },
        {
          "indexed": false,
          "internalType": "address",
          "name": "a",
          "type": "address"
        }
      ],
      "name": "CollaboratorRemoved",
      "type": "event"
    },
    {
      "anonymous": false,
      "inputs": [
        {
          "indexed": false,
          "internalType": "string",
          "name": "oldHash",
          "type": "string"
        },
        {
          "indexed": false,
          "internalType": "string",
          "name": "newHash",
          "type": "string"
        }
      ],
      "name": "HashUpdate",
      "type": "event"
    },
    {
      "anonymous": false,
      "inputs": [
        {
          "indexed": false,
          "internalType": "string",
          "name": "hash",
          "type": "string"
        },
        {
          "indexed": false,
          "internalType": "string",
          "name": "key",
          "type": "string"
        },
        {
          "indexed": false,
          "internalType": "string",
          "name": "value",
          "type": "string"
        }
      ],
      "name": "MetadataSet",
      "type": "event"
    },
    {
      "anonymous": false,
      "inputs": [
        {
          "indexed": false,
          "internalType": "uint256",
          "name": "tokenId",
          "type": "uint256"
        },
        {
          "indexed": false,
          "internalType": "address",
          "name": "a",
          "type": "address"
        }
      ],
      "name": "SingleCollaboratorAdded",
      "type": "event"
    },
    {
      "anonymous": false,
      "inputs": [
        {
          "indexed": false,
          "internalType": "uint256",
          "name": "tokenId",
          "type": "uint256"
        },
        {
          "indexed": false,
          "internalType": "address",
          "name": "a",
          "type": "address"
        }
      ],
      "name": "SingleCollaboratorRemoved",
      "type": "event"
    },
    {
      "anonymous": false,
      "inputs": [
        {
          "indexed": false,
          "internalType": "uint256",
          "name": "tokenId",
          "type": "uint256"
        },
        {
          "indexed": false,
          "internalType": "string",
          "name": "key",
          "type": "string"
        },
        {
          "indexed": false,
          "internalType": "string",
          "name": "value",
          "type": "string"
        }
      ],
      "name": "SingleMetadataSet",
      "type": "event"
    },
    {
      "anonymous": false,
      "inputs": [
        {
          "indexed": true,
          "internalType": "address",
          "name": "from",
          "type": "address"
        },
        {
          "indexed": true,
          "internalType": "address",
          "name": "to",
          "type": "address"
        },
        {
          "indexed": true,
          "internalType": "uint256",
          "name": "tokenId",
          "type": "uint256"
        }
      ],
      "name": "Transfer",
      "type": "event"
    },
    {
      "inputs": [
        {
          "internalType": "address",
          "name": "to",
          "type": "address"
        },
        {
          "internalType": "uint256",
          "name": "tokenId",
          "type": "uint256"
        }
      ],
      "name": "approve",
      "outputs": [],
      "stateMutability": "nonpayable",
      "type": "function"
    },
    {
      "inputs": [
        {
          "internalType": "address",
          "name": "owner",
          "type": "address"
        }
      ],
      "name": "balanceOf",
      "outputs": [
        {
          "internalType": "uint256",
          "name": "",
          "type": "uint256"
        }
      ],
      "stateMutability": "view",
      "type": "function",
      "constant": true
    },
    {
      "inputs": [],
      "name": "baseURI",
      "outputs": [
        {
          "internalType": "string",
          "name": "",
          "type": "string"
        }
      ],
      "stateMutability": "view",
      "type": "function",
      "constant": true
    },
    {
      "inputs": [
        {
          "internalType": "uint256",
          "name": "tokenId",
          "type": "uint256"
        }
      ],
      "name": "getApproved",
      "outputs": [
        {
          "internalType": "address",
          "name": "",
          "type": "address"
        }
      ],
      "stateMutability": "view",
      "type": "function",
      "constant": true
    },
    {
      "inputs": [
        {
          "internalType": "address",
          "name": "owner",
          "type": "address"
        },
        {
          "internalType": "address",
          "name": "operator",
          "type": "address"
        }
      ],
      "name": "isApprovedForAll",
      "outputs": [
        {
          "internalType": "bool",
          "name": "",
          "type": "bool"
        }
      ],
      "stateMutability": "view",
      "type": "function",
      "constant": true
    },
    {
      "inputs": [],
      "name": "name",
      "outputs": [
        {
          "internalType": "string",
          "name": "",
          "type": "string"
        }
      ],
      "stateMutability": "view",
      "type": "function",
      "constant": true
    },
    {
      "inputs": [
        {
          "internalType": "uint256",
          "name": "tokenId",
          "type": "uint256"
        }
      ],
      "name": "ownerOf",
      "outputs": [
        {
          "internalType": "address",
          "name": "",
          "type": "address"
        }
      ],
      "stateMutability": "view",
      "type": "function",
      "constant": true
    },
    {
      "inputs": [
        {
          "internalType": "address",
          "name": "from",
          "type": "address"
        },
        {
          "internalType": "address",
          "name": "to",
          "type": "address"
        },
        {
          "internalType": "uint256",
          "name": "tokenId",
          "type": "uint256"
        }
      ],
      "name": "safeTransferFrom",
      "outputs": [],
      "stateMutability": "nonpayable",
      "type": "function"
    },
    {
      "inputs": [
        {
          "internalType": "address",
          "name": "from",
          "type": "address"
        },
        {
          "internalType": "address",
          "name": "to",
          "type": "address"
        },
        {
          "internalType": "uint256",
          "name": "tokenId",
          "type": "uint256"
        },
        {
          "internalType": "bytes",
          "name": "_data",
          "type": "bytes"
        }
      ],
      "name": "safeTransferFrom",
      "outputs": [],
      "stateMutability": "nonpayable",
      "type": "function"
    },
    {
      "inputs": [
        {
          "internalType": "address",
          "name": "operator",
          "type": "address"
        },
        {
          "internalType": "bool",
          "name": "approved",
          "type": "bool"
        }
      ],
      "name": "setApprovalForAll",
      "outputs": [],
      "stateMutability": "nonpayable",
      "type": "function"
    },
    {
      "inputs": [
        {
          "internalType": "bytes4",
          "name": "interfaceId",
          "type": "bytes4"
        }
      ],
      "name": "supportsInterface",
      "outputs": [
        {
          "internalType": "bool",
          "name": "",
          "type": "bool"
        }
      ],
      "stateMutability": "view",
      "type": "function",
      "constant": true
    },
    {
      "inputs": [],
      "name": "symbol",
      "outputs": [
        {
          "internalType": "string",
          "name": "",
          "type": "string"
        }
      ],
      "stateMutability": "view",
      "type": "function",
      "constant": true
    },
    {
      "inputs": [
        {
          "internalType": "uint256",
          "name": "index",
          "type": "uint256"
        }
      ],
      "name": "tokenByIndex",
      "outputs": [
        {
          "internalType": "uint256",
          "name": "",
          "type": "uint256"
        }
      ],
      "stateMutability": "view",
      "type": "function",
      "constant": true
    },
    {
      "inputs": [
        {
          "internalType": "address",
          "name": "owner",
          "type": "address"
        },
        {
          "internalType": "uint256",
          "name": "index",
          "type": "uint256"
        }
      ],
      "name": "tokenOfOwnerByIndex",
      "outputs": [
        {
          "internalType": "uint256",
          "name": "",
          "type": "uint256"
        }
      ],
      "stateMutability": "view",
      "type": "function",
      "constant": true
    },
    {
      "inputs": [],
      "name": "totalSupply",
      "outputs": [
        {
          "internalType": "uint256",
          "name": "",
          "type": "uint256"
        }
      ],
      "stateMutability": "view",
      "type": "function",
      "constant": true
    },
    {
      "inputs": [
        {
          "internalType": "address",
          "name": "from",
          "type": "address"
        },
        {
          "internalType": "address",
          "name": "to",
          "type": "address"
        },
        {
          "internalType": "uint256",
          "name": "tokenId",
          "type": "uint256"
        }
      ],
      "name": "transferFrom",
      "outputs": [],
      "stateMutability": "nonpayable",
      "type": "function"
    },
    {
      "inputs": [
        {
          "internalType": "uint256",
          "name": "_mintFee",
          "type": "uint256"
        }
      ],
      "name": "setMintFee",
      "outputs": [],
      "stateMutability": "nonpayable",
      "type": "function"
    },
    {
      "inputs": [
        {
          "internalType": "address",
          "name": "_treasuryAddress",
          "type": "address"
        }
      ],
      "name": "setTreasuryAddress",
      "outputs": [],
      "stateMutability": "nonpayable",
      "type": "function"
    },
    {
      "inputs": [
        {
          "internalType": "uint256",
          "name": "tokenId",
          "type": "uint256"
        }
      ],
      "name": "getPackedBalance",
      "outputs": [
        {
          "internalType": "uint256",
          "name": "",
          "type": "uint256"
        }
      ],
      "stateMutability": "view",
      "type": "function",
      "constant": true
    },
    {
      "inputs": [
        {
          "internalType": "address",
          "name": "from",
          "type": "address"
        },
        {
          "internalType": "uint256",
          "name": "tokenId",
          "type": "uint256"
        },
        {
          "internalType": "uint256",
          "name": "amount",
          "type": "uint256"
        }
      ],
      "name": "pack",
      "outputs": [],
      "stateMutability": "nonpayable",
      "type": "function"
    },
    {
      "inputs": [
        {
          "internalType": "address",
          "name": "to",
          "type": "address"
        },
        {
          "internalType": "uint256",
          "name": "tokenId",
          "type": "uint256"
        },
        {
          "internalType": "uint256",
          "name": "amount",
          "type": "uint256"
        }
      ],
      "name": "unpack",
      "outputs": [],
      "stateMutability": "nonpayable",
      "type": "function"
    },
    {
      "inputs": [
        {
          "internalType": "address",
          "name": "to",
          "type": "address"
        },
        {
          "internalType": "string",
          "name": "hash",
          "type": "string"
        },
        {
          "internalType": "string",
          "name": "name",
          "type": "string"
        },
        {
          "internalType": "string",
          "name": "ext",
          "type": "string"
        },
        {
          "internalType": "string",
          "name": "description",
          "type": "string"
        },
        {
          "internalType": "uint256",
          "name": "count",
          "type": "uint256"
        }
      ],
      "name": "mint",
      "outputs": [],
      "stateMutability": "nonpayable",
      "type": "function"
    },
    {
      "inputs": [
        {
          "internalType": "address",
          "name": "to",
          "type": "address"
        },
        {
          "internalType": "string",
          "name": "hash",
          "type": "string"
        }
      ],
      "name": "mintSingle",
      "outputs": [],
      "stateMutability": "nonpayable",
      "type": "function"
    },
    {
      "inputs": [
        {
          "internalType": "uint256",
          "name": "tokenId",
          "type": "uint256"
        }
      ],
      "name": "getMinter",
      "outputs": [
        {
          "internalType": "address",
          "name": "",
          "type": "address"
        }
      ],
      "stateMutability": "view",
      "type": "function",
      "constant": true
    },
    {
      "inputs": [
        {
          "internalType": "address",
          "name": "to",
          "type": "address"
        },
        {
          "internalType": "uint256",
          "name": "tokenId",
          "type": "uint256"
        }
      ],
      "name": "mintTokenId",
      "outputs": [],
      "stateMutability": "nonpayable",
      "type": "function"
    },
    {
      "inputs": [
        {
          "internalType": "string",
          "name": "baseURI_",
          "type": "string"
        }
      ],
      "name": "setBaseURI",
      "outputs": [],
      "stateMutability": "nonpayable",
      "type": "function"
    },
    {
      "inputs": [
        {
          "internalType": "uint256",
          "name": "tokenId",
          "type": "uint256"
        }
      ],
      "name": "tokenURI",
      "outputs": [
        {
          "internalType": "string",
          "name": "",
          "type": "string"
        }
      ],
      "stateMutability": "view",
      "type": "function",
      "constant": true
    },
    {
      "inputs": [
        {
          "internalType": "uint256",
          "name": "tokenId",
          "type": "uint256"
        }
      ],
      "name": "tokenExists",
      "outputs": [
        {
          "internalType": "bool",
          "name": "",
          "type": "bool"
        }
      ],
      "stateMutability": "view",
      "type": "function",
      "constant": true
    },
    {
      "inputs": [
        {
          "internalType": "address",
          "name": "a",
          "type": "address"
        }
      ],
      "name": "isAllowedMinter",
      "outputs": [
        {
          "internalType": "bool",
          "name": "",
          "type": "bool"
        }
      ],
      "stateMutability": "view",
      "type": "function",
      "constant": true
    },
    {
      "inputs": [
        {
          "internalType": "address",
          "name": "a",
          "type": "address"
        }
      ],
      "name": "addAllowedMinter",
      "outputs": [],
      "stateMutability": "nonpayable",
      "type": "function"
    },
    {
      "inputs": [
        {
          "internalType": "address",
          "name": "a",
          "type": "address"
        }
      ],
      "name": "removeAllowedMinter",
      "outputs": [],
      "stateMutability": "nonpayable",
      "type": "function"
    },
    {
      "inputs": [
        {
          "internalType": "string",
          "name": "hash",
          "type": "string"
        },
        {
          "internalType": "address",
          "name": "a",
          "type": "address"
        }
      ],
      "name": "isCollaborator",
      "outputs": [
        {
          "internalType": "bool",
          "name": "",
          "type": "bool"
        }
      ],
      "stateMutability": "view",
      "type": "function",
      "constant": true
    },
    {
      "inputs": [
        {
          "internalType": "string",
          "name": "hash",
          "type": "string"
        }
      ],
      "name": "getCollaborators",
      "outputs": [
        {
          "internalType": "address[]",
          "name": "",
          "type": "address[]"
        }
      ],
      "stateMutability": "view",
      "type": "function",
      "constant": true
    },
    {
      "inputs": [
        {
          "internalType": "string",
          "name": "hash",
          "type": "string"
        },
        {
          "internalType": "address",
          "name": "a",
          "type": "address"
        }
      ],
      "name": "addCollaborator",
      "outputs": [],
      "stateMutability": "nonpayable",
      "type": "function"
    },
    {
      "inputs": [
        {
          "internalType": "string",
          "name": "hash",
          "type": "string"
        },
        {
          "internalType": "address",
          "name": "a",
          "type": "address"
        }
      ],
      "name": "removeCollaborator",
      "outputs": [],
      "stateMutability": "nonpayable",
      "type": "function"
    },
    {
      "inputs": [
        {
          "internalType": "uint256",
          "name": "tokenId",
          "type": "uint256"
        },
        {
          "internalType": "address",
          "name": "a",
          "type": "address"
        }
      ],
      "name": "isSingleCollaborator",
      "outputs": [
        {
          "internalType": "bool",
          "name": "",
          "type": "bool"
        }
      ],
      "stateMutability": "view",
      "type": "function",
      "constant": true
    },
    {
      "inputs": [
        {
          "internalType": "uint256",
          "name": "tokenId",
          "type": "uint256"
        }
      ],
      "name": "getSingleCollaborators",
      "outputs": [
        {
          "internalType": "address[]",
          "name": "",
          "type": "address[]"
        }
      ],
      "stateMutability": "view",
      "type": "function",
      "constant": true
    },
    {
      "inputs": [
        {
          "internalType": "uint256",
          "name": "tokenId",
          "type": "uint256"
        },
        {
          "internalType": "address",
          "name": "a",
          "type": "address"
        }
      ],
      "name": "addSingleCollaborator",
      "outputs": [],
      "stateMutability": "nonpayable",
      "type": "function"
    },
    {
      "inputs": [
        {
          "internalType": "uint256",
          "name": "tokenId",
          "type": "uint256"
        },
        {
          "internalType": "address",
          "name": "a",
          "type": "address"
        }
      ],
      "name": "removeSingleCollaborator",
      "outputs": [],
      "stateMutability": "nonpayable",
      "type": "function"
    },
    {
      "inputs": [
        {
          "internalType": "string",
          "name": "hash",
          "type": "string"
        }
      ],
      "name": "seal",
      "outputs": [],
      "stateMutability": "nonpayable",
      "type": "function"
    },
    {
      "inputs": [
        {
          "internalType": "uint256",
          "name": "tokenId",
          "type": "uint256"
        }
      ],
      "name": "getHash",
      "outputs": [
        {
          "internalType": "string",
          "name": "",
          "type": "string"
        }
      ],
      "stateMutability": "view",
      "type": "function",
      "constant": true
    },
    {
      "inputs": [
        {
          "internalType": "address",
          "name": "owner",
          "type": "address"
        },
        {
          "internalType": "string",
          "name": "hash",
          "type": "string"
        }
      ],
      "name": "balanceOfHash",
      "outputs": [
        {
          "internalType": "uint256",
          "name": "",
          "type": "uint256"
        }
      ],
      "stateMutability": "view",
      "type": "function",
      "constant": true
    },
    {
      "inputs": [
        {
          "internalType": "string",
          "name": "hash",
          "type": "string"
        }
      ],
      "name": "startTokenIdOfHash",
      "outputs": [
        {
          "internalType": "uint256",
          "name": "",
          "type": "uint256"
        }
      ],
      "stateMutability": "view",
      "type": "function",
      "constant": true
    },
    {
      "inputs": [
        {
          "internalType": "string",
          "name": "hash",
          "type": "string"
        }
      ],
      "name": "totalSupplyOfHash",
      "outputs": [
        {
          "internalType": "uint256",
          "name": "",
          "type": "uint256"
        }
      ],
      "stateMutability": "view",
      "type": "function",
      "constant": true
    },
    {
      "inputs": [
        {
          "internalType": "address",
          "name": "owner",
          "type": "address"
        }
      ],
      "name": "getTokenIdsOf",
      "outputs": [
        {
          "internalType": "uint256[]",
          "name": "",
          "type": "uint256[]"
        }
      ],
      "stateMutability": "view",
      "type": "function",
      "constant": true
    },
    {
      "inputs": [
        {
          "internalType": "uint256",
          "name": "tokenId",
          "type": "uint256"
        }
      ],
      "name": "tokenByIdFull",
      "outputs": [
        {
          "components": [
            {
              "internalType": "uint256",
              "name": "id",
              "type": "uint256"
            },
            {
              "internalType": "string",
              "name": "hash",
              "type": "string"
            },
            {
              "internalType": "string",
              "name": "name",
              "type": "string"
            },
            {
              "internalType": "string",
              "name": "ext",
              "type": "string"
            },
            {
              "internalType": "address",
              "name": "minter",
              "type": "address"
            },
            {
              "internalType": "address",
              "name": "owner",
              "type": "address"
            },
            {
              "internalType": "uint256",
              "name": "balance",
              "type": "uint256"
            },
            {
              "internalType": "uint256",
              "name": "totalSupply",
              "type": "uint256"
            }
          ],
          "internalType": "struct WebaverseERC721.Token",
          "name": "",
          "type": "tuple"
        }
      ],
      "stateMutability": "view",
      "type": "function",
      "constant": true
    },
    {
      "inputs": [
        {
          "internalType": "address",
          "name": "owner",
          "type": "address"
        },
        {
          "internalType": "uint256",
          "name": "index",
          "type": "uint256"
        }
      ],
      "name": "tokenOfOwnerByIndexFull",
      "outputs": [
        {
          "components": [
            {
              "internalType": "uint256",
              "name": "id",
              "type": "uint256"
            },
            {
              "internalType": "string",
              "name": "hash",
              "type": "string"
            },
            {
              "internalType": "string",
              "name": "name",
              "type": "string"
            },
            {
              "internalType": "string",
              "name": "ext",
              "type": "string"
            },
            {
              "internalType": "address",
              "name": "minter",
              "type": "address"
            },
            {
              "internalType": "address",
              "name": "owner",
              "type": "address"
            },
            {
              "internalType": "uint256",
              "name": "balance",
              "type": "uint256"
            },
            {
              "internalType": "uint256",
              "name": "totalSupply",
              "type": "uint256"
            }
          ],
          "internalType": "struct WebaverseERC721.Token",
          "name": "",
          "type": "tuple"
        }
      ],
      "stateMutability": "view",
      "type": "function",
      "constant": true
    },
    {
      "inputs": [
        {
          "internalType": "string",
          "name": "hash",
          "type": "string"
        },
        {
          "internalType": "string",
          "name": "key",
          "type": "string"
        }
      ],
      "name": "getMetadata",
      "outputs": [
        {
          "internalType": "string",
          "name": "",
          "type": "string"
        }
      ],
      "stateMutability": "view",
      "type": "function",
      "constant": true
    },
    {
      "inputs": [
        {
          "internalType": "string",
          "name": "hash",
          "type": "string"
        },
        {
          "internalType": "string",
          "name": "key",
          "type": "string"
        },
        {
          "internalType": "string",
          "name": "value",
          "type": "string"
        }
      ],
      "name": "setMetadata",
      "outputs": [],
      "stateMutability": "nonpayable",
      "type": "function"
    },
    {
      "inputs": [
        {
          "internalType": "uint256",
          "name": "tokenId",
          "type": "uint256"
        },
        {
          "internalType": "string",
          "name": "key",
          "type": "string"
        }
      ],
      "name": "getSingleMetadata",
      "outputs": [
        {
          "internalType": "string",
          "name": "",
          "type": "string"
        }
      ],
      "stateMutability": "view",
      "type": "function",
      "constant": true
    },
    {
      "inputs": [
        {
          "internalType": "uint256",
          "name": "tokenId",
          "type": "uint256"
        },
        {
          "internalType": "string",
          "name": "key",
          "type": "string"
        },
        {
          "internalType": "string",
          "name": "value",
          "type": "string"
        }
      ],
      "name": "setSingleMetadata",
      "outputs": [],
      "stateMutability": "nonpayable",
      "type": "function"
    },
    {
      "inputs": [
        {
          "internalType": "string",
          "name": "oldHash",
          "type": "string"
        },
        {
          "internalType": "string",
          "name": "newHash",
          "type": "string"
        }
      ],
      "name": "updateHash",
      "outputs": [],
      "stateMutability": "nonpayable",
      "type": "function"
    }
  ],
  "bytecode": "0x60806040526000600e553480156200001657600080fd5b50604051620057c5380380620057c5833981016040819052620000399162000327565b87876200004d6301ffc9a760e01b62000141565b815162000062906006906020850190620001b5565b50805162000078906007906020840190620001b5565b506200008b6380ac58cd60e01b62000141565b6200009d635b5e139f60e01b62000141565b620000af63780e9d6360e01b62000141565b50620000bd9050866200019c565b600a80546001600160a01b03199081166001600160a01b0397881617909155600b94909455600c8054909416929094169190911760ff60a01b1916600160a01b911515919091021760ff60a81b1916600160a81b921515929092029190911790555050336000908152600d60205260409020805460ff191660011790555062000444565b6001600160e01b03198082161415620001775760405162461bcd60e51b81526004016200016e906200040d565b60405180910390fd5b6001600160e01b0319166000908152602081905260409020805460ff19166001179055565b8051620001b1906009906020840190620001b5565b5050565b828054600181600116156101000203166002900490600052602060002090601f016020900481019282601f10620001f857805160ff191683800117855562000228565b8280016001018555821562000228579182015b82811115620002285782518255916020019190600101906200020b565b50620002369291506200023a565b5090565b5b808211156200023657600081556001016200023b565b80516001600160a01b03811681146200026957600080fd5b92915050565b805180151581146200026957600080fd5b600082601f83011262000291578081fd5b81516001600160401b0380821115620002a8578283fd5b6040516020601f8401601f1916820181018381118382101715620002ca578586fd5b80604052508194508382528681858801011115620002e757600080fd5b600092505b838310156200030b5785830181015182840182015291820191620002ec565b838311156200031d5760008185840101525b5050505092915050565b600080600080600080600080610100898b03121562000344578384fd5b88516001600160401b03808211156200035b578586fd5b620003698c838d0162000280565b995060208b01519150808211156200037f578586fd5b6200038d8c838d0162000280565b985060408b0151915080821115620003a3578586fd5b50620003b28b828c0162000280565b965050620003c48a60608b0162000251565b945060808901519350620003dc8a60a08b0162000251565b9250620003ed8a60c08b016200026f565b9150620003fe8a60e08b016200026f565b90509295985092959890939650565b6020808252601c908201527f4552433136353a20696e76616c696420696e7465726661636520696400000000604082015260600190565b61537180620004546000396000f3fe608060405234801561001057600080fd5b506004361061034b5760003560e01c80635b7121f8116101bd57806395d89b41116100f9578063c87b56dd116100a2578063eacc4c6e1161007c578063eacc4c6e1461071a578063eddd0d9c1461072d578063ef3c198f14610740578063f2f2cf21146107535761034b565b8063c87b56dd146106e1578063d96d6b3c146106f4578063e985e9c5146107075761034b565b8063b88d4fde116100d3578063b88d4fde146106a8578063bad39b96146106bb578063be000767146106ce5761034b565b806395d89b411461067a578063a22cb46514610682578063a9414a27146106955761034b565b80636c0360eb116101665780637dc824f9116101405780637dc824f914610621578063831013ba1461064157806387439e5914610654578063953e5880146106675761034b565b80636c0360eb146105f357806370a08231146105fb57806377bb26d01461060e5761034b565b80636352211e116101975780636352211e146105ba5780636605bfda146105cd5780636b2fafa9146105e05761034b565b80635b7121f8146105815780635d91407c1461059457806362f46d15146105a75761034b565b80631f3b4c901161028c57806342842e0e116102355780634dfa54d71161020f5780634dfa54d7146105285780634f6ccce71461053b5780635324f9aa1461054e57806355f804b31461056e5761034b565b806342842e0e146104ef578063488603df146105025780634ca9a979146105155761034b565b806332761d161161026657806332761d16146104b65780633a0b1f8e146104c95780633e68d630146104dc5761034b565b80631f3b4c901461047d57806323b872dd146104905780632f745c59146104a35761034b565b8063091638ec116102f95780630d9cc275116102d35780630d9cc2751461042f578063144b09191461044257806318160ddd146104555780631de702891461046a5761034b565b8063091638ec146103f6578063095ea7b3146104095780630c9fe5271461041c5761034b565b8063076c88a21161032a578063076c88a2146103a1578063081812fc146103c15780630890d80c146103e15761034b565b8062923f9e1461035057806301ffc9a71461037957806306fdde031461038c575b600080fd5b61036361035e36600461437b565b610766565b6040516103709190614648565b60405180910390f35b6103636103873660046141f1565b610777565b6103946107ae565b6040516103709190614653565b6103b46103af366004614178565b610844565b604051610370919061516c565b6103d46103cf36600461437b565b610ae2565b6040516103709190614536565b6103f46103ef3660046142f7565b610b2e565b005b6103f4610404366004614393565b610d6e565b6103f4610417366004614178565b610e54565b6103b461042a36600461437b565b610eec565b6103f461043d366004614068565b61118c565b61036361045036600461425c565b6113d3565b61045d611468565b6040516103709190615218565b6103f46104783660046141a2565b611479565b61036361048b366004613f3a565b6115bc565b6103f461049e366004613f89565b6115da565b61045d6104b1366004614178565b611612565b6103f46104c4366004614178565b61163b565b6103f46104d73660046143e5565b61166e565b61045d6104ea36600461437b565b6117e2565b6103f46104fd366004613f89565b6117f4565b6103f4610510366004613f3a565b61180f565b6103f46105233660046142a0565b61186b565b610363610536366004614393565b611b69565b61045d61054936600461437b565b611bd6565b61056161055c366004613f3a565b611bec565b6040516103709190614610565b6103f461057c366004614229565b611c75565b6103d461058f36600461437b565b611cb0565b6103f46105a23660046141a2565b611ccb565b6103f46105b53660046140b6565b611d50565b6103d46105c836600461437b565b6121d5565b6103f46105db366004613f3a565b6121fd565b6103946105ee36600461437b565b612249565b6103946122ea565b61045d610609366004613f3a565b61234b565b61045d61061c366004614068565b612394565b61063461062f366004614229565b612484565b60405161037091906145c3565b61039461064f3660046142a0565b612500565b61045d610662366004614229565b6126f5565b61045d610675366004614229565b61271d565b61039461272f565b6103f4610690366004614031565b612790565b6106346106a336600461437b565b61285e565b6103f46106b6366004613fc9565b6128d3565b6103f46106c9366004613f3a565b612912565b6103f46106dc36600461425c565b61297d565b6103946106ef36600461437b565b612bbf565b6103f461070236600461425c565b612e11565b610363610715366004613f55565b612ed9565b6103946107283660046143b6565b612f07565b6103f461073b36600461437b565b612f68565b6103f461074e366004614229565b612f97565b6103f4610761366004614393565b612fe7565b6000610771826131ea565b92915050565b7fffffffff000000000000000000000000000000000000000000000000000000001660009081526020819052604090205460ff1690565b60068054604080516020601f600260001961010060018816150201909516949094049384018190048102820181019092528281526060939092909183018282801561083a5780601f1061080f5761010080835404028352916020019161083a565b820191906000526020600020905b81548152906001019060200180831161081d57829003601f168201915b5050505050905090565b61084c613b39565b60006108588484611612565b90506060806060600c60149054906101000a900460ff16156109625761089a84604051806040016040528060048152602001630d0c2e6d60e31b815250612f07565b6000858152600f60209081526040918290208054835160026001831615610100026000190190921691909104601f8101849004840282018401909452838152939650919083018282801561092f5780601f106109045761010080835404028352916020019161092f565b820191906000526020600020905b81548152906001019060200180831161091257829003601f168201915b5050505050915061095b8460405180604001604052806003815260200162195e1d60ea1b815250612f07565b9050610a4c565b6000848152600f602090815260409182902080548351601f6002600019610100600186161502019093169290920491820184900484028101840190945280845290918301828280156109f55780601f106109ca576101008083540402835291602001916109f5565b820191906000526020600020905b8154815290600101906020018083116109d857829003601f168201915b50505050509250610a2283604051806040016040528060048152602001636e616d6560e01b815250612500565b9150610a498360405180604001604052806003815260200162195e1d60ea1b815250612500565b90505b6000848152601560205260408120546001600160a01b031690610a6f8986612394565b90506000601186604051610a839190614450565b90815260408051918290036020908101832054610100840183529983528201979097529586019490945260608501929092526001600160a01b039081166080850152871660a084015260c08301525060e0810191909152905092915050565b6000610aed826131ea565b610b125760405162461bcd60e51b8152600401610b0990614cf2565b60405180910390fd5b506000908152600460205260409020546001600160a01b031690565b610b3883336113d3565b610b545760405162461bcd60e51b8152600401610b0990615059565b6000805b601285604051610b689190614450565b90815260405190819003602001902054811015610cae57610c49601286604051610b929190614450565b90815260200160405180910390208281548110610bab57fe5b60009182526020918290206002918202018054604080516001831615610100026000190190921693909304601f810185900485028201850190935282815292909190830182828015610c3e5780601f10610c1357610100808354040283529160200191610c3e565b820191906000526020600020905b815481529060010190602001808311610c2157829003601f168201915b5050505050856131f7565b15610ca65782601286604051610c5f9190614450565b90815260200160405180910390208281548110610c7857fe5b90600052602060002090600202016001019080519060200190610c9c929190613b90565b5060019150610cae565b600101610b58565b5080610d2d57601284604051610cc49190614450565b908152604080519182900360209081018320838301909252858352828101859052815460018101835560009283529181902083518051600290940290910192610d109284920190613b90565b506020828101518051610d299260018501920190613b90565b5050505b7f8377145d9399028a063fdd9af215c1354b18cba9fe8763d27fcd8e424e01af97848484604051610d60939291906146bf565b60405180910390a150505050565b806001600160a01b0316610d81836121d5565b6001600160a01b03161480610d9b5750610d9b8233611b69565b610db75760405162461bcd60e51b8152600401610b0990614918565b610dc18282611b69565b15610dde5760405162461bcd60e51b8152600401610b0990614dac565b60008281526017602090815260408083208054600181018255908452919092200180546001600160a01b0319166001600160a01b038416179055517fc1c1f84384399f78c9cd92d4842fcb9aa007bc1753851b0332aef470499682a590610e489084908490615221565b60405180910390a15050565b6000610e5f826121d5565b9050806001600160a01b0316836001600160a01b03161415610e935760405162461bcd60e51b8152600401610b0990614ed4565b806001600160a01b0316610ea5613250565b6001600160a01b03161480610ec15750610ec181610715613250565b610edd5760405162461bcd60e51b8152600401610b0990614ae5565b610ee78383613254565b505050565b610ef4613b39565b6060806060600c60149054906101000a900460ff1615610ffc57610f3485604051806040016040528060048152602001630d0c2e6d60e31b815250612f07565b6000868152600f60209081526040918290208054835160026001831615610100026000190190921691909104601f81018490048402820184019094528381529396509190830182828015610fc95780601f10610f9e57610100808354040283529160200191610fc9565b820191906000526020600020905b815481529060010190602001808311610fac57829003601f168201915b50505050509150610ff58560405180604001604052806003815260200162195e1d60ea1b815250612f07565b90506110e6565b6000858152600f602090815260409182902080548351601f60026000196101006001861615020190931692909204918201849004840281018401909452808452909183018282801561108f5780601f106110645761010080835404028352916020019161108f565b820191906000526020600020905b81548152906001019060200180831161107257829003601f168201915b505050505092506110bc83604051806040016040528060048152602001636e616d6560e01b815250612500565b91506110e38360405180604001604052806003815260200162195e1d60ea1b815250612500565b90505b6000858152601560205260408120546001600160a01b031690611108876131ea565b61111357600061111c565b61111c876121d5565b905060006011866040516111309190614450565b908152604080516020928190038301812054610100820183529a8152918201979097529586019490945260608501929092526001600160a01b0390811660808501521660a083015250600060c082015260e08101929092525090565b600c5474010000000000000000000000000000000000000000900460ff166111c65760405162461bcd60e51b8152600401610b0990614805565b600c547501000000000000000000000000000000000000000000900460ff16806111f457506111f4336115bc565b6112105760405162461bcd60e51b8152600401610b09906150c7565b6011816040516112209190614450565b90815260200160405180910390205460001461124e5760405162461bcd60e51b8152600401610b0990614bb0565b600b54156112ff57600a54600c54600b546040516323b872dd60e01b81526001600160a01b03938416936323b872dd93611291933393929091169160040161454a565b602060405180830381600087803b1580156112ab57600080fd5b505af11580156112bf573d6000803e3d6000fd5b505050506040513d601f19601f820116820180604052508101906112e391906141d5565b6112ff5760405162461bcd60e51b8152600401610b0990614a77565b61130c600e5460016132c2565b600e81905561131b83826132e7565b600081815260156020908152604080832080546001600160a01b0319166001600160a01b038816179055600f8252909120835161135a92850190613b90565b50600160118360405161136d9190614450565b90815260200160405180910390208190555060138260405161138f9190614450565b90815260405160209181900382019020805460018101825560009182529190200180546001600160a01b0319166001600160a01b0394909416939093179092555050565b6000805b6013846040516113e79190614450565b9081526040519081900360200190205481101561145e57826001600160a01b03166013856040516114189190614450565b9081526020016040518091039020828154811061143157fe5b6000918252602090912001546001600160a01b03161415611456576001915050610771565b6001016113d7565b5060009392505050565b600061147460026133ab565b905090565b33611483836121d5565b6001600160a01b0316146114a95760405162461bcd60e51b8152600401610b0990614b79565b6000828152601460205260409020548111156114d75760405162461bcd60e51b8152600401610b0990614e9d565b6000828152601460205260409020546114f090826133b6565b6000838152601460205260409081902091909155600a5490517fa9059cbb0000000000000000000000000000000000000000000000000000000081526001600160a01b039091169063a9059cbb9061154e90869085906004016145aa565b602060405180830381600087803b15801561156857600080fd5b505af115801561157c573d6000803e3d6000fd5b505050506040513d601f19601f820116820180604052508101906115a091906141d5565b610ee75760405162461bcd60e51b8152600401610b0990615090565b6001600160a01b03166000908152600d602052604090205460ff1690565b6115eb6115e5613250565b826133f8565b6116075760405162461bcd60e51b8152600401610b0990614fc5565b610ee783838361347d565b6001600160a01b0382166000908152600160205260408120611634908361358b565b9392505050565b611644336115bc565b6116605760405162461bcd60e51b8152600401610b0990614b42565b61166a82826132e7565b5050565b33611678846121d5565b6001600160a01b0316148061169257506116928333611b69565b6116ae5760405162461bcd60e51b8152600401610b099061483c565b6000805b60008581526016602052604090205481101561173f57600085815260166020526040902080546116e7919083908110610bab57fe5b1561173757600085815260166020526040902080548491908390811061170957fe5b9060005260206000209060020201600101908051906020019061172d929190613b90565b506001915061173f565b6001016116b2565b50806117af57600084815260166020908152604080832081518083019092528682528183018690528054600181018255908452928290208151805192946002029091019261179292849290910190613b90565b5060208281015180516117ab9260018501920190613b90565b5050505b7fb8814a4649a63613b0ae2f7d5f71b3771676c2eba17542b79a2a6d5c19d4af3c848484604051610d6093929190615238565b60009081526014602052604090205490565b610ee7838383604051806020016040528060008152506128d3565b611818336115bc565b61182157600080fd5b61182a816115bc565b156118475760405162461bcd60e51b8152600401610b09906146f8565b6001600160a01b03166000908152600d60205260409020805460ff19166001179055565b600060118360405161187d9190614450565b908152602001604051809103902054116118a95760405162461bcd60e51b8152600401610b0990615135565b6011816040516118b99190614450565b9081526020016040518091039020546000146118e75760405162461bcd60e51b8152600401610b0990614771565b6118f182336113d3565b61190d5760405162461bcd60e51b8152600401610b0990615059565b600060108360405161191f9190614450565b908152602001604051809103902054905060006011846040516119429190614450565b908152602001604051809103902054905060005b81811015611989578281016000908152600f60209081526040909120855161198092870190613b90565b50600101611956565b5060108460405161199a9190614450565b9081526020016040518091039020546010846040516119b99190614450565b9081526020016040518091039020819055506011846040516119db9190614450565b9081526020016040518091039020546011846040516119fa9190614450565b908152602001604051809103902081905550601284604051611a1c9190614450565b9081526020016040518091039020601284604051611a3a9190614450565b9081526040519081900360200190208154611a559290613c0e565b50601384604051611a669190614450565b9081526020016040518091039020601384604051611a849190614450565b9081526040519081900360200190208154611a9f9290613cad565b50601084604051611ab09190614450565b908152602001604051809103902060009055601184604051611ad29190614450565b908152602001604051809103902060009055601284604051611af49190614450565b90815260200160405180910390206000611b0e9190613cf9565b601384604051611b1e9190614450565b90815260200160405180910390206000611b389190613d1a565b7f224afc3822d8f8365592e22aa470e6da5a347b5c09d399fe8111fcad70c3040d8484604051610d60929190614691565b6000805b60008481526017602052604090205481101561145e57600084815260176020526040902080546001600160a01b038516919083908110611ba957fe5b6000918252602090912001546001600160a01b03161415611bce576001915050610771565b600101611b6d565b600080611be4600284613597565b509392505050565b60606000611bf98361234b565b905060608167ffffffffffffffff81118015611c1457600080fd5b50604051908082528060200260200182016040528015611c3e578160200160208202803683370190505b50905060005b82811015611be457611c568582611612565b828281518110611c6257fe5b6020908102919091010152600101611c44565b336000908152600d602052604090205460ff16611ca45760405162461bcd60e51b8152600401610b0990614f68565b611cad816135b3565b50565b6000908152601560205260409020546001600160a01b031690565b611cd4826131ea565b611cf05760405162461bcd60e51b8152600401610b0990614cbb565b600082815260146020526040902054611d0990826132c2565b6000838152601460205260409081902091909155600a5490516323b872dd60e01b81526001600160a01b03909116906323b872dd9061154e9086903090869060040161454a565b600c5474010000000000000000000000000000000000000000900460ff1615611d8b5760405162461bcd60e51b8152600401610b0990614805565b600c547501000000000000000000000000000000000000000000900460ff1680611db95750611db9336115bc565b611dd55760405162461bcd60e51b8152600401610b09906150c7565b6000855111611df65760405162461bcd60e51b8152600401610b09906149ac565b60008111611e165760405162461bcd60e51b8152600401610b0990614f31565b601185604051611e269190614450565b908152602001604051809103902054600014611e545760405162461bcd60e51b8152600401610b0990614bb0565b600b5415611f0557600a54600c54600b546040516323b872dd60e01b81526001600160a01b03938416936323b872dd93611e97933393929091169160040161454a565b602060405180830381600087803b158015611eb157600080fd5b505af1158015611ec5573d6000803e3d6000fd5b505050506040513d601f19601f82011682018060405250810190611ee991906141d5565b611f055760405162461bcd60e51b8152600401610b0990614a77565b600e54600101601086604051611f1b9190614450565b9081526040519081900360200190205560005b81811015611f9b57611f43600e5460016132c2565b600e819055611f5288826132e7565b600081815260156020908152604080832080546001600160a01b0319166001600160a01b038d16179055600f82529091208851611f91928a0190613b90565b5050600101611f2e565b81601187604051611fac9190614450565b908152602001604051809103902081905550601286604051611fce9190614450565b9081526040805191829003602090810183206080840183526004928401928352636e616d6560e01b606085015291835282810188905281546001810183556000928352918190208351805160029094029091019261202f9284920190613b90565b5060208281015180516120489260018501920190613b90565b50505060128660405161205b9190614450565b908152604080519182900360209081018320608084018352600392840192835262195e1d60ea1b60608501529183528281018790528154600181018355600092835291819020835180516002909402909101926120bb9284920190613b90565b5060208281015180516120d49260018501920190613b90565b5050506012866040516120e79190614450565b908152604080519182900360209081018320608084018352600b9284019283527f6465736372697074696f6e00000000000000000000000000000000000000000060608501529183528281018690528154600181018355600092835291819020835180516002909402909101926121619284920190613b90565b50602082810151805161217a9260018501920190613b90565b50505060138660405161218d9190614450565b90815260405160209181900382019020805460018101825560009182529190200180546001600160a01b0319166001600160a01b039890981697909717909655505050505050565b60006107718260405180606001604052806029815260200161531360299139600291906135c6565b600c546001600160a01b031633146122275760405162461bcd60e51b8152600401610b0990614d4f565b600c80546001600160a01b0319166001600160a01b0392909216919091179055565b6000818152600f602090815260409182902080548351601f60026000196101006001861615020190931692909204918201849004840281018401909452808452606093928301828280156122de5780601f106122b3576101008083540402835291602001916122de565b820191906000526020600020905b8154815290600101906020018083116122c157829003601f168201915b50505050509050919050565b60098054604080516020601f600260001961010060018816150201909516949094049384018190048102820181019092528281526060939092909183018282801561083a5780601f1061080f5761010080835404028352916020019161083a565b60006001600160a01b0382166123735760405162461bcd60e51b8152600401610b0990614be7565b6001600160a01b0382166000908152600160205260409020610771906133ab565b600080806123a18561234b565b905060005b8181101561247a5760006123ba8783611612565b6000818152600f602090815260409182902080548351601f6002600019610100600186161502019093169290920491820184900484028101840190945280845293945060609390918301828280156124535780601f1061242857610100808354040283529160200191612453565b820191906000526020600020905b81548152906001019060200180831161243657829003601f168201915b5050505050905061246481886131f7565b15612470576001909401935b50506001016123a6565b5090949350505050565b6060806013836040516124979190614450565b90815260408051918290036020908101832080548083028501830190935282845291908301828280156124f357602002820191906000526020600020905b81546001600160a01b031681526001909101906020018083116124d5575b5093979650505050505050565b606060005b6012846040516125159190614450565b908152604051908190036020019020548110156126de576125f660128560405161253f9190614450565b9081526020016040518091039020828154811061255857fe5b60009182526020918290206002918202018054604080516001831615610100026000190190921693909304601f8101859004850282018501909352828152929091908301828280156125eb5780601f106125c0576101008083540402835291602001916125eb565b820191906000526020600020905b8154815290600101906020018083116125ce57829003601f168201915b5050505050846131f7565b156126d65760128460405161260b9190614450565b9081526020016040518091039020818154811061262457fe5b90600052602060002090600202016001018054600181600116156101000203166002900480601f0160208091040260200160405190810160405280929190818152602001828054600181600116156101000203166002900480156126c95780601f1061269e576101008083540402835291602001916126c9565b820191906000526020600020905b8154815290600101906020018083116126ac57829003601f168201915b5050505050915050610771565b600101612505565b505060408051602081019091526000815292915050565b60006010826040516127079190614450565b9081526020016040518091039020549050919050565b60006011826040516127079190614450565b60078054604080516020601f600260001961010060018816150201909516949094049384018190048102820181019092528281526060939092909183018282801561083a5780601f1061080f5761010080835404028352916020019161083a565b612798613250565b6001600160a01b0316826001600160a01b031614156127c95760405162461bcd60e51b8152600401610b09906149e3565b80600560006127d6613250565b6001600160a01b03908116825260208083019390935260409182016000908120918716808252919093529120805460ff19169215159290921790915561281a613250565b6001600160a01b03167f17307eab39ab6107e8899845ad3d59bd9653f200f220920489ca2b5937696c31836040516128529190614648565b60405180910390a35050565b606080601760008481526020019081526020016000208054806020026020016040519081016040528092919081815260200182805480156124f3576020028201919060005260206000209081546001600160a01b031681526001909101906020018083116124d5575093979650505050505050565b6128e46128de613250565b836133f8565b6129005760405162461bcd60e51b8152600401610b0990614fc5565b61290c848484846135d3565b50505050565b61291b336115bc565b6129375760405162461bcd60e51b8152600401610b09906148e1565b612940816115bc565b61295c5760405162461bcd60e51b8152600401610b09906150fe565b6001600160a01b03166000908152600d60205260409020805460ff19169055565b61298782336113d3565b6129a35760405162461bcd60e51b8152600401610b0990614918565b6129ad82826113d3565b6129c95760405162461bcd60e51b8152600401610b0990614aae565b6000805b6013846040516129dd9190614450565b90815260405190819003602001902054811015612a5057826001600160a01b0316601385604051612a0e9190614450565b90815260200160405180910390208281548110612a2757fe5b6000918252602090912001546001600160a01b031614612a48576001909101905b6001016129cd565b5060608167ffffffffffffffff81118015612a6a57600080fd5b50604051908082528060200260200182016040528015612a94578160200160208202803683370190505b5090506000805b601386604051612aab9190614450565b90815260405190819003602001902054811015612b4b576000601387604051612ad49190614450565b90815260200160405180910390208281548110612aed57fe5b6000918252602090912001546001600160a01b03908116915086168114612b425780848480600101955081518110612b2157fe5b60200260200101906001600160a01b031690816001600160a01b0316815250505b50600101612a9b565b5081601386604051612b5d9190614450565b90815260200160405180910390209080519060200190612b7e929190613d38565b507f7cbd7674da80303c7b6afd3b887f8526ccc0831798caab0c197f61124d6c96ac8585604051612bb0929190614666565b60405180910390a15050505050565b6060612bca826131ea565b612be65760405162461bcd60e51b8152600401610b0990614e40565b6060806060600c60149054906101000a900460ff1615612cee57612c2685604051806040016040528060048152602001630d0c2e6d60e31b815250612f07565b6000868152600f60209081526040918290208054835160026001831615610100026000190190921691909104601f81018490048402820184019094528381529396509190830182828015612cbb5780601f10612c9057610100808354040283529160200191612cbb565b820191906000526020600020905b815481529060010190602001808311612c9e57829003601f168201915b50505050509150612ce78560405180604001604052806003815260200162195e1d60ea1b815250612f07565b9050612dd8565b6000858152600f602090815260409182902080548351601f600260001961010060018616150201909316929092049182018490048402810184019094528084529091830182828015612d815780601f10612d5657610100808354040283529160200191612d81565b820191906000526020600020905b815481529060010190602001808311612d6457829003601f168201915b50505050509250612dae83604051806040016040528060048152602001636e616d6560e01b815250612500565b9150612dd58360405180604001604052806003815260200162195e1d60ea1b815250612500565b90505b612de06122ea565b83838484604051602001612df895949392919061446c565b6040516020818303038152906040529350505050919050565b612e1b82336113d3565b612e375760405162461bcd60e51b8152600401610b0990614918565b612e4182826113d3565b15612e5e5760405162461bcd60e51b8152600401610b0990614dac565b601382604051612e6e9190614450565b908152604051602091819003820181208054600181018255600091825292902090910180546001600160a01b0319166001600160a01b0384161790557f25e67804eb6cd956b5bb6859b24d8ca506be678da2cb7547c5c5202dff58a3e890610e489084908490614666565b6001600160a01b03918216600090815260056020908152604080832093909416825291909152205460ff1690565b606060005b6000848152601660205260409020548110156126de5760008481526016602052604090208054612f4191908390811061255857fe5b15612f6057600084815260166020526040902080548290811061262457fe5b600101612f0c565b600c546001600160a01b03163314612f925760405162461bcd60e51b8152600401610b0990614d4f565b600b55565b612fa181336113d3565b612fbd5760405162461bcd60e51b8152600401610b0990615059565b601381604051612fcd9190614450565b90815260200160405180910390206000611cad9190613d1a565b806001600160a01b0316612ffa836121d5565b6001600160a01b0316148061301457506130148233611b69565b6130305760405162461bcd60e51b8152600401610b0990614918565b61303a8233611b69565b6130565760405162461bcd60e51b8152600401610b0990614aae565b6000805b6000848152601760205260409020548110156130bf57600084815260176020526040902080546001600160a01b03851691908390811061309657fe5b6000918252602090912001546001600160a01b0316146130b7576001909101905b60010161305a565b5060608167ffffffffffffffff811180156130d957600080fd5b50604051908082528060200260200182016040528015613103578160200160208202803683370190505b5090506000805b60008681526017602052604090205481101561319857600086815260176020526040812080548390811061313a57fe5b6000918252602090912001546001600160a01b0390811691508616811461318f578084848060010195508151811061316e57fe5b60200260200101906001600160a01b031690816001600160a01b0316815250505b5060010161310a565b50600085815260176020908152604090912083516131b892850190613d38565b507f5e87019aefb8c6abd6dfa22f886c1409dbc620a6c2c880e89e11529289362e7d8585604051612bb0929190615221565b6000610771600283613606565b60008160405160200161320a9190614450565b60405160208183030381529060405280519060200120836040516020016132319190614450565b6040516020818303038152906040528051906020012014905092915050565b3390565b600081815260046020526040902080546001600160a01b0319166001600160a01b0384169081179091558190613289826121d5565b6001600160a01b03167f8c5be1e5ebec7d5bd14f71427d1e84f3dd0314c0f7b2291e5b200ac8c7c3b92560405160405180910390a45050565b6000828201838110156116345760405162461bcd60e51b8152600401610b09906148aa565b6001600160a01b03821661330d5760405162461bcd60e51b8152600401610b0990614c86565b613316816131ea565b156133335760405162461bcd60e51b8152600401610b0990614873565b61333f60008383610ee7565b6001600160a01b03821660009081526001602052604090206133619082613612565b5061336e6002828461361e565b5060405181906001600160a01b038416906000907fddf252ad1be2c89b69c2b068fc378daa952ba7f163c4a11628f55a4df523b3ef908290a45050565b600061077182613634565b600061163483836040518060400160405280601e81526020017f536166654d6174683a207375627472616374696f6e206f766572666c6f770000815250613638565b6000613403826131ea565b61341f5760405162461bcd60e51b8152600401610b0990614a1a565b600061342a836121d5565b9050806001600160a01b0316846001600160a01b031614806134655750836001600160a01b031661345a84610ae2565b6001600160a01b0316145b8061347557506134758185612ed9565b949350505050565b826001600160a01b0316613490826121d5565b6001600160a01b0316146134b65760405162461bcd60e51b8152600401610b0990614de3565b6001600160a01b0382166134dc5760405162461bcd60e51b8152600401610b099061494f565b6134e7838383610ee7565b6134f2600082613254565b6001600160a01b03831660009081526001602052604090206135149082613664565b506001600160a01b03821660009081526001602052604090206135379082613612565b506135446002828461361e565b5080826001600160a01b0316846001600160a01b03167fddf252ad1be2c89b69c2b068fc378daa952ba7f163c4a11628f55a4df523b3ef60405160405180910390a4505050565b60006116348383613670565b60008080806135a686866136b5565b9097909650945050505050565b805161166a906009906020840190613b90565b6000613475848484613711565b6135de84848461347d565b6135ea84848484613770565b61290c5760405162461bcd60e51b8152600401610b09906147a8565b60006116348383613891565b600061163483836138a9565b600061347584846001600160a01b0385166138f3565b5490565b6000818484111561365c5760405162461bcd60e51b8152600401610b099190614653565b505050900390565b6000611634838361398a565b815460009082106136935760405162461bcd60e51b8152600401610b099061472f565b8260000182815481106136a257fe5b9060005260206000200154905092915050565b8154600090819083106136da5760405162461bcd60e51b8152600401610b0990614c44565b60008460000184815481106136eb57fe5b906000526020600020906002020190508060000154816001015492509250509250929050565b600082815260018401602052604081205482816137415760405162461bcd60e51b8152600401610b099190614653565b5084600001600182038154811061375457fe5b9060005260206000209060020201600101549150509392505050565b6000613784846001600160a01b0316613a50565b61379057506001613475565b6060613842630a85bd0160e11b6137a5613250565b8887876040516024016137bb949392919061456e565b604051602081830303815290604052907bffffffffffffffffffffffffffffffffffffffffffffffffffffffff19166020820180517bffffffffffffffffffffffffffffffffffffffffffffffffffffffff83818316178352505050506040518060600160405280603281526020016152e1603291396001600160a01b0388169190613a56565b905060008180602001905181019061385a919061420d565b7fffffffff0000000000000000000000000000000000000000000000000000000016630a85bd0160e11b1492505050949350505050565b60009081526001919091016020526040902054151590565b60006138b58383613891565b6138eb57508154600181810184556000848152602080822090930184905584548482528286019093526040902091909155610771565b506000610771565b600082815260018401602052604081205480613958575050604080518082018252838152602080820184815286546001818101895560008981528481209551600290930290950191825591519082015586548684528188019092529290912055611634565b8285600001600183038154811061396b57fe5b9060005260206000209060020201600101819055506000915050611634565b60008181526001830160205260408120548015613a4657835460001980830191908101906000908790839081106139bd57fe5b90600052602060002001549050808760000184815481106139da57fe5b600091825260208083209091019290925582815260018981019092526040902090840190558654879080613a0a57fe5b60019003818190600052602060002001600090559055866001016000878152602001908152602001600020600090556001945050505050610771565b6000915050610771565b3b151590565b6060613475848460008585613a6a85613a50565b613a865760405162461bcd60e51b8152600401610b0990615022565b60006060866001600160a01b03168587604051613aa39190614450565b60006040518083038185875af1925050503d8060008114613ae0576040519150601f19603f3d011682016040523d82523d6000602084013e613ae5565b606091505b5091509150613af5828286613b00565b979650505050505050565b60608315613b0f575081611634565b825115613b1f5782518084602001fd5b8160405162461bcd60e51b8152600401610b099190614653565b6040518061010001604052806000815260200160608152602001606081526020016060815260200160006001600160a01b0316815260200160006001600160a01b0316815260200160008152602001600081525090565b828054600181600116156101000203166002900490600052602060002090601f016020900481019282601f10613bd157805160ff1916838001178555613bfe565b82800160010185558215613bfe579182015b82811115613bfe578251825591602001919060010190613be3565b50613c0a929150613d8d565b5090565b828054828255906000526020600020906002028101928215613ca15760005260206000209160020282015b82811115613ca157825483908390613c67908290849060026000196101006001841615020190911604613da2565b5060018201816001019080546001816001161561010002031660029004613c8f929190613da2565b50505091600201919060020190613c39565b50613c0a929150613e17565b828054828255906000526020600020908101928215613ced5760005260206000209182015b82811115613ced578254825591600101919060010190613cd2565b50613c0a929150613e42565b5080546000825560020290600052602060002090810190611cad9190613e17565b5080546000825590600052602060002090810190611cad9190613d8d565b828054828255906000526020600020908101928215613ced579160200282015b82811115613ced57825182546001600160a01b0319166001600160a01b03909116178255602090920191600190910190613d58565b5b80821115613c0a5760008155600101613d8e565b828054600181600116156101000203166002900490600052602060002090601f016020900481019282601f10613ddb5780548555613bfe565b82800160010185558215613bfe57600052602060002091601f016020900482015b82811115613bfe578254825591600101919060010190613dfc565b80821115613c0a576000613e2b8282613e61565b613e39600183016000613e61565b50600201613e17565b5b80821115613c0a5780546001600160a01b0319168155600101613e43565b50805460018160011615610100020316600290046000825580601f10613e875750611cad565b601f016020900490600052602060002090810190611cad9190613d8d565b80356001600160a01b038116811461077157600080fd5b600082601f830112613ecc578081fd5b813567ffffffffffffffff80821115613ee3578283fd5b604051601f8301601f191681016020018281118282101715613f03578485fd5b604052828152925082848301602001861015613f1e57600080fd5b8260208601602083013760006020848301015250505092915050565b600060208284031215613f4b578081fd5b6116348383613ea5565b60008060408385031215613f67578081fd5b613f718484613ea5565b9150613f808460208501613ea5565b90509250929050565b600080600060608486031215613f9d578081fd5b8335613fa88161528f565b92506020840135613fb88161528f565b929592945050506040919091013590565b60008060008060808587031215613fde578081fd5b613fe88686613ea5565b9350613ff78660208701613ea5565b925060408501359150606085013567ffffffffffffffff811115614019578182fd5b61402587828801613ebc565b91505092959194509250565b60008060408385031215614043578182fd5b61404d8484613ea5565b9150602083013561405d816152a4565b809150509250929050565b6000806040838503121561407a578182fd5b82356140858161528f565b9150602083013567ffffffffffffffff8111156140a0578182fd5b6140ac85828601613ebc565b9150509250929050565b60008060008060008060c087890312156140ce578182fd5b6140d88888613ea5565b9550602087013567ffffffffffffffff808211156140f4578384fd5b6141008a838b01613ebc565b96506040890135915080821115614115578384fd5b6141218a838b01613ebc565b95506060890135915080821115614136578384fd5b6141428a838b01613ebc565b94506080890135915080821115614157578384fd5b5061416489828a01613ebc565b92505060a087013590509295509295509295565b6000806040838503121561418a578182fd5b6141948484613ea5565b946020939093013593505050565b6000806000606084860312156141b6578283fd5b6141c08585613ea5565b95602085013595506040909401359392505050565b6000602082840312156141e6578081fd5b8151611634816152a4565b600060208284031215614202578081fd5b8135611634816152b2565b60006020828403121561421e578081fd5b8151611634816152b2565b60006020828403121561423a578081fd5b813567ffffffffffffffff811115614250578182fd5b61347584828501613ebc565b6000806040838503121561426e578182fd5b823567ffffffffffffffff811115614284578283fd5b61429085828601613ebc565b925050613f808460208501613ea5565b600080604083850312156142b2578182fd5b823567ffffffffffffffff808211156142c9578384fd5b6142d586838701613ebc565b935060208501359150808211156142ea578283fd5b506140ac85828601613ebc565b60008060006060848603121561430b578081fd5b833567ffffffffffffffff80821115614322578283fd5b61432e87838801613ebc565b94506020860135915080821115614343578283fd5b61434f87838801613ebc565b93506040860135915080821115614364578283fd5b5061437186828701613ebc565b9150509250925092565b60006020828403121561438c578081fd5b5035919050565b600080604083850312156143a5578182fd5b82359150613f808460208501613ea5565b600080604083850312156143c8578182fd5b82359150602083013567ffffffffffffffff8111156140a0578182fd5b6000806000606084860312156143f9578081fd5b83359250602084013567ffffffffffffffff80821115614343578283fd5b6001600160a01b03169052565b6000815180845261443c816020860160208601615263565b601f01601f19169290920160200192915050565b60008251614462818460208701615263565b9190910192915050565b6000865161447e818460208b01615263565b865190830190614492818360208b01615263565b7f2f00000000000000000000000000000000000000000000000000000000000000910181815286519091906144ce816001850160208b01615263565b600192019182015284516144e9816002840160208901615263565b7f2e00000000000000000000000000000000000000000000000000000000000000600292909101918201528351614527816003840160208801615263565b01600301979650505050505050565b6001600160a01b0391909116815260200190565b6001600160a01b039384168152919092166020820152604081019190915260600190565b60006001600160a01b038087168352808616602084015250836040830152608060608301526145a06080830184614424565b9695505050505050565b6001600160a01b03929092168252602082015260400190565b6020808252825182820181905260009190848201906040850190845b818110156146045783516001600160a01b0316835292840192918401916001016145df565b50909695505050505050565b6020808252825182820181905260009190848201906040850190845b818110156146045783518352928401929184019160010161462c565b901515815260200190565b6000602082526116346020830184614424565b6000604082526146796040830185614424565b90506001600160a01b03831660208301529392505050565b6000604082526146a46040830185614424565b82810360208401526146b68185614424565b95945050505050565b6000606082526146d26060830186614424565b82810360208401526146e48186614424565b905082810360408401526145a08185614424565b6020808252601a908201527f74617267657420697320616c72656164792061206d696e746572000000000000604082015260600190565b60208082526022908201527f456e756d657261626c655365743a20696e646578206f7574206f6620626f756e604082015261647360f01b606082015260800190565b60208082526017908201527f6e6577206861736820616c726561647920657869737473000000000000000000604082015260600190565b60208082526032908201527f4552433732313a207472616e7366657220746f206e6f6e20455243373231526560408201527f63656976657220696d706c656d656e7465720000000000000000000000000000606082015260800190565b60208082526018908201527f77726f6e67206d696e74206d6574686f642063616c6c65640000000000000000604082015260600190565b6020808252601c908201527f6e6f7420616e206f776e6572206f7220636f6c6c61626f7261746f7200000000604082015260600190565b6020808252601c908201527f4552433732313a20746f6b656e20616c7265616479206d696e74656400000000604082015260600190565b6020808252601b908201527f536166654d6174683a206164646974696f6e206f766572666c6f770000000000604082015260600190565b60208082526016908201527f73656e646572206973206e6f742061206d696e74657200000000000000000000604082015260600190565b6020808252601a908201527f796f7520617265206e6f74206120636f6c6c61626f7261746f72000000000000604082015260600190565b60208082526024908201527f4552433732313a207472616e7366657220746f20746865207a65726f2061646460408201527f7265737300000000000000000000000000000000000000000000000000000000606082015260800190565b60208082526014908201527f686173682063616e6e6f7420626520656d707479000000000000000000000000604082015260600190565b60208082526019908201527f4552433732313a20617070726f766520746f2063616c6c657200000000000000604082015260600190565b6020808252602c908201527f4552433732313a206f70657261746f7220717565727920666f72206e6f6e657860408201527f697374656e7420746f6b656e0000000000000000000000000000000000000000606082015260800190565b60208082526014908201527f6d696e74207472616e73666572206661696c6564000000000000000000000000604082015260600190565b6020808252601b908201527f7468657920617265206e6f74206120636f6c6c61626f7261746f720000000000604082015260600190565b60208082526038908201527f4552433732313a20617070726f76652063616c6c6572206973206e6f74206f7760408201527f6e6572206e6f7220617070726f76656420666f7220616c6c0000000000000000606082015260800190565b60208082526012908201527f6d696e746572206e6f7420616c6c6f7765640000000000000000000000000000604082015260600190565b6020808252600e908201527f6e6f7420796f757220746f6b656e000000000000000000000000000000000000604082015260600190565b60208082526013908201527f6861736820616c72656164792065786973747300000000000000000000000000604082015260600190565b6020808252602a908201527f4552433732313a2062616c616e636520717565727920666f7220746865207a6560408201527f726f206164647265737300000000000000000000000000000000000000000000606082015260800190565b60208082526022908201527f456e756d657261626c654d61703a20696e646578206f7574206f6620626f756e604082015261647360f01b606082015260800190565b6020808252818101527f4552433732313a206d696e7420746f20746865207a65726f2061646472657373604082015260600190565b60208082526017908201527f746f6b656e20696420646f6573206e6f74206578697374000000000000000000604082015260600190565b6020808252602c908201527f4552433732313a20617070726f76656420717565727920666f72206e6f6e657860408201527f697374656e7420746f6b656e0000000000000000000000000000000000000000606082015260800190565b60208082526021908201527f6d757374206265207365742066726f6d2074726561737572792061646472657360408201527f7300000000000000000000000000000000000000000000000000000000000000606082015260800190565b6020808252601f908201527f746865792061726520616c7265616479206120636f6c6c61626f7261746f7200604082015260600190565b60208082526029908201527f4552433732313a207472616e73666572206f6620746f6b656e2074686174206960408201527f73206e6f74206f776e0000000000000000000000000000000000000000000000606082015260800190565b6020808252602f908201527f4552433732314d657461646174613a2055524920717565727920666f72206e6f60408201527f6e6578697374656e7420746f6b656e0000000000000000000000000000000000606082015260800190565b60208082526014908201527f696e73756666696369656e742062616c616e6365000000000000000000000000604082015260600190565b60208082526021908201527f4552433732313a20617070726f76616c20746f2063757272656e74206f776e6560408201527f7200000000000000000000000000000000000000000000000000000000000000606082015260800190565b6020808252601f908201527f636f756e74206d7573742062652067726561746572207468616e207a65726f00604082015260600190565b60208082526021908201527f6f6e6c79206d696e746572732063616e2073657420746865206261736520757260408201527f6900000000000000000000000000000000000000000000000000000000000000606082015260800190565b60208082526031908201527f4552433732313a207472616e736665722063616c6c6572206973206e6f74206f60408201527f776e6572206e6f7220617070726f766564000000000000000000000000000000606082015260800190565b6020808252601d908201527f416464726573733a2063616c6c20746f206e6f6e2d636f6e7472616374000000604082015260600190565b60208082526012908201527f6e6f74206120636f6c6c61626f7261746f720000000000000000000000000000604082015260600190565b6020808252600f908201527f7472616e73666572206661696c65640000000000000000000000000000000000604082015260600190565b60208082526013908201527f6e6f7420616c6c6f77656420746f206d696e7400000000000000000000000000604082015260600190565b60208082526016908201527f746172676574206973206e6f742061206d696e74657200000000000000000000604082015260600190565b60208082526017908201527f6f6c64206861736820646f6573206e6f74206578697374000000000000000000604082015260600190565b600060208252825160208301526020830151610100806040850152615195610120850183614424565b91506040850151601f19808685030160608701526151b38483614424565b93506060870151915080868503016080870152506151d18382614424565b92505060808501516151e660a0860182614417565b5060a08501516151f960c0860182614417565b5060c085015160e085015260e085015181850152508091505092915050565b90815260200190565b9182526001600160a01b0316602082015260400190565b6000848252606060208301526152516060830185614424565b82810360408401526145a08185614424565b60005b8381101561527e578181015183820152602001615266565b8381111561290c5750506000910152565b6001600160a01b0381168114611cad57600080fd5b8015158114611cad57600080fd5b7fffffffff0000000000000000000000000000000000000000000000000000000081168114611cad57600080fdfe4552433732313a207472616e7366657220746f206e6f6e20455243373231526563656976657220696d706c656d656e7465724552433732313a206f776e657220717565727920666f72206e6f6e6578697374656e7420746f6b656ea2646970667358221220804fb77f5d1c6c4a0329d008e4e088ab37bb66db7797200d686712f58587532f64736f6c634300060c0033",
  "immutableReferences": {},
  "source": "// SPDX-License-Identifier: MIT\r\npragma solidity ^0.6.0;\r\npragma experimental ABIEncoderV2;\r\n\r\nimport \"./ERC721.sol\";\r\nimport \"./EnumerableSet.sol\";\r\nimport \"./Math.sol\";\r\nimport \"./WebaverseERC20.sol\";\r\n\r\n/**\r\n * @title Extension of {ERC721} for Webaverse non-fungible tokens\r\n * @dev NFTs can be packed with fungible tokens, and can have special features\r\n * I.E. collaborators and separate creatorship and ownership\r\n */\r\ncontract WebaverseERC721 is ERC721 {\r\n    using EnumerableSet for EnumerableSet.UintSet;\r\n\r\n    WebaverseERC20 internal erc20Contract; // ERC20 contract for fungible tokens\r\n    uint256 internal mintFee; // ERC20 fee to mint ERC721\r\n    address internal treasuryAddress; // address into which we deposit minting fees\r\n    bool internal isSingleIssue; // whether the token is single issue (name based) or no (hash based)\r\n    bool internal isPublicallyMintable; // whether anyone can mint tokens in this copy of the contract\r\n    mapping(address => bool) internal allowedMinters; // addresses allowed to mint in this copy of the contract\r\n    uint256 internal nextTokenId = 0; // the next token id to use (increases linearly)\r\n    mapping(uint256 => string) internal tokenIdToHash; // map of token id to hash it represents\r\n    mapping(string => uint256) internal hashToStartTokenId; // map of hashes to start of token ids for it\r\n    mapping(string => uint256) internal hashToTotalSupply; // map of hash to total number of tokens for it\r\n    mapping(string => Metadata[]) internal hashToMetadata; // map of hash to metadata key-value store\r\n    mapping(string => address[]) internal hashToCollaborators; // map of hash to addresses that can change metadata\r\n    mapping(uint256 => uint256) internal tokenIdToBalance; // map of tokens to packed balance\r\n    mapping(uint256 => address) internal minters; // map of tokens to minters\r\n    mapping(uint256 => Metadata[]) internal tokenIdToMetadata; // map of token id to metadata key-value store\r\n    mapping(uint256 => address[]) internal tokenIdToCollaborators; // map of token id to addresses that can change metadata\r\n\r\n    struct Metadata {\r\n        string key;\r\n        string value;\r\n    }\r\n\r\n    struct Token {\r\n        uint256 id;\r\n        string hash;\r\n        string name;\r\n        string ext;\r\n        address minter;\r\n        address owner;\r\n        uint256 balance;\r\n        uint256 totalSupply;\r\n    }\r\n\r\n    event MetadataSet(string hash, string key, string value);\r\n    event SingleMetadataSet(uint256 tokenId, string key, string value);\r\n    event HashUpdate(string oldHash, string newHash);\r\n    event CollaboratorAdded(string hash, address a);\r\n    event CollaboratorRemoved(string hash, address a);\r\n    event SingleCollaboratorAdded(uint256 tokenId, address a);\r\n    event SingleCollaboratorRemoved(uint256 tokenId, address a);\r\n\r\n    /**\r\n     * @dev Create this ERC721 contract\r\n     * @param name Name of the contract (default is \"NFT\")\r\n     * @param symbol Symbol for the token (default is ???)\r\n     * @param baseUri Base URI (example is http://)\r\n     * @param _erc20Contract ERC20 contract attached to fungible tokens\r\n     * @param _treasuryAddress Address of the treasury account\r\n     * @param _isSingleIssue Whether the token is single issue (name based) or no (hash based)\r\n     * @param _isPublicallyMintable Whether anyone can mint tokens with this contract\r\n     * I.E. collaborators and separate creatorship and ownership\r\n     */\r\n    constructor(\r\n        string memory name,\r\n        string memory symbol,\r\n        string memory baseUri,\r\n        WebaverseERC20 _erc20Contract,\r\n        uint256 _mintFee,\r\n        address _treasuryAddress,\r\n        bool _isSingleIssue,\r\n        bool _isPublicallyMintable\r\n    ) public ERC721(name, symbol) {\r\n        _setBaseURI(baseUri);\r\n        erc20Contract = _erc20Contract;\r\n        mintFee = _mintFee;\r\n        treasuryAddress = _treasuryAddress;\r\n        isSingleIssue = _isSingleIssue;\r\n        isPublicallyMintable = _isPublicallyMintable;\r\n        allowedMinters[msg.sender] = true;\r\n    }\r\n\r\n    /**\r\n     * @dev Set the price to mint\r\n     * @param _mintFee Minting fee, default is 10 FT\r\n     */\r\n    function setMintFee(uint256 _mintFee) public {\r\n        require(\r\n            msg.sender == treasuryAddress,\r\n            \"must be set from treasury address\"\r\n        );\r\n        mintFee = _mintFee;\r\n    }\r\n\r\n    /**\r\n     * @dev Set the treasury address\r\n     * @param _treasuryAddress Account address of the treasurer\r\n     */\r\n    function setTreasuryAddress(address _treasuryAddress) public {\r\n        require(\r\n            msg.sender == treasuryAddress,\r\n            \"must be set from treasury address\"\r\n        );\r\n        treasuryAddress = _treasuryAddress;\r\n    }\r\n\r\n    /**\r\n     * @dev Get the balance of fungible tokens packed into this non-fungible token\r\n     * @param tokenId ID of the non-fungible ERC721 token\r\n     */\r\n    function getPackedBalance(uint256 tokenId) public view returns (uint256) {\r\n        return tokenIdToBalance[tokenId];\r\n    }\r\n\r\n    /**\r\n     * @dev Pack fungible tokens into this non-fungible token\r\n     * @param from Address of who is packing the token\r\n     * @param tokenId ID of the token\r\n     * @param amount Amount to pack\r\n     */\r\n    function pack(\r\n        address from,\r\n        uint256 tokenId,\r\n        uint256 amount\r\n    ) public {\r\n        require(_exists(tokenId), \"token id does not exist\");\r\n\r\n        tokenIdToBalance[tokenId] = SafeMath.add(\r\n            tokenIdToBalance[tokenId],\r\n            amount\r\n        );\r\n\r\n        require(\r\n            erc20Contract.transferFrom(from, address(this), amount),\r\n            \"transfer failed\"\r\n        );\r\n    }\r\n\r\n    /**\r\n     * @dev Unpack fungible tokens from this non-fungible token\r\n     * @param to Address of who is packing the token\r\n     * @param tokenId ID of the token\r\n     * @param amount Amount to unpack\r\n     */\r\n    function unpack(\r\n        address to,\r\n        uint256 tokenId,\r\n        uint256 amount\r\n    ) public {\r\n        require(ownerOf(tokenId) == msg.sender, \"not your token\");\r\n        require(tokenIdToBalance[tokenId] >= amount, \"insufficient balance\");\r\n\r\n        tokenIdToBalance[tokenId] = SafeMath.sub(\r\n            tokenIdToBalance[tokenId],\r\n            amount\r\n        );\r\n\r\n        require(erc20Contract.transfer(to, amount), \"transfer failed\");\r\n    }\r\n\r\n    /**\r\n     * @dev Mint one or more non-fungible tokens with this contract\r\n     * The count parameter is what is looped over to create the token.\r\n     * This means the higher the count, the higher the gas.\r\n     * This is the main reason that we can only mint so many tokens at once.\r\n     * @param to Address of who is receiving the token on mint\r\n     * Example: 0x08E242bB06D85073e69222aF8273af419d19E4f6\r\n     * @param hash Hash of the file to mint\r\n     * Example: 0x1\r\n     * @param name Name of the token\r\n     * @param ext File extension of the token\r\n     * Example: \"png\"\r\n     * @param description Description of the token (set by user)\r\n     * @param count Number of tokens to mint (ie: 1)\r\n     */\r\n    function mint(\r\n        address to,\r\n        string memory hash,\r\n        string memory name,\r\n        string memory ext,\r\n        string memory description,\r\n        uint256 count\r\n    ) public {\r\n        require(!isSingleIssue, \"wrong mint method called\"); // Single issue tokens should use mintSingle\r\n        require(\r\n            isPublicallyMintable || isAllowedMinter(msg.sender),\r\n            \"not allowed to mint\"\r\n        ); // Only allowed minters can mint\r\n        require(bytes(hash).length > 0, \"hash cannot be empty\"); // Hash cannot be empty (minting null items)\r\n        require(count > 0, \"count must be greater than zero\"); // Count must be 1 or more (cannot mint no items)\r\n        require(hashToTotalSupply[hash] == 0, \"hash already exists\"); // Prevent multiple mints of the same file (all files minted must be unique)\r\n\r\n        // Unless the mint free, transfer fungible tokens and attempt to pay the fee\r\n        if (mintFee != 0) {\r\n            require(\r\n                erc20Contract.transferFrom(\r\n                    msg.sender,\r\n                    treasuryAddress,\r\n                    mintFee\r\n                ),\r\n                \"mint transfer failed\"\r\n            );\r\n        }\r\n        \r\n        hashToStartTokenId[hash] = nextTokenId + 1; // Increment token ID by one\r\n\r\n        uint256 i = 0;\r\n        while (i < count) {\r\n            // Each token gets a new token ID, even if minted in a set\r\n            nextTokenId = SafeMath.add(nextTokenId, 1);\r\n            uint256 tokenId = nextTokenId;\r\n\r\n            _mint(to, tokenId);\r\n            minters[tokenId] = to;\r\n\r\n            tokenIdToHash[tokenId] = hash;\r\n            i++;\r\n        }\r\n        hashToTotalSupply[hash] = count;\r\n        hashToMetadata[hash].push(Metadata(\"name\", name));\r\n        hashToMetadata[hash].push(Metadata(\"ext\", ext));\r\n        hashToMetadata[hash].push(Metadata(\"description\", description));\r\n        hashToCollaborators[hash].push(to);\r\n    }\r\n\r\n    /**\r\n     * @dev Mint one non-fungible tokens with this contract\r\n     * @param to Address of who is receiving the token on mint\r\n     * Example: 0x08E242bB06D85073e69222aF8273af419d19E4f6\r\n     * @param hash Hash of the file to mint\r\n     */\r\n    function mintSingle(address to, string memory hash) public {\r\n        require(isSingleIssue, \"wrong mint method called\");\r\n        require(\r\n            isPublicallyMintable || isAllowedMinter(msg.sender),\r\n            \"not allowed to mint\"\r\n        );\r\n        require(hashToTotalSupply[hash] == 0, \"hash already exists\");\r\n\r\n        if (mintFee != 0) {\r\n            require(\r\n                erc20Contract.transferFrom(\r\n                    msg.sender,\r\n                    treasuryAddress,\r\n                    mintFee\r\n                ),\r\n                \"mint transfer failed\"\r\n            );\r\n        }\r\n\r\n        nextTokenId = SafeMath.add(nextTokenId, 1);\r\n        uint256 tokenId = nextTokenId;\r\n        _mint(to, tokenId);\r\n        minters[tokenId] = to;\r\n\r\n        tokenIdToHash[tokenId] = hash;\r\n        hashToTotalSupply[hash] = 1;\r\n        hashToCollaborators[hash].push(to);\r\n    }\r\n\r\n    /**\r\n     * @dev Get the address for for the minter of the token\r\n     * @param tokenId ID of the token we are querying\r\n     * @return Address of the minter\r\n     */\r\n    function getMinter(uint256 tokenId) public view returns (address) {\r\n        return minters[tokenId];\r\n    }\r\n\r\n    /**\r\n     * @dev Check if two strings are equal\r\n     * @param a First string to compare\r\n     * @param b Second string to compare\r\n     * @return Returns true if strings are equal\r\n     */\r\n    function streq(string memory a, string memory b)\r\n        internal\r\n        pure\r\n        returns (bool)\r\n    {\r\n        return (keccak256(abi.encodePacked((a))) ==\r\n            keccak256(abi.encodePacked((b))));\r\n    }\r\n\r\n    /**\r\n     * @dev Mint a token with a specific ID\r\n     * @param to Who should receive the minted token\r\n     * @param tokenId ID of the token to mint (ie: 250)\r\n     */\r\n    function mintTokenId(address to, uint256 tokenId) public {\r\n        require(isAllowedMinter(msg.sender), \"minter not allowed\");\r\n\r\n        _mint(to, tokenId);\r\n    }\r\n\r\n    /**\r\n     * @dev Set the base URI for this contract\r\n     * @param baseURI_ Base URI to send to\r\n     */\r\n    function setBaseURI(string memory baseURI_) public {\r\n        require(\r\n            allowedMinters[msg.sender],\r\n            \"only minters can set the base uri\"\r\n        );\r\n        _setBaseURI(baseURI_);\r\n    }\r\n\r\n    /**\r\n     * @dev Get the URI of a token\r\n     * @param tokenId Token to get the URI from (ie: 250)\r\n     * @return URI of the token to retrieve\r\n     */\r\n    function tokenURI(uint256 tokenId)\r\n        public\r\n        view\r\n        override\r\n        returns (string memory)\r\n    {\r\n        require(_exists(tokenId), \"ERC721Metadata: URI query for nonexistent token\");\r\n\r\n        string memory hash;\r\n        string memory name;\r\n        string memory ext;\r\n\r\n        if (isSingleIssue) {\r\n            hash = getSingleMetadata(tokenId, \"hash\");\r\n            name = tokenIdToHash[tokenId];\r\n            ext = getSingleMetadata(tokenId, \"ext\");\r\n        } else {\r\n            hash = tokenIdToHash[tokenId];\r\n            name = getMetadata(hash, \"name\");\r\n            ext = getMetadata(hash, \"ext\");\r\n        }\r\n\r\n        return string(abi.encodePacked(baseURI(), hash, \"/\", name, \"/\", name, \".\", ext));\r\n    }\r\n\r\n    /**\r\n     * @dev Check if the token exists\r\n     * @param tokenId Token to test\r\n     * @return Returns true if the token exists\r\n     */\r\n    function tokenExists(uint256 tokenId) public view returns (bool) {\r\n        return _exists(tokenId);\r\n    }\r\n\r\n    /**\r\n     * @dev Check if an account is allowed to mint tokens\r\n     * @param a Address to check\r\n     * @return Returns true if the acount can mint\r\n     */\r\n    function isAllowedMinter(address a) public view returns (bool) {\r\n        return allowedMinters[a];\r\n    }\r\n\r\n    /**\r\n     * @dev Add a minter to the approved list to mint tokens\r\n     * @param a Address to whitelist\r\n     */\r\n    function addAllowedMinter(address a) public {\r\n        require(isAllowedMinter(msg.sender));\r\n        require(!isAllowedMinter(a), \"target is already a minter\");\r\n        allowedMinters[a] = true;\r\n    }\r\n\r\n    /**\r\n     * @dev Remove a minter from the approved list to mint tokens\r\n     * @param a Address to remove from whitelist\r\n     */\r\n    function removeAllowedMinter(address a) public {\r\n        require(isAllowedMinter(msg.sender), \"sender is not a minter\");\r\n        require(isAllowedMinter(a), \"target is not a minter\");\r\n        allowedMinters[a] = false;\r\n    }\r\n\r\n    /**\r\n     * @dev Check is an address has access as a collaborator (for development of a token between multiple users)\r\n     * @param hash Hash of the token to test\r\n     * @param a Address to query\r\n     * @return Returns true if the address is a collaborator on this token\r\n     */\r\n    function isCollaborator(string memory hash, address a)\r\n        public\r\n        view\r\n        returns (bool)\r\n    {\r\n        for (uint256 i = 0; i < hashToCollaborators[hash].length; i++) {\r\n            if (hashToCollaborators[hash][i] == a) {\r\n                return true;\r\n            }\r\n        }\r\n        return false;\r\n    }\r\n    \r\n    /**\r\n     * @dev List collaborators for a token\r\n     * @param hash Hash of the token to get collaborators for\r\n     */\r\n    function getCollaborators(string memory hash) public view returns (address[] memory) {\r\n        address[] memory collaborators = hashToCollaborators[hash];\r\n        return collaborators;\r\n    }\r\n\r\n    /**\r\n     * @dev Add collaborator to a token\r\n     * @param hash Hash of the token to add the collaborator to\r\n     * @param a Address to whitelist\r\n     */\r\n    function addCollaborator(string memory hash, address a) public {\r\n        require(isCollaborator(hash, msg.sender), \"you are not a collaborator\");\r\n        require(!isCollaborator(hash, a), \"they are already a collaborator\");\r\n        hashToCollaborators[hash].push(a);\r\n        \r\n        emit CollaboratorAdded(hash, a);\r\n    }\r\n\r\n    /**\r\n     * @dev Remove collaborator from a token\r\n     * @param hash Hash of the token to remove the collaborator from\r\n     * @param a Address to remove from whitelist\r\n     */\r\n    function removeCollaborator(string memory hash, address a) public {\r\n        require(isCollaborator(hash, msg.sender), \"you are not a collaborator\");\r\n        require(\r\n            isCollaborator(hash, a),\r\n            \"they are not a collaborator\"\r\n        );\r\n\r\n        uint256 newSize = 0;\r\n        for (uint256 i = 0; i < hashToCollaborators[hash].length; i++) {\r\n            if (hashToCollaborators[hash][i] != a) {\r\n                newSize++;\r\n            }\r\n        }\r\n\r\n        address[] memory newCollaborators = new address[](newSize);\r\n        uint256 index = 0;\r\n        for (uint256 i = 0; i < hashToCollaborators[hash].length; i++) {\r\n            address oldCollaborator = hashToCollaborators[hash][i];\r\n            if (oldCollaborator != a) {\r\n                newCollaborators[index++] = oldCollaborator;\r\n            }\r\n        }\r\n        hashToCollaborators[hash] = newCollaborators;\r\n        \r\n        emit CollaboratorRemoved(hash, a);\r\n    }\r\n\r\n    /**\r\n     * @dev Check if this address is a collaborator on a single issue token (like land)\r\n     * @param tokenId ID of the token\r\n     * @param a Address to check\r\n     * @return Returns true if the address is a collaborator on the token\r\n     */\r\n    function isSingleCollaborator(uint256 tokenId, address a)\r\n        public\r\n        view\r\n        returns (bool)\r\n    {\r\n        for (uint256 i = 0; i < tokenIdToCollaborators[tokenId].length; i++) {\r\n            if (tokenIdToCollaborators[tokenId][i] == a) {\r\n                return true;\r\n            }\r\n        }\r\n        return false;\r\n    }\r\n    \r\n    /**\r\n     * @dev List collaborators for a token\r\n     * @param tokenId Token ID of the token to get collaborators for\r\n     */\r\n    function getSingleCollaborators(uint256 tokenId) public view returns (address[] memory) {\r\n        address[] memory collaborators = tokenIdToCollaborators[tokenId];\r\n        return collaborators;\r\n    }\r\n\r\n    /**\r\n     * @dev Add a collaborator to a single token (like land)\r\n     * @param tokenId ID of the token\r\n     * @param a Address to whitelist\r\n     */\r\n    function addSingleCollaborator(uint256 tokenId, address a) public {\r\n        require(\r\n            ownerOf(tokenId) == a || isSingleCollaborator(tokenId, msg.sender),\r\n            \"you are not a collaborator\"\r\n        );\r\n        require(\r\n            !isSingleCollaborator(tokenId, a),\r\n            \"they are already a collaborator\"\r\n        );\r\n        tokenIdToCollaborators[tokenId].push(a);\r\n        \r\n        emit SingleCollaboratorAdded(tokenId, a);\r\n    }\r\n\r\n    /**\r\n     * @dev Remove a collaborator from a single token (like land)\r\n     * @param tokenId ID of the token\r\n     * @param a Address to remove from whitelist\r\n     */\r\n    function removeSingleCollaborator(uint256 tokenId, address a) public {\r\n        require(\r\n            ownerOf(tokenId) == a || isSingleCollaborator(tokenId, msg.sender),\r\n            \"you are not a collaborator\"\r\n        );\r\n        require(\r\n            isSingleCollaborator(tokenId, msg.sender),\r\n            \"they are not a collaborator\"\r\n        );\r\n\r\n        uint256 newSize = 0;\r\n        for (uint256 i = 0; i < tokenIdToCollaborators[tokenId].length; i++) {\r\n            if (tokenIdToCollaborators[tokenId][i] != a) {\r\n                newSize++;\r\n            }\r\n        }\r\n\r\n        address[] memory newTokenIdCollaborators = new address[](newSize);\r\n        uint256 index = 0;\r\n        for (uint256 i = 0; i < tokenIdToCollaborators[tokenId].length; i++) {\r\n            address oldTokenIdCollaborator = tokenIdToCollaborators[tokenId][i];\r\n            if (oldTokenIdCollaborator != a) {\r\n                newTokenIdCollaborators[index++] = oldTokenIdCollaborator;\r\n            }\r\n        }\r\n        tokenIdToCollaborators[tokenId] = newTokenIdCollaborators;\r\n        \r\n        emit SingleCollaboratorRemoved(tokenId, a);\r\n    }\r\n\r\n    /**\r\n     * @dev Seal the token forever and remove collaborators so that it can't be altered\r\n     * @param hash Hash of the collaborative token\r\n     */\r\n    function seal(string memory hash) public {\r\n        require(isCollaborator(hash, msg.sender), \"not a collaborator\");\r\n        delete hashToCollaborators[hash];\r\n    }\r\n\r\n    /**\r\n     * @dev Get the hash of a token by ID\r\n     * @param tokenId Token to get the hash from\r\n     * @return Returns a string containing the token hash\r\n     */\r\n    function getHash(uint256 tokenId) public view returns (string memory) {\r\n        return tokenIdToHash[tokenId];\r\n    }\r\n\r\n    /**\r\n     * @dev Get the number of tokens associated with a specific hash held by the token owner\r\n     * For example, if collaborators are working on a token series, this would return all of them for one collaborator\r\n     * @param owner Address of the owner of the token\r\n     * @param hash Hash to query\r\n     * @return Return the balance as a number of tokens\r\n     * Example args: 0x08E242bB06D85073e69222aF8273af419d19E4f6, 0x1\r\n     */\r\n    function balanceOfHash(address owner, string memory hash)\r\n        public\r\n        view\r\n        returns (uint256)\r\n    {\r\n        uint256 count = 0;\r\n        uint256 balance = balanceOf(owner);\r\n        for (uint256 i = 0; i < balance; i++) {\r\n            uint256 tokenId = tokenOfOwnerByIndex(owner, i);\r\n            string memory h = tokenIdToHash[tokenId];\r\n            if (streq(h, hash)) {\r\n                count++;\r\n            }\r\n        }\r\n        return count;\r\n    }\r\n    \r\n    /**\r\n     * @dev Get the start token id of a hash\r\n     * @param hash Hash to query\r\n     * @return Start of token id for this hash\r\n     */\r\n    function startTokenIdOfHash(string memory hash)\r\n        public\r\n        view\r\n        returns (uint256)\r\n    {\r\n        return hashToStartTokenId[hash];\r\n    }\r\n\r\n    /**\r\n     * @dev Get the total supply of a hash\r\n     * @param hash Hash to query\r\n     * @return Total supply of the token\r\n     */\r\n    function totalSupplyOfHash(string memory hash)\r\n        public\r\n        view\r\n        returns (uint256)\r\n    {\r\n        return hashToTotalSupply[hash];\r\n    }\r\n\r\n    /**\r\n     * @dev List the tokens IDs owned by an account\r\n     * @param owner Address to query\r\n     * @return Array of token IDs\r\n     */\r\n    function getTokenIdsOf(address owner)\r\n        public\r\n        view\r\n        returns (uint256[] memory)\r\n    {\r\n        uint256 count = balanceOf(owner);\r\n        uint256[] memory ids = new uint256[](count);\r\n        for (uint256 i = 0; i < count; i++) {\r\n            ids[i] = tokenOfOwnerByIndex(owner, i);\r\n        }\r\n        return ids;\r\n    }\r\n\r\n    /**\r\n     * @dev Get the complete information for a token from it's ID\r\n     * @param tokenId Token ID to query\r\n     * @return Token struct containing token data\r\n     */\r\n    function tokenByIdFull(uint256 tokenId) public view returns (Token memory) {\r\n        string memory hash;\r\n        string memory name;\r\n        string memory ext;\r\n        if (isSingleIssue) {\r\n            hash = getSingleMetadata(tokenId, \"hash\");\r\n            name = tokenIdToHash[tokenId];\r\n            ext = getSingleMetadata(tokenId, \"ext\");\r\n        } else {\r\n            hash = tokenIdToHash[tokenId];\r\n            name = getMetadata(hash, \"name\");\r\n            ext = getMetadata(hash, \"ext\");\r\n        }\r\n\r\n        address minter = minters[tokenId];\r\n        address owner = _exists(tokenId) ? ownerOf(tokenId) : address(0);\r\n        uint256 totalSupply = hashToTotalSupply[hash];\r\n        return Token(tokenId, hash, name, ext, minter, owner, 0, totalSupply);\r\n    }\r\n\r\n    /**\r\n     * @dev Get the full Token struct from an owner address at a specific index\r\n     * @param owner Owner to query\r\n     * @param index Index in owner's balance to query\r\n     * @return Token struct containing token data\r\n     */\r\n    function tokenOfOwnerByIndexFull(address owner, uint256 index)\r\n        public\r\n        view\r\n        returns (Token memory)\r\n    {\r\n        uint256 tokenId = tokenOfOwnerByIndex(owner, index);\r\n        string memory hash;\r\n        string memory name;\r\n        string memory ext;\r\n        if (isSingleIssue) {\r\n            hash = getSingleMetadata(tokenId, \"hash\");\r\n            name = tokenIdToHash[tokenId];\r\n            ext = getSingleMetadata(tokenId, \"ext\");\r\n        } else {\r\n            hash = tokenIdToHash[tokenId];\r\n            name = getMetadata(hash, \"name\");\r\n            ext = getMetadata(hash, \"ext\");\r\n        }\r\n        address minter = minters[tokenId];\r\n        uint256 balance = balanceOfHash(owner, hash);\r\n        uint256 totalSupply = hashToTotalSupply[hash];\r\n        return\r\n            Token(\r\n                tokenId,\r\n                hash,\r\n                name,\r\n                ext,\r\n                minter,\r\n                owner,\r\n                balance,\r\n                totalSupply\r\n            );\r\n    }\r\n\r\n    /**\r\n     * @dev Get metadata for the token. Metadata is a key-value store that can be set by owners and collaborators\r\n     * @param hash Token hash to query for metadata\r\n     * @param key Key to query for a value\r\n     * @return Value corresponding to metadata key\r\n     */\r\n    function getMetadata(string memory hash, string memory key)\r\n        public\r\n        view\r\n        returns (string memory)\r\n    {\r\n        for (uint256 i = 0; i < hashToMetadata[hash].length; i++) {\r\n            if (streq(hashToMetadata[hash][i].key, key)) {\r\n                return hashToMetadata[hash][i].value;\r\n            }\r\n        }\r\n        return \"\";\r\n    }\r\n\r\n    /**\r\n     * @dev Set metadata for the token. Metadata is a key-value store that can be set by owners and collaborators\r\n     * @param hash Token hash to add metadata to\r\n     * @param key Key to store value at\r\n     * @param value Value to store\r\n     */\r\n    function setMetadata(\r\n        string memory hash,\r\n        string memory key,\r\n        string memory value\r\n    ) public {\r\n        require(isCollaborator(hash, msg.sender), \"not a collaborator\");\r\n\r\n        bool keyFound = false;\r\n        for (uint256 i = 0; i < hashToMetadata[hash].length; i++) {\r\n            if (streq(hashToMetadata[hash][i].key, key)) {\r\n                hashToMetadata[hash][i].value = value;\r\n                keyFound = true;\r\n                break;\r\n            }\r\n        }\r\n        if (!keyFound) {\r\n            hashToMetadata[hash].push(Metadata(key, value));\r\n        }\r\n\r\n        emit MetadataSet(hash, key, value);\r\n    }\r\n\r\n    /**\r\n     * @dev Get metadata for a single token (non-hashed)\r\n     * @param tokenId Token hash to add metadata to\r\n     * @param key Key to retrieve value for\r\n     * @return Returns the value stored for the key\r\n     */\r\n    function getSingleMetadata(uint256 tokenId, string memory key)\r\n        public\r\n        view\r\n        returns (string memory)\r\n    {\r\n        for (uint256 i = 0; i < tokenIdToMetadata[tokenId].length; i++) {\r\n            if (streq(tokenIdToMetadata[tokenId][i].key, key)) {\r\n                return tokenIdToMetadata[tokenId][i].value;\r\n            }\r\n        }\r\n        return \"\";\r\n    }\r\n\r\n    /**\r\n     * @dev Set metadata for a single token (non-hashed)\r\n     * @param tokenId Token hash to add metadata to\r\n     * @param key Key to store value at\r\n     * @param value Value to store\r\n     */\r\n    function setSingleMetadata(\r\n        uint256 tokenId,\r\n        string memory key,\r\n        string memory value\r\n    ) public {\r\n        require(\r\n            ownerOf(tokenId) == msg.sender ||\r\n                isSingleCollaborator(tokenId, msg.sender),\r\n            \"not an owner or collaborator\"\r\n        );\r\n\r\n        bool keyFound = false;\r\n        for (uint256 i = 0; i < tokenIdToMetadata[tokenId].length; i++) {\r\n            if (streq(tokenIdToMetadata[tokenId][i].key, key)) {\r\n                tokenIdToMetadata[tokenId][i].value = value;\r\n                keyFound = true;\r\n                break;\r\n            }\r\n        }\r\n        if (!keyFound) {\r\n            tokenIdToMetadata[tokenId].push(Metadata(key, value));\r\n        }\r\n\r\n        emit SingleMetadataSet(tokenId, key, value);\r\n    }\r\n\r\n    /**\r\n     * @dev Update token hash with a new hash\r\n     * @param oldHash Old hash to query\r\n     * @param newHash New hash to set\r\n     */\r\n    function updateHash(string memory oldHash, string memory newHash) public {\r\n        require(hashToTotalSupply[oldHash] > 0, \"old hash does not exist\");\r\n        require(hashToTotalSupply[newHash] == 0, \"new hash already exists\");\r\n        require(isCollaborator(oldHash, msg.sender), \"not a collaborator\");\r\n\r\n        uint256 startTokenId = hashToStartTokenId[oldHash];\r\n        uint256 totalSupply = hashToTotalSupply[oldHash];\r\n        for (uint256 i = 0; i < totalSupply; i++) {\r\n            tokenIdToHash[startTokenId + i] = newHash;\r\n        }\r\n\r\n        hashToStartTokenId[newHash] = hashToStartTokenId[oldHash];\r\n        hashToTotalSupply[newHash] = hashToTotalSupply[oldHash];\r\n        hashToMetadata[newHash] = hashToMetadata[oldHash];\r\n        hashToCollaborators[newHash] = hashToCollaborators[oldHash];\r\n\r\n        delete hashToStartTokenId[oldHash];\r\n        delete hashToTotalSupply[oldHash];\r\n        delete hashToMetadata[oldHash];\r\n        delete hashToCollaborators[oldHash];\r\n\r\n        emit HashUpdate(oldHash, newHash);\r\n    }\r\n\r\n    /**@dev Helper function to convert a uint to a string\r\n     * @param _i uint to convert\r\n     * @return _uintAsString string converted from uint\r\n     */\r\n    function uint2str(uint256 _i)\r\n        internal\r\n        pure\r\n        returns (string memory _uintAsString)\r\n    {\r\n        if (_i == 0) {\r\n            return \"0\";\r\n        }\r\n        uint256 j = _i;\r\n        uint256 len;\r\n        while (j != 0) {\r\n            len++;\r\n            j /= 10;\r\n        }\r\n        bytes memory bstr = new bytes(len);\r\n        uint256 k = len - 1;\r\n        while (_i != 0) {\r\n            bstr[k--] = bytes1(uint8(48 + (_i % 10)));\r\n            _i /= 10;\r\n        }\r\n        return string(bstr);\r\n    }\r\n}\r\n",
  "sourcePath": "D:\\Project\\webaverse - 19\\smart contract\\contracts\\ethereum\\WebaverseERC721.sol",
  "compiler": {
    "name": "solc",
    "version": "0.6.12+commit.27d51765.Emscripten.clang"
  },
  "schemaVersion": "3.4.7",
  "updatedAt": "2022-05-26T05:31:47.658Z",
  "networkType": "ethereum",
  "devdoc": {
    "details": "NFTs can be packed with fungible tokens, and can have special features I.E. collaborators and separate creatorship and ownership",
    "kind": "dev",
    "methods": {
      "addAllowedMinter(address)": {
        "details": "Add a minter to the approved list to mint tokens",
        "params": {
          "a": "Address to whitelist"
        }
      },
      "addCollaborator(string,address)": {
        "details": "Add collaborator to a token",
        "params": {
          "a": "Address to whitelist",
          "hash": "Hash of the token to add the collaborator to"
        }
      },
      "addSingleCollaborator(uint256,address)": {
        "details": "Add a collaborator to a single token (like land)",
        "params": {
          "a": "Address to whitelist",
          "tokenId": "ID of the token"
        }
      },
      "approve(address,uint256)": {
        "details": "See {IERC721-approve}."
      },
      "balanceOf(address)": {
        "details": "See {IERC721-balanceOf}."
      },
      "balanceOfHash(address,string)": {
        "details": "Get the number of tokens associated with a specific hash held by the token owner For example, if collaborators are working on a token series, this would return all of them for one collaborator",
        "params": {
          "hash": "Hash to query",
          "owner": "Address of the owner of the token"
        },
        "returns": {
          "_0": "Return the balance as a number of tokens Example args: 0x08E242bB06D85073e69222aF8273af419d19E4f6, 0x1"
        }
      },
      "baseURI()": {
        "details": "Returns the base URI set via {_setBaseURI}. This will be automatically added as a prefix in {tokenURI} to each token's URI, or to the token ID if no specific URI is set for that token ID."
      },
      "constructor": {
        "details": "Create this ERC721 contract",
        "params": {
          "_erc20Contract": "ERC20 contract attached to fungible tokens",
          "_isPublicallyMintable": "Whether anyone can mint tokens with this contract I.E. collaborators and separate creatorship and ownership",
          "_isSingleIssue": "Whether the token is single issue (name based) or no (hash based)",
          "_treasuryAddress": "Address of the treasury account",
          "baseUri": "Base URI (example is http://)",
          "name": "Name of the contract (default is \"NFT\")",
          "symbol": "Symbol for the token (default is ???)"
        }
      },
      "getApproved(uint256)": {
        "details": "See {IERC721-getApproved}."
      },
      "getCollaborators(string)": {
        "details": "List collaborators for a token",
        "params": {
          "hash": "Hash of the token to get collaborators for"
        }
      },
      "getHash(uint256)": {
        "details": "Get the hash of a token by ID",
        "params": {
          "tokenId": "Token to get the hash from"
        },
        "returns": {
          "_0": "Returns a string containing the token hash"
        }
      },
      "getMetadata(string,string)": {
        "details": "Get metadata for the token. Metadata is a key-value store that can be set by owners and collaborators",
        "params": {
          "hash": "Token hash to query for metadata",
          "key": "Key to query for a value"
        },
        "returns": {
          "_0": "Value corresponding to metadata key"
        }
      },
      "getMinter(uint256)": {
        "details": "Get the address for for the minter of the token",
        "params": {
          "tokenId": "ID of the token we are querying"
        },
        "returns": {
          "_0": "Address of the minter"
        }
      },
      "getPackedBalance(uint256)": {
        "details": "Get the balance of fungible tokens packed into this non-fungible token",
        "params": {
          "tokenId": "ID of the non-fungible ERC721 token"
        }
      },
      "getSingleCollaborators(uint256)": {
        "details": "List collaborators for a token",
        "params": {
          "tokenId": "Token ID of the token to get collaborators for"
        }
      },
      "getSingleMetadata(uint256,string)": {
        "details": "Get metadata for a single token (non-hashed)",
        "params": {
          "key": "Key to retrieve value for",
          "tokenId": "Token hash to add metadata to"
        },
        "returns": {
          "_0": "Returns the value stored for the key"
        }
      },
      "getTokenIdsOf(address)": {
        "details": "List the tokens IDs owned by an account",
        "params": {
          "owner": "Address to query"
        },
        "returns": {
          "_0": "Array of token IDs"
        }
      },
      "isAllowedMinter(address)": {
        "details": "Check if an account is allowed to mint tokens",
        "params": {
          "a": "Address to check"
        },
        "returns": {
          "_0": "Returns true if the acount can mint"
        }
      },
      "isApprovedForAll(address,address)": {
        "details": "See {IERC721-isApprovedForAll}."
      },
      "isCollaborator(string,address)": {
        "details": "Check is an address has access as a collaborator (for development of a token between multiple users)",
        "params": {
          "a": "Address to query",
          "hash": "Hash of the token to test"
        },
        "returns": {
          "_0": "Returns true if the address is a collaborator on this token"
        }
      },
      "isSingleCollaborator(uint256,address)": {
        "details": "Check if this address is a collaborator on a single issue token (like land)",
        "params": {
          "a": "Address to check",
          "tokenId": "ID of the token"
        },
        "returns": {
          "_0": "Returns true if the address is a collaborator on the token"
        }
      },
      "mint(address,string,string,string,string,uint256)": {
        "details": "Mint one or more non-fungible tokens with this contract The count parameter is what is looped over to create the token. This means the higher the count, the higher the gas. This is the main reason that we can only mint so many tokens at once.",
        "params": {
          "count": "Number of tokens to mint (ie: 1)",
          "description": "Description of the token (set by user)",
          "ext": "File extension of the token Example: \"png\"",
          "hash": "Hash of the file to mint Example: 0x1",
          "name": "Name of the token",
          "to": "Address of who is receiving the token on mint Example: 0x08E242bB06D85073e69222aF8273af419d19E4f6"
        }
      },
      "mintSingle(address,string)": {
        "details": "Mint one non-fungible tokens with this contract",
        "params": {
          "hash": "Hash of the file to mint",
          "to": "Address of who is receiving the token on mint Example: 0x08E242bB06D85073e69222aF8273af419d19E4f6"
        }
      },
      "mintTokenId(address,uint256)": {
        "details": "Mint a token with a specific ID",
        "params": {
          "to": "Who should receive the minted token",
          "tokenId": "ID of the token to mint (ie: 250)"
        }
      },
      "name()": {
        "details": "See {IERC721Metadata-name}."
      },
      "ownerOf(uint256)": {
        "details": "See {IERC721-ownerOf}."
      },
      "pack(address,uint256,uint256)": {
        "details": "Pack fungible tokens into this non-fungible token",
        "params": {
          "amount": "Amount to pack",
          "from": "Address of who is packing the token",
          "tokenId": "ID of the token"
        }
      },
      "removeAllowedMinter(address)": {
        "details": "Remove a minter from the approved list to mint tokens",
        "params": {
          "a": "Address to remove from whitelist"
        }
      },
      "removeCollaborator(string,address)": {
        "details": "Remove collaborator from a token",
        "params": {
          "a": "Address to remove from whitelist",
          "hash": "Hash of the token to remove the collaborator from"
        }
      },
      "removeSingleCollaborator(uint256,address)": {
        "details": "Remove a collaborator from a single token (like land)",
        "params": {
          "a": "Address to remove from whitelist",
          "tokenId": "ID of the token"
        }
      },
      "safeTransferFrom(address,address,uint256)": {
        "details": "See {IERC721-safeTransferFrom}."
      },
      "safeTransferFrom(address,address,uint256,bytes)": {
        "details": "See {IERC721-safeTransferFrom}."
      },
      "seal(string)": {
        "details": "Seal the token forever and remove collaborators so that it can't be altered",
        "params": {
          "hash": "Hash of the collaborative token"
        }
      },
      "setApprovalForAll(address,bool)": {
        "details": "See {IERC721-setApprovalForAll}."
      },
      "setBaseURI(string)": {
        "details": "Set the base URI for this contract",
        "params": {
          "baseURI_": "Base URI to send to"
        }
      },
      "setMetadata(string,string,string)": {
        "details": "Set metadata for the token. Metadata is a key-value store that can be set by owners and collaborators",
        "params": {
          "hash": "Token hash to add metadata to",
          "key": "Key to store value at",
          "value": "Value to store"
        }
      },
      "setMintFee(uint256)": {
        "details": "Set the price to mint",
        "params": {
          "_mintFee": "Minting fee, default is 10 FT"
        }
      },
      "setSingleMetadata(uint256,string,string)": {
        "details": "Set metadata for a single token (non-hashed)",
        "params": {
          "key": "Key to store value at",
          "tokenId": "Token hash to add metadata to",
          "value": "Value to store"
        }
      },
      "setTreasuryAddress(address)": {
        "details": "Set the treasury address",
        "params": {
          "_treasuryAddress": "Account address of the treasurer"
        }
      },
      "startTokenIdOfHash(string)": {
        "details": "Get the start token id of a hash",
        "params": {
          "hash": "Hash to query"
        },
        "returns": {
          "_0": "Start of token id for this hash"
        }
      },
      "supportsInterface(bytes4)": {
        "details": "See {IERC165-supportsInterface}. Time complexity O(1), guaranteed to always use less than 30 000 gas."
      },
      "symbol()": {
        "details": "See {IERC721Metadata-symbol}."
      },
      "tokenByIdFull(uint256)": {
        "details": "Get the complete information for a token from it's ID",
        "params": {
          "tokenId": "Token ID to query"
        },
        "returns": {
          "_0": "Token struct containing token data"
        }
      },
      "tokenByIndex(uint256)": {
        "details": "See {IERC721Enumerable-tokenByIndex}."
      },
      "tokenExists(uint256)": {
        "details": "Check if the token exists",
        "params": {
          "tokenId": "Token to test"
        },
        "returns": {
          "_0": "Returns true if the token exists"
        }
      },
      "tokenOfOwnerByIndex(address,uint256)": {
        "details": "See {IERC721Enumerable-tokenOfOwnerByIndex}."
      },
      "tokenOfOwnerByIndexFull(address,uint256)": {
        "details": "Get the full Token struct from an owner address at a specific index",
        "params": {
          "index": "Index in owner's balance to query",
          "owner": "Owner to query"
        },
        "returns": {
          "_0": "Token struct containing token data"
        }
      },
      "tokenURI(uint256)": {
        "details": "Get the URI of a token",
        "params": {
          "tokenId": "Token to get the URI from (ie: 250)"
        },
        "returns": {
          "_0": "URI of the token to retrieve"
        }
      },
      "totalSupply()": {
        "details": "See {IERC721Enumerable-totalSupply}."
      },
      "totalSupplyOfHash(string)": {
        "details": "Get the total supply of a hash",
        "params": {
          "hash": "Hash to query"
        },
        "returns": {
          "_0": "Total supply of the token"
        }
      },
      "transferFrom(address,address,uint256)": {
        "details": "See {IERC721-transferFrom}."
      },
      "unpack(address,uint256,uint256)": {
        "details": "Unpack fungible tokens from this non-fungible token",
        "params": {
          "amount": "Amount to unpack",
          "to": "Address of who is packing the token",
          "tokenId": "ID of the token"
        }
      },
      "updateHash(string,string)": {
        "details": "Update token hash with a new hash",
        "params": {
          "newHash": "New hash to set",
          "oldHash": "Old hash to query"
        }
      }
    },
    "title": "Extension of {ERC721} for Webaverse non-fungible tokens",
    "version": 1
  },
  "userdoc": {
    "kind": "user",
    "methods": {},
    "version": 1
  }
}