{
  "contractName": "WebaverseERC20",
  "abi": [
    {
      "inputs": [
        {
          "internalType": "string",
          "name": "name",
          "type": "string"
        },
        {
          "internalType": "string",
          "name": "symbol",
          "type": "string"
        },
        {
          "internalType": "uint256",
          "name": "cap",
          "type": "uint256"
        }
      ],
      "stateMutability": "nonpayable",
      "type": "constructor"
    },
    {
      "anonymous": false,
      "inputs": [
        {
          "indexed": true,
          "internalType": "address",
          "name": "owner",
          "type": "address"
        },
        {
          "indexed": true,
          "internalType": "address",
          "name": "spender",
          "type": "address"
        },
        {
          "indexed": false,
          "internalType": "uint256",
          "name": "value",
          "type": "uint256"
        }
      ],
      "name": "Approval",
      "type": "event"
    },
    {
      "anonymous": false,
      "inputs": [
        {
          "indexed": true,
          "internalType": "address",
          "name": "from",
          "type": "address"
        },
        {
          "indexed": true,
          "internalType": "address",
          "name": "to",
          "type": "address"
        },
        {
          "indexed": false,
          "internalType": "uint256",
          "name": "value",
          "type": "uint256"
        }
      ],
      "name": "Transfer",
      "type": "event"
    },
    {
      "inputs": [
        {
          "internalType": "address",
          "name": "owner",
          "type": "address"
        },
        {
          "internalType": "address",
          "name": "spender",
          "type": "address"
        }
      ],
      "name": "allowance",
      "outputs": [
        {
          "internalType": "uint256",
          "name": "",
          "type": "uint256"
        }
      ],
      "stateMutability": "view",
      "type": "function",
      "constant": true
    },
    {
      "inputs": [
        {
          "internalType": "address",
          "name": "spender",
          "type": "address"
        },
        {
          "internalType": "uint256",
          "name": "amount",
          "type": "uint256"
        }
      ],
      "name": "approve",
      "outputs": [
        {
          "internalType": "bool",
          "name": "",
          "type": "bool"
        }
      ],
      "stateMutability": "nonpayable",
      "type": "function"
    },
    {
      "inputs": [
        {
          "internalType": "address",
          "name": "account",
          "type": "address"
        }
      ],
      "name": "balanceOf",
      "outputs": [
        {
          "internalType": "uint256",
          "name": "",
          "type": "uint256"
        }
      ],
      "stateMutability": "view",
      "type": "function",
      "constant": true
    },
    {
      "inputs": [],
      "name": "cap",
      "outputs": [
        {
          "internalType": "uint256",
          "name": "",
          "type": "uint256"
        }
      ],
      "stateMutability": "view",
      "type": "function",
      "constant": true
    },
    {
      "inputs": [],
      "name": "decimals",
      "outputs": [
        {
          "internalType": "uint8",
          "name": "",
          "type": "uint8"
        }
      ],
      "stateMutability": "view",
      "type": "function",
      "constant": true
    },
    {
      "inputs": [
        {
          "internalType": "address",
          "name": "spender",
          "type": "address"
        },
        {
          "internalType": "uint256",
          "name": "subtractedValue",
          "type": "uint256"
        }
      ],
      "name": "decreaseAllowance",
      "outputs": [
        {
          "internalType": "bool",
          "name": "",
          "type": "bool"
        }
      ],
      "stateMutability": "nonpayable",
      "type": "function"
    },
    {
      "inputs": [
        {
          "internalType": "address",
          "name": "spender",
          "type": "address"
        },
        {
          "internalType": "uint256",
          "name": "addedValue",
          "type": "uint256"
        }
      ],
      "name": "increaseAllowance",
      "outputs": [
        {
          "internalType": "bool",
          "name": "",
          "type": "bool"
        }
      ],
      "stateMutability": "nonpayable",
      "type": "function"
    },
    {
      "inputs": [],
      "name": "name",
      "outputs": [
        {
          "internalType": "string",
          "name": "",
          "type": "string"
        }
      ],
      "stateMutability": "view",
      "type": "function",
      "constant": true
    },
    {
      "inputs": [],
      "name": "symbol",
      "outputs": [
        {
          "internalType": "string",
          "name": "",
          "type": "string"
        }
      ],
      "stateMutability": "view",
      "type": "function",
      "constant": true
    },
    {
      "inputs": [],
      "name": "totalSupply",
      "outputs": [
        {
          "internalType": "uint256",
          "name": "",
          "type": "uint256"
        }
      ],
      "stateMutability": "view",
      "type": "function",
      "constant": true
    },
    {
      "inputs": [
        {
          "internalType": "address",
          "name": "recipient",
          "type": "address"
        },
        {
          "internalType": "uint256",
          "name": "amount",
          "type": "uint256"
        }
      ],
      "name": "transfer",
      "outputs": [
        {
          "internalType": "bool",
          "name": "",
          "type": "bool"
        }
      ],
      "stateMutability": "nonpayable",
      "type": "function"
    },
    {
      "inputs": [
        {
          "internalType": "address",
          "name": "sender",
          "type": "address"
        },
        {
          "internalType": "address",
          "name": "recipient",
          "type": "address"
        },
        {
          "internalType": "uint256",
          "name": "amount",
          "type": "uint256"
        }
      ],
      "name": "transferFrom",
      "outputs": [
        {
          "internalType": "bool",
          "name": "",
          "type": "bool"
        }
      ],
      "stateMutability": "nonpayable",
      "type": "function"
    },
    {
      "inputs": [
        {
          "internalType": "address",
          "name": "a",
          "type": "address"
        }
      ],
      "name": "isAllowedMinter",
      "outputs": [
        {
          "internalType": "bool",
          "name": "",
          "type": "bool"
        }
      ],
      "stateMutability": "view",
      "type": "function",
      "constant": true
    },
    {
      "inputs": [
        {
          "internalType": "address",
          "name": "account",
          "type": "address"
        },
        {
          "internalType": "uint256",
          "name": "amount",
          "type": "uint256"
        }
      ],
      "name": "mint",
      "outputs": [],
      "stateMutability": "nonpayable",
      "type": "function"
    },
    {
      "inputs": [
        {
          "internalType": "address",
          "name": "a",
          "type": "address"
        }
      ],
      "name": "addAllowedMinter",
      "outputs": [],
      "stateMutability": "nonpayable",
      "type": "function"
    },
    {
      "inputs": [
        {
          "internalType": "address",
          "name": "a",
          "type": "address"
        }
      ],
      "name": "removeAllowedMinter",
      "outputs": [],
      "stateMutability": "nonpayable",
      "type": "function"
    }
  ],
  "bytecode": "0x60806040523480156200001157600080fd5b506040516200125f3803806200125f833981810160405260608110156200003757600080fd5b81019080805160405193929190846401000000008211156200005857600080fd5b9083019060208201858111156200006e57600080fd5b82516401000000008111828201881017156200008957600080fd5b82525081516020918201929091019080838360005b83811015620000b85781810151838201526020016200009e565b50505050905090810190601f168015620000e65780820380516001836020036101000a031916815260200191505b50604052602001805160405193929190846401000000008211156200010a57600080fd5b9083019060208201858111156200012057600080fd5b82516401000000008111828201881017156200013b57600080fd5b82525081516020918201929091019080838360005b838110156200016a57818101518382015260200162000150565b50505050905090810190601f168015620001985780820380516001836020036101000a031916815260200191505b50604052602090810151855190935083925085918591620001c0916003919085019062000265565b508051620001d690600490602084019062000265565b50506005805460ff19166012179055508062000239576040805162461bcd60e51b815260206004820152601560248201527f45524332304361707065643a2063617020697320300000000000000000000000604482015290519081900360640190fd5b6006555050336000908152600760205260409020805460ff191660019081179091556008555062000301565b828054600181600116156101000203166002900490600052602060002090601f016020900481019282601f10620002a857805160ff1916838001178555620002d8565b82800160010185558215620002d8579182015b82811115620002d8578251825591602001919060010190620002bb565b50620002e6929150620002ea565b5090565b5b80821115620002e65760008155600101620002eb565b610f4e80620003116000396000f3fe608060405234801561001057600080fd5b50600436106101005760003560e01c806340c10f1911610097578063a457c2d711610066578063a457c2d71461030c578063a9059cbb14610338578063bad39b9614610364578063dd62ed3e1461038a57610100565b806340c10f191461028a578063488603df146102b857806370a08231146102de57806395d89b411461030457610100565b806323b872dd116100d357806323b872dd14610202578063313ce56714610238578063355274ea14610256578063395093511461025e57610100565b806306fdde0314610105578063095ea7b31461018257806318160ddd146101c25780631f3b4c90146101dc575b600080fd5b61010d6103b8565b6040805160208082528351818301528351919283929083019185019080838360005b8381101561014757818101518382015260200161012f565b50505050905090810190601f1680156101745780820380516001836020036101000a031916815260200191505b509250505060405180910390f35b6101ae6004803603604081101561019857600080fd5b506001600160a01b03813516906020013561044e565b604080519115158252519081900360200190f35b6101ca61046b565b60408051918252519081900360200190f35b6101ae600480360360208110156101f257600080fd5b50356001600160a01b0316610471565b6101ae6004803603606081101561021857600080fd5b506001600160a01b0381358116916020810135909116906040013561048f565b610240610516565b6040805160ff9092168252519081900360200190f35b6101ca61051f565b6101ae6004803603604081101561027457600080fd5b506001600160a01b038135169060200135610525565b6102b6600480360360408110156102a057600080fd5b506001600160a01b038135169060200135610573565b005b6102b6600480360360208110156102ce57600080fd5b50356001600160a01b03166105db565b6101ca600480360360208110156102f457600080fd5b50356001600160a01b03166106c8565b61010d6106e3565b6101ae6004803603604081101561032257600080fd5b506001600160a01b038135169060200135610744565b6101ae6004803603604081101561034e57600080fd5b506001600160a01b0381351690602001356107ac565b6102b66004803603602081101561037a57600080fd5b50356001600160a01b03166107c0565b6101ca600480360360408110156103a057600080fd5b506001600160a01b03813581169160200135166108f9565b60038054604080516020601f60026000196101006001881615020190951694909404938401819004810282018101909252828152606093909290918301828280156104445780601f1061041957610100808354040283529160200191610444565b820191906000526020600020905b81548152906001019060200180831161042757829003601f168201915b5050505050905090565b600061046261045b610924565b8484610928565b50600192915050565b60025490565b6001600160a01b031660009081526007602052604090205460ff1690565b600061049c848484610a14565b61050c846104a8610924565b61050785604051806060016040528060288152602001610e83602891396001600160a01b038a166000908152600160205260408120906104e6610924565b6001600160a01b031681526020810191909152604001600020549190610b6f565b610928565b5060019392505050565b60055460ff1690565b60065490565b6000610462610532610924565b846105078560016000610543610924565b6001600160a01b03908116825260208083019390935260409182016000908120918c168152925290205490610c06565b61057c33610471565b6105cd576040805162461bcd60e51b815260206004820152601660248201527f73656e646572206973206e6f742061206d696e74657200000000000000000000604482015290519081900360640190fd5b6105d78282610c67565b5050565b6105e433610471565b610635576040805162461bcd60e51b815260206004820152601660248201527f73656e646572206973206e6f742061206d696e74657200000000000000000000604482015290519081900360640190fd5b61063e81610471565b15610690576040805162461bcd60e51b815260206004820152601a60248201527f74617267657420697320616c72656164792061206d696e746572000000000000604482015290519081900360640190fd5b6001600160a01b0381166000908152600760205260409020805460ff191660019081179091556008546106c291610c06565b60085550565b6001600160a01b031660009081526020819052604090205490565b60048054604080516020601f60026000196101006001881615020190951694909404938401819004810282018101909252828152606093909290918301828280156104445780601f1061041957610100808354040283529160200191610444565b6000610462610751610924565b8461050785604051806060016040528060258152602001610ef4602591396001600061077b610924565b6001600160a01b03908116825260208083019390935260409182016000908120918d16815292529020549190610b6f565b60006104626107b9610924565b8484610a14565b6107c933610471565b61081a576040805162461bcd60e51b815260206004820152601660248201527f73656e646572206973206e6f742061206d696e74657200000000000000000000604482015290519081900360640190fd5b61082381610471565b610874576040805162461bcd60e51b815260206004820152601660248201527f746172676574206973206e6f742061206d696e74657200000000000000000000604482015290519081900360640190fd5b6001600854116108cb576040805162461bcd60e51b815260206004820152601d60248201527f63616e6e6f742072656d6f766520746865206f6e6c79206d696e746572000000604482015290519081900360640190fd5b6001600160a01b0381166000908152600760205260409020805460ff191690556008546106c2906001610d57565b6001600160a01b03918216600090815260016020908152604080832093909416825291909152205490565b3390565b6001600160a01b03831661096d5760405162461bcd60e51b8152600401808060200182810382526024815260200180610ed06024913960400191505060405180910390fd5b6001600160a01b0382166109b25760405162461bcd60e51b8152600401808060200182810382526022815260200180610e3b6022913960400191505060405180910390fd5b6001600160a01b03808416600081815260016020908152604080832094871680845294825291829020859055815185815291517f8c5be1e5ebec7d5bd14f71427d1e84f3dd0314c0f7b2291e5b200ac8c7c3b9259281900390910190a3505050565b6001600160a01b038316610a595760405162461bcd60e51b8152600401808060200182810382526025815260200180610eab6025913960400191505060405180910390fd5b6001600160a01b038216610a9e5760405162461bcd60e51b8152600401808060200182810382526023815260200180610e186023913960400191505060405180910390fd5b610aa9838383610d99565b610ae681604051806060016040528060268152602001610e5d602691396001600160a01b0386166000908152602081905260409020549190610b6f565b6001600160a01b038085166000908152602081905260408082209390935590841681522054610b159082610c06565b6001600160a01b038084166000818152602081815260409182902094909455805185815290519193928716927fddf252ad1be2c89b69c2b068fc378daa952ba7f163c4a11628f55a4df523b3ef92918290030190a3505050565b60008184841115610bfe5760405162461bcd60e51b81526004018080602001828103825283818151815260200191508051906020019080838360005b83811015610bc3578181015183820152602001610bab565b50505050905090810190601f168015610bf05780820380516001836020036101000a031916815260200191505b509250505060405180910390fd5b505050900390565b600082820183811015610c60576040805162461bcd60e51b815260206004820152601b60248201527f536166654d6174683a206164646974696f6e206f766572666c6f770000000000604482015290519081900360640190fd5b9392505050565b6001600160a01b038216610cc2576040805162461bcd60e51b815260206004820152601f60248201527f45524332303a206d696e7420746f20746865207a65726f206164647265737300604482015290519081900360640190fd5b610cce60008383610d99565b600254610cdb9082610c06565b6002556001600160a01b038216600090815260208190526040902054610d019082610c06565b6001600160a01b0383166000818152602081815260408083209490945583518581529351929391927fddf252ad1be2c89b69c2b068fc378daa952ba7f163c4a11628f55a4df523b3ef9281900390910190a35050565b6000610c6083836040518060400160405280601e81526020017f536166654d6174683a207375627472616374696f6e206f766572666c6f770000815250610b6f565b610da4838383610e12565b6001600160a01b038316610e125760065481610dbe61046b565b011115610e12576040805162461bcd60e51b815260206004820152601960248201527f45524332304361707065643a2063617020657863656564656400000000000000604482015290519081900360640190fd5b50505056fe45524332303a207472616e7366657220746f20746865207a65726f206164647265737345524332303a20617070726f766520746f20746865207a65726f206164647265737345524332303a207472616e7366657220616d6f756e7420657863656564732062616c616e636545524332303a207472616e7366657220616d6f756e74206578636565647320616c6c6f77616e636545524332303a207472616e736665722066726f6d20746865207a65726f206164647265737345524332303a20617070726f76652066726f6d20746865207a65726f206164647265737345524332303a2064656372656173656420616c6c6f77616e63652062656c6f77207a65726fa264697066735822122060de11891518d5bdb29a34b0881be3f11d9011d365daf06fa5fc2748fef1073064736f6c634300060c0033",
  "immutableReferences": {},
  "source": "// SPDX-License-Identifier: MIT\r\npragma solidity ^0.6.0;\r\n\r\nimport \"./ERC20Capped.sol\";\r\n\r\n/** @title Extension of {ERC20} that adds a cap to the supply of tokens. */\r\ncontract WebaverseERC20 is ERC20Capped {\r\n    mapping(address => bool) internal allowedMinters; // whether anyone can mint tokens (should be sidechain only)\r\n    uint256 internal numAllowedMinters;\r\n\r\n    /**\r\n     * @dev Create a new fungible token\r\n     * @param name Name of the token (default is FT)\r\n     * @param symbol Token identifier (default is SILK)\r\n     * @param cap Sets the token market cap. This value is immutable, it can only be\r\n     * set once during construction.\r\n     * Default cap: 2147483648000000000000000000 or (2**31) + '000000000000000000'\r\n     */\r\n    constructor(\r\n        string memory name,\r\n        string memory symbol,\r\n        uint256 cap\r\n    ) public ERC20(name, symbol) ERC20Capped(cap) {\r\n        allowedMinters[msg.sender] = true;\r\n        numAllowedMinters = 1;\r\n    }\r\n\r\n    /**\r\n     * @dev Test if an address is allowed to mint ERC20 tokens\r\n     * @param a address to test\r\n     * @return true if address is allowed to mint\r\n     */\r\n    function isAllowedMinter(address a) public view returns (bool) {\r\n        return allowedMinters[a];\r\n    }\r\n\r\n    /** @dev Modify functions to ensure only allowed minters can mint */\r\n    modifier onlyMinter() {\r\n        require(isAllowedMinter(msg.sender), \"sender is not a minter\");\r\n        _; // Inject modified function\r\n    }\r\n\r\n    /**\r\n     * @dev Mint ERC20 tokens\r\n     * @param account Tokens created for this account\r\n     * @param amount Number of tokens to mint\r\n     */\r\n    function mint(address account, uint256 amount) public onlyMinter() {\r\n        _mint(account, amount);\r\n    }\r\n\r\n    /**\r\n     * @dev Add an account to the list of accounts allowed to create ERC20 tokens\r\n     * @param a address to whitelist\r\n     */\r\n    function addAllowedMinter(address a) public onlyMinter() {\r\n        require(!isAllowedMinter(a), \"target is already a minter\");\r\n        allowedMinters[a] = true;\r\n        numAllowedMinters = SafeMath.add(numAllowedMinters, 1);\r\n    }\r\n\r\n    /**\r\n     * @dev Remove an account from the list of accounts allowed to create ERC20 tokens\r\n     * @param a address to remove from whitelist\r\n     */\r\n    function removeAllowedMinter(address a) public onlyMinter() {\r\n        require(isAllowedMinter(a), \"target is not a minter\");\r\n        require(numAllowedMinters > 1, \"cannot remove the only minter\");\r\n        allowedMinters[a] = false;\r\n        numAllowedMinters = SafeMath.sub(numAllowedMinters, 1);\r\n    }\r\n}\r\n",
  "sourcePath": "D:\\Project\\Nexus\\Webaverse\\NexusCity -Webaverse_smart contract\\webaverse-contracts\\ethereum\\WebaverseERC20.sol",
  "compiler": {
    "name": "solc",
    "version": "0.6.12+commit.27d51765.Emscripten.clang"
  },
  "schemaVersion": "3.4.7",
  "updatedAt": "2022-06-11T17:56:07.070Z",
  "networkType": "ethereum",
  "devdoc": {
    "kind": "dev",
    "methods": {
      "addAllowedMinter(address)": {
        "details": "Add an account to the list of accounts allowed to create ERC20 tokens",
        "params": {
          "a": "address to whitelist"
        }
      },
      "allowance(address,address)": {
        "details": "See {IERC20-allowance}."
      },
      "approve(address,uint256)": {
        "details": "See {IERC20-approve}. Requirements: - `spender` cannot be the zero address."
      },
      "balanceOf(address)": {
        "details": "See {IERC20-balanceOf}."
      },
      "cap()": {
        "details": "Returns the cap on the token's total supply."
      },
      "constructor": {
        "details": "Create a new fungible token",
        "params": {
          "cap": "Sets the token market cap. This value is immutable, it can only be set once during construction. Default cap: 2147483648000000000000000000 or (2**31) + '000000000000000000'",
          "name": "Name of the token (default is FT)",
          "symbol": "Token identifier (default is SILK)"
        }
      },
      "decimals()": {
        "details": "Returns the number of decimals used to get its user representation. For example, if `decimals` equals `2`, a balance of `505` tokens should be displayed to a user as `5,05` (`505 / 10 ** 2`). Tokens usually opt for a value of 18, imitating the relationship between Ether and Wei. This is the value {ERC20} uses, unless {_setupDecimals} is called. NOTE: This information is only used for _display_ purposes: it in no way affects any of the arithmetic of the contract, including {IERC20-balanceOf} and {IERC20-transfer}."
      },
      "decreaseAllowance(address,uint256)": {
        "details": "Atomically decreases the allowance granted to `spender` by the caller. This is an alternative to {approve} that can be used as a mitigation for problems described in {IERC20-approve}. Emits an {Approval} event indicating the updated allowance. Requirements: - `spender` cannot be the zero address. - `spender` must have allowance for the caller of at least `subtractedValue`."
      },
      "increaseAllowance(address,uint256)": {
        "details": "Atomically increases the allowance granted to `spender` by the caller. This is an alternative to {approve} that can be used as a mitigation for problems described in {IERC20-approve}. Emits an {Approval} event indicating the updated allowance. Requirements: - `spender` cannot be the zero address."
      },
      "isAllowedMinter(address)": {
        "details": "Test if an address is allowed to mint ERC20 tokens",
        "params": {
          "a": "address to test"
        },
        "returns": {
          "_0": "true if address is allowed to mint"
        }
      },
      "mint(address,uint256)": {
        "details": "Mint ERC20 tokens",
        "params": {
          "account": "Tokens created for this account",
          "amount": "Number of tokens to mint"
        }
      },
      "name()": {
        "details": "Returns the name of the token."
      },
      "removeAllowedMinter(address)": {
        "details": "Remove an account from the list of accounts allowed to create ERC20 tokens",
        "params": {
          "a": "address to remove from whitelist"
        }
      },
      "symbol()": {
        "details": "Returns the symbol of the token, usually a shorter version of the name."
      },
      "totalSupply()": {
        "details": "See {IERC20-totalSupply}."
      },
      "transfer(address,uint256)": {
        "details": "See {IERC20-transfer}. Requirements: - `recipient` cannot be the zero address. - the caller must have a balance of at least `amount`."
      },
      "transferFrom(address,address,uint256)": {
        "details": "See {IERC20-transferFrom}. Emits an {Approval} event indicating the updated allowance. This is not required by the EIP. See the note at the beginning of {ERC20}. Requirements: - `sender` and `recipient` cannot be the zero address. - `sender` must have a balance of at least `amount`. - the caller must have allowance for ``sender``'s tokens of at least `amount`."
      }
    },
    "title": "Extension of {ERC20} that adds a cap to the supply of tokens. ",
    "version": 1
  },
  "userdoc": {
    "kind": "user",
    "methods": {},
    "version": 1
  }
}