{
  "contractName": "WebaverseAccount",
  "abi": [
    {
      "inputs": [],
      "stateMutability": "nonpayable",
      "type": "constructor"
    },
    {
      "anonymous": false,
      "inputs": [
        {
          "indexed": false,
          "internalType": "address",
          "name": "owner",
          "type": "address"
        },
        {
          "indexed": false,
          "internalType": "string",
          "name": "key",
          "type": "string"
        },
        {
          "indexed": false,
          "internalType": "string",
          "name": "value",
          "type": "string"
        }
      ],
      "name": "MetadataSet",
      "type": "event"
    },
    {
      "inputs": [
        {
          "internalType": "address",
          "name": "owner",
          "type": "address"
        },
        {
          "internalType": "string",
          "name": "key",
          "type": "string"
        }
      ],
      "name": "getMetadata",
      "outputs": [
        {
          "internalType": "string",
          "name": "",
          "type": "string"
        }
      ],
      "stateMutability": "view",
      "type": "function",
      "constant": true
    },
    {
      "inputs": [
        {
          "internalType": "address",
          "name": "owner",
          "type": "address"
        },
        {
          "internalType": "string",
          "name": "key",
          "type": "string"
        },
        {
          "internalType": "string",
          "name": "value",
          "type": "string"
        }
      ],
      "name": "setMetadata",
      "outputs": [],
      "stateMutability": "nonpayable",
      "type": "function"
    }
  ],
  "bytecode": "0x608060405234801561001057600080fd5b506104e1806100206000396000f3fe608060405234801561001057600080fd5b50600436106100365760003560e01c8063eb3b0cba1461003b578063f064e8fa14610050575b600080fd5b61004e61004936600461035d565b610079565b005b61006361005e366004610304565b610123565b6040516100709190610461565b60405180910390f35b336001600160a01b0384161461008e57600080fd5b80600080856001600160a01b03166001600160a01b03168152602001908152602001600020836040516100c19190610407565b908152602001604051809103902090805190602001906100e29291906101f3565b507f7636379abd2cb1768418cbb261f154b5a4891181912ad6e4725f8262e09d2e8483838360405161011693929190610423565b60405180910390a1505050565b6060600080846001600160a01b03166001600160a01b03168152602001908152602001600020826040516101579190610407565b9081526040805160209281900383018120805460026001821615610100026000190190911604601f810185900485028301850190935282825290929091908301828280156101e65780601f106101bb576101008083540402835291602001916101e6565b820191906000526020600020905b8154815290600101906020018083116101c957829003601f168201915b5050505050905092915050565b828054600181600116156101000203166002900490600052602060002090601f016020900481019282601f1061023457805160ff1916838001178555610261565b82800160010185558215610261579182015b82811115610261578251825591602001919060010190610246565b5061026d929150610271565b5090565b5b8082111561026d5760008155600101610272565b600082601f830112610296578081fd5b813567ffffffffffffffff808211156102ad578283fd5b604051601f8301601f1916810160200182811182821017156102cd578485fd5b6040528281529250828483016020018610156102e857600080fd5b8260208601602083013760006020848301015250505092915050565b60008060408385031215610316578182fd5b82356001600160a01b038116811461032c578283fd5b9150602083013567ffffffffffffffff811115610347578182fd5b61035385828601610286565b9150509250929050565b600080600060608486031215610371578081fd5b83356001600160a01b0381168114610387578182fd5b9250602084013567ffffffffffffffff808211156103a3578283fd5b6103af87838801610286565b935060408601359150808211156103c4578283fd5b506103d186828701610286565b9150509250925092565b600081518084526103f381602086016020860161047b565b601f01601f19169290920160200192915050565b6000825161041981846020870161047b565b9190910192915050565b60006001600160a01b03851682526060602083015261044560608301856103db565b828103604084015261045781856103db565b9695505050505050565b60006020825261047460208301846103db565b9392505050565b60005b8381101561049657818101518382015260200161047e565b838111156104a5576000848401525b5050505056fea26469706673582212203678d0623ce3a610b837b183ec1abefea66ccfcf4f2cba2b6b4a885c5f7ce86564736f6c634300060c0033",
  "immutableReferences": {},
  "source": "// SPDX-License-Identifier: MIT\r\npragma solidity ^0.6.0;\r\npragma experimental ABIEncoderV2;\r\n\r\n/** @title Webaverse account contract. */\r\ncontract WebaverseAccount {\r\n    /** @dev Event called when owner changes metadata value. */\r\n    event MetadataSet(address owner, string key, string value);\r\n\r\n    /** @dev Mapping of a key like \"avatar\" to a token address. */\r\n    mapping(address => mapping(string => string)) private addressToMetadata;\r\n\r\n    /** @dev Constructor is empty. */\r\n    constructor() public {}\r\n\r\n    /**  @dev Read the metadata value for a key\r\n     *  Example: 0x08E242bB06D85073e69222aF8273af419d19E4f6, \"avatar\"\r\n     *  @param owner Owner of this account\r\n     *  @param key Metadata key to retrieve\r\n     *  @return value as a string\r\n     */\r\n    function getMetadata(address owner, string memory key)\r\n        public\r\n        view\r\n        returns (string memory)\r\n    {\r\n        return addressToMetadata[owner][key];\r\n    }\r\n\r\n    /**  @dev Write the metadata value for a key\r\n     *  Example: 0x08E242bB06D85073e69222aF8273af419d19E4f6, \"avatar\", \"<address_of_avatar_token>\"\r\n     *  @param owner Owner of this account\r\n     *  @param key Metadata key to store\r\n     *  @param value Metadata value to store\r\n     */\r\n    function setMetadata(\r\n        address owner,\r\n        string memory key,\r\n        string memory value\r\n    ) public {\r\n        require(msg.sender == owner); // only allow owner to change metadata\r\n        addressToMetadata[owner][key] = value; // store the value in the key-value mapping\r\n\r\n        emit MetadataSet(owner, key, value); // emit the MetadataSet event\r\n    }\r\n}\r\n",
  "sourcePath": "D:\\Project\\Nexus\\Webaverse\\NexusCity -Webaverse_smart contract\\webaverse-contracts\\ethereum\\WebaverseAccount.sol",
  "compiler": {
    "name": "solc",
    "version": "0.6.12+commit.27d51765.Emscripten.clang"
  },
  "schemaVersion": "3.4.7",
  "updatedAt": "2022-06-11T17:56:07.065Z",
  "networkType": "ethereum",
  "devdoc": {
    "events": {
      "MetadataSet(address,string,string)": {
        "details": "Event called when owner changes metadata value. "
      }
    },
    "kind": "dev",
    "methods": {
      "constructor": {
        "details": "Constructor is empty. "
      },
      "getMetadata(address,string)": {
        "details": "Read the metadata value for a key  Example: 0x08E242bB06D85073e69222aF8273af419d19E4f6, \"avatar\"",
        "params": {
          "key": "Metadata key to retrieve",
          "owner": "Owner of this account"
        },
        "returns": {
          "_0": "value as a string"
        }
      },
      "setMetadata(address,string,string)": {
        "details": "Write the metadata value for a key  Example: 0x08E242bB06D85073e69222aF8273af419d19E4f6, \"avatar\", \"<address_of_avatar_token>\"",
        "params": {
          "key": "Metadata key to store",
          "owner": "Owner of this account",
          "value": "Metadata value to store"
        }
      }
    },
    "stateVariables": {
      "addressToMetadata": {
        "details": "Mapping of a key like \"avatar\" to a token address. "
      }
    },
    "title": "Webaverse account contract. ",
    "version": 1
  },
  "userdoc": {
    "kind": "user",
    "methods": {},
    "version": 1
  }
}