{
  "contractName": "WebaverseTrade",
  "abi": [
    {
      "inputs": [
        {
          "internalType": "address",
          "name": "parentERC20Address",
          "type": "address"
        },
        {
          "internalType": "address",
          "name": "parentERC721Address",
          "type": "address"
        },
        {
          "internalType": "address",
          "name": "signerAddress",
          "type": "address"
        }
      ],
      "stateMutability": "nonpayable",
      "type": "constructor"
    },
    {
      "anonymous": false,
      "inputs": [
        {
          "indexed": true,
          "internalType": "uint256",
          "name": "id",
          "type": "uint256"
        }
      ],
      "name": "Buy",
      "type": "event"
    },
    {
      "anonymous": false,
      "inputs": [
        {
          "indexed": true,
          "internalType": "uint256",
          "name": "id",
          "type": "uint256"
        },
        {
          "indexed": true,
          "internalType": "address",
          "name": "seller",
          "type": "address"
        },
        {
          "indexed": true,
          "internalType": "uint256",
          "name": "tokenId",
          "type": "uint256"
        },
        {
          "indexed": false,
          "internalType": "uint256",
          "name": "price",
          "type": "uint256"
        }
      ],
      "name": "Sell",
      "type": "event"
    },
    {
      "anonymous": false,
      "inputs": [
        {
          "indexed": true,
          "internalType": "uint256",
          "name": "id",
          "type": "uint256"
        }
      ],
      "name": "Unsell",
      "type": "event"
    },
    {
      "inputs": [
        {
          "internalType": "address",
          "name": "newSigner",
          "type": "address"
        }
      ],
      "name": "setSigner",
      "outputs": [],
      "stateMutability": "nonpayable",
      "type": "function"
    },
    {
      "inputs": [
        {
          "internalType": "address",
          "name": "newParentERC20",
          "type": "address"
        }
      ],
      "name": "setERC20Parent",
      "outputs": [],
      "stateMutability": "nonpayable",
      "type": "function"
    },
    {
      "inputs": [
        {
          "internalType": "address",
          "name": "newParentERC721Address",
          "type": "address"
        }
      ],
      "name": "setERC721Parent",
      "outputs": [],
      "stateMutability": "nonpayable",
      "type": "function"
    },
    {
      "inputs": [
        {
          "internalType": "uint256",
          "name": "tokenId",
          "type": "uint256"
        },
        {
          "internalType": "uint256",
          "name": "price",
          "type": "uint256"
        }
      ],
      "name": "addStore",
      "outputs": [],
      "stateMutability": "nonpayable",
      "type": "function"
    },
    {
      "inputs": [
        {
          "internalType": "uint256",
          "name": "buyId",
          "type": "uint256"
        }
      ],
      "name": "removeStore",
      "outputs": [],
      "stateMutability": "nonpayable",
      "type": "function"
    },
    {
      "inputs": [
        {
          "internalType": "uint256",
          "name": "buyId",
          "type": "uint256"
        }
      ],
      "name": "buy",
      "outputs": [],
      "stateMutability": "nonpayable",
      "type": "function"
    },
    {
      "inputs": [],
      "name": "numStores",
      "outputs": [
        {
          "internalType": "uint256",
          "name": "",
          "type": "uint256"
        }
      ],
      "stateMutability": "view",
      "type": "function",
      "constant": true
    },
    {
      "inputs": [
        {
          "internalType": "uint256",
          "name": "buyId",
          "type": "uint256"
        }
      ],
      "name": "getStoreByIndex",
      "outputs": [
        {
          "components": [
            {
              "internalType": "uint256",
              "name": "id",
              "type": "uint256"
            },
            {
              "internalType": "address",
              "name": "seller",
              "type": "address"
            },
            {
              "internalType": "uint256",
              "name": "tokenId",
              "type": "uint256"
            },
            {
              "internalType": "uint256",
              "name": "price",
              "type": "uint256"
            },
            {
              "internalType": "bool",
              "name": "live",
              "type": "bool"
            }
          ],
          "internalType": "struct WebaverseTrade.Store",
          "name": "",
          "type": "tuple"
        }
      ],
      "stateMutability": "view",
      "type": "function",
      "constant": true
    },
    {
      "inputs": [
        {
          "internalType": "address",
          "name": "from",
          "type": "address"
        },
        {
          "internalType": "address",
          "name": "to",
          "type": "address"
        },
        {
          "internalType": "uint256",
          "name": "fromFt",
          "type": "uint256"
        },
        {
          "internalType": "uint256",
          "name": "toFt",
          "type": "uint256"
        },
        {
          "internalType": "uint256",
          "name": "a1",
          "type": "uint256"
        },
        {
          "internalType": "uint256",
          "name": "b1",
          "type": "uint256"
        },
        {
          "internalType": "uint256",
          "name": "a2",
          "type": "uint256"
        },
        {
          "internalType": "uint256",
          "name": "b2",
          "type": "uint256"
        },
        {
          "internalType": "uint256",
          "name": "a3",
          "type": "uint256"
        },
        {
          "internalType": "uint256",
          "name": "b3",
          "type": "uint256"
        }
      ],
      "name": "trade",
      "outputs": [],
      "stateMutability": "nonpayable",
      "type": "function"
    }
  ],
  "bytecode": "0x608060405234801561001057600080fd5b50604051610f0c380380610f0c83398101604081905261002f91610073565b600080546001600160a01b03199081166001600160a01b039586161782556001805482169486169490941790935560028054909316919093161790556003556100d7565b600080600060608486031215610087578283fd5b8351610092816100bf565b60208501519093506100a3816100bf565b60408501519092506100b4816100bf565b809150509250925092565b6001600160a01b03811681146100d457600080fd5b50565b610e26806100e66000396000f3fe608060405234801561001057600080fd5b50600436106100a35760003560e01c80636c19e783116100765780639bc0432c1161005b5780639bc0432c14610127578063bf2b15221461013a578063d96a094a1461015a576100a3565b80636c19e78314610101578063987f639b14610114576100a3565b806301e15b52146100a857806311eb33ec146100bd5780632d96a297146100d0578063492c5b9e146100e3575b600080fd5b6100bb6100b6366004610abb565b61016d565b005b6100bb6100cb366004610abb565b6101cf565b6100bb6100de366004610b9e565b610228565b6100eb61036b565b6040516100f89190610dcf565b60405180910390f35b6100bb61010f366004610abb565b610371565b6100bb610122366004610ae9565b6103ca565b6100bb610135366004610b86565b6107de565b61014d610148366004610b86565b6108ea565b6040516100f89190610d8a565b6100bb610168366004610b86565b61094c565b6002546001600160a01b031633146101a05760405162461bcd60e51b815260040161019790610c51565b60405180910390fd5b6000805473ffffffffffffffffffffffffffffffffffffffff19166001600160a01b0392909216919091179055565b6002546001600160a01b031633146101f95760405162461bcd60e51b815260040161019790610c51565b6001805473ffffffffffffffffffffffffffffffffffffffff19166001600160a01b0392909216919091179055565b6003805460019081018083556040805160a0810182528281523360208083018281528385018a8152606085018a8152608086018981526000898152600495869052889020965187559251988601805473ffffffffffffffffffffffffffffffffffffffff19166001600160a01b03909a169990991790985551600285015595519683019690965593519401805460ff191694151594909417909355915184919083907fce55bfae73b3c55d09c9fb6723466656ecb31fc2f7c5b90c296456857480c88c906102f7908790610dcf565b60405180910390a46001546040516323b872dd60e01b815230916001600160a01b0316906323b872dd9061033390339085908990600401610bbf565b600060405180830381600087803b15801561034d57600080fd5b505af1158015610361573d6000803e3d6000fd5b5050505050505050565b60035490565b6002546001600160a01b0316331461039b5760405162461bcd60e51b815260040161019790610c88565b6002805473ffffffffffffffffffffffffffffffffffffffff19166001600160a01b0392909216919091179055565b6002546001600160a01b031633146103f45760405162461bcd60e51b815260040161019790610be3565b871561049c576000546040516323b872dd60e01b81526001600160a01b03909116906323b872dd9061042e908d908d908d90600401610bbf565b602060405180830381600087803b15801561044857600080fd5b505af115801561045c573d6000803e3d6000fd5b505050506040513d601f19601f820116820180604052508101906104809190610b66565b61049c5760405162461bcd60e51b815260040161019790610d1c565b8615610544576000546040516323b872dd60e01b81526001600160a01b03909116906323b872dd906104d6908c908e908c90600401610bbf565b602060405180830381600087803b1580156104f057600080fd5b505af1158015610504573d6000803e3d6000fd5b505050506040513d601f19601f820116820180604052508101906105289190610b66565b6105445760405162461bcd60e51b815260040161019790610d53565b85156105b1576001546040516323b872dd60e01b81526001600160a01b03909116906323b872dd9061057e908d908d908b90600401610bbf565b600060405180830381600087803b15801561059857600080fd5b505af11580156105ac573d6000803e3d6000fd5b505050505b841561061e576001546040516323b872dd60e01b81526001600160a01b03909116906323b872dd906105eb908c908e908a90600401610bbf565b600060405180830381600087803b15801561060557600080fd5b505af1158015610619573d6000803e3d6000fd5b505050505b831561068b576001546040516323b872dd60e01b81526001600160a01b03909116906323b872dd90610658908d908d908990600401610bbf565b600060405180830381600087803b15801561067257600080fd5b505af1158015610686573d6000803e3d6000fd5b505050505b82156106f8576001546040516323b872dd60e01b81526001600160a01b03909116906323b872dd906106c5908c908e908890600401610bbf565b600060405180830381600087803b1580156106df57600080fd5b505af11580156106f3573d6000803e3d6000fd5b505050505b8115610765576001546040516323b872dd60e01b81526001600160a01b03909116906323b872dd90610732908d908d908790600401610bbf565b600060405180830381600087803b15801561074c57600080fd5b505af1158015610760573d6000803e3d6000fd5b505050505b80156107d2576001546040516323b872dd60e01b81526001600160a01b03909116906323b872dd9061079f908c908e908690600401610bbf565b600060405180830381600087803b1580156107b957600080fd5b505af11580156107cd573d6000803e3d6000fd5b505050505b50505050505050505050565b600081815260046020526040902060018101546001600160a01b031633146108185760405162461bcd60e51b815260040161019790610c1a565b600481015460ff1661083c5760405162461bcd60e51b815260040161019790610ce5565b60048101805460ff1916905560405182907f572bb6682d648f108d9e67f0e924a6ae966c2b4f723c399957ef4f7b1197db2890600090a2600180549082015460028301546040516323b872dd60e01b815230936001600160a01b03908116936323b872dd936108b393879390921691600401610bbf565b600060405180830381600087803b1580156108cd57600080fd5b505af11580156108e1573d6000803e3d6000fd5b50505050505050565b6108f2610a81565b50600090815260046020818152604092839020835160a0810185528154815260018201546001600160a01b0316928101929092526002810154938201939093526003830154606082015291015460ff161515608082015290565b60008181526004602081905260409091209081015460ff166109805760405162461bcd60e51b815260040161019790610ce5565b60048101805460ff1916905560405182907f3e32821836f4caf5b64b2c8c6b460049a9797526960d31502f7575b8da39d5ae90600090a2600054600182015460038301546040516323b872dd60e01b81526001600160a01b03938416936323b872dd936109f69333939290911691600401610bbf565b602060405180830381600087803b158015610a1057600080fd5b505af1158015610a24573d6000803e3d6000fd5b505050506040513d601f19601f82011682018060405250810190610a489190610b66565b5060015460028201546040516323b872dd60e01b815230926001600160a01b0316916323b872dd916108b3918591339190600401610bbf565b6040518060a001604052806000815260200160006001600160a01b0316815260200160008152602001600081526020016000151581525090565b600060208284031215610acc578081fd5b81356001600160a01b0381168114610ae2578182fd5b9392505050565b6000806000806000806000806000806101408b8d031215610b08578586fd5b8a35610b1381610dd8565b995060208b0135610b2381610dd8565b999c999b505050506040880135976060810135976080820135975060a0820135965060c0820135955060e082013594506101008201359350610120909101359150565b600060208284031215610b77578081fd5b81518015158114610ae2578182fd5b600060208284031215610b97578081fd5b5035919050565b60008060408385031215610bb0578182fd5b50508035926020909101359150565b6001600160a01b039384168152919092166020820152604081019190915260600190565b60208082526013908201527f756e617574686f72697a6564207369676e657200000000000000000000000000604082015260600190565b6020808252600d908201527f6e6f7420796f75722073616c6500000000000000000000000000000000000000604082015260600190565b6020808252600e908201527f6d757374206265207369676e6572000000000000000000000000000000000000604082015260600190565b60208082526028908201527f6e6577207369676e65722063616e206f6e6c7920626520736574206279206f6c60408201527f64207369676e6572000000000000000000000000000000000000000000000000606082015260800190565b6020808252600d908201527f73616c65206e6f74206c69766500000000000000000000000000000000000000604082015260600190565b6020808252601d908201527f7472616e736665722066742066726f6d202d3e20746f206661696c6564000000604082015260600190565b6020808252601d908201527f7472616e736665722066742066726f6d203c2d20746f206661696c6564000000604082015260600190565b600060a082019050825182526001600160a01b036020840151166020830152604083015160408301526060830151606083015260808301511515608083015292915050565b90815260200190565b6001600160a01b0381168114610ded57600080fd5b5056fea2646970667358221220df85e6741da89cc340f0a6d2951d3b5605c7b2e80a20fc89ede21657af58556e64736f6c634300060c0033",
  "immutableReferences": {},
  "source": "// SPDX-License-Identifier: MIT\r\npragma solidity ^0.6.0;\r\npragma experimental ABIEncoderV2;\r\n\r\nimport \"./WebaverseERC20.sol\";\r\nimport \"./WebaverseERC721.sol\";\r\n\r\n/** @title Webaverse Trade Contract\r\n * @dev Trade contract to manage user to user trading of fungible and non-fungible tokens\r\n */\r\ncontract WebaverseTrade {\r\n    struct Store {\r\n        uint256 id;\r\n        address seller;\r\n        uint256 tokenId;\r\n        uint256 price;\r\n        bool live;\r\n    }\r\n    event Sell(\r\n        uint256 indexed id,\r\n        address indexed seller,\r\n        uint256 indexed tokenId,\r\n        uint256 price\r\n    );\r\n    event Unsell(uint256 indexed id);\r\n    event Buy(uint256 indexed id);\r\n\r\n    WebaverseERC20 parentERC20; // managed ERC20 contract\r\n    WebaverseERC721 parentERC721; // managed ERC721 contract\r\n    address signer; // signer oracle address\r\n    uint256 nextBuyId; // next buy id\r\n    mapping(uint256 => Store) stores;\r\n\r\n    /**\r\n     * @dev Construct the contract with managed ERC20 and ERC721 contryacts\r\n     * @param parentERC20Address Address of the managed ERC20 contract\r\n     * @param parentERC721Address Address of the managed ERC721 contract\r\n     * @param signerAddress Address of an authorized signer\r\n     * Default parentERC20Address address: 0xd7523103ba15c1dfcf0f5ea1c553bc18179ac656\r\n     * Default parentERC721Address address: 0xfa80e7480e9c42a9241e16d6c1e7518c1b1757e4\r\n     */\r\n    // 0xd7523103ba15c1dfcf0f5ea1c553bc18179ac656\r\n    // 0xfa80e7480e9c42a9241e16d6c1e7518c1b1757e4\r\n    constructor(\r\n        address parentERC20Address,\r\n        address parentERC721Address,\r\n        address signerAddress\r\n    ) public {\r\n        parentERC20 = WebaverseERC20(parentERC20Address);\r\n        parentERC721 = WebaverseERC721(parentERC721Address);\r\n        signer = signerAddress;\r\n        nextBuyId = 0;\r\n    }\r\n\r\n    /** @dev Set the address for the signer oracle\r\n     * @param newSigner Address of the new signer\r\n     */\r\n    function setSigner(address newSigner) public {\r\n        require(\r\n            msg.sender == signer,\r\n            \"new signer can only be set by old signer\"\r\n        );\r\n        signer = newSigner;\r\n    }\r\n\r\n    /** @dev Set the parent ERC20 contract that this contract manages\r\n     * @param newParentERC20 Address of parent contract\r\n     */\r\n    function setERC20Parent(address newParentERC20) public {\r\n        require(msg.sender == signer, \"must be signer\");\r\n        parentERC20 = WebaverseERC20(newParentERC20);\r\n    }\r\n\r\n    /** @dev Set the ERC721 contract that this contract manages\r\n     * @param newParentERC721Address Address of parent contract\r\n     */\r\n    function setERC721Parent(address newParentERC721Address) public {\r\n        require(msg.sender == signer, \"must be signer\");\r\n        parentERC721 = WebaverseERC721(newParentERC721Address);\r\n    }\r\n\r\n    /** @dev Add a non-fungible token to the store to be sold\r\n     * @param tokenId Token to sell\r\n     * @param price Price to sell token for\r\n     */\r\n    function addStore(uint256 tokenId, uint256 price) public {\r\n        uint256 buyId = ++nextBuyId;\r\n        stores[buyId] = Store(buyId, msg.sender, tokenId, price, true);\r\n\r\n        emit Sell(buyId, msg.sender, tokenId, price);\r\n\r\n        address contractAddress = address(this);\r\n        parentERC721.transferFrom(msg.sender, contractAddress, tokenId);\r\n    }\r\n\r\n    /** @dev Remove a token from the store for sale\r\n     * @param buyId ID of the asset in the store\r\n     */\r\n    function removeStore(uint256 buyId) public {\r\n        Store storage store = stores[buyId];\r\n        require(store.seller == msg.sender, \"not your sale\");\r\n        require(store.live, \"sale not live\");\r\n        store.live = false;\r\n\r\n        emit Unsell(buyId);\r\n\r\n        address contractAddress = address(this);\r\n        parentERC721.transferFrom(contractAddress, store.seller, store.tokenId);\r\n    }\r\n\r\n    /** @dev Purchase a token for sale\r\n     * @param buyId ID of the asset in the store\r\n     */\r\n    function buy(uint256 buyId) public {\r\n        Store storage store = stores[buyId];\r\n        require(store.live, \"sale not live\");\r\n        store.live = false;\r\n\r\n        emit Buy(buyId);\r\n\r\n        parentERC20.transferFrom(msg.sender, store.seller, store.price);\r\n        address contractAddress = address(this);\r\n        parentERC721.transferFrom(contractAddress, msg.sender, store.tokenId);\r\n    }\r\n\r\n    /** @dev Get the number of stored assets by the next available ID\r\n     * @return Next usable buy ID, which is an incremented counter\r\n     */\r\n    function numStores() public view returns (uint256) {\r\n        return nextBuyId;\r\n    }\r\n\r\n    /** @dev Get the stored value by buyID\r\n     * @param buyId ID of the asset in the store\r\n     * @return Value in the store keyed by buyId\r\n     */\r\n    function getStoreByIndex(uint256 buyId) public view returns (Store memory) {\r\n        return stores[buyId];\r\n    }\r\n\r\n    /** @dev Trade assets between users\r\n     * @param from ID of player A\r\n     * @param to ID of player B\r\n     * @param fromFt Amount of ERC20 tokens player A has committed to trade\r\n     * @param toFt Amount of ERC20 tokens player B has committed to trade\r\n     * @param a1 Item 1 in player A's trade window\r\n     * @param b1 Item 1 in player B's trade window\r\n     * @param a2 Item 2 in player A's trade window\r\n     * @param b2 Item 2 in player B's trade window\r\n     * @param a3 Item 3 in player A's trade window\r\n     * @param b3 Item 3 in player B's trade window\r\n     */\r\n    function trade(\r\n        address from,\r\n        address to,\r\n        uint256 fromFt,\r\n        uint256 toFt,\r\n        uint256 a1,\r\n        uint256 b1,\r\n        uint256 a2,\r\n        uint256 b2,\r\n        uint256 a3,\r\n        uint256 b3\r\n    ) public {\r\n        require(msg.sender == signer, \"unauthorized signer\");\r\n        if (fromFt != 0)\r\n            require(\r\n                parentERC20.transferFrom(from, to, fromFt),\r\n                \"transfer ft from -> to failed\"\r\n            );\r\n        if (toFt != 0)\r\n            require(\r\n                parentERC20.transferFrom(to, from, toFt),\r\n                \"transfer ft from <- to failed\"\r\n            );\r\n        if (a1 != 0) parentERC721.transferFrom(from, to, a1);\r\n        if (b1 != 0) parentERC721.transferFrom(to, from, b1);\r\n        if (a2 != 0) parentERC721.transferFrom(from, to, a2);\r\n        if (b2 != 0) parentERC721.transferFrom(to, from, b2);\r\n        if (a3 != 0) parentERC721.transferFrom(from, to, a3);\r\n        if (b3 != 0) parentERC721.transferFrom(to, from, b3);\r\n    }\r\n}\r\n",
  "sourcePath": "D:\\Project\\webaverse - 19\\smart contract\\contracts\\ethereum\\WebaverseTrade.sol",
  "compiler": {
    "name": "solc",
    "version": "0.6.12+commit.27d51765.Emscripten.clang"
  },
  "schemaVersion": "3.4.7",
  "updatedAt": "2022-05-26T05:31:47.752Z",
  "networkType": "ethereum",
  "devdoc": {
    "details": "Trade contract to manage user to user trading of fungible and non-fungible tokens",
    "kind": "dev",
    "methods": {
      "addStore(uint256,uint256)": {
        "details": "Add a non-fungible token to the store to be sold",
        "params": {
          "price": "Price to sell token for",
          "tokenId": "Token to sell"
        }
      },
      "buy(uint256)": {
        "details": "Purchase a token for sale",
        "params": {
          "buyId": "ID of the asset in the store"
        }
      },
      "constructor": {
        "details": "Construct the contract with managed ERC20 and ERC721 contryacts",
        "params": {
          "parentERC20Address": "Address of the managed ERC20 contract",
          "parentERC721Address": "Address of the managed ERC721 contract",
          "signerAddress": "Address of an authorized signer Default parentERC20Address address: 0xd7523103ba15c1dfcf0f5ea1c553bc18179ac656 Default parentERC721Address address: 0xfa80e7480e9c42a9241e16d6c1e7518c1b1757e4"
        }
      },
      "getStoreByIndex(uint256)": {
        "details": "Get the stored value by buyID",
        "params": {
          "buyId": "ID of the asset in the store"
        },
        "returns": {
          "_0": "Value in the store keyed by buyId"
        }
      },
      "numStores()": {
        "details": "Get the number of stored assets by the next available ID",
        "returns": {
          "_0": "Next usable buy ID, which is an incremented counter"
        }
      },
      "removeStore(uint256)": {
        "details": "Remove a token from the store for sale",
        "params": {
          "buyId": "ID of the asset in the store"
        }
      },
      "setERC20Parent(address)": {
        "details": "Set the parent ERC20 contract that this contract manages",
        "params": {
          "newParentERC20": "Address of parent contract"
        }
      },
      "setERC721Parent(address)": {
        "details": "Set the ERC721 contract that this contract manages",
        "params": {
          "newParentERC721Address": "Address of parent contract"
        }
      },
      "setSigner(address)": {
        "details": "Set the address for the signer oracle",
        "params": {
          "newSigner": "Address of the new signer"
        }
      },
      "trade(address,address,uint256,uint256,uint256,uint256,uint256,uint256,uint256,uint256)": {
        "details": "Trade assets between users",
        "params": {
          "a1": "Item 1 in player A's trade window",
          "a2": "Item 2 in player A's trade window",
          "a3": "Item 3 in player A's trade window",
          "b1": "Item 1 in player B's trade window",
          "b2": "Item 2 in player B's trade window",
          "b3": "Item 3 in player B's trade window",
          "from": "ID of player A",
          "fromFt": "Amount of ERC20 tokens player A has committed to trade",
          "to": "ID of player B",
          "toFt": "Amount of ERC20 tokens player B has committed to trade"
        }
      }
    },
    "title": "Webaverse Trade Contract",
    "version": 1
  },
  "userdoc": {
    "kind": "user",
    "methods": {},
    "version": 1
  }
}