{
  "contractName": "WebaverseERC20",
  "abi": [
    {
      "anonymous": false,
      "inputs": [
        {
          "indexed": true,
          "internalType": "address",
          "name": "owner",
          "type": "address"
        },
        {
          "indexed": true,
          "internalType": "address",
          "name": "spender",
          "type": "address"
        },
        {
          "indexed": false,
          "internalType": "uint256",
          "name": "value",
          "type": "uint256"
        }
      ],
      "name": "Approval",
      "type": "event"
    },
    {
      "anonymous": false,
      "inputs": [
        {
          "indexed": false,
          "internalType": "address",
          "name": "signer",
          "type": "address"
        },
        {
          "indexed": false,
          "internalType": "address",
          "name": "claimer",
          "type": "address"
        },
        {
          "indexed": false,
          "internalType": "uint256",
          "name": "balance",
          "type": "uint256"
        }
      ],
      "name": "Claim",
      "type": "event"
    },
    {
      "anonymous": false,
      "inputs": [
        {
          "indexed": true,
          "internalType": "address",
          "name": "externalContract",
          "type": "address"
        },
        {
          "indexed": false,
          "internalType": "address",
          "name": "signer",
          "type": "address"
        },
        {
          "indexed": false,
          "internalType": "address",
          "name": "claimer",
          "type": "address"
        },
        {
          "indexed": false,
          "internalType": "uint256",
          "name": "balance",
          "type": "uint256"
        }
      ],
      "name": "ExternalClaim",
      "type": "event"
    },
    {
      "anonymous": false,
      "inputs": [
        {
          "indexed": false,
          "internalType": "uint8",
          "name": "version",
          "type": "uint8"
        }
      ],
      "name": "Initialized",
      "type": "event"
    },
    {
      "anonymous": false,
      "inputs": [
        {
          "indexed": true,
          "internalType": "address",
          "name": "previousOwner",
          "type": "address"
        },
        {
          "indexed": true,
          "internalType": "address",
          "name": "newOwner",
          "type": "address"
        }
      ],
      "name": "OwnershipTransferred",
      "type": "event"
    },
    {
      "anonymous": false,
      "inputs": [
        {
          "indexed": true,
          "internalType": "address",
          "name": "from",
          "type": "address"
        },
        {
          "indexed": true,
          "internalType": "address",
          "name": "to",
          "type": "address"
        },
        {
          "indexed": false,
          "internalType": "uint256",
          "name": "value",
          "type": "uint256"
        }
      ],
      "name": "Transfer",
      "type": "event"
    },
    {
      "inputs": [
        {
          "components": [
            {
              "internalType": "uint256",
              "name": "tokenId",
              "type": "uint256"
            },
            {
              "internalType": "string",
              "name": "contentURL",
              "type": "string"
            },
            {
              "internalType": "uint256",
              "name": "balance",
              "type": "uint256"
            },
            {
              "internalType": "uint256",
              "name": "nonce",
              "type": "uint256"
            },
            {
              "internalType": "uint256",
              "name": "expiry",
              "type": "uint256"
            },
            {
              "internalType": "bytes",
              "name": "signature",
              "type": "bytes"
            }
          ],
          "internalType": "struct WebaverseVoucher.NFTVoucher",
          "name": "voucher",
          "type": "tuple"
        }
      ],
      "name": "_verify",
      "outputs": [
        {
          "internalType": "address",
          "name": "",
          "type": "address"
        }
      ],
      "stateMutability": "view",
      "type": "function",
      "constant": true
    },
    {
      "inputs": [],
      "name": "_webaverse_voucher_init",
      "outputs": [],
      "stateMutability": "nonpayable",
      "type": "function"
    },
    {
      "inputs": [
        {
          "internalType": "address",
          "name": "owner",
          "type": "address"
        },
        {
          "internalType": "address",
          "name": "spender",
          "type": "address"
        }
      ],
      "name": "allowance",
      "outputs": [
        {
          "internalType": "uint256",
          "name": "",
          "type": "uint256"
        }
      ],
      "stateMutability": "view",
      "type": "function",
      "constant": true
    },
    {
      "inputs": [
        {
          "internalType": "address",
          "name": "spender",
          "type": "address"
        },
        {
          "internalType": "uint256",
          "name": "amount",
          "type": "uint256"
        }
      ],
      "name": "approve",
      "outputs": [
        {
          "internalType": "bool",
          "name": "",
          "type": "bool"
        }
      ],
      "stateMutability": "nonpayable",
      "type": "function"
    },
    {
      "inputs": [
        {
          "internalType": "address",
          "name": "account",
          "type": "address"
        }
      ],
      "name": "balanceOf",
      "outputs": [
        {
          "internalType": "uint256",
          "name": "",
          "type": "uint256"
        }
      ],
      "stateMutability": "view",
      "type": "function",
      "constant": true
    },
    {
      "inputs": [
        {
          "internalType": "uint256",
          "name": "",
          "type": "uint256"
        }
      ],
      "name": "burnedNonces",
      "outputs": [
        {
          "internalType": "bool",
          "name": "",
          "type": "bool"
        }
      ],
      "stateMutability": "view",
      "type": "function",
      "constant": true
    },
    {
      "inputs": [],
      "name": "decimals",
      "outputs": [
        {
          "internalType": "uint8",
          "name": "",
          "type": "uint8"
        }
      ],
      "stateMutability": "view",
      "type": "function",
      "constant": true
    },
    {
      "inputs": [
        {
          "internalType": "address",
          "name": "spender",
          "type": "address"
        },
        {
          "internalType": "uint256",
          "name": "subtractedValue",
          "type": "uint256"
        }
      ],
      "name": "decreaseAllowance",
      "outputs": [
        {
          "internalType": "bool",
          "name": "",
          "type": "bool"
        }
      ],
      "stateMutability": "nonpayable",
      "type": "function"
    },
    {
      "inputs": [
        {
          "internalType": "address",
          "name": "spender",
          "type": "address"
        },
        {
          "internalType": "uint256",
          "name": "addedValue",
          "type": "uint256"
        }
      ],
      "name": "increaseAllowance",
      "outputs": [
        {
          "internalType": "bool",
          "name": "",
          "type": "bool"
        }
      ],
      "stateMutability": "nonpayable",
      "type": "function"
    },
    {
      "inputs": [],
      "name": "name",
      "outputs": [
        {
          "internalType": "string",
          "name": "",
          "type": "string"
        }
      ],
      "stateMutability": "view",
      "type": "function",
      "constant": true
    },
    {
      "inputs": [],
      "name": "owner",
      "outputs": [
        {
          "internalType": "address",
          "name": "",
          "type": "address"
        }
      ],
      "stateMutability": "view",
      "type": "function",
      "constant": true
    },
    {
      "inputs": [],
      "name": "renounceOwnership",
      "outputs": [],
      "stateMutability": "nonpayable",
      "type": "function"
    },
    {
      "inputs": [],
      "name": "symbol",
      "outputs": [
        {
          "internalType": "string",
          "name": "",
          "type": "string"
        }
      ],
      "stateMutability": "view",
      "type": "function",
      "constant": true
    },
    {
      "inputs": [],
      "name": "totalSupply",
      "outputs": [
        {
          "internalType": "uint256",
          "name": "",
          "type": "uint256"
        }
      ],
      "stateMutability": "view",
      "type": "function",
      "constant": true
    },
    {
      "inputs": [
        {
          "internalType": "address",
          "name": "to",
          "type": "address"
        },
        {
          "internalType": "uint256",
          "name": "amount",
          "type": "uint256"
        }
      ],
      "name": "transfer",
      "outputs": [
        {
          "internalType": "bool",
          "name": "",
          "type": "bool"
        }
      ],
      "stateMutability": "nonpayable",
      "type": "function"
    },
    {
      "inputs": [
        {
          "internalType": "address",
          "name": "from",
          "type": "address"
        },
        {
          "internalType": "address",
          "name": "to",
          "type": "address"
        },
        {
          "internalType": "uint256",
          "name": "amount",
          "type": "uint256"
        }
      ],
      "name": "transferFrom",
      "outputs": [
        {
          "internalType": "bool",
          "name": "",
          "type": "bool"
        }
      ],
      "stateMutability": "nonpayable",
      "type": "function"
    },
    {
      "inputs": [
        {
          "internalType": "address",
          "name": "newOwner",
          "type": "address"
        }
      ],
      "name": "transferOwnership",
      "outputs": [],
      "stateMutability": "nonpayable",
      "type": "function"
    },
    {
      "inputs": [
        {
          "components": [
            {
              "internalType": "uint256",
              "name": "tokenId",
              "type": "uint256"
            },
            {
              "internalType": "string",
              "name": "contentURL",
              "type": "string"
            },
            {
              "internalType": "uint256",
              "name": "balance",
              "type": "uint256"
            },
            {
              "internalType": "uint256",
              "name": "nonce",
              "type": "uint256"
            },
            {
              "internalType": "uint256",
              "name": "expiry",
              "type": "uint256"
            },
            {
              "internalType": "bytes",
              "name": "signature",
              "type": "bytes"
            }
          ],
          "internalType": "struct WebaverseVoucher.NFTVoucher",
          "name": "voucher",
          "type": "tuple"
        }
      ],
      "name": "verifyVoucher",
      "outputs": [
        {
          "internalType": "address",
          "name": "",
          "type": "address"
        }
      ],
      "stateMutability": "nonpayable",
      "type": "function"
    },
    {
      "inputs": [
        {
          "internalType": "string",
          "name": "name",
          "type": "string"
        },
        {
          "internalType": "string",
          "name": "symbol",
          "type": "string"
        },
        {
          "internalType": "uint256",
          "name": "maxSupply_",
          "type": "uint256"
        }
      ],
      "name": "initialize",
      "outputs": [],
      "stateMutability": "nonpayable",
      "type": "function"
    },
    {
      "inputs": [],
      "name": "maxSupply",
      "outputs": [
        {
          "internalType": "uint256",
          "name": "",
          "type": "uint256"
        }
      ],
      "stateMutability": "view",
      "type": "function",
      "constant": true
    },
    {
      "inputs": [
        {
          "internalType": "address",
          "name": "to",
          "type": "address"
        },
        {
          "internalType": "uint256",
          "name": "amount",
          "type": "uint256"
        }
      ],
      "name": "mint",
      "outputs": [],
      "stateMutability": "nonpayable",
      "type": "function"
    },
    {
      "inputs": [
        {
          "internalType": "address",
          "name": "signer",
          "type": "address"
        },
        {
          "internalType": "address",
          "name": "to",
          "type": "address"
        },
        {
          "components": [
            {
              "internalType": "uint256",
              "name": "tokenId",
              "type": "uint256"
            },
            {
              "internalType": "string",
              "name": "contentURL",
              "type": "string"
            },
            {
              "internalType": "uint256",
              "name": "balance",
              "type": "uint256"
            },
            {
              "internalType": "uint256",
              "name": "nonce",
              "type": "uint256"
            },
            {
              "internalType": "uint256",
              "name": "expiry",
              "type": "uint256"
            },
            {
              "internalType": "bytes",
              "name": "signature",
              "type": "bytes"
            }
          ],
          "internalType": "struct WebaverseVoucher.NFTVoucher",
          "name": "voucher",
          "type": "tuple"
        }
      ],
      "name": "mintServerDropFT",
      "outputs": [],
      "stateMutability": "nonpayable",
      "type": "function"
    },
    {
      "inputs": [
        {
          "internalType": "address",
          "name": "account",
          "type": "address"
        }
      ],
      "name": "isAllowedMinter",
      "outputs": [
        {
          "internalType": "bool",
          "name": "",
          "type": "bool"
        }
      ],
      "stateMutability": "view",
      "type": "function",
      "constant": true
    },
    {
      "inputs": [
        {
          "internalType": "address",
          "name": "minter",
          "type": "address"
        }
      ],
      "name": "addMinter",
      "outputs": [],
      "stateMutability": "nonpayable",
      "type": "function"
    },
    {
      "inputs": [
        {
          "internalType": "address",
          "name": "minter",
          "type": "address"
        }
      ],
      "name": "removeMinter",
      "outputs": [],
      "stateMutability": "nonpayable",
      "type": "function"
    },
    {
      "inputs": [
        {
          "internalType": "address",
          "name": "signer",
          "type": "address"
        },
        {
          "internalType": "address",
          "name": "claimer",
          "type": "address"
        },
        {
          "components": [
            {
              "internalType": "uint256",
              "name": "tokenId",
              "type": "uint256"
            },
            {
              "internalType": "string",
              "name": "contentURL",
              "type": "string"
            },
            {
              "internalType": "uint256",
              "name": "balance",
              "type": "uint256"
            },
            {
              "internalType": "uint256",
              "name": "nonce",
              "type": "uint256"
            },
            {
              "internalType": "uint256",
              "name": "expiry",
              "type": "uint256"
            },
            {
              "internalType": "bytes",
              "name": "signature",
              "type": "bytes"
            }
          ],
          "internalType": "struct WebaverseVoucher.NFTVoucher",
          "name": "voucher",
          "type": "tuple"
        }
      ],
      "name": "claim",
      "outputs": [
        {
          "internalType": "uint256",
          "name": "",
          "type": "uint256"
        }
      ],
      "stateMutability": "nonpayable",
      "type": "function"
    },
    {
      "inputs": [
        {
          "internalType": "address",
          "name": "claimer",
          "type": "address"
        },
        {
          "internalType": "address",
          "name": "contractAddress",
          "type": "address"
        },
        {
          "components": [
            {
              "internalType": "uint256",
              "name": "tokenId",
              "type": "uint256"
            },
            {
              "internalType": "string",
              "name": "contentURL",
              "type": "string"
            },
            {
              "internalType": "uint256",
              "name": "balance",
              "type": "uint256"
            },
            {
              "internalType": "uint256",
              "name": "nonce",
              "type": "uint256"
            },
            {
              "internalType": "uint256",
              "name": "expiry",
              "type": "uint256"
            },
            {
              "internalType": "bytes",
              "name": "signature",
              "type": "bytes"
            }
          ],
          "internalType": "struct WebaverseVoucher.NFTVoucher",
          "name": "voucher",
          "type": "tuple"
        }
      ],
      "name": "externalClaim",
      "outputs": [
        {
          "internalType": "uint256",
          "name": "",
          "type": "uint256"
        }
      ],
      "stateMutability": "nonpayable",
      "type": "function"
    }
  ],
  "bytecode": "0x608060405234801561001057600080fd5b5061274d806100206000396000f3fe608060405234801561001057600080fd5b50600436106101b95760003560e01c8063715018a6116100f9578063a9059cbb11610097578063d5abeb0111610071578063d5abeb01146103f3578063dd62ed3e146103fb578063f014ab2914610441578063f2fde38b1461045457600080fd5b8063a9059cbb146103ba578063b119490e146103cd578063b6dcc9d9146103e057600080fd5b80638da5cb5b116100d35780638da5cb5b1461036e57806395d89b411461038c578063983b2d5614610394578063a457c2d7146103a757600080fd5b8063715018a614610330578063754b3871146103385780637e2499cc1461034b57600080fd5b8063313ce567116101665780634355e53b116101405780634355e53b146102a75780634ed3c01f146102af5780636d33a377146102c257806370a08231146102fa57600080fd5b8063313ce56714610272578063395093511461028157806340c10f191461029457600080fd5b80631f3b4c90116101975780631f3b4c901461021157806323b872dd1461024a5780633092afd51461025d57600080fd5b806306fdde03146101be578063095ea7b3146101dc57806318160ddd146101ff575b600080fd5b6101c6610467565b6040516101d39190612554565b60405180910390f35b6101ef6101ea36600461241c565b6104f9565b60405190151581526020016101d3565b6035545b6040519081526020016101d3565b6101ef61021f366004612334565b73ffffffffffffffffffffffffffffffffffffffff16600090815260cc602052604090205460ff1690565b6101ef6102583660046123e0565b610511565b61027061026b366004612334565b610535565b005b604051601281526020016101d3565b6101ef61028f36600461241c565b610603565b6102706102a236600461241c565b61064f565b61027061073d565b6102706102bd366004612382565b610830565b6102d56102d03660046124d5565b610945565b60405173ffffffffffffffffffffffffffffffffffffffff90911681526020016101d3565b610203610308366004612334565b73ffffffffffffffffffffffffffffffffffffffff1660009081526033602052604090205490565b6102706109a5565b6102d56103463660046124d5565b6109b7565b6101ef610359366004612512565b60996020526000908152604090205460ff1681565b609a5473ffffffffffffffffffffffffffffffffffffffff166102d5565b6101c6610ab6565b6102706103a2366004612334565b610ac5565b6101ef6103b536600461241c565b610b92565b6101ef6103c836600461241c565b610c49565b6102706103db366004612468565b610c57565b6102036103ee366004612382565b610e21565b60cd54610203565b61020361040936600461234f565b73ffffffffffffffffffffffffffffffffffffffff918216600090815260346020908152604080832093909416825291909152205490565b61020361044f366004612382565b610f2c565b610270610462366004612334565b61128a565b6060603680546104769061266b565b80601f01602080910402602001604051908101604052809291908181526020018280546104a29061266b565b80156104ef5780601f106104c4576101008083540402835291602001916104ef565b820191906000526020600020905b8154815290600101906020018083116104d257829003601f168201915b5050505050905090565b600033610507818585611327565b5060019392505050565b60003361051f8582856114a6565b61052a85858561155d565b506001949350505050565b61053d6117c2565b73ffffffffffffffffffffffffffffffffffffffff8116600090815260cc602052604090205460ff166105b75760405162461bcd60e51b815260206004820152601c60248201527f45524332303a204d696e74657220646f6573206e6f742065786973740000000060448201526064015b60405180910390fd5b73ffffffffffffffffffffffffffffffffffffffff16600090815260cc6020526040902080547fffffffffffffffffffffffffffffffffffffffffffffffffffffffffffffff00169055565b33600081815260346020908152604080832073ffffffffffffffffffffffffffffffffffffffff87168452909152812054909190610507908290869061064a90879061262c565b611327565b6106583361021f565b6106ca5760405162461bcd60e51b815260206004820152603460248201527f45524332303a204f6e6c79207768697465206c6973746564206d696e7465727360448201527f2061726520616c6c6f77656420746f206d696e7400000000000000000000000060648201526084016105ae565b60cd54816106d760355490565b6106e1919061262c565b111561072f5760405162461bcd60e51b815260206004820152601960248201527f45524332303a204d617820737570706c7920726561636865640000000000000060448201526064016105ae565b6107398282611829565b5050565b600054610100900460ff166107ba5760405162461bcd60e51b815260206004820152602b60248201527f496e697469616c697a61626c653a20636f6e7472616374206973206e6f74206960448201527f6e697469616c697a696e6700000000000000000000000000000000000000000060648201526084016105ae565b61082e6040518060400160405280601181526020017f5765626176657273652d766f75636865720000000000000000000000000000008152506040518060400160405280600181526020017f310000000000000000000000000000000000000000000000000000000000000081525061192f565b565b60cd54816040013561084160355490565b61084b919061262c565b11156108995760405162461bcd60e51b815260206004820152601960248201527f45524332303a204d617820737570706c7920726561636865640000000000000060448201526064016105ae565b8273ffffffffffffffffffffffffffffffffffffffff166108cf609a5473ffffffffffffffffffffffffffffffffffffffff1690565b73ffffffffffffffffffffffffffffffffffffffff16146109325760405162461bcd60e51b815260206004820152601060248201527f57726f6e67207369676e6174757265210000000000000000000000000000000060448201526064016105ae565b610940828260400135611829565b505050565b600080610951836119b6565b905061099e8161096460a08601866125c7565b8080601f016020809104026020016040519081016040528093929190818152602001838380828437600092019190915250611a9492505050565b9392505050565b6109ad6117c2565b61082e6000611ab8565b60008160800135421115610a0d5760405162461bcd60e51b815260206004820152601b60248201527f566f75636865722068617320616c72656164792065787069726564000000000060448201526064016105ae565b606082013560009081526099602052604090205460ff1615610a715760405162461bcd60e51b815260206004820152601360248201527f496e76616c6964206e6f6e63652076616c75650000000000000000000000000060448201526064016105ae565b6060820135600090815260996020526040812080547fffffffffffffffffffffffffffffffffffffffffffffffffffffffffffffff0016600117905561099e83610945565b6060603780546104769061266b565b610acd6117c2565b73ffffffffffffffffffffffffffffffffffffffff8116600090815260cc602052604090205460ff1615610b435760405162461bcd60e51b815260206004820152601b60248201527f45524332303a204d696e74657220616c7265616479206164646564000000000060448201526064016105ae565b73ffffffffffffffffffffffffffffffffffffffff16600090815260cc6020526040902080547fffffffffffffffffffffffffffffffffffffffffffffffffffffffffffffff00166001179055565b33600081815260346020908152604080832073ffffffffffffffffffffffffffffffffffffffff8716845290915281205490919083811015610c3c5760405162461bcd60e51b815260206004820152602560248201527f45524332303a2064656372656173656420616c6c6f77616e63652062656c6f7760448201527f207a65726f00000000000000000000000000000000000000000000000000000060648201526084016105ae565b61052a8286868403611327565b60003361050781858561155d565b600054610100900460ff1615808015610c775750600054600160ff909116105b80610c915750303b158015610c91575060005460ff166001145b610d035760405162461bcd60e51b815260206004820152602e60248201527f496e697469616c697a61626c653a20636f6e747261637420697320616c72656160448201527f647920696e697469616c697a656400000000000000000000000000000000000060648201526084016105ae565b600080547fffffffffffffffffffffffffffffffffffffffffffffffffffffffffffffff001660011790558015610d6157600080547fffffffffffffffffffffffffffffffffffffffffffffffffffffffffffff00ff166101001790555b610d69611b2f565b610d738484611bb5565b610d7b61073d565b60cd82905533600090815260cc6020526040902080547fffffffffffffffffffffffffffffffffffffffffffffffffffffffffffffff001660011790558015610e1b57600080547fffffffffffffffffffffffffffffffffffffffffffffffffffffffffffff00ff169055604051600181527f7f26b83ff96e1f2b6a682f133852f6798a09c465da95921460cefb38474024989060200160405180910390a15b50505050565b73ffffffffffffffffffffffffffffffffffffffff8316600090815260336020526040812054610eb95760405162461bcd60e51b815260206004820152602e60248201527f57425652533a20417574686f72697a6174696f6e206661696c65643a20496e7660448201527f616c6964207369676e617475726500000000000000000000000000000000000060648201526084016105ae565b610ec88484846040013561155d565b6040805173ffffffffffffffffffffffffffffffffffffffff868116825285166020820152838201358183015290517f70eb43c4a8ae8c40502dcf22436c509c28d6ff421cf07c491be56984bd9870689181900360600190a1506040013592915050565b60008281610f39846109b7565b6040517f70a0823100000000000000000000000000000000000000000000000000000000815273ffffffffffffffffffffffffffffffffffffffff8083166004830152919250908316906370a082319060240160206040518083038186803b158015610fa457600080fd5b505afa158015610fb8573d6000803e3d6000fd5b505050506040513d601f19601f82011682018060405250810190610fdc919061252b565b61104e5760405162461bcd60e51b815260206004820152602e60248201527f57425652533a20417574686f72697a6174696f6e206661696c65643a20496e7660448201527f616c6964207369676e617475726500000000000000000000000000000000000060648201526084016105ae565b6040517fdd62ed3e00000000000000000000000000000000000000000000000000000000815273ffffffffffffffffffffffffffffffffffffffff82811660048301523060248301526000919084169063dd62ed3e9060440160206040518083038186803b1580156110bf57600080fd5b505afa1580156110d3573d6000803e3d6000fd5b505050506040513d601f19601f820116820180604052508101906110f7919061252b565b1161116a5760405162461bcd60e51b815260206004820152602a60248201527f57425652533a20417072726f76616c206e6f742073657420666f72205765626160448201527f766572736545524332300000000000000000000000000000000000000000000060648201526084016105ae565b604080517f23b872dd00000000000000000000000000000000000000000000000000000000815273ffffffffffffffffffffffffffffffffffffffff83811660048301528881166024830152918601356044820152908316906323b872dd90606401602060405180830381600087803b1580156111e657600080fd5b505af11580156111fa573d6000803e3d6000fd5b505050506040513d601f19601f8201168201806040525081019061121e9190612446565b506040805173ffffffffffffffffffffffffffffffffffffffff8381168252888116602083015286830135828401529151918716917f111ebfff7ae758e422941bfa7b90fc5ddafbb23589ebcdf6da904a05c3422ace9181900360600190a25050506040013592915050565b6112926117c2565b73ffffffffffffffffffffffffffffffffffffffff811661131b5760405162461bcd60e51b815260206004820152602660248201527f4f776e61626c653a206e6577206f776e657220697320746865207a65726f206160448201527f646472657373000000000000000000000000000000000000000000000000000060648201526084016105ae565b61132481611ab8565b50565b73ffffffffffffffffffffffffffffffffffffffff83166113af5760405162461bcd60e51b8152602060048201526024808201527f45524332303a20617070726f76652066726f6d20746865207a65726f2061646460448201527f726573730000000000000000000000000000000000000000000000000000000060648201526084016105ae565b73ffffffffffffffffffffffffffffffffffffffff82166114385760405162461bcd60e51b815260206004820152602260248201527f45524332303a20617070726f766520746f20746865207a65726f20616464726560448201527f737300000000000000000000000000000000000000000000000000000000000060648201526084016105ae565b73ffffffffffffffffffffffffffffffffffffffff83811660008181526034602090815260408083209487168084529482529182902085905590518481527f8c5be1e5ebec7d5bd14f71427d1e84f3dd0314c0f7b2291e5b200ac8c7c3b925910160405180910390a3505050565b73ffffffffffffffffffffffffffffffffffffffff8381166000908152603460209081526040808320938616835292905220547fffffffffffffffffffffffffffffffffffffffffffffffffffffffffffffffff8114610e1b57818110156115505760405162461bcd60e51b815260206004820152601d60248201527f45524332303a20696e73756666696369656e7420616c6c6f77616e636500000060448201526064016105ae565b610e1b8484848403611327565b73ffffffffffffffffffffffffffffffffffffffff83166115e65760405162461bcd60e51b815260206004820152602560248201527f45524332303a207472616e736665722066726f6d20746865207a65726f20616460448201527f647265737300000000000000000000000000000000000000000000000000000060648201526084016105ae565b73ffffffffffffffffffffffffffffffffffffffff821661166f5760405162461bcd60e51b815260206004820152602360248201527f45524332303a207472616e7366657220746f20746865207a65726f206164647260448201527f657373000000000000000000000000000000000000000000000000000000000060648201526084016105ae565b73ffffffffffffffffffffffffffffffffffffffff83166000908152603360205260409020548181101561170b5760405162461bcd60e51b815260206004820152602660248201527f45524332303a207472616e7366657220616d6f756e742065786365656473206260448201527f616c616e6365000000000000000000000000000000000000000000000000000060648201526084016105ae565b73ffffffffffffffffffffffffffffffffffffffff80851660009081526033602052604080822085850390559185168152908120805484929061174f90849061262c565b925050819055508273ffffffffffffffffffffffffffffffffffffffff168473ffffffffffffffffffffffffffffffffffffffff167fddf252ad1be2c89b69c2b068fc378daa952ba7f163c4a11628f55a4df523b3ef846040516117b591815260200190565b60405180910390a3610e1b565b609a5473ffffffffffffffffffffffffffffffffffffffff16331461082e5760405162461bcd60e51b815260206004820181905260248201527f4f776e61626c653a2063616c6c6572206973206e6f7420746865206f776e657260448201526064016105ae565b73ffffffffffffffffffffffffffffffffffffffff821661188c5760405162461bcd60e51b815260206004820152601f60248201527f45524332303a206d696e7420746f20746865207a65726f20616464726573730060448201526064016105ae565b806035600082825461189e919061262c565b909155505073ffffffffffffffffffffffffffffffffffffffff8216600090815260336020526040812080548392906118d890849061262c565b909155505060405181815273ffffffffffffffffffffffffffffffffffffffff8316906000907fddf252ad1be2c89b69c2b068fc378daa952ba7f163c4a11628f55a4df523b3ef9060200160405180910390a35050565b600054610100900460ff166119ac5760405162461bcd60e51b815260206004820152602b60248201527f496e697469616c697a61626c653a20636f6e7472616374206973206e6f74206960448201527f6e697469616c697a696e6700000000000000000000000000000000000000000060648201526084016105ae565b6107398282611c3c565b6000611a8e7f5ffd6690a098e0cacfcb33dc84f9cd3cca7021192543b042c1896ee834cabb1383356119eb60208601866125c7565b6040516020016119fc929190612544565b604080517fffffffffffffffffffffffffffffffffffffffffffffffffffffffffffffffe08184030181528282528051602091820120611a7395949390928901359160608a01359160808b01359101958652602086019490945260408501929092526060840152608083015260a082015260c00190565b60405160208183030381529060405280519060200120611cd3565b92915050565b6000806000611aa38585611d3c565b91509150611ab081611d82565b509392505050565b609a805473ffffffffffffffffffffffffffffffffffffffff8381167fffffffffffffffffffffffff0000000000000000000000000000000000000000831681179093556040519116919082907f8be0079c531659141344cd1fd0a4f28419497f9722a3daafe3b4186f6b6457e090600090a35050565b600054610100900460ff16611bac5760405162461bcd60e51b815260206004820152602b60248201527f496e697469616c697a61626c653a20636f6e7472616374206973206e6f74206960448201527f6e697469616c697a696e6700000000000000000000000000000000000000000060648201526084016105ae565b61082e33611ab8565b600054610100900460ff16611c325760405162461bcd60e51b815260206004820152602b60248201527f496e697469616c697a61626c653a20636f6e7472616374206973206e6f74206960448201527f6e697469616c697a696e6700000000000000000000000000000000000000000060648201526084016105ae565b6107398282611f73565b600054610100900460ff16611cb95760405162461bcd60e51b815260206004820152602b60248201527f496e697469616c697a61626c653a20636f6e7472616374206973206e6f74206960448201527f6e697469616c697a696e6700000000000000000000000000000000000000000060648201526084016105ae565b815160209283012081519190920120606591909155606655565b6000611a8e611ce0612017565b836040517f19010000000000000000000000000000000000000000000000000000000000006020820152602281018390526042810182905260009060620160405160208183030381529060405280519060200120905092915050565b600080825160411415611d735760208301516040840151606085015160001a611d6787828585612097565b94509450505050611d7b565b506000905060025b9250929050565b6000816004811115611d9657611d966126b9565b1415611d9f5750565b6001816004811115611db357611db36126b9565b1415611e015760405162461bcd60e51b815260206004820152601860248201527f45434453413a20696e76616c6964207369676e6174757265000000000000000060448201526064016105ae565b6002816004811115611e1557611e156126b9565b1415611e635760405162461bcd60e51b815260206004820152601f60248201527f45434453413a20696e76616c6964207369676e6174757265206c656e6774680060448201526064016105ae565b6003816004811115611e7757611e776126b9565b1415611eeb5760405162461bcd60e51b815260206004820152602260248201527f45434453413a20696e76616c6964207369676e6174757265202773272076616c60448201527f756500000000000000000000000000000000000000000000000000000000000060648201526084016105ae565b6004816004811115611eff57611eff6126b9565b14156113245760405162461bcd60e51b815260206004820152602260248201527f45434453413a20696e76616c6964207369676e6174757265202776272076616c60448201527f756500000000000000000000000000000000000000000000000000000000000060648201526084016105ae565b600054610100900460ff16611ff05760405162461bcd60e51b815260206004820152602b60248201527f496e697469616c697a61626c653a20636f6e7472616374206973206e6f74206960448201527f6e697469616c697a696e6700000000000000000000000000000000000000000060648201526084016105ae565b81516120039060369060208501906121af565b5080516109409060379060208401906121af565b60006120927f8b73c3c69bb8fe3d512ecc4cf759cc79239f7b179b0ffacaa9a75d522b39400f61204660655490565b6066546040805160208101859052908101839052606081018290524660808201523060a082015260009060c0016040516020818303038152906040528051906020012090509392505050565b905090565b6000807f7fffffffffffffffffffffffffffffff5d576e7357a4501ddfe92f46681b20a08311156120ce57506000905060036121a6565b8460ff16601b141580156120e657508460ff16601c14155b156120f757506000905060046121a6565b6040805160008082526020820180845289905260ff881692820192909252606081018690526080810185905260019060a0016020604051602081039080840390855afa15801561214b573d6000803e3d6000fd5b50506040517fffffffffffffffffffffffffffffffffffffffffffffffffffffffffffffffe0015191505073ffffffffffffffffffffffffffffffffffffffff811661219f576000600192509250506121a6565b9150600090505b94509492505050565b8280546121bb9061266b565b90600052602060002090601f0160209004810192826121dd5760008555612223565b82601f106121f657805160ff1916838001178555612223565b82800160010185558215612223579182015b82811115612223578251825591602001919060010190612208565b5061222f929150612233565b5090565b5b8082111561222f5760008155600101612234565b803573ffffffffffffffffffffffffffffffffffffffff8116811461226c57600080fd5b919050565b600082601f83011261228257600080fd5b813567ffffffffffffffff8082111561229d5761229d6126e8565b604051601f83017fffffffffffffffffffffffffffffffffffffffffffffffffffffffffffffffe0908116603f011681019082821181831017156122e3576122e36126e8565b816040528381528660208588010111156122fc57600080fd5b836020870160208301376000602085830101528094505050505092915050565b600060c0828403121561232e57600080fd5b50919050565b60006020828403121561234657600080fd5b61099e82612248565b6000806040838503121561236257600080fd5b61236b83612248565b915061237960208401612248565b90509250929050565b60008060006060848603121561239757600080fd5b6123a084612248565b92506123ae60208501612248565b9150604084013567ffffffffffffffff8111156123ca57600080fd5b6123d68682870161231c565b9150509250925092565b6000806000606084860312156123f557600080fd5b6123fe84612248565b925061240c60208501612248565b9150604084013590509250925092565b6000806040838503121561242f57600080fd5b61243883612248565b946020939093013593505050565b60006020828403121561245857600080fd5b8151801515811461099e57600080fd5b60008060006060848603121561247d57600080fd5b833567ffffffffffffffff8082111561249557600080fd5b6124a187838801612271565b945060208601359150808211156124b757600080fd5b506124c486828701612271565b925050604084013590509250925092565b6000602082840312156124e757600080fd5b813567ffffffffffffffff8111156124fe57600080fd5b61250a8482850161231c565b949350505050565b60006020828403121561252457600080fd5b5035919050565b60006020828403121561253d57600080fd5b5051919050565b8183823760009101908152919050565b600060208083528351808285015260005b8181101561258157858101830151858201604001528201612565565b81811115612593576000604083870101525b50601f017fffffffffffffffffffffffffffffffffffffffffffffffffffffffffffffffe016929092016040019392505050565b60008083357fffffffffffffffffffffffffffffffffffffffffffffffffffffffffffffffe18436030181126125fc57600080fd5b83018035915067ffffffffffffffff82111561261757600080fd5b602001915036819003821315611d7b57600080fd5b60008219821115612666577f4e487b7100000000000000000000000000000000000000000000000000000000600052601160045260246000fd5b500190565b600181811c9082168061267f57607f821691505b6020821081141561232e577f4e487b7100000000000000000000000000000000000000000000000000000000600052602260045260246000fd5b7f4e487b7100000000000000000000000000000000000000000000000000000000600052602160045260246000fd5b7f4e487b7100000000000000000000000000000000000000000000000000000000600052604160045260246000fdfea2646970667358221220eba37101fd792ebb8de2ee78f4ef00992c491dad14113012133859b4f2ed638364736f6c63430008070033",
  "immutableReferences": {},
  "source": "// SPDX-License-Identifier: MIT\n\npragma solidity ^0.8.7;\n\nimport \"@openzeppelin/contracts-upgradeable/token/ERC20/ERC20Upgradeable.sol\";\nimport \"@openzeppelin/contracts-upgradeable/access/OwnableUpgradeable.sol\";\nimport \"./WebaverseVoucher.sol\";\n\ncontract WebaverseERC20 is\n    ERC20Upgradeable,\n    WebaverseVoucher,\n    OwnableUpgradeable\n{\n    // Mapping of addresses that are allowed to mint tokens\n    mapping(address => bool) private _whitelistedMinters;\n\n    // Max supply of tokens\n    uint256 private _maxSupply;\n\n    // url of tokens\n    string private _tokenuri;\n\n    // Event occuring when a token is redeemed by a user in the webaverse world for the native smart contract\n    event Claim(address signer, address claimer, uint256 balance);\n\n    // Event occuring when a token is redeemed by a user in the webaverse world for the external smart contract\n    event ExternalClaim(\n        address indexed externalContract,\n        address signer,\n        address claimer,\n        uint256 balance\n    );\n\n    modifier onlyMinter() {\n        require(\n            isAllowedMinter(_msgSender()),\n            \"ERC20: Only white listed minters are allowed to mint\"\n        );\n        _;\n    }\n\n    /**\n     * @dev Create a new fungible token\n     * @param name Name of the token\n     * @param symbol Token identifier\n     * @param maxSupply_ Sets the token market cap. This value is immutable, it can only be\n     * set once during construction.\n     * Default cap: 2147483648000000000000000000 or (2**31) + '000000000000000000'\n     */\n    function initialize(\n        string memory name,\n        string memory symbol,\n        uint256 maxSupply_\n    ) public initializer {\n        __Ownable_init_unchained();\n        __ERC20_init(name, symbol);\n        _webaverse_voucher_init();\n        _maxSupply = maxSupply_;\n        _whitelistedMinters[msg.sender] = true;\n    }\n\n    /**\n     * @return Maximum number of tokens that can be minted\n     */\n    function maxSupply() public view returns (uint256) {\n        return _maxSupply;\n    }\n\n    /**\n     * @dev Mint ERC20 tokens\n     * @param to Tokens created for this account\n     * @param amount Number of tokens to mint for this call\n     */\n    function mint(address to, uint256 amount) public onlyMinter {\n        require(\n            totalSupply() + amount <= maxSupply(),\n            \"ERC20: Max supply reached\"\n        );\n        _mint(to, amount);\n    }\n    \n    /**\n     * @dev Mint ERC20 tokens\n     * @param signer The address of the account which signed the NFT Voucher.\n     * @param to Tokens created for this account\n     * @param voucher A signed NFTVoucher(FTVoucher) that describes the FT to be redeemed.\n     */\n    function mintServerDropFT(address signer, address to, NFTVoucher calldata voucher) public {\n        require(\n            totalSupply() + voucher.balance <= maxSupply(),\n            \"ERC20: Max supply reached\"\n        );\n\n        require(owner() == signer, \"Wrong signature!\");\n\n        _mint(to, voucher.balance);\n    }\n\n    /**\n     * @dev Checks if an address is allowed to mint ERC20 tokens\n     * @param account address to check for the white listing for\n     * @return true if address is allowed to mint\n     */\n    function isAllowedMinter(address account) public view returns (bool) {\n        return _whitelistedMinters[account];\n    }\n\n    /**\n     * @dev Add an account to the list of accounts allowed to create ERC20 tokens\n     * @param minter address to whitelist\n     */\n    function addMinter(address minter) public onlyOwner {\n        require(!isAllowedMinter(minter), \"ERC20: Minter already added\");\n        _whitelistedMinters[minter] = true;\n    }\n\n    /**\n     * @dev Remove an account from the list of accounts allowed to create ERC20 tokens\n     * @param minter address to remove from whitelist\n     */\n    function removeMinter(address minter) public onlyOwner {\n        require(isAllowedMinter(minter), \"ERC20: Minter does not exist\");\n        _whitelistedMinters[minter] = false;\n    }\n\n    /**\n     * @notice Redeems an NFTVoucher for an actual NFT, authorized by the owner.\n     * @param signer The address of the account which signed the NFT Voucher.\n     * @param claimer The address of the account which will receive the NFT upon success.\n     * @param voucher A signed NFTVoucher that describes the NFT to be redeemed.\n     * @dev Verification through ECDSA signature of 'typed' data.\n     * @dev Voucher must contain valid signature, nonce, and expiry.\n     */\n    function claim(address signer, address claimer, NFTVoucher calldata voucher)\n        public\n        virtual\n        returns (uint256)\n    {\n        require(\n            balanceOf(signer) != 0,\n            \"WBVRS: Authorization failed: Invalid signature\"\n        );\n\n        // transfer the token to the claimer\n        _transfer(signer, claimer, voucher.balance);\n        emit Claim(signer, claimer, voucher.balance);\n        return voucher.balance;\n    }\n\n    /**\n     * @notice Redeems an Voucher for actual ERC20 tokens, authorized by the owner from an external contract.\n     * @param claimer The address of the account which will receive the balance upon success.\n     * @param contractAddress The address of the contract from which the token is being transferred\n     * @param voucher A signed Voucher that describes the ERC20 tokens to be redeemed.\n     * @dev Verification through ECDSA signature of 'typed' data.\n     * @dev Voucher must contain valid signature, nonce, and expiry.\n     */\n    function externalClaim(\n        address claimer,\n        address contractAddress,\n        NFTVoucher calldata voucher\n    ) public returns (uint256) {\n        IERC20Upgradeable externalContract = IERC20Upgradeable(contractAddress);\n        // make sure signature is valid and get the address of the signer\n        address signer = verifyVoucher(voucher);\n\n        require(\n            externalContract.balanceOf(signer) != 0,\n            \"WBVRS: Authorization failed: Invalid signature\"\n        );\n        require(\n            externalContract.allowance(signer, address(this)) > 0,\n            \"WBVRS: Aprroval not set for WebaverseERC20\"\n        );\n\n        // transfer the token to the claimer\n        externalContract.transferFrom(signer, claimer, voucher.balance);\n        emit ExternalClaim(contractAddress, signer, claimer, voucher.balance);\n        return voucher.balance;\n    }\n}\n",
  "sourcePath": "/opt/hedera/game-contracts/ethereum/WebaverseERC20.sol",
  "compiler": {
    "name": "solc",
    "version": "0.8.7+commit.e28d00a7.Emscripten.clang"
  },
  "schemaVersion": "3.4.10",
  "updatedAt": "2022-10-04T02:08:41.930Z",
  "networkType": "ethereum",
  "devdoc": {
    "kind": "dev",
    "methods": {
      "_verify((uint256,string,uint256,uint256,uint256,bytes))": {
        "details": "Will revert if the signature is invalid. Does not verify that the signer is authorized to mint NFTs.",
        "params": {
          "voucher": "An NFTVoucher describing an NFT."
        },
        "returns": {
          "_0": "returns the address of the signer on succesful verification.*"
        }
      },
      "addMinter(address)": {
        "details": "Add an account to the list of accounts allowed to create ERC20 tokens",
        "params": {
          "minter": "address to whitelist"
        }
      },
      "allowance(address,address)": {
        "details": "See {IERC20-allowance}."
      },
      "approve(address,uint256)": {
        "details": "See {IERC20-approve}. NOTE: If `amount` is the maximum `uint256`, the allowance is not updated on `transferFrom`. This is semantically equivalent to an infinite approval. Requirements: - `spender` cannot be the zero address."
      },
      "balanceOf(address)": {
        "details": "See {IERC20-balanceOf}."
      },
      "claim(address,address,(uint256,string,uint256,uint256,uint256,bytes))": {
        "details": "Verification through ECDSA signature of 'typed' data.Voucher must contain valid signature, nonce, and expiry.",
        "params": {
          "claimer": "The address of the account which will receive the NFT upon success.",
          "signer": "The address of the account which signed the NFT Voucher.",
          "voucher": "A signed NFTVoucher that describes the NFT to be redeemed."
        }
      },
      "decimals()": {
        "details": "Returns the number of decimals used to get its user representation. For example, if `decimals` equals `2`, a balance of `505` tokens should be displayed to a user as `5.05` (`505 / 10 ** 2`). Tokens usually opt for a value of 18, imitating the relationship between Ether and Wei. This is the value {ERC20} uses, unless this function is overridden; NOTE: This information is only used for _display_ purposes: it in no way affects any of the arithmetic of the contract, including {IERC20-balanceOf} and {IERC20-transfer}."
      },
      "decreaseAllowance(address,uint256)": {
        "details": "Atomically decreases the allowance granted to `spender` by the caller. This is an alternative to {approve} that can be used as a mitigation for problems described in {IERC20-approve}. Emits an {Approval} event indicating the updated allowance. Requirements: - `spender` cannot be the zero address. - `spender` must have allowance for the caller of at least `subtractedValue`."
      },
      "externalClaim(address,address,(uint256,string,uint256,uint256,uint256,bytes))": {
        "details": "Verification through ECDSA signature of 'typed' data.Voucher must contain valid signature, nonce, and expiry.",
        "params": {
          "claimer": "The address of the account which will receive the balance upon success.",
          "contractAddress": "The address of the contract from which the token is being transferred",
          "voucher": "A signed Voucher that describes the ERC20 tokens to be redeemed."
        }
      },
      "increaseAllowance(address,uint256)": {
        "details": "Atomically increases the allowance granted to `spender` by the caller. This is an alternative to {approve} that can be used as a mitigation for problems described in {IERC20-approve}. Emits an {Approval} event indicating the updated allowance. Requirements: - `spender` cannot be the zero address."
      },
      "initialize(string,string,uint256)": {
        "details": "Create a new fungible token",
        "params": {
          "maxSupply_": "Sets the token market cap. This value is immutable, it can only be set once during construction. Default cap: 2147483648000000000000000000 or (2**31) + '000000000000000000'",
          "name": "Name of the token",
          "symbol": "Token identifier"
        }
      },
      "isAllowedMinter(address)": {
        "details": "Checks if an address is allowed to mint ERC20 tokens",
        "params": {
          "account": "address to check for the white listing for"
        },
        "returns": {
          "_0": "true if address is allowed to mint"
        }
      },
      "maxSupply()": {
        "returns": {
          "_0": "Maximum number of tokens that can be minted"
        }
      },
      "mint(address,uint256)": {
        "details": "Mint ERC20 tokens",
        "params": {
          "amount": "Number of tokens to mint for this call",
          "to": "Tokens created for this account"
        }
      },
      "mintServerDropFT(address,address,(uint256,string,uint256,uint256,uint256,bytes))": {
        "details": "Mint ERC20 tokens",
        "params": {
          "signer": "The address of the account which signed the NFT Voucher.",
          "to": "Tokens created for this account",
          "voucher": "A signed NFTVoucher(FTVoucher) that describes the FT to be redeemed."
        }
      },
      "name()": {
        "details": "Returns the name of the token."
      },
      "owner()": {
        "details": "Returns the address of the current owner."
      },
      "removeMinter(address)": {
        "details": "Remove an account from the list of accounts allowed to create ERC20 tokens",
        "params": {
          "minter": "address to remove from whitelist"
        }
      },
      "renounceOwnership()": {
        "details": "Leaves the contract without owner. It will not be possible to call `onlyOwner` functions anymore. Can only be called by the current owner. NOTE: Renouncing ownership will leave the contract without an owner, thereby removing any functionality that is only available to the owner."
      },
      "symbol()": {
        "details": "Returns the symbol of the token, usually a shorter version of the name."
      },
      "totalSupply()": {
        "details": "See {IERC20-totalSupply}."
      },
      "transfer(address,uint256)": {
        "details": "See {IERC20-transfer}. Requirements: - `to` cannot be the zero address. - the caller must have a balance of at least `amount`."
      },
      "transferFrom(address,address,uint256)": {
        "details": "See {IERC20-transferFrom}. Emits an {Approval} event indicating the updated allowance. This is not required by the EIP. See the note at the beginning of {ERC20}. NOTE: Does not update the allowance if the current allowance is the maximum `uint256`. Requirements: - `from` and `to` cannot be the zero address. - `from` must have a balance of at least `amount`. - the caller must have allowance for ``from``'s tokens of at least `amount`."
      },
      "transferOwnership(address)": {
        "details": "Transfers ownership of the contract to a new account (`newOwner`). Can only be called by the current owner."
      },
      "verifyVoucher((uint256,string,uint256,uint256,uint256,bytes))": {
        "details": "Verification through ECDSA signature of 'typed' data.Voucher must contain valid signature, nonce, and expiry.*",
        "params": {
          "voucher": "A signed NFTVoucher that describes the NFT to be redeemed."
        }
      }
    },
    "version": 1
  },
  "userdoc": {
    "kind": "user",
    "methods": {
      "_verify((uint256,string,uint256,uint256,uint256,bytes))": {
        "notice": "Verifies the signature for a given NFTVoucher, returning the address of the signer."
      },
      "claim(address,address,(uint256,string,uint256,uint256,uint256,bytes))": {
        "notice": "Redeems an NFTVoucher for an actual NFT, authorized by the owner."
      },
      "externalClaim(address,address,(uint256,string,uint256,uint256,uint256,bytes))": {
        "notice": "Redeems an Voucher for actual ERC20 tokens, authorized by the owner from an external contract."
      },
      "verifyVoucher((uint256,string,uint256,uint256,uint256,bytes))": {
        "notice": "Verifies an NFTVoucher for an actual NFT, authorized by the owner."
      }
    },
    "version": 1
  }
}