{
  "contractName": "WebaverseERC1155",
  "abi": [
    {
      "anonymous": false,
      "inputs": [
        {
          "indexed": true,
          "internalType": "address",
          "name": "account",
          "type": "address"
        },
        {
          "indexed": true,
          "internalType": "address",
          "name": "operator",
          "type": "address"
        },
        {
          "indexed": false,
          "internalType": "bool",
          "name": "approved",
          "type": "bool"
        }
      ],
      "name": "ApprovalForAll",
      "type": "event"
    },
    {
      "anonymous": false,
      "inputs": [
        {
          "indexed": false,
          "internalType": "address",
          "name": "signer",
          "type": "address"
        },
        {
          "indexed": false,
          "internalType": "address",
          "name": "claimer",
          "type": "address"
        },
        {
          "indexed": true,
          "internalType": "uint256",
          "name": "id",
          "type": "uint256"
        }
      ],
      "name": "Claim",
      "type": "event"
    },
    {
      "anonymous": false,
      "inputs": [
        {
          "indexed": true,
          "internalType": "address",
          "name": "externalContract",
          "type": "address"
        },
        {
          "indexed": false,
          "internalType": "address",
          "name": "signer",
          "type": "address"
        },
        {
          "indexed": false,
          "internalType": "address",
          "name": "claimer",
          "type": "address"
        },
        {
          "indexed": true,
          "internalType": "uint256",
          "name": "id",
          "type": "uint256"
        }
      ],
      "name": "ExternalClaim",
      "type": "event"
    },
    {
      "anonymous": false,
      "inputs": [
        {
          "indexed": false,
          "internalType": "uint8",
          "name": "version",
          "type": "uint8"
        }
      ],
      "name": "Initialized",
      "type": "event"
    },
    {
      "anonymous": false,
      "inputs": [
        {
          "indexed": true,
          "internalType": "address",
          "name": "previousOwner",
          "type": "address"
        },
        {
          "indexed": true,
          "internalType": "address",
          "name": "newOwner",
          "type": "address"
        }
      ],
      "name": "OwnershipTransferred",
      "type": "event"
    },
    {
      "anonymous": false,
      "inputs": [
        {
          "indexed": true,
          "internalType": "address",
          "name": "operator",
          "type": "address"
        },
        {
          "indexed": true,
          "internalType": "address",
          "name": "from",
          "type": "address"
        },
        {
          "indexed": true,
          "internalType": "address",
          "name": "to",
          "type": "address"
        },
        {
          "indexed": false,
          "internalType": "uint256[]",
          "name": "ids",
          "type": "uint256[]"
        },
        {
          "indexed": false,
          "internalType": "uint256[]",
          "name": "values",
          "type": "uint256[]"
        }
      ],
      "name": "TransferBatch",
      "type": "event"
    },
    {
      "anonymous": false,
      "inputs": [
        {
          "indexed": true,
          "internalType": "address",
          "name": "operator",
          "type": "address"
        },
        {
          "indexed": true,
          "internalType": "address",
          "name": "from",
          "type": "address"
        },
        {
          "indexed": true,
          "internalType": "address",
          "name": "to",
          "type": "address"
        },
        {
          "indexed": false,
          "internalType": "uint256",
          "name": "id",
          "type": "uint256"
        },
        {
          "indexed": false,
          "internalType": "uint256",
          "name": "value",
          "type": "uint256"
        }
      ],
      "name": "TransferSingle",
      "type": "event"
    },
    {
      "anonymous": false,
      "inputs": [
        {
          "indexed": false,
          "internalType": "string",
          "name": "value",
          "type": "string"
        },
        {
          "indexed": true,
          "internalType": "uint256",
          "name": "id",
          "type": "uint256"
        }
      ],
      "name": "URI",
      "type": "event"
    },
    {
      "inputs": [
        {
          "components": [
            {
              "internalType": "uint256",
              "name": "tokenId",
              "type": "uint256"
            },
            {
              "internalType": "string",
              "name": "contentURL",
              "type": "string"
            },
            {
              "internalType": "uint256",
              "name": "balance",
              "type": "uint256"
            },
            {
              "internalType": "uint256",
              "name": "nonce",
              "type": "uint256"
            },
            {
              "internalType": "uint256",
              "name": "expiry",
              "type": "uint256"
            },
            {
              "internalType": "bytes",
              "name": "signature",
              "type": "bytes"
            }
          ],
          "internalType": "struct WebaverseVoucher.NFTVoucher",
          "name": "voucher",
          "type": "tuple"
        }
      ],
      "name": "_verify",
      "outputs": [
        {
          "internalType": "address",
          "name": "",
          "type": "address"
        }
      ],
      "stateMutability": "view",
      "type": "function",
      "constant": true
    },
    {
      "inputs": [],
      "name": "_webaverse_voucher_init",
      "outputs": [],
      "stateMutability": "nonpayable",
      "type": "function"
    },
    {
      "inputs": [
        {
          "internalType": "address",
          "name": "account",
          "type": "address"
        },
        {
          "internalType": "uint256",
          "name": "id",
          "type": "uint256"
        }
      ],
      "name": "balanceOf",
      "outputs": [
        {
          "internalType": "uint256",
          "name": "",
          "type": "uint256"
        }
      ],
      "stateMutability": "view",
      "type": "function",
      "constant": true
    },
    {
      "inputs": [
        {
          "internalType": "address[]",
          "name": "accounts",
          "type": "address[]"
        },
        {
          "internalType": "uint256[]",
          "name": "ids",
          "type": "uint256[]"
        }
      ],
      "name": "balanceOfBatch",
      "outputs": [
        {
          "internalType": "uint256[]",
          "name": "",
          "type": "uint256[]"
        }
      ],
      "stateMutability": "view",
      "type": "function",
      "constant": true
    },
    {
      "inputs": [
        {
          "internalType": "uint256",
          "name": "",
          "type": "uint256"
        }
      ],
      "name": "burnedNonces",
      "outputs": [
        {
          "internalType": "bool",
          "name": "",
          "type": "bool"
        }
      ],
      "stateMutability": "view",
      "type": "function",
      "constant": true
    },
    {
      "inputs": [],
      "name": "currentTokenId",
      "outputs": [
        {
          "internalType": "uint256",
          "name": "",
          "type": "uint256"
        }
      ],
      "stateMutability": "view",
      "type": "function",
      "constant": true
    },
    {
      "inputs": [
        {
          "internalType": "address",
          "name": "account",
          "type": "address"
        },
        {
          "internalType": "address",
          "name": "operator",
          "type": "address"
        }
      ],
      "name": "isApprovedForAll",
      "outputs": [
        {
          "internalType": "bool",
          "name": "",
          "type": "bool"
        }
      ],
      "stateMutability": "view",
      "type": "function",
      "constant": true
    },
    {
      "inputs": [],
      "name": "owner",
      "outputs": [
        {
          "internalType": "address",
          "name": "",
          "type": "address"
        }
      ],
      "stateMutability": "view",
      "type": "function",
      "constant": true
    },
    {
      "inputs": [],
      "name": "renounceOwnership",
      "outputs": [],
      "stateMutability": "nonpayable",
      "type": "function"
    },
    {
      "inputs": [
        {
          "internalType": "address",
          "name": "from",
          "type": "address"
        },
        {
          "internalType": "address",
          "name": "to",
          "type": "address"
        },
        {
          "internalType": "uint256[]",
          "name": "ids",
          "type": "uint256[]"
        },
        {
          "internalType": "uint256[]",
          "name": "amounts",
          "type": "uint256[]"
        },
        {
          "internalType": "bytes",
          "name": "data",
          "type": "bytes"
        }
      ],
      "name": "safeBatchTransferFrom",
      "outputs": [],
      "stateMutability": "nonpayable",
      "type": "function"
    },
    {
      "inputs": [
        {
          "internalType": "address",
          "name": "from",
          "type": "address"
        },
        {
          "internalType": "address",
          "name": "to",
          "type": "address"
        },
        {
          "internalType": "uint256",
          "name": "id",
          "type": "uint256"
        },
        {
          "internalType": "uint256",
          "name": "amount",
          "type": "uint256"
        },
        {
          "internalType": "bytes",
          "name": "data",
          "type": "bytes"
        }
      ],
      "name": "safeTransferFrom",
      "outputs": [],
      "stateMutability": "nonpayable",
      "type": "function"
    },
    {
      "inputs": [
        {
          "internalType": "address",
          "name": "operator",
          "type": "address"
        },
        {
          "internalType": "bool",
          "name": "approved",
          "type": "bool"
        }
      ],
      "name": "setApprovalForAll",
      "outputs": [],
      "stateMutability": "nonpayable",
      "type": "function"
    },
    {
      "inputs": [
        {
          "internalType": "address",
          "name": "newOwner",
          "type": "address"
        }
      ],
      "name": "transferOwnership",
      "outputs": [],
      "stateMutability": "nonpayable",
      "type": "function"
    },
    {
      "inputs": [
        {
          "components": [
            {
              "internalType": "uint256",
              "name": "tokenId",
              "type": "uint256"
            },
            {
              "internalType": "string",
              "name": "contentURL",
              "type": "string"
            },
            {
              "internalType": "uint256",
              "name": "balance",
              "type": "uint256"
            },
            {
              "internalType": "uint256",
              "name": "nonce",
              "type": "uint256"
            },
            {
              "internalType": "uint256",
              "name": "expiry",
              "type": "uint256"
            },
            {
              "internalType": "bytes",
              "name": "signature",
              "type": "bytes"
            }
          ],
          "internalType": "struct WebaverseVoucher.NFTVoucher",
          "name": "voucher",
          "type": "tuple"
        }
      ],
      "name": "verifyVoucher",
      "outputs": [
        {
          "internalType": "address",
          "name": "",
          "type": "address"
        }
      ],
      "stateMutability": "nonpayable",
      "type": "function"
    },
    {
      "inputs": [
        {
          "internalType": "string",
          "name": "name_",
          "type": "string"
        },
        {
          "internalType": "string",
          "name": "symbol_",
          "type": "string"
        },
        {
          "internalType": "string",
          "name": "baseURI_",
          "type": "string"
        }
      ],
      "name": "initialize",
      "outputs": [],
      "stateMutability": "nonpayable",
      "type": "function"
    },
    {
      "inputs": [],
      "name": "name",
      "outputs": [
        {
          "internalType": "string",
          "name": "",
          "type": "string"
        }
      ],
      "stateMutability": "view",
      "type": "function",
      "constant": true
    },
    {
      "inputs": [],
      "name": "symbol",
      "outputs": [
        {
          "internalType": "string",
          "name": "",
          "type": "string"
        }
      ],
      "stateMutability": "view",
      "type": "function",
      "constant": true
    },
    {
      "inputs": [],
      "name": "baseURI",
      "outputs": [
        {
          "internalType": "string",
          "name": "",
          "type": "string"
        }
      ],
      "stateMutability": "view",
      "type": "function",
      "constant": true
    },
    {
      "inputs": [
        {
          "internalType": "string",
          "name": "baseURI_",
          "type": "string"
        }
      ],
      "name": "setBaseURI",
      "outputs": [],
      "stateMutability": "nonpayable",
      "type": "function"
    },
    {
      "inputs": [
        {
          "internalType": "uint256",
          "name": "tokenId",
          "type": "uint256"
        }
      ],
      "name": "getTokenBalance",
      "outputs": [
        {
          "internalType": "uint256",
          "name": "",
          "type": "uint256"
        }
      ],
      "stateMutability": "view",
      "type": "function",
      "constant": true
    },
    {
      "inputs": [
        {
          "internalType": "bool",
          "name": "_isPublicallyMintable",
          "type": "bool"
        }
      ],
      "name": "setPublicallyMintable",
      "outputs": [],
      "stateMutability": "nonpayable",
      "type": "function"
    },
    {
      "inputs": [],
      "name": "getPublicallyMintable",
      "outputs": [
        {
          "internalType": "bool",
          "name": "",
          "type": "bool"
        }
      ],
      "stateMutability": "view",
      "type": "function",
      "constant": true
    },
    {
      "inputs": [
        {
          "internalType": "uint256",
          "name": "_id",
          "type": "uint256"
        }
      ],
      "name": "uri",
      "outputs": [
        {
          "internalType": "string",
          "name": "",
          "type": "string"
        }
      ],
      "stateMutability": "view",
      "type": "function",
      "constant": true
    },
    {
      "inputs": [
        {
          "internalType": "uint256",
          "name": "tokenId",
          "type": "uint256"
        }
      ],
      "name": "getTokenContentURL",
      "outputs": [
        {
          "internalType": "string",
          "name": "",
          "type": "string"
        }
      ],
      "stateMutability": "view",
      "type": "function",
      "constant": true
    },
    {
      "inputs": [
        {
          "internalType": "address",
          "name": "owner",
          "type": "address"
        }
      ],
      "name": "getTokenIdsByOwner",
      "outputs": [
        {
          "internalType": "uint256[]",
          "name": "",
          "type": "uint256[]"
        },
        {
          "internalType": "uint256",
          "name": "",
          "type": "uint256"
        }
      ],
      "stateMutability": "view",
      "type": "function",
      "constant": true
    },
    {
      "inputs": [
        {
          "internalType": "address",
          "name": "to",
          "type": "address"
        },
        {
          "internalType": "uint256",
          "name": "balance",
          "type": "uint256"
        },
        {
          "internalType": "string",
          "name": "_uri",
          "type": "string"
        },
        {
          "internalType": "bytes",
          "name": "data",
          "type": "bytes"
        }
      ],
      "name": "mint",
      "outputs": [],
      "stateMutability": "nonpayable",
      "type": "function"
    },
    {
      "inputs": [
        {
          "internalType": "address",
          "name": "to",
          "type": "address"
        },
        {
          "internalType": "string[]",
          "name": "uris",
          "type": "string[]"
        },
        {
          "internalType": "uint256[]",
          "name": "balances",
          "type": "uint256[]"
        },
        {
          "internalType": "bytes",
          "name": "data",
          "type": "bytes"
        }
      ],
      "name": "mintBatch",
      "outputs": [],
      "stateMutability": "nonpayable",
      "type": "function"
    },
    {
      "inputs": [
        {
          "internalType": "address",
          "name": "signer",
          "type": "address"
        },
        {
          "internalType": "address",
          "name": "claimer",
          "type": "address"
        },
        {
          "internalType": "bytes",
          "name": "data",
          "type": "bytes"
        },
        {
          "components": [
            {
              "internalType": "uint256",
              "name": "tokenId",
              "type": "uint256"
            },
            {
              "internalType": "string",
              "name": "contentURL",
              "type": "string"
            },
            {
              "internalType": "uint256",
              "name": "balance",
              "type": "uint256"
            },
            {
              "internalType": "uint256",
              "name": "nonce",
              "type": "uint256"
            },
            {
              "internalType": "uint256",
              "name": "expiry",
              "type": "uint256"
            },
            {
              "internalType": "bytes",
              "name": "signature",
              "type": "bytes"
            }
          ],
          "internalType": "struct WebaverseVoucher.NFTVoucher",
          "name": "voucher",
          "type": "tuple"
        }
      ],
      "name": "mintServerDropNFT",
      "outputs": [],
      "stateMutability": "nonpayable",
      "type": "function"
    },
    {
      "inputs": [
        {
          "internalType": "address",
          "name": "signer",
          "type": "address"
        },
        {
          "internalType": "address",
          "name": "claimer",
          "type": "address"
        },
        {
          "components": [
            {
              "internalType": "uint256",
              "name": "tokenId",
              "type": "uint256"
            },
            {
              "internalType": "string",
              "name": "contentURL",
              "type": "string"
            },
            {
              "internalType": "uint256",
              "name": "balance",
              "type": "uint256"
            },
            {
              "internalType": "uint256",
              "name": "nonce",
              "type": "uint256"
            },
            {
              "internalType": "uint256",
              "name": "expiry",
              "type": "uint256"
            },
            {
              "internalType": "bytes",
              "name": "signature",
              "type": "bytes"
            }
          ],
          "internalType": "struct WebaverseVoucher.NFTVoucher",
          "name": "voucher",
          "type": "tuple"
        }
      ],
      "name": "claim",
      "outputs": [],
      "stateMutability": "nonpayable",
      "type": "function"
    },
    {
      "inputs": [
        {
          "internalType": "address",
          "name": "claimer",
          "type": "address"
        },
        {
          "internalType": "address",
          "name": "contractAddress",
          "type": "address"
        },
        {
          "components": [
            {
              "internalType": "uint256",
              "name": "tokenId",
              "type": "uint256"
            },
            {
              "internalType": "string",
              "name": "contentURL",
              "type": "string"
            },
            {
              "internalType": "uint256",
              "name": "balance",
              "type": "uint256"
            },
            {
              "internalType": "uint256",
              "name": "nonce",
              "type": "uint256"
            },
            {
              "internalType": "uint256",
              "name": "expiry",
              "type": "uint256"
            },
            {
              "internalType": "bytes",
              "name": "signature",
              "type": "bytes"
            }
          ],
          "internalType": "struct WebaverseVoucher.NFTVoucher",
          "name": "voucher",
          "type": "tuple"
        }
      ],
      "name": "externalClaim",
      "outputs": [
        {
          "internalType": "uint256",
          "name": "",
          "type": "uint256"
        }
      ],
      "stateMutability": "nonpayable",
      "type": "function"
    },
    {
      "inputs": [
        {
          "internalType": "address",
          "name": "to",
          "type": "address"
        },
        {
          "internalType": "uint256",
          "name": "id",
          "type": "uint256"
        },
        {
          "internalType": "uint256",
          "name": "amount",
          "type": "uint256"
        },
        {
          "internalType": "bytes",
          "name": "data",
          "type": "bytes"
        }
      ],
      "name": "safeTransfer",
      "outputs": [],
      "stateMutability": "nonpayable",
      "type": "function"
    },
    {
      "inputs": [],
      "name": "getNextTokenId",
      "outputs": [
        {
          "internalType": "uint256",
          "name": "",
          "type": "uint256"
        }
      ],
      "stateMutability": "view",
      "type": "function",
      "constant": true
    },
    {
      "inputs": [],
      "name": "getChainID",
      "outputs": [
        {
          "internalType": "uint256",
          "name": "",
          "type": "uint256"
        }
      ],
      "stateMutability": "view",
      "type": "function",
      "constant": true
    },
    {
      "inputs": [
        {
          "internalType": "bytes4",
          "name": "interfaceId",
          "type": "bytes4"
        }
      ],
      "name": "supportsInterface",
      "outputs": [
        {
          "internalType": "bool",
          "name": "",
          "type": "bool"
        }
      ],
      "stateMutability": "view",
      "type": "function",
      "constant": true
    }
  ],
  "bytecode": "0x608060405234801561001057600080fd5b506140cf806100206000396000f3fe608060405234801561001057600080fd5b50600436106102245760003560e01c80637e2499cc1161012a578063ae28b68c116100bd578063e985e9c51161008c578063f242432a11610071578063f242432a146104ef578063f2fde38b14610502578063ff943aaa1461051557600080fd5b8063e985e9c514610493578063f014ab29146104dc57600080fd5b8063ae28b68c14610452578063b6dcc9d914610465578063caa0f92a14610478578063d2b04fd61461048057600080fd5b806395d89b41116100f957806395d89b41146104115780639962896f14610419578063a22cb4651461042c578063a6487c531461043f57600080fd5b80637e2499cc1461039c57806387917372146103bf5780638da5cb5b146103d25780639105d748146103f057600080fd5b80634355e53b116101bd5780636970bb0a1161018c5780636d33a377116101715780636d33a37714610349578063715018a614610381578063754b38711461038957600080fd5b80636970bb0a146103205780636c0360eb1461034157600080fd5b80634355e53b146102df5780634e1273f4146102e757806355f804b314610307578063564b81ef1461031a57600080fd5b80630e89341c116101f95780630e89341c1461029157806314d88262146102a45780632eb2c2d6146102b9578063428a328b146102cc57600080fd5b80629a9b7b14610229578062fdd58e1461024657806301ffc9a71461025957806306fdde031461027c575b600080fd5b6102336101035481565b6040519081526020015b60405180910390f35b610233610254366004613738565b610521565b61026c610267366004613934565b6105e6565b604051901515815260200161023d565b6102846105f7565b60405161023d9190613d2b565b61028461029f366004613a5e565b610689565b6102b76102b23660046138fa565b6106f3565b005b6102b76102c7366004613400565b61072d565b6102b76102da3660046135f2565b6107dc565b6102b7610961565b6102fa6102f5366004613829565b610a54565b60405161023d9190613cc8565b6102b761031536600461396e565b610b92565b46610233565b61033361032e3660046133b2565b610bb2565b60405161023d929190613d09565b610284610c87565b61035c610357366004613a29565b610c97565b60405173ffffffffffffffffffffffffffffffffffffffff909116815260200161023d565b6102b7610cf0565b61035c610397366004613a29565b610d02565b61026c6103aa366004613a5e565b60cb6020526000908152604090205460ff1681565b6102846103cd366004613a5e565b610e01565b60cc5473ffffffffffffffffffffffffffffffffffffffff1661035c565b6102336103fe366004613a5e565b6000908152610101602052604090205490565b610284610f1b565b6102b76104273660046134aa565b610f2a565b6102b761043a366004613701565b611099565b6102b761044d3660046139ab565b6110a4565b6102b76104603660046137d4565b61126d565b6102b761047336600461352f565b61127a565b610233611433565b6102b761048e366004613762565b61144a565b61026c6104a13660046133cd565b73ffffffffffffffffffffffffffffffffffffffff918216600090815260666020908152604080832093909416825291909152205460ff1690565b6102336104ea36600461352f565b61152e565b6102b76104fd36600461358d565b61184b565b6102b76105103660046133b2565b6118f3565b6101045460ff1661026c565b600073ffffffffffffffffffffffffffffffffffffffff83166105b15760405162461bcd60e51b815260206004820152602a60248201527f455243313135353a2061646472657373207a65726f206973206e6f742061207660448201527f616c6964206f776e65720000000000000000000000000000000000000000000060648201526084015b60405180910390fd5b50600090815260656020908152604080832073ffffffffffffffffffffffffffffffffffffffff949094168352929052205490565b60006105f182611990565b92915050565b606060fe805461060690613e0b565b80601f016020809104026020016040519081016040528092919081815260200182805461063290613e0b565b801561067f5780601f106106545761010080835404028352916020019161067f565b820191906000526020600020905b81548152906001019060200180831161066257829003601f168201915b5050505050905090565b60606000610695610c87565b90508051600014156106b657604051806020016040528060008152506106ec565b8061010060008581526020019081526020016000206040516020016106dc929190613b25565b6040516020818303038152906040525b9392505050565b6106fb611a73565b61010480547fffffffffffffffffffffffffffffffffffffffffffffffffffffffffffffff0016911515919091179055565b73ffffffffffffffffffffffffffffffffffffffff8516331480610756575061075685336104a1565b6107c85760405162461bcd60e51b815260206004820152602f60248201527f455243313135353a2063616c6c6572206973206e6f7420746f6b656e206f776e60448201527f6572206e6f7220617070726f766564000000000000000000000000000000000060648201526084016105a8565b6107d58585858585611ada565b5050505050565b81518351146108535760405162461bcd60e51b815260206004820152602f60248201527f5742565253455243313135353a205552497320616e642062616c616e6365732060448201527f6c656e677468206d69736d61746368000000000000000000000000000000000060648201526084016105a8565b6000835167ffffffffffffffff81111561086f5761086f613f6a565b604051908082528060200260200182016040528015610898578160200160208202803683370190505b50905060005b81518110156109545760006108b1611433565b9050808383815181106108c6576108c6613f3b565b6020026020010181815250506108f5818784815181106108e8576108e8613f3b565b6020026020010151611dc9565b60009081526101056020526040902080547fffffffffffffffffffffffff00000000000000000000000000000000000000001673ffffffffffffffffffffffffffffffffffffffff88161790558061094c81613ea4565b91505061089e565b506107d585828585611e3a565b600054610100900460ff166109de5760405162461bcd60e51b815260206004820152602b60248201527f496e697469616c697a61626c653a20636f6e7472616374206973206e6f74206960448201527f6e697469616c697a696e6700000000000000000000000000000000000000000060648201526084016105a8565b610a526040518060400160405280601181526020017f5765626176657273652d766f75636865720000000000000000000000000000008152506040518060400160405280600181526020017f3100000000000000000000000000000000000000000000000000000000000000815250612080565b565b60608151835114610acd5760405162461bcd60e51b815260206004820152602960248201527f455243313135353a206163636f756e747320616e6420696473206c656e67746860448201527f206d69736d61746368000000000000000000000000000000000000000000000060648201526084016105a8565b6000835167ffffffffffffffff811115610ae957610ae9613f6a565b604051908082528060200260200182016040528015610b12578160200160208202803683370190505b50905060005b8451811015610b8a57610b5d858281518110610b3657610b36613f3b565b6020026020010151858381518110610b5057610b50613f3b565b6020026020010151610521565b828281518110610b6f57610b6f613f3b565b6020908102919091010152610b8381613ea4565b9050610b18565b509392505050565b610b9a611a73565b8051610bae906101029060208401906131cf565b5050565b60606000806101035467ffffffffffffffff811115610bd357610bd3613f6a565b604051908082528060200260200182016040528015610bfc578160200160208202803683370190505b509050600060015b610103548111610c7c576000818152610105602052604090205473ffffffffffffffffffffffffffffffffffffffff87811691161415610c6a5780838381518110610c5157610c51613f3b565b602090810291909101015281610c6681613ea4565b9250505b80610c7481613ea4565b915050610c04565b509094909350915050565b6060610102805461060690613e0b565b600080610ca383612107565b90506106ec81610cb660a0860186613d3e565b8080601f0160208091040260200160405190810160405280939291908181526020018383808284376000920191909152506121df92505050565b610cf8611a73565b610a5260006121fb565b60008160800135421115610d585760405162461bcd60e51b815260206004820152601b60248201527f566f75636865722068617320616c72656164792065787069726564000000000060448201526064016105a8565b6060820135600090815260cb602052604090205460ff1615610dbc5760405162461bcd60e51b815260206004820152601360248201527f496e76616c6964206e6f6e63652076616c75650000000000000000000000000060448201526064016105a8565b6060820135600090815260cb6020526040812080547fffffffffffffffffffffffffffffffffffffffffffffffffffffffffffffff001660011790556106ec83610c97565b606081610103541015610e7c5760405162461bcd60e51b815260206004820152602f60248201527f455243313135353a20636f6e74656e7455524c20717565727920666f72206e6f60448201527f6e6578697374656e7420746f6b656e000000000000000000000000000000000060648201526084016105a8565b6000828152610100602052604090208054610e9690613e0b565b80601f0160208091040260200160405190810160405280929190818152602001828054610ec290613e0b565b8015610f0f5780601f10610ee457610100808354040283529160200191610f0f565b820191906000526020600020905b815481529060010190602001808311610ef257829003601f168201915b50505050509050919050565b606060ff805461060690613e0b565b8373ffffffffffffffffffffffffffffffffffffffff16610f6060cc5473ffffffffffffffffffffffffffffffffffffffff1690565b73ffffffffffffffffffffffffffffffffffffffff1614610fc35760405162461bcd60e51b815260206004820152601060248201527f57726f6e67207369676e6174757265210000000000000000000000000000000060448201526064016105a8565b6000610fcd611433565b9050610fdf8482846040013586612272565b61102a81610ff06020850185613d3e565b8080601f016020809104026020016040519081016040528093929190818152602001838380828437600092019190915250611dc992505050565b6110326123cb565b6000908152610101602090815260408083209381013590935561010590522080547fffffffffffffffffffffffff00000000000000000000000000000000000000001673ffffffffffffffffffffffffffffffffffffffff93909316929092179091555050565b610bae3383836123e3565b600054610100900460ff16158080156110c45750600054600160ff909116105b806110de5750303b1580156110de575060005460ff166001145b6111505760405162461bcd60e51b815260206004820152602e60248201527f496e697469616c697a61626c653a20636f6e747261637420697320616c72656160448201527f647920696e697469616c697a656400000000000000000000000000000000000060648201526084016105a8565b600080547fffffffffffffffffffffffffffffffffffffffffffffffffffffffffffffff0016600117905580156111ae57600080547fffffffffffffffffffffffffffffffffffffffffffffffffffffffffffff00ff166101001790555b83516111c19060fe9060208701906131cf565b5082516111d59060ff9060208601906131cf565b506111de61251d565b6111e7826125a3565b81516111fb906101029060208501906131cf565b50611204610961565b801561126757600080547fffffffffffffffffffffffffffffffffffffffffffffffffffffffffffff00ff169055604051600181527f7f26b83ff96e1f2b6a682f133852f6798a09c465da95921460cefb38474024989060200160405180910390a15b50505050565b611267338585858561184b565b611285838235610521565b6112f75760405162461bcd60e51b815260206004820152602e60248201527f57425652533a20417574686f72697a6174696f6e206661696c65643a20496e7660448201527f616c6964207369676e617475726500000000000000000000000000000000000060648201526084016105a8565b80356000908152610105602052604090205473ffffffffffffffffffffffffffffffffffffffff8481169116146113965760405162461bcd60e51b815260206004820152602e60248201527f57425652533a20417574686f72697a6174696f6e206661696c65643a20496e7660448201527f616c6964207369676e617475726500000000000000000000000000000000000060648201526084016105a8565b80356000818152610105602090815260409182902080547fffffffffffffffffffffffff00000000000000000000000000000000000000001673ffffffffffffffffffffffffffffffffffffffff871617905581518083018352600481527f30783031000000000000000000000000000000000000000000000000000000009181019190915261142e92869286929086013590612629565b505050565b60006101035460016114459190613dc7565b905090565b6101045460ff1661149d5760405162461bcd60e51b815260206004820152601b60248201527f455243313135353a205075626c6963204d696e7420436c6f736564000000000060448201526064016105a8565b60006114a7611433565b90506114b585828685612272565b6114bf8184611dc9565b6114c76123cb565b6000908152610101602090815260408083209590955561010590529290922080547fffffffffffffffffffffffff00000000000000000000000000000000000000001673ffffffffffffffffffffffffffffffffffffffff94909416939093179092555050565b6000828161153b84610d02565b6040517efdd58e00000000000000000000000000000000000000000000000000000000815273ffffffffffffffffffffffffffffffffffffffff8083166004830152863560248301529192509083169062fdd58e9060440160206040518083038186803b1580156115ab57600080fd5b505afa1580156115bf573d6000803e3d6000fd5b505050506040513d601f19601f820116820180604052508101906115e39190613a77565b6116555760405162461bcd60e51b815260206004820152602e60248201527f57425652533a20417574686f72697a6174696f6e206661696c65643a20496e7660448201527f616c6964207369676e617475726500000000000000000000000000000000000060648201526084016105a8565b6040517fe985e9c500000000000000000000000000000000000000000000000000000000815273ffffffffffffffffffffffffffffffffffffffff828116600483015230602483015283169063e985e9c59060440160206040518083038186803b1580156116c257600080fd5b505afa1580156116d6573d6000803e3d6000fd5b505050506040513d601f19601f820116820180604052508101906116fa9190613917565b61176c5760405162461bcd60e51b815260206004820152602c60248201527f57425652533a20417072726f76616c206e6f742073657420666f72205765626160448201527f766572736545524331313535000000000000000000000000000000000000000060648201526084016105a8565b604080517ff242432a00000000000000000000000000000000000000000000000000000000815273ffffffffffffffffffffffffffffffffffffffff83811660048084019190915289821660248401528735604484015292870135606483015260a0608483015260a48201929092527f307830310000000000000000000000000000000000000000000000000000000060c48201529083169063f242432a9060e401600060405180830381600087803b15801561182857600080fd5b505af115801561183c573d6000803e3d6000fd5b50509435979650505050505050565b73ffffffffffffffffffffffffffffffffffffffff8516331480611874575061187485336104a1565b6118e65760405162461bcd60e51b815260206004820152602f60248201527f455243313135353a2063616c6c6572206973206e6f7420746f6b656e206f776e60448201527f6572206e6f7220617070726f766564000000000000000000000000000000000060648201526084016105a8565b6107d58585858585612629565b6118fb611a73565b73ffffffffffffffffffffffffffffffffffffffff81166119845760405162461bcd60e51b815260206004820152602660248201527f4f776e61626c653a206e6577206f776e657220697320746865207a65726f206160448201527f646472657373000000000000000000000000000000000000000000000000000060648201526084016105a8565b61198d816121fb565b50565b60007fffffffff0000000000000000000000000000000000000000000000000000000082167fd9b67a26000000000000000000000000000000000000000000000000000000001480611a2357507fffffffff0000000000000000000000000000000000000000000000000000000082167f0e89341c00000000000000000000000000000000000000000000000000000000145b806105f157507f01ffc9a7000000000000000000000000000000000000000000000000000000007fffffffff000000000000000000000000000000000000000000000000000000008316146105f1565b60cc5473ffffffffffffffffffffffffffffffffffffffff163314610a525760405162461bcd60e51b815260206004820181905260248201527f4f776e61626c653a2063616c6c6572206973206e6f7420746865206f776e657260448201526064016105a8565b8151835114611b515760405162461bcd60e51b815260206004820152602860248201527f455243313135353a2069647320616e6420616d6f756e7473206c656e6774682060448201527f6d69736d6174636800000000000000000000000000000000000000000000000060648201526084016105a8565b73ffffffffffffffffffffffffffffffffffffffff8416611bda5760405162461bcd60e51b815260206004820152602560248201527f455243313135353a207472616e7366657220746f20746865207a65726f20616460448201527f647265737300000000000000000000000000000000000000000000000000000060648201526084016105a8565b3360005b8451811015611d34576000858281518110611bfb57611bfb613f3b565b602002602001015190506000858381518110611c1957611c19613f3b565b602090810291909101810151600084815260658352604080822073ffffffffffffffffffffffffffffffffffffffff8e168352909352919091205490915081811015611ccd5760405162461bcd60e51b815260206004820152602a60248201527f455243313135353a20696e73756666696369656e742062616c616e636520666f60448201527f72207472616e736665720000000000000000000000000000000000000000000060648201526084016105a8565b600083815260656020908152604080832073ffffffffffffffffffffffffffffffffffffffff8e8116855292528083208585039055908b16825281208054849290611d19908490613dc7565b9250508190555050505080611d2d90613ea4565b9050611bde565b508473ffffffffffffffffffffffffffffffffffffffff168673ffffffffffffffffffffffffffffffffffffffff168273ffffffffffffffffffffffffffffffffffffffff167f4a39dc06d4c0dbc64b70af90fd698a233a518aa5d07e595d983b8c0526c8f7fb8787604051611dab929190613cdb565b60405180910390a4611dc1818787878787612837565b505050505050565b6000815111611e1a5760405162461bcd60e51b815260206004820152601e60248201527f455243313135353a20555249206d757374206e6f7420626520656d707479000060448201526064016105a8565b600082815261010060209081526040909120825161142e928401906131cf565b73ffffffffffffffffffffffffffffffffffffffff8416611ec35760405162461bcd60e51b815260206004820152602160248201527f455243313135353a206d696e7420746f20746865207a65726f2061646472657360448201527f730000000000000000000000000000000000000000000000000000000000000060648201526084016105a8565b8151835114611f3a5760405162461bcd60e51b815260206004820152602860248201527f455243313135353a2069647320616e6420616d6f756e7473206c656e6774682060448201527f6d69736d6174636800000000000000000000000000000000000000000000000060648201526084016105a8565b3360005b8451811015611ff157838181518110611f5957611f59613f3b565b602002602001015160656000878481518110611f7757611f77613f3b565b6020026020010151815260200190815260200160002060008873ffffffffffffffffffffffffffffffffffffffff1673ffffffffffffffffffffffffffffffffffffffff1681526020019081526020016000206000828254611fd99190613dc7565b90915550819050611fe981613ea4565b915050611f3e565b508473ffffffffffffffffffffffffffffffffffffffff16600073ffffffffffffffffffffffffffffffffffffffff168273ffffffffffffffffffffffffffffffffffffffff167f4a39dc06d4c0dbc64b70af90fd698a233a518aa5d07e595d983b8c0526c8f7fb8787604051612069929190613cdb565b60405180910390a46107d581600087878787612837565b600054610100900460ff166120fd5760405162461bcd60e51b815260206004820152602b60248201527f496e697469616c697a61626c653a20636f6e7472616374206973206e6f74206960448201527f6e697469616c697a696e6700000000000000000000000000000000000000000060648201526084016105a8565b610bae8282612a83565b60006105f17f5ffd6690a098e0cacfcb33dc84f9cd3cca7021192543b042c1896ee834cabb13833561213c6020860186613d3e565b60405160200161214d929190613b15565b604080517fffffffffffffffffffffffffffffffffffffffffffffffffffffffffffffffe081840301815282825280516020918201206121c495949390928901359160608a01359160808b01359101958652602086019490945260408501929092526060840152608083015260a082015260c00190565b60405160208183030381529060405280519060200120612b1a565b60008060006121ee8585612b83565b91509150610b8a81612bc9565b60cc805473ffffffffffffffffffffffffffffffffffffffff8381167fffffffffffffffffffffffff0000000000000000000000000000000000000000831681179093556040519116919082907f8be0079c531659141344cd1fd0a4f28419497f9722a3daafe3b4186f6b6457e090600090a35050565b73ffffffffffffffffffffffffffffffffffffffff84166122fb5760405162461bcd60e51b815260206004820152602160248201527f455243313135353a206d696e7420746f20746865207a65726f2061646472657360448201527f730000000000000000000000000000000000000000000000000000000000000060648201526084016105a8565b33600061230785612dba565b9050600061231485612dba565b9050600086815260656020908152604080832073ffffffffffffffffffffffffffffffffffffffff8b16845290915281208054879290612355908490613dc7565b9091555050604080518781526020810187905273ffffffffffffffffffffffffffffffffffffffff808a1692600092918716917fc3d58168c5ae7397731d063d5bbf3d657854427343f4c083240f7aacaa2d0f62910160405180910390a46123c283600089898989612e05565b50505050505050565b61010380549060006123dc83613ea4565b9190505550565b8173ffffffffffffffffffffffffffffffffffffffff168373ffffffffffffffffffffffffffffffffffffffff1614156124855760405162461bcd60e51b815260206004820152602960248201527f455243313135353a2073657474696e6720617070726f76616c2073746174757360448201527f20666f722073656c66000000000000000000000000000000000000000000000060648201526084016105a8565b73ffffffffffffffffffffffffffffffffffffffff83811660008181526066602090815260408083209487168084529482529182902080547fffffffffffffffffffffffffffffffffffffffffffffffffffffffffffffff001686151590811790915591519182527f17307eab39ab6107e8899845ad3d59bd9653f200f220920489ca2b5937696c31910160405180910390a3505050565b600054610100900460ff1661259a5760405162461bcd60e51b815260206004820152602b60248201527f496e697469616c697a61626c653a20636f6e7472616374206973206e6f74206960448201527f6e697469616c697a696e6700000000000000000000000000000000000000000060648201526084016105a8565b610a52336121fb565b600054610100900460ff166126205760405162461bcd60e51b815260206004820152602b60248201527f496e697469616c697a61626c653a20636f6e7472616374206973206e6f74206960448201527f6e697469616c697a696e6700000000000000000000000000000000000000000060648201526084016105a8565b61198d81612fa7565b73ffffffffffffffffffffffffffffffffffffffff84166126b25760405162461bcd60e51b815260206004820152602560248201527f455243313135353a207472616e7366657220746f20746865207a65726f20616460448201527f647265737300000000000000000000000000000000000000000000000000000060648201526084016105a8565b3360006126be85612dba565b905060006126cb85612dba565b9050600086815260656020908152604080832073ffffffffffffffffffffffffffffffffffffffff8c168452909152902054858110156127735760405162461bcd60e51b815260206004820152602a60248201527f455243313135353a20696e73756666696369656e742062616c616e636520666f60448201527f72207472616e736665720000000000000000000000000000000000000000000060648201526084016105a8565b600087815260656020908152604080832073ffffffffffffffffffffffffffffffffffffffff8d8116855292528083208985039055908a168252812080548892906127bf908490613dc7565b9091555050604080518881526020810188905273ffffffffffffffffffffffffffffffffffffffff808b16928c821692918816917fc3d58168c5ae7397731d063d5bbf3d657854427343f4c083240f7aacaa2d0f62910160405180910390a461282c848a8a8a8a8a612e05565b505050505050505050565b73ffffffffffffffffffffffffffffffffffffffff84163b15611dc1576040517fbc197c8100000000000000000000000000000000000000000000000000000000815273ffffffffffffffffffffffffffffffffffffffff85169063bc197c81906128ae9089908990889088908890600401613c0d565b602060405180830381600087803b1580156128c857600080fd5b505af1925050508015612916575060408051601f3d9081017fffffffffffffffffffffffffffffffffffffffffffffffffffffffffffffffe016820190925261291391810190613951565b60015b6129cc57612922613f99565b806308c379a0141561295c5750612937613fb5565b80612942575061295e565b8060405162461bcd60e51b81526004016105a89190613d2b565b505b60405162461bcd60e51b815260206004820152603460248201527f455243313135353a207472616e7366657220746f206e6f6e204552433131353560448201527f526563656976657220696d706c656d656e74657200000000000000000000000060648201526084016105a8565b7fffffffff0000000000000000000000000000000000000000000000000000000081167fbc197c8100000000000000000000000000000000000000000000000000000000146123c25760405162461bcd60e51b815260206004820152602860248201527f455243313135353a204552433131353552656365697665722072656a6563746560448201527f6420746f6b656e7300000000000000000000000000000000000000000000000060648201526084016105a8565b600054610100900460ff16612b005760405162461bcd60e51b815260206004820152602b60248201527f496e697469616c697a61626c653a20636f6e7472616374206973206e6f74206960448201527f6e697469616c697a696e6700000000000000000000000000000000000000000060648201526084016105a8565b815160209283012081519190920120609791909155609855565b60006105f1612b2761302d565b836040517f19010000000000000000000000000000000000000000000000000000000000006020820152602281018390526042810182905260009060620160405160208183030381529060405280519060200120905092915050565b600080825160411415612bba5760208301516040840151606085015160001a612bae878285856130a8565b94509450505050612bc2565b506000905060025b9250929050565b6000816004811115612bdd57612bdd613f0c565b1415612be65750565b6001816004811115612bfa57612bfa613f0c565b1415612c485760405162461bcd60e51b815260206004820152601860248201527f45434453413a20696e76616c6964207369676e6174757265000000000000000060448201526064016105a8565b6002816004811115612c5c57612c5c613f0c565b1415612caa5760405162461bcd60e51b815260206004820152601f60248201527f45434453413a20696e76616c6964207369676e6174757265206c656e6774680060448201526064016105a8565b6003816004811115612cbe57612cbe613f0c565b1415612d325760405162461bcd60e51b815260206004820152602260248201527f45434453413a20696e76616c6964207369676e6174757265202773272076616c60448201527f756500000000000000000000000000000000000000000000000000000000000060648201526084016105a8565b6004816004811115612d4657612d46613f0c565b141561198d5760405162461bcd60e51b815260206004820152602260248201527f45434453413a20696e76616c6964207369676e6174757265202776272076616c60448201527f756500000000000000000000000000000000000000000000000000000000000060648201526084016105a8565b60408051600180825281830190925260609160009190602080830190803683370190505090508281600081518110612df457612df4613f3b565b602090810291909101015292915050565b73ffffffffffffffffffffffffffffffffffffffff84163b15611dc1576040517ff23a6e6100000000000000000000000000000000000000000000000000000000815273ffffffffffffffffffffffffffffffffffffffff85169063f23a6e6190612e7c9089908990889088908890600401613c78565b602060405180830381600087803b158015612e9657600080fd5b505af1925050508015612ee4575060408051601f3d9081017fffffffffffffffffffffffffffffffffffffffffffffffffffffffffffffffe0168201909252612ee191810190613951565b60015b612ef057612922613f99565b7fffffffff0000000000000000000000000000000000000000000000000000000081167ff23a6e6100000000000000000000000000000000000000000000000000000000146123c25760405162461bcd60e51b815260206004820152602860248201527f455243313135353a204552433131353552656365697665722072656a6563746560448201527f6420746f6b656e7300000000000000000000000000000000000000000000000060648201526084016105a8565b600054610100900460ff166130245760405162461bcd60e51b815260206004820152602b60248201527f496e697469616c697a61626c653a20636f6e7472616374206973206e6f74206960448201527f6e697469616c697a696e6700000000000000000000000000000000000000000060648201526084016105a8565b61198d816131c0565b60006114457f8b73c3c69bb8fe3d512ecc4cf759cc79239f7b179b0ffacaa9a75d522b39400f61305c60975490565b6098546040805160208101859052908101839052606081018290524660808201523060a082015260009060c0016040516020818303038152906040528051906020012090509392505050565b6000807f7fffffffffffffffffffffffffffffff5d576e7357a4501ddfe92f46681b20a08311156130df57506000905060036131b7565b8460ff16601b141580156130f757508460ff16601c14155b1561310857506000905060046131b7565b6040805160008082526020820180845289905260ff881692820192909252606081018690526080810185905260019060a0016020604051602081039080840390855afa15801561315c573d6000803e3d6000fd5b50506040517fffffffffffffffffffffffffffffffffffffffffffffffffffffffffffffffe0015191505073ffffffffffffffffffffffffffffffffffffffff81166131b0576000600192509250506131b7565b9150600090505b94509492505050565b8051610bae9060679060208401905b8280546131db90613e0b565b90600052602060002090601f0160209004810192826131fd5760008555613243565b82601f1061321657805160ff1916838001178555613243565b82800160010185558215613243579182015b82811115613243578251825591602001919060010190613228565b5061324f929150613253565b5090565b5b8082111561324f5760008155600101613254565b803573ffffffffffffffffffffffffffffffffffffffff8116811461328c57600080fd5b919050565b600082601f8301126132a257600080fd5b813560206132af82613da3565b6040516132bc8282613e59565b8381528281019150858301600585901b870184018810156132dc57600080fd5b60005b858110156132fb578135845292840192908401906001016132df565b5090979650505050505050565b600082601f83011261331957600080fd5b813567ffffffffffffffff81111561333357613333613f6a565b60405161336860207fffffffffffffffffffffffffffffffffffffffffffffffffffffffffffffffe0601f8501160182613e59565b81815284602083860101111561337d57600080fd5b816020850160208301376000918101602001919091529392505050565b600060c082840312156133ac57600080fd5b50919050565b6000602082840312156133c457600080fd5b6106ec82613268565b600080604083850312156133e057600080fd5b6133e983613268565b91506133f760208401613268565b90509250929050565b600080600080600060a0868803121561341857600080fd5b61342186613268565b945061342f60208701613268565b9350604086013567ffffffffffffffff8082111561344c57600080fd5b61345889838a01613291565b9450606088013591508082111561346e57600080fd5b61347a89838a01613291565b9350608088013591508082111561349057600080fd5b5061349d88828901613308565b9150509295509295909350565b600080600080608085870312156134c057600080fd5b6134c985613268565b93506134d760208601613268565b9250604085013567ffffffffffffffff808211156134f457600080fd5b61350088838901613308565b9350606087013591508082111561351657600080fd5b506135238782880161339a565b91505092959194509250565b60008060006060848603121561354457600080fd5b61354d84613268565b925061355b60208501613268565b9150604084013567ffffffffffffffff81111561357757600080fd5b6135838682870161339a565b9150509250925092565b600080600080600060a086880312156135a557600080fd5b6135ae86613268565b94506135bc60208701613268565b93506040860135925060608601359150608086013567ffffffffffffffff8111156135e657600080fd5b61349d88828901613308565b6000806000806080858703121561360857600080fd5b61361185613268565b935060208086013567ffffffffffffffff8082111561362f57600080fd5b818801915088601f83011261364357600080fd5b813561364e81613da3565b60405161365b8282613e59565b8281528581019150848601600584901b860187018d101561367b57600080fd5b60005b848110156136b65781358681111561369557600080fd5b6136a38f8a838b0101613308565b855250928701929087019060010161367e565b5090985050505060408801359250808311156136d157600080fd5b6136dd89848a01613291565b945060608801359250808311156136f357600080fd5b505061352387828801613308565b6000806040838503121561371457600080fd5b61371d83613268565b9150602083013561372d8161405d565b809150509250929050565b6000806040838503121561374b57600080fd5b61375483613268565b946020939093013593505050565b6000806000806080858703121561377857600080fd5b61378185613268565b935060208501359250604085013567ffffffffffffffff808211156137a557600080fd5b6137b188838901613308565b935060608701359150808211156137c757600080fd5b5061352387828801613308565b600080600080608085870312156137ea57600080fd5b6137f385613268565b93506020850135925060408501359150606085013567ffffffffffffffff81111561381d57600080fd5b61352387828801613308565b6000806040838503121561383c57600080fd5b823567ffffffffffffffff8082111561385457600080fd5b818501915085601f83011261386857600080fd5b8135602061387582613da3565b6040516138828282613e59565b8381528281019150858301600585901b870184018b10156138a257600080fd5b600096505b848710156138cc576138b881613268565b8352600196909601959183019183016138a7565b50965050860135925050808211156138e357600080fd5b506138f085828601613291565b9150509250929050565b60006020828403121561390c57600080fd5b81356106ec8161405d565b60006020828403121561392957600080fd5b81516106ec8161405d565b60006020828403121561394657600080fd5b81356106ec8161406b565b60006020828403121561396357600080fd5b81516106ec8161406b565b60006020828403121561398057600080fd5b813567ffffffffffffffff81111561399757600080fd5b6139a384828501613308565b949350505050565b6000806000606084860312156139c057600080fd5b833567ffffffffffffffff808211156139d857600080fd5b6139e487838801613308565b945060208601359150808211156139fa57600080fd5b613a0687838801613308565b93506040860135915080821115613a1c57600080fd5b5061358386828701613308565b600060208284031215613a3b57600080fd5b813567ffffffffffffffff811115613a5257600080fd5b6139a38482850161339a565b600060208284031215613a7057600080fd5b5035919050565b600060208284031215613a8957600080fd5b5051919050565b600081518084526020808501945080840160005b83811015613ac057815187529582019590820190600101613aa4565b509495945050505050565b60008151808452613ae3816020860160208601613ddf565b601f017fffffffffffffffffffffffffffffffffffffffffffffffffffffffffffffffe0169290920160200192915050565b8183823760009101908152919050565b600083516020613b388285838901613ddf565b845491840191600090600181811c9080831680613b5657607f831692505b858310811415613b8d577f4e487b710000000000000000000000000000000000000000000000000000000085526022600452602485fd5b808015613ba15760018114613bd057613bfd565b7fffffffffffffffffffffffffffffffffffffffffffffffffffffffffffffff00851688528388019550613bfd565b60008b81526020902060005b85811015613bf55781548a820152908401908801613bdc565b505083880195505b50939a9950505050505050505050565b600073ffffffffffffffffffffffffffffffffffffffff808816835280871660208401525060a06040830152613c4660a0830186613a90565b8281036060840152613c588186613a90565b90508281036080840152613c6c8185613acb565b98975050505050505050565b600073ffffffffffffffffffffffffffffffffffffffff808816835280871660208401525084604083015283606083015260a06080830152613cbd60a0830184613acb565b979650505050505050565b6020815260006106ec6020830184613a90565b604081526000613cee6040830185613a90565b8281036020840152613d008185613a90565b95945050505050565b604081526000613d1c6040830185613a90565b90508260208301529392505050565b6020815260006106ec6020830184613acb565b60008083357fffffffffffffffffffffffffffffffffffffffffffffffffffffffffffffffe1843603018112613d7357600080fd5b83018035915067ffffffffffffffff821115613d8e57600080fd5b602001915036819003821315612bc257600080fd5b600067ffffffffffffffff821115613dbd57613dbd613f6a565b5060051b60200190565b60008219821115613dda57613dda613edd565b500190565b60005b83811015613dfa578181015183820152602001613de2565b838111156112675750506000910152565b600181811c90821680613e1f57607f821691505b602082108114156133ac577f4e487b7100000000000000000000000000000000000000000000000000000000600052602260045260246000fd5b7fffffffffffffffffffffffffffffffffffffffffffffffffffffffffffffffe0601f830116810181811067ffffffffffffffff82111715613e9d57613e9d613f6a565b6040525050565b60007fffffffffffffffffffffffffffffffffffffffffffffffffffffffffffffffff821415613ed657613ed6613edd565b5060010190565b7f4e487b7100000000000000000000000000000000000000000000000000000000600052601160045260246000fd5b7f4e487b7100000000000000000000000000000000000000000000000000000000600052602160045260246000fd5b7f4e487b7100000000000000000000000000000000000000000000000000000000600052603260045260246000fd5b7f4e487b7100000000000000000000000000000000000000000000000000000000600052604160045260246000fd5b600060033d1115613fb25760046000803e5060005160e01c5b90565b600060443d1015613fc35790565b6040517ffffffffffffffffffffffffffffffffffffffffffffffffffffffffffffffffc803d016004833e81513d67ffffffffffffffff816024840111818411171561401157505050505090565b82850191508151818111156140295750505050505090565b843d87010160208285010111156140435750505050505090565b61405260208286010187613e59565b509095945050505050565b801515811461198d57600080fd5b7fffffffff000000000000000000000000000000000000000000000000000000008116811461198d57600080fdfea2646970667358221220abed46125216d1767fff0c8c0a294566b83d807fdc71eb719bba40ef6a5e695e64736f6c63430008070033",
  "immutableReferences": {},
  "source": "// SPDX-License-Identifier: MIT\npragma solidity ^0.8.7;\n\nimport \"@openzeppelin/contracts-upgradeable/token/ERC1155/ERC1155Upgradeable.sol\";\nimport \"@openzeppelin/contracts-upgradeable/access/OwnableUpgradeable.sol\";\nimport \"@openzeppelin/contracts/utils/cryptography/ECDSA.sol\";\nimport \"@openzeppelin/contracts/utils/Strings.sol\";\nimport \"./WebaverseVoucher.sol\";\n\ncontract WebaverseERC1155 is\n    ERC1155Upgradeable,\n    WebaverseVoucher,\n    OwnableUpgradeable\n{\n    using ECDSA for bytes32;\n    using Strings for uint256;\n\n    string private _name;\n    string private _symbol;\n    mapping(uint256 => string) private _tokenURIs;\n    mapping(uint256 => uint256) private _tokenBalances;\n    string private _webaBaseURI; // Base URI of the collection for Webaverse\n    uint256 public currentTokenId; // State variable for storing the latest minted token id\n    bool internal isPublicallyMintable; // whether anyone can mint tokens in this copy of the contract\n    mapping(uint256 => address) internal minters; // map of tokens to minters\n\n    event Claim(address signer, address claimer, uint256 indexed id);\n    event ExternalClaim(\n        address indexed externalContract,\n        address signer,\n        address claimer,\n        uint256 indexed id\n    );\n\n    function initialize(\n        string memory name_,\n        string memory symbol_,\n        string memory baseURI_\n    ) public initializer {\n        _name = name_;\n        _symbol = symbol_;\n        __Ownable_init_unchained();\n        __ERC1155_init(baseURI_);\n        _webaBaseURI = baseURI_;\n        _webaverse_voucher_init();\n    }\n\n    /**\n     * @return Returns the name of the collection.\n     */\n    function name() public view returns (string memory) {\n        return _name;\n    }\n\n    /**\n     * @return Returns the symbol of the collection.\n     */\n    function symbol() public view returns (string memory) {\n        return _symbol;\n    }\n\n    /**\n     * @return Returns the base URI of the host to fetch the attributes from (default empty).\n     */\n    function baseURI() public view returns (string memory) {\n        return _webaBaseURI;\n    }\n\n    /**\n     * @dev Update or change the Base URI of the collection for Webaverse NFTs\n     * @param baseURI_ The base URI of the host to fetch the attributes from e.g. https://ipfs.io/ipfs/.\n     */\n    function setBaseURI(string memory baseURI_) public onlyOwner {\n        _webaBaseURI = baseURI_;\n    }\n\n    /**\n     * @param tokenId The id of the token for which the balance is being fetched.\n     * @return Returns the total balance of the token.\n     */\n    function getTokenBalance(uint256 tokenId) public view returns (uint256) {\n        return _tokenBalances[tokenId];\n    }\n\n    /**\n     * @dev Update or change the isPublicallyMintable for Webaverse NFTs\n     * @param _isPublicallyMintable True: mint can be called False: mint can't be called\n     */\n    function setPublicallyMintable(bool _isPublicallyMintable) public onlyOwner {\n        isPublicallyMintable = _isPublicallyMintable;\n    }\n\n    /**\n     * @return Returns isPublicallyMintable.\n     */\n    function getPublicallyMintable() public view returns (bool) {\n        return isPublicallyMintable;\n    }\n\n    /**\n     * @return Returns the token URI against a particular token id.\n     * e.g. https://tokens.webaverse.com/1\n     */\n    function uri(uint256 _id) public view override returns (string memory) {\n        string memory _baseURI = baseURI();\n        return bytes(_baseURI).length != 0 ? string(abi.encodePacked(_baseURI, _tokenURIs[_id])) : '';\n    }\n\n    /**\n     * @dev get token contentURL\n     * @param tokenId Token id to set the contentURL to\n     * @param _uri The contentURL to set for the token\n     */\n    function setTokenContentURL(uint256 tokenId, string memory _uri)\n        internal\n    {\n        require(bytes(_uri).length > 0, \"ERC1155: URI must not be empty\");\n        _tokenURIs[tokenId] = _uri;\n    }\n\n    /**\n     * @dev get token contentURL\n     * @param tokenId Token id to get the contentURL\n     */\n    function getTokenContentURL(uint256 tokenId) public view returns (string memory)\n    {\n        require(currentTokenId >= tokenId, \"ERC1155: contentURL query for nonexistent token\");\n        return _tokenURIs[tokenId];\n    }\n\n    function getTokenIdsByOwner(address owner) public view returns (uint256[] memory, uint256) {\n        uint256[] memory ids = new uint256[](currentTokenId);\n        uint256 index = 0;\n        for (uint256 i = 1; i <= currentTokenId; i++) {\n            if(minters[i] == owner)\n            {\n                ids[index] = i;\n                index++;\n            }\n        }\n        return (ids, index);\n    }\n\n    /**\n     * @notice Mints a single NFT with given parameters.\n     * @param to The address on which the NFT will be minted.\n     **/\n    function mint(\n        address to,\n        uint256 balance,\n        string memory _uri,\n        bytes memory data\n    ) public {\n        require(isPublicallyMintable, \"ERC1155: Public Mint Closed\");\n        uint256 tokenId = getNextTokenId();\n        _mint(to, tokenId, balance, data);\n        setTokenContentURL(tokenId, _uri);\n        _incrementTokenId();\n        _tokenBalances[tokenId] = balance;\n        minters[tokenId] = to;\n    }\n\n    /**\n     * @notice Mints batch of NFTs with given parameters.\n     * @param to The address to which the NFTs will be minted in batch.\n     * @param uris The URIs of all the the NFTs.\n     * @param balances The balances of all the NFTs as per the ERC1155 standard.\n     **/\n    function mintBatch(\n        address to,\n        string[] memory uris,\n        uint256[] memory balances,\n        bytes memory data\n    ) public {\n        require(\n            uris.length == balances.length,\n            \"WBVRSERC1155: URIs and balances length mismatch\"\n        );\n        uint256[] memory ids = new uint256[](uris.length);\n        for (uint256 i = 0; i < ids.length; i++) {\n            uint256 tokenId = getNextTokenId();\n            ids[i] = tokenId;\n            setTokenContentURL(tokenId, uris[i]);\n            minters[tokenId] = to;\n        }\n        _mintBatch(to, ids, balances, data);\n    }\n\n    /**\n     * @notice Redeems an NFTVoucher for an actual NFT, authorized by the owner.\n     * @param signer The address of the account which signed the NFT Voucher.\n     * @param claimer The address of the account which will receive the NFT upon success.\n     * @param data The data to store.\n     * @param voucher A signed NFTVoucher that describes the NFT to be redeemed.\n     * @dev Verification through ECDSA signature of 'typed' data.\n     * @dev Voucher must contain valid signature, nonce, and expiry.\n     **/\n    function mintServerDropNFT(address signer, address claimer, bytes memory data, NFTVoucher calldata voucher)\n        public\n    {\n        require(owner() == signer, \"Wrong signature!\");\n\n        uint256 tokenId = getNextTokenId();\n        _mint(claimer, tokenId, voucher.balance, data);\n\n        // setURI with token's contentURL of verified voucher\n        setTokenContentURL(tokenId, voucher.contentURL);\n        _incrementTokenId();\n        _tokenBalances[tokenId] = voucher.balance;\n        minters[tokenId] = claimer;\n    }\n\n    /**\n     * @notice Redeems an NFTVoucher for an actual NFT, authorized by the owner.\n     * @param signer The address of the account which signed the NFT Voucher.\n     * @param claimer The address of the account which will receive the NFT upon success.\n     * @param voucher A signed NFTVoucher that describes the NFT to be redeemed.\n     * @dev Verification through ECDSA signature of 'typed' data.\n     * @dev Voucher must contain valid signature, nonce, and expiry.\n     **/\n    function claim(address signer, address claimer, NFTVoucher calldata voucher)\n        public\n    {\n        // make sure signature is valid and get the address of the signer\n        // address signer = verifyVoucher(voucher);\n\n        require(\n            balanceOf(signer, voucher.tokenId) != 0,\n            \"WBVRS: Authorization failed: Invalid signature\"\n        );\n\n        require(\n            minters[voucher.tokenId] == signer,\n            \"WBVRS: Authorization failed: Invalid signature\"\n        );\n\n        minters[voucher.tokenId] = claimer;\n        // transfer the token to the claimer\n        _safeTransferFrom(\n            signer,\n            claimer,\n            voucher.tokenId,\n            voucher.balance,\n            \"0x01\"\n        );\n    }\n\n    /**\n     * @notice Redeems an NFTVoucher for an actual NFT, authorized by the owner from an external contract.\n     * @param claimer The address of the account which will receive the NFT upon success.\n     * @param contractAddress The address of the contract from which the token is being transferred\n     * @param voucher A signed NFTVoucher that describes the NFT to be redeemed.\n     * @dev Verification through ECDSA signature of 'typed' data.\n     * @dev Voucher must contain valid signature, nonce, and expiry.\n     **/\n    function externalClaim(\n        address claimer,\n        address contractAddress,\n        NFTVoucher calldata voucher\n    ) public returns (uint256) {\n        IERC1155Upgradeable externalContract = IERC1155Upgradeable(\n            contractAddress\n        );\n        // make sure signature is valid and get the address of the signer\n        address signer = verifyVoucher(voucher);\n\n        require(\n            externalContract.balanceOf(signer, voucher.tokenId) != 0,\n            \"WBVRS: Authorization failed: Invalid signature\"\n        );\n        require(\n            externalContract.isApprovedForAll(signer, address(this)),\n            \"WBVRS: Aprroval not set for WebaverseERC1155\"\n        );\n\n        // transfer the token to the claimer\n        externalContract.safeTransferFrom(\n            signer,\n            claimer,\n            voucher.tokenId,\n            voucher.balance,\n            \"0x01\"\n        );\n        return voucher.tokenId;\n    }\n\n    /**\n     * @notice Redeems an NFTVoucher for an actual NFT, authorized by the owner from an external contract.\n     * @param to The address of the account which will receive the NFT.\n     * @param id The token id of the NFT to be transferred.\n     * @param amount The balance of the token to be transffered.\n     **/\n    function safeTransfer(\n        address to,\n        uint256 id,\n        uint256 amount,\n        bytes memory data\n    ) public {\n        safeTransferFrom(_msgSender(), to, id, amount, data);\n    }\n\n    /**\n     * @dev returns the next token id to be minted\n     */\n    function getNextTokenId() public view returns (uint256) {\n        return currentTokenId + 1;\n    }\n\n    /**\n     * @dev increments the value of _currentTokenId\n     */\n    function _incrementTokenId() internal {\n        currentTokenId++;\n    }\n\n    /**\n     * @notice Using low level assembly call to fetch the chain id of the blockchain.\n     * @return Returns the chain id of the current blockchain.\n     **/\n    function getChainID() external view returns (uint256) {\n        uint256 id;\n        assembly {\n            id := chainid()\n        }\n        return id;\n    }\n\n    function supportsInterface(bytes4 interfaceId)\n        public\n        view\n        virtual\n        override(ERC1155Upgradeable)\n        returns (bool)\n    {\n        return ERC1155Upgradeable.supportsInterface(interfaceId);\n    }\n}\n",
  "sourcePath": "/opt/hedera/game-contracts/ethereum/WebaverseERC1155.sol",
  "compiler": {
    "name": "solc",
    "version": "0.8.7+commit.e28d00a7.Emscripten.clang"
  },
  "schemaVersion": "3.4.10",
  "updatedAt": "2022-10-04T02:08:41.947Z",
  "networkType": "ethereum",
  "devdoc": {
    "kind": "dev",
    "methods": {
      "_verify((uint256,string,uint256,uint256,uint256,bytes))": {
        "details": "Will revert if the signature is invalid. Does not verify that the signer is authorized to mint NFTs.",
        "params": {
          "voucher": "An NFTVoucher describing an NFT."
        },
        "returns": {
          "_0": "returns the address of the signer on succesful verification.*"
        }
      },
      "balanceOf(address,uint256)": {
        "details": "See {IERC1155-balanceOf}. Requirements: - `account` cannot be the zero address."
      },
      "balanceOfBatch(address[],uint256[])": {
        "details": "See {IERC1155-balanceOfBatch}. Requirements: - `accounts` and `ids` must have the same length."
      },
      "baseURI()": {
        "returns": {
          "_0": "Returns the base URI of the host to fetch the attributes from (default empty)."
        }
      },
      "claim(address,address,(uint256,string,uint256,uint256,uint256,bytes))": {
        "details": "Verification through ECDSA signature of 'typed' data.Voucher must contain valid signature, nonce, and expiry.*",
        "params": {
          "claimer": "The address of the account which will receive the NFT upon success.",
          "signer": "The address of the account which signed the NFT Voucher.",
          "voucher": "A signed NFTVoucher that describes the NFT to be redeemed."
        }
      },
      "externalClaim(address,address,(uint256,string,uint256,uint256,uint256,bytes))": {
        "details": "Verification through ECDSA signature of 'typed' data.Voucher must contain valid signature, nonce, and expiry.*",
        "params": {
          "claimer": "The address of the account which will receive the NFT upon success.",
          "contractAddress": "The address of the contract from which the token is being transferred",
          "voucher": "A signed NFTVoucher that describes the NFT to be redeemed."
        }
      },
      "getChainID()": {
        "returns": {
          "_0": "Returns the chain id of the current blockchain.*"
        }
      },
      "getNextTokenId()": {
        "details": "returns the next token id to be minted"
      },
      "getPublicallyMintable()": {
        "returns": {
          "_0": "Returns isPublicallyMintable."
        }
      },
      "getTokenBalance(uint256)": {
        "params": {
          "tokenId": "The id of the token for which the balance is being fetched."
        },
        "returns": {
          "_0": "Returns the total balance of the token."
        }
      },
      "getTokenContentURL(uint256)": {
        "details": "get token contentURL",
        "params": {
          "tokenId": "Token id to get the contentURL"
        }
      },
      "isApprovedForAll(address,address)": {
        "details": "See {IERC1155-isApprovedForAll}."
      },
      "mint(address,uint256,string,bytes)": {
        "params": {
          "to": "The address on which the NFT will be minted.*"
        }
      },
      "mintBatch(address,string[],uint256[],bytes)": {
        "params": {
          "balances": "The balances of all the NFTs as per the ERC1155 standard.*",
          "to": "The address to which the NFTs will be minted in batch.",
          "uris": "The URIs of all the the NFTs."
        }
      },
      "mintServerDropNFT(address,address,bytes,(uint256,string,uint256,uint256,uint256,bytes))": {
        "details": "Verification through ECDSA signature of 'typed' data.Voucher must contain valid signature, nonce, and expiry.*",
        "params": {
          "claimer": "The address of the account which will receive the NFT upon success.",
          "data": "The data to store.",
          "signer": "The address of the account which signed the NFT Voucher.",
          "voucher": "A signed NFTVoucher that describes the NFT to be redeemed."
        }
      },
      "name()": {
        "returns": {
          "_0": "Returns the name of the collection."
        }
      },
      "owner()": {
        "details": "Returns the address of the current owner."
      },
      "renounceOwnership()": {
        "details": "Leaves the contract without owner. It will not be possible to call `onlyOwner` functions anymore. Can only be called by the current owner. NOTE: Renouncing ownership will leave the contract without an owner, thereby removing any functionality that is only available to the owner."
      },
      "safeBatchTransferFrom(address,address,uint256[],uint256[],bytes)": {
        "details": "See {IERC1155-safeBatchTransferFrom}."
      },
      "safeTransfer(address,uint256,uint256,bytes)": {
        "params": {
          "amount": "The balance of the token to be transffered.*",
          "id": "The token id of the NFT to be transferred.",
          "to": "The address of the account which will receive the NFT."
        }
      },
      "safeTransferFrom(address,address,uint256,uint256,bytes)": {
        "details": "See {IERC1155-safeTransferFrom}."
      },
      "setApprovalForAll(address,bool)": {
        "details": "See {IERC1155-setApprovalForAll}."
      },
      "setBaseURI(string)": {
        "details": "Update or change the Base URI of the collection for Webaverse NFTs",
        "params": {
          "baseURI_": "The base URI of the host to fetch the attributes from e.g. https://ipfs.io/ipfs/."
        }
      },
      "setPublicallyMintable(bool)": {
        "details": "Update or change the isPublicallyMintable for Webaverse NFTs",
        "params": {
          "_isPublicallyMintable": "True: mint can be called False: mint can't be called"
        }
      },
      "supportsInterface(bytes4)": {
        "details": "See {IERC165-supportsInterface}."
      },
      "symbol()": {
        "returns": {
          "_0": "Returns the symbol of the collection."
        }
      },
      "transferOwnership(address)": {
        "details": "Transfers ownership of the contract to a new account (`newOwner`). Can only be called by the current owner."
      },
      "uri(uint256)": {
        "returns": {
          "_0": "Returns the token URI against a particular token id. e.g. https://tokens.webaverse.com/1"
        }
      },
      "verifyVoucher((uint256,string,uint256,uint256,uint256,bytes))": {
        "details": "Verification through ECDSA signature of 'typed' data.Voucher must contain valid signature, nonce, and expiry.*",
        "params": {
          "voucher": "A signed NFTVoucher that describes the NFT to be redeemed."
        }
      }
    },
    "version": 1
  },
  "userdoc": {
    "kind": "user",
    "methods": {
      "_verify((uint256,string,uint256,uint256,uint256,bytes))": {
        "notice": "Verifies the signature for a given NFTVoucher, returning the address of the signer."
      },
      "claim(address,address,(uint256,string,uint256,uint256,uint256,bytes))": {
        "notice": "Redeems an NFTVoucher for an actual NFT, authorized by the owner."
      },
      "externalClaim(address,address,(uint256,string,uint256,uint256,uint256,bytes))": {
        "notice": "Redeems an NFTVoucher for an actual NFT, authorized by the owner from an external contract."
      },
      "getChainID()": {
        "notice": "Using low level assembly call to fetch the chain id of the blockchain."
      },
      "mint(address,uint256,string,bytes)": {
        "notice": "Mints a single NFT with given parameters."
      },
      "mintBatch(address,string[],uint256[],bytes)": {
        "notice": "Mints batch of NFTs with given parameters."
      },
      "mintServerDropNFT(address,address,bytes,(uint256,string,uint256,uint256,uint256,bytes))": {
        "notice": "Redeems an NFTVoucher for an actual NFT, authorized by the owner."
      },
      "safeTransfer(address,uint256,uint256,bytes)": {
        "notice": "Redeems an NFTVoucher for an actual NFT, authorized by the owner from an external contract."
      },
      "verifyVoucher((uint256,string,uint256,uint256,uint256,bytes))": {
        "notice": "Verifies an NFTVoucher for an actual NFT, authorized by the owner."
      }
    },
    "version": 1
  }
}