{
  "contractName": "WebaverseERC20Proxy",
  "abi": [
    {
      "inputs": [
        {
          "internalType": "address",
          "name": "parentAddress",
          "type": "address"
        },
        {
          "internalType": "address",
          "name": "signerAddress",
          "type": "address"
        },
        {
          "internalType": "uint256",
          "name": "_chainId",
          "type": "uint256"
        }
      ],
      "stateMutability": "nonpayable",
      "type": "constructor"
    },
    {
      "anonymous": false,
      "inputs": [
        {
          "indexed": true,
          "internalType": "address",
          "name": "from",
          "type": "address"
        },
        {
          "indexed": true,
          "internalType": "uint256",
          "name": "amount",
          "type": "uint256"
        }
      ],
      "name": "Deposited",
      "type": "event"
    },
    {
      "anonymous": false,
      "inputs": [
        {
          "indexed": true,
          "internalType": "address",
          "name": "from",
          "type": "address"
        },
        {
          "indexed": true,
          "internalType": "uint256",
          "name": "amount",
          "type": "uint256"
        },
        {
          "indexed": true,
          "internalType": "uint256",
          "name": "timestamp",
          "type": "uint256"
        }
      ],
      "name": "Withdrew",
      "type": "event"
    },
    {
      "inputs": [
        {
          "internalType": "address",
          "name": "newSigner",
          "type": "address"
        }
      ],
      "name": "setSigner",
      "outputs": [],
      "stateMutability": "nonpayable",
      "type": "function"
    },
    {
      "inputs": [
        {
          "internalType": "address",
          "name": "newParent",
          "type": "address"
        }
      ],
      "name": "setERC20Parent",
      "outputs": [],
      "stateMutability": "nonpayable",
      "type": "function"
    },
    {
      "inputs": [
        {
          "internalType": "address",
          "name": "to",
          "type": "address"
        },
        {
          "internalType": "uint256",
          "name": "amount",
          "type": "uint256"
        },
        {
          "internalType": "uint256",
          "name": "timestamp",
          "type": "uint256"
        },
        {
          "internalType": "bytes32",
          "name": "r",
          "type": "bytes32"
        },
        {
          "internalType": "bytes32",
          "name": "s",
          "type": "bytes32"
        },
        {
          "internalType": "uint8",
          "name": "v",
          "type": "uint8"
        }
      ],
      "name": "withdraw",
      "outputs": [],
      "stateMutability": "nonpayable",
      "type": "function"
    },
    {
      "inputs": [
        {
          "internalType": "address",
          "name": "to",
          "type": "address"
        },
        {
          "internalType": "uint256",
          "name": "amount",
          "type": "uint256"
        }
      ],
      "name": "deposit",
      "outputs": [],
      "stateMutability": "nonpayable",
      "type": "function"
    },
    {
      "inputs": [
        {
          "internalType": "address",
          "name": "to",
          "type": "address"
        },
        {
          "internalType": "uint256",
          "name": "amount",
          "type": "uint256"
        },
        {
          "internalType": "uint256",
          "name": "timestamp",
          "type": "uint256"
        }
      ],
      "name": "withdrawNonceUsed",
      "outputs": [
        {
          "internalType": "bool",
          "name": "",
          "type": "bool"
        }
      ],
      "stateMutability": "view",
      "type": "function",
      "constant": true
    }
  ],
  "bytecode": "0x60c0604052601c60808190527f19457468657265756d205369676e6564204d6573736167653a0a33320000000060a090815261003e91600591906100a4565b5034801561004b57600080fd5b50604051610c85380380610c8583398101604081905261006a91610154565b600080546001600160a01b039384166001600160a01b03199182161790915560019190915560028054939092169216919091179055610191565b828054600181600116156101000203166002900490600052602060002090601f016020900481019282601f106100e557805160ff1916838001178555610112565b82800160010185558215610112579182015b828111156101125782518255916020019190600101906100f7565b5061011e929150610122565b5090565b5b8082111561011e5760008155600101610123565b80516001600160a01b038116811461014e57600080fd5b92915050565b600080600060608486031215610168578283fd5b6101728585610137565b92506101818560208601610137565b9150604084015190509250925092565b610ae5806101a06000396000f3fe608060405234801561001057600080fd5b50600436106100675760003560e01c806347e7ef241161005057806347e7ef24146100aa5780636c19e783146100bd578063cbb40dae146100d057610067565b806301e15b521461006c5780634757ef1314610081575b600080fd5b61007f61007a3660046106d6565b6100e3565b005b61009461008f36600461071b565b610150565b6040516100a191906108c3565b60405180910390f35b61007f6100b83660046106f1565b6101d3565b61007f6100cb3660046106d6565b6102d7565b61007f6100de36600461074e565b61033b565b6000546001600160a01b031633146101165760405162461bcd60e51b815260040161010d906109e4565b60405180910390fd5b600280547fffffffffffffffffffffffff0000000000000000000000000000000000000000166001600160a01b0392909216919091179055565b6000606084848460015460405160200161016d94939291906107cf565b604051602081830303815290604052905060008180519060200120905060006005826040516020016101a0929190610811565b60408051808303601f1901815291815281516020928301206000908152600490925290205460ff16979650505050505050565b6101df60035482610628565b60035560405181906001600160a01b038416907f2da466a7b24304f47e87fa2e1e5a81b9831ce54fec19055ce277ca2f39ba42c490600090a36002546040517f23b872dd0000000000000000000000000000000000000000000000000000000081526001600160a01b03909116906323b872dd9061026590339030908690600401610886565b602060405180830381600087803b15801561027f57600080fd5b505af1158015610293573d6000803e3d6000fd5b505050506040513d601f19601f820116820180604052508101906102b791906107af565b6102d35760405162461bcd60e51b815260040161010d90610a78565b5050565b6000546001600160a01b031633146103015760405162461bcd60e51b815260040161010d90610a1b565b600080547fffffffffffffffffffffffff0000000000000000000000000000000000000000166001600160a01b0392909216919091179055565b606086868660015460405160200161035694939291906107cf565b60405160208183030381529060405290506000818051906020012090506000600582604051602001610389929190610811565b60408051601f19818403018152828252805160209182012060008054908552939091019182905292506001600160a01b03909116906001906103d290849088908b908b906108ce565b6020604051602081039080840390855afa1580156103f4573d6000803e3d6000fd5b505050602060405103516001600160a01b0316146104245760405162461bcd60e51b815260040161010d9061093f565b60008181526004602052604090205460ff16156104535760405162461bcd60e51b815260040161010d906109ad565b6000818152600460205260408120805460ff19166001179055600354898110919061047f908b90610656565b905081156104975761049360035482610628565b6003555b6104a36003548b610656565b60035560405189908b906001600160a01b038e16907fadec52fcd1408589179b85e44b434374db078b4eaf793e7d1a1bb0ae4ecfeee590600090a48115610562576002546040517f40c10f190000000000000000000000000000000000000000000000000000000081526001600160a01b03909116906340c10f199061052f90309085906004016108aa565b600060405180830381600087803b15801561054957600080fd5b505af115801561055d573d6000803e3d6000fd5b505050505b6002546040517fa9059cbb0000000000000000000000000000000000000000000000000000000081526001600160a01b039091169063a9059cbb906105ad908e908e906004016108aa565b602060405180830381600087803b1580156105c757600080fd5b505af11580156105db573d6000803e3d6000fd5b505050506040513d601f19601f820116820180604052508101906105ff91906107af565b61061b5760405162461bcd60e51b815260040161010d90610a78565b5050505050505050505050565b60008282018381101561064d5760405162461bcd60e51b815260040161010d90610976565b90505b92915050565b600061064d83836040518060400160405280601e81526020017f536166654d6174683a207375627472616374696f6e206f766572666c6f770000815250600081848411156106b75760405162461bcd60e51b815260040161010d91906108ec565b505050900390565b80356001600160a01b038116811461065057600080fd5b6000602082840312156106e7578081fd5b61064d83836106bf565b60008060408385031215610703578081fd5b61070d84846106bf565b946020939093013593505050565b60008060006060848603121561072f578081fd5b61073985856106bf565b95602085013595506040909401359392505050565b60008060008060008060c08789031215610766578182fd5b61077088886106bf565b95506020870135945060408701359350606087013592506080870135915060a087013560ff811681146107a1578182fd5b809150509295509295509295565b6000602082840312156107c0578081fd5b8151801515811461064d578182fd5b60609490941b7fffffffffffffffffffffffffffffffffffffffff00000000000000000000000016845260148401929092526034830152605482015260740190565b6000808454600180821660008114610830576001811461084757610876565b60ff198316865260028304607f1686019350610876565b600283048886526020808720875b8381101561086e5781548a820152908501908201610855565b505050860193505b5050509283525050602001919050565b6001600160a01b039384168152919092166020820152604081019190915260600190565b6001600160a01b03929092168252602082015260400190565b901515815260200190565b93845260ff9290921660208401526040830152606082015260800190565b6000602080835283518082850152825b81811015610918578581018301518582016040015282016108fc565b818111156109295783604083870101525b50601f01601f1916929092016040019392505050565b60208082526011908201527f696e76616c6964207369676e6174757265000000000000000000000000000000604082015260600190565b6020808252601b908201527f536166654d6174683a206164646974696f6e206f766572666c6f770000000000604082015260600190565b60208082526011908201527f6861736820616c72656164792075736564000000000000000000000000000000604082015260600190565b6020808252600e908201527f6d757374206265207369676e6572000000000000000000000000000000000000604082015260600190565b60208082526028908201527f6e6577207369676e65722063616e206f6e6c7920626520736574206279206f6c60408201527f64207369676e6572000000000000000000000000000000000000000000000000606082015260800190565b6020808252600f908201527f7472616e73666572206661696c6564000000000000000000000000000000000060408201526060019056fea264697066735822122097cfa6481063d27ee8aed4b3e19d5ac399566674aedc948a790b1c4f0bb3ee6064736f6c634300060c0033",
  "immutableReferences": {},
  "source": "// SPDX-License-Identifier: MIT\r\npragma solidity ^0.6.0;\r\npragma experimental ABIEncoderV2;\r\n\r\nimport \"./WebaverseERC20.sol\";\r\nimport \"./IERC721Receiver.sol\";\r\n\r\n/** @title ERC20 Proxy contract.\r\n * @dev Manages ERC20 tokens using the Webaverse signing oracle for validation and cross-chain transfer\r\n */\r\ncontract WebaverseERC20Proxy {\r\n    address internal signer; // signer oracle address\r\n    uint256 internal chainId; // unique chain id\r\n    WebaverseERC20 internal parent; // managed ERC20 contract\r\n    uint256 internal deposits; // amount deposited in this contract\r\n    mapping(bytes32 => bool) internal usedWithdrawHashes; // deposit hashes that have been used up (replay protection)\r\n\r\n    bytes internal prefix = \"\\x19Ethereum Signed Message:\\n32\"; // Signed message prefix\r\n\r\n    /**\r\n     * @dev Construct the proxy with a managed parent and chain ID\r\n     * @param parentAddress Address of the managed ERC20 contract\r\n     * @param signerAddress Address of an authorized signer\r\n     * @param _chainId Chain ID this contract is attached to\r\n     * Default parent address: 0xd7523103ba15c1dfcf0f5ea1c553bc18179ac656\r\n     * Default signer address: 0xfa80e7480e9c42a9241e16d6c1e7518c1b1757e4\r\n     */\r\n    constructor(\r\n        address parentAddress,\r\n        address signerAddress,\r\n        uint256 _chainId\r\n    ) public {\r\n        signer = signerAddress;\r\n        chainId = _chainId;\r\n        parent = WebaverseERC20(parentAddress);\r\n    }\r\n\r\n    /** @dev Log the fact that we withdrew oracle-signed fungible tokens\r\n     * @param from Address withdrawn from\r\n     * @param amount Amount to withdraw\r\n     * @param timestamp Time of the transaction withdrawl\r\n     */\r\n    event Withdrew(\r\n        address indexed from,\r\n        uint256 indexed amount,\r\n        uint256 indexed timestamp\r\n    );\r\n\r\n    /** @dev Used by the oracle when signing\r\n     * @param from Address deposited from\r\n     * @param amount Amount to deposit\r\n     */\r\n    event Deposited(address indexed from, uint256 indexed amount);\r\n\r\n    /** @dev Set the address for the signer oracle\r\n     * @param newSigner Address of the new signer\r\n     */\r\n    function setSigner(address newSigner) public {\r\n        require(\r\n            msg.sender == signer,\r\n            \"new signer can only be set by old signer\"\r\n        );\r\n        signer = newSigner;\r\n    }\r\n\r\n    /** @dev Set the parent contract that this proxy manages\r\n     * @param newParent Address of parent contract\r\n     */\r\n    function setERC20Parent(address newParent) public {\r\n        require(msg.sender == signer, \"must be signer\");\r\n        parent = WebaverseERC20(newParent);\r\n    }\r\n\r\n    /** @dev Withdraw ERC20 tokens to an address\r\n     * @param to Address to withdraw to\r\n     * Example is 0x08E242bB06D85073e69222aF8273af419d19E4f6\r\n     * @param amount Amount to withdraw\r\n     * @param timestamp Timestamp of the transaction\r\n     * @param r ECDSA output\r\n     * Example is 0xc336b0bb5cac4584d79e77b1680ab789171ebc95f44f68bb1cc0a7b1174058ad\r\n     * @param s ECDSA output\r\n     * Example is 0x72b888e952c0c39a8054f2b6dc41df645f5d4dc3d9cc6118535d88aa34945440\r\n     * @param v Recovery ID\r\n     * Example is 0x1c\r\n     * Example args: 0x08E242bB06D85073e69222aF8273af419d19E4f6, 1, 10, 0xc336b0bb5cac4584d79e77b1680ab789171ebc95f44f68bb1cc0a7b1174058ad, 0x72b888e952c0c39a8054f2b6dc41df645f5d4dc3d9cc6118535d88aa34945440, 0x1c\r\n     */\r\n    function withdraw(\r\n        address to,\r\n        uint256 amount,\r\n        uint256 timestamp,\r\n        bytes32 r,\r\n        bytes32 s,\r\n        uint8 v\r\n    ) public {\r\n        bytes memory message = abi.encodePacked(to, amount, timestamp, chainId); // Encode message\r\n        bytes32 messageHash = keccak256(message); // Hash the message\r\n        bytes32 prefixedHash = keccak256(abi.encodePacked(prefix, messageHash)); // Add the signed preview and hash that\r\n        require(\r\n            ecrecover(prefixedHash, v, r, s) == signer,\r\n            \"invalid signature\"\r\n        ); // Recover address from sig check if it's the signer\r\n        require(!usedWithdrawHashes[prefixedHash], \"hash already used\"); // Check if this transaction has been used (to prevent replay attacks)\r\n        usedWithdrawHashes[prefixedHash] = true; // Mark the transaction hash as used, so it can't be used again\r\n\r\n        bool needsMint = deposits < amount; // Check if we have enough token, or if we need to mint more\r\n        uint256 balanceNeeded = SafeMath.sub(amount, deposits); // Calculate how much we need\r\n        if (needsMint) {\r\n            deposits = SafeMath.add(deposits, balanceNeeded); // If we need to mint more, add the balance\r\n        }\r\n        deposits = SafeMath.sub(deposits, amount); // Set remaining deposits\r\n\r\n        emit Withdrew(to, amount, timestamp); // Emit Withdraw event\r\n\r\n        if (needsMint) {\r\n            parent.mint(address(this), balanceNeeded); // If we need to mint more, mint it\r\n        }\r\n\r\n        require(parent.transfer(to, amount), \"transfer failed\"); // Attempt the transfer, back out if it fails\r\n    }\r\n\r\n    /** @dev Deposit ERC20 tokens to an address\r\n     * @param to Address to deposit to\r\n     * Example is 0x08E242bB06D85073e69222aF8273af419d19E4f6\r\n     * @param amount Amount to withdraw\r\n     */\r\n    function deposit(address to, uint256 amount) public {\r\n        deposits = SafeMath.add(deposits, amount); // add the amount to deposits\r\n\r\n        emit Deposited(to, amount); // emit Deposited event\r\n\r\n        require(\r\n            parent.transferFrom(msg.sender, address(this), amount),\r\n            \"transfer failed\"\r\n        ); // Attempt transfer and back out if it fails\r\n    }\r\n\r\n    /** @dev Check if the nonce has been used\r\n     * @param to Address to deposit to\r\n     * Example is 0x08E242bB06D85073e69222aF8273af419d19E4f6\r\n     * @param amount Amount to withdraw\r\n     * @param timestamp Timestamp of the transaction\r\n     * @return true if the nonce has been used\r\n     */\r\n    function withdrawNonceUsed(\r\n        address to,\r\n        uint256 amount,\r\n        uint256 timestamp\r\n    ) public view returns (bool) {\r\n        bytes memory message = abi.encodePacked(to, amount, timestamp, chainId);\r\n        bytes32 messageHash = keccak256(message);\r\n        bytes32 prefixedHash = keccak256(abi.encodePacked(prefix, messageHash));\r\n        return usedWithdrawHashes[prefixedHash]; // return true if it exists\r\n    }\r\n}\r\n",
  "sourcePath": "D:\\Project\\webaverse - 19\\smart contract\\contracts\\ethereum\\WebaverseERC20Proxy.sol",
  "compiler": {
    "name": "solc",
    "version": "0.6.12+commit.27d51765.Emscripten.clang"
  },
  "schemaVersion": "3.4.7",
  "updatedAt": "2022-05-26T05:31:47.631Z",
  "networkType": "ethereum",
  "devdoc": {
    "details": "Manages ERC20 tokens using the Webaverse signing oracle for validation and cross-chain transfer",
    "events": {
      "Deposited(address,uint256)": {
        "details": "Used by the oracle when signing",
        "params": {
          "amount": "Amount to deposit",
          "from": "Address deposited from"
        }
      },
      "Withdrew(address,uint256,uint256)": {
        "details": "Log the fact that we withdrew oracle-signed fungible tokens",
        "params": {
          "amount": "Amount to withdraw",
          "from": "Address withdrawn from",
          "timestamp": "Time of the transaction withdrawl"
        }
      }
    },
    "kind": "dev",
    "methods": {
      "constructor": {
        "details": "Construct the proxy with a managed parent and chain ID",
        "params": {
          "_chainId": "Chain ID this contract is attached to Default parent address: 0xd7523103ba15c1dfcf0f5ea1c553bc18179ac656 Default signer address: 0xfa80e7480e9c42a9241e16d6c1e7518c1b1757e4",
          "parentAddress": "Address of the managed ERC20 contract",
          "signerAddress": "Address of an authorized signer"
        }
      },
      "deposit(address,uint256)": {
        "details": "Deposit ERC20 tokens to an address",
        "params": {
          "amount": "Amount to withdraw",
          "to": "Address to deposit to Example is 0x08E242bB06D85073e69222aF8273af419d19E4f6"
        }
      },
      "setERC20Parent(address)": {
        "details": "Set the parent contract that this proxy manages",
        "params": {
          "newParent": "Address of parent contract"
        }
      },
      "setSigner(address)": {
        "details": "Set the address for the signer oracle",
        "params": {
          "newSigner": "Address of the new signer"
        }
      },
      "withdraw(address,uint256,uint256,bytes32,bytes32,uint8)": {
        "details": "Withdraw ERC20 tokens to an address",
        "params": {
          "amount": "Amount to withdraw",
          "r": "ECDSA output Example is 0xc336b0bb5cac4584d79e77b1680ab789171ebc95f44f68bb1cc0a7b1174058ad",
          "s": "ECDSA output Example is 0x72b888e952c0c39a8054f2b6dc41df645f5d4dc3d9cc6118535d88aa34945440",
          "timestamp": "Timestamp of the transaction",
          "to": "Address to withdraw to Example is 0x08E242bB06D85073e69222aF8273af419d19E4f6",
          "v": "Recovery ID Example is 0x1c Example args: 0x08E242bB06D85073e69222aF8273af419d19E4f6, 1, 10, 0xc336b0bb5cac4584d79e77b1680ab789171ebc95f44f68bb1cc0a7b1174058ad, 0x72b888e952c0c39a8054f2b6dc41df645f5d4dc3d9cc6118535d88aa34945440, 0x1c"
        }
      },
      "withdrawNonceUsed(address,uint256,uint256)": {
        "details": "Check if the nonce has been used",
        "params": {
          "amount": "Amount to withdraw",
          "timestamp": "Timestamp of the transaction",
          "to": "Address to deposit to Example is 0x08E242bB06D85073e69222aF8273af419d19E4f6"
        },
        "returns": {
          "_0": "true if the nonce has been used"
        }
      }
    },
    "title": "ERC20 Proxy contract.",
    "version": 1
  },
  "userdoc": {
    "kind": "user",
    "methods": {},
    "version": 1
  }
}