{
  "contractName": "WebaverseERC721Proxy",
  "abi": [
    {
      "inputs": [
        {
          "internalType": "address",
          "name": "parentAddress",
          "type": "address"
        },
        {
          "internalType": "address",
          "name": "signerAddress",
          "type": "address"
        },
        {
          "internalType": "uint256",
          "name": "_chainId",
          "type": "uint256"
        }
      ],
      "stateMutability": "nonpayable",
      "type": "constructor"
    },
    {
      "anonymous": false,
      "inputs": [
        {
          "indexed": true,
          "internalType": "address",
          "name": "to",
          "type": "address"
        },
        {
          "indexed": true,
          "internalType": "uint256",
          "name": "tokenId",
          "type": "uint256"
        }
      ],
      "name": "Deposited",
      "type": "event"
    },
    {
      "anonymous": false,
      "inputs": [
        {
          "indexed": true,
          "internalType": "address",
          "name": "from",
          "type": "address"
        },
        {
          "indexed": true,
          "internalType": "uint256",
          "name": "tokenId",
          "type": "uint256"
        },
        {
          "indexed": true,
          "internalType": "uint256",
          "name": "timestamp",
          "type": "uint256"
        }
      ],
      "name": "Withdrew",
      "type": "event"
    },
    {
      "inputs": [
        {
          "internalType": "address",
          "name": "newSigner",
          "type": "address"
        }
      ],
      "name": "setSigner",
      "outputs": [],
      "stateMutability": "nonpayable",
      "type": "function"
    },
    {
      "inputs": [
        {
          "internalType": "address",
          "name": "newParent",
          "type": "address"
        }
      ],
      "name": "setERC721Parent",
      "outputs": [],
      "stateMutability": "nonpayable",
      "type": "function"
    },
    {
      "inputs": [
        {
          "internalType": "address",
          "name": "to",
          "type": "address"
        },
        {
          "internalType": "uint256",
          "name": "tokenId",
          "type": "uint256"
        },
        {
          "internalType": "uint256",
          "name": "timestamp",
          "type": "uint256"
        },
        {
          "internalType": "bytes32",
          "name": "r",
          "type": "bytes32"
        },
        {
          "internalType": "bytes32",
          "name": "s",
          "type": "bytes32"
        },
        {
          "internalType": "uint8",
          "name": "v",
          "type": "uint8"
        }
      ],
      "name": "withdraw",
      "outputs": [],
      "stateMutability": "nonpayable",
      "type": "function"
    },
    {
      "inputs": [
        {
          "internalType": "address",
          "name": "to",
          "type": "address"
        },
        {
          "internalType": "uint256",
          "name": "tokenId",
          "type": "uint256"
        }
      ],
      "name": "deposit",
      "outputs": [],
      "stateMutability": "nonpayable",
      "type": "function"
    },
    {
      "inputs": [
        {
          "internalType": "address",
          "name": "to",
          "type": "address"
        },
        {
          "internalType": "uint256",
          "name": "tokenId",
          "type": "uint256"
        },
        {
          "internalType": "uint256",
          "name": "timestamp",
          "type": "uint256"
        }
      ],
      "name": "withdrawNonceUsed",
      "outputs": [
        {
          "internalType": "bool",
          "name": "",
          "type": "bool"
        }
      ],
      "stateMutability": "view",
      "type": "function",
      "constant": true
    }
  ],
  "bytecode": "0x60c0604052601c60808190527f19457468657265756d205369676e6564204d6573736167653a0a33320000000060a090815261003e91600591906100a4565b5034801561004b57600080fd5b50604051610a45380380610a4583398101604081905261006a91610154565b600080546001600160a01b039384166001600160a01b03199182161790915560019190915560028054939092169216919091179055610191565b828054600181600116156101000203166002900490600052602060002090601f016020900481019282601f106100e557805160ff1916838001178555610112565b82800160010185558215610112579182015b828111156101125782518255916020019190600101906100f7565b5061011e929150610122565b5090565b5b8082111561011e5760008155600101610123565b80516001600160a01b038116811461014e57600080fd5b92915050565b600080600060608486031215610168578283fd5b6101728585610137565b92506101818560208601610137565b9150604084015190509250925092565b6108a5806101a06000396000f3fe608060405234801561001057600080fd5b50600436106100675760003560e01c806347e7ef241161005057806347e7ef24146100aa5780636c19e783146100bd578063cbb40dae146100d057610067565b806311eb33ec1461006c5780634757ef1314610081575b600080fd5b61007f61007a366004610570565b6100e3565b005b61009461008f3660046105bc565b610150565b6040516100a19190610744565b60405180910390f35b61007f6100b8366004610592565b6101c6565b61007f6100cb366004610570565b610282565b61007f6100de3660046105ef565b6102e6565b6000546001600160a01b031633146101165760405162461bcd60e51b815260040161010d906107db565b60405180910390fd5b600280547fffffffffffffffffffffffff0000000000000000000000000000000000000000166001600160a01b0392909216919091179055565b600080600585858560015460405160200161016e9493929190610650565b60405160208183030381529060405280519060200120604051602001610195929190610692565b60408051808303601f1901815291815281516020928301206000908152600490925290205460ff1695945050505050565b600081815260036020526040808220805460ff191660011790555182916001600160a01b038516917f2da466a7b24304f47e87fa2e1e5a81b9831ce54fec19055ce277ca2f39ba42c49190a36002546040516323b872dd60e01b8152339130916001600160a01b03909116906323b872dd9061024a90859085908890600401610707565b600060405180830381600087803b15801561026457600080fd5b505af1158015610278573d6000803e3d6000fd5b5050505050505050565b6000546001600160a01b031633146102ac5760405162461bcd60e51b815260040161010d90610812565b600080547fffffffffffffffffffffffff0000000000000000000000000000000000000000166001600160a01b0392909216919091179055565b600060058787876001546040516020016103039493929190610650565b6040516020818303038152906040528051906020012060405160200161032a929190610692565b60408051601f198184030181528282528051602091820120600080549085529390910191829052925030916001600160a01b03169060019061037390859087908a908a9061074f565b6020604051602081039080840390855afa158015610395573d6000803e3d6000fd5b505050602060405103516001600160a01b0316146103c55760405162461bcd60e51b815260040161010d9061076d565b60008281526004602052604090205460ff16156103f45760405162461bcd60e51b815260040161010d906107a4565b60008281526004602090815260408083208054600160ff19918216179091558a84526003909252808320805492831690555160ff9091169188918a916001600160a01b038d16917fadec52fcd1408589179b85e44b434374db078b4eaf793e7d1a1bb0ae4ecfeee59190a4806104e2576002546040517f32761d160000000000000000000000000000000000000000000000000000000081526001600160a01b03909116906332761d16906104af9085908c9060040161072b565b600060405180830381600087803b1580156104c957600080fd5b505af11580156104dd573d6000803e3d6000fd5b505050505b6002546040516323b872dd60e01b81526001600160a01b03909116906323b872dd906105169085908d908d90600401610707565b600060405180830381600087803b15801561053057600080fd5b505af1158015610544573d6000803e3d6000fd5b50505050505050505050505050565b80356001600160a01b038116811461056a57600080fd5b92915050565b600060208284031215610581578081fd5b61058b8383610553565b9392505050565b600080604083850312156105a4578081fd5b6105ae8484610553565b946020939093013593505050565b6000806000606084860312156105d0578081fd5b6105da8585610553565b95602085013595506040909401359392505050565b60008060008060008060c08789031215610607578182fd5b6106118888610553565b95506020870135945060408701359350606087013592506080870135915060a087013560ff81168114610642578182fd5b809150509295509295509295565b60609490941b7fffffffffffffffffffffffffffffffffffffffff00000000000000000000000016845260148401929092526034830152605482015260740190565b60008084546001808216600081146106b157600181146106c8576106f7565b60ff198316865260028304607f16860193506106f7565b600283048886526020808720875b838110156106ef5781548a8201529085019082016106d6565b505050860193505b5050509283525050602001919050565b6001600160a01b039384168152919092166020820152604081019190915260600190565b6001600160a01b03929092168252602082015260400190565b901515815260200190565b93845260ff9290921660208401526040830152606082015260800190565b60208082526011908201527f696e76616c6964207369676e6174757265000000000000000000000000000000604082015260600190565b60208082526011908201527f6861736820616c72656164792075736564000000000000000000000000000000604082015260600190565b6020808252600e908201527f6d757374206265207369676e6572000000000000000000000000000000000000604082015260600190565b60208082526028908201527f6e6577207369676e65722063616e206f6e6c7920626520736574206279206f6c60408201527f64207369676e657200000000000000000000000000000000000000000000000060608201526080019056fea2646970667358221220b97e9db77dd8b08d13b001027a3e8d35eac08143503ce2a900b1e3ac8424ef6464736f6c634300060c0033",
  "immutableReferences": {},
  "source": "// SPDX-License-Identifier: MIT\r\npragma solidity ^0.6.0;\r\npragma experimental ABIEncoderV2;\r\n\r\nimport \"./WebaverseERC721.sol\";\r\n\r\n/** @title ERC721 Proxy contract.\r\n * @dev Manages ERC721 tokens using the Webaverse signing oracle for validation and cross-chain transfer\r\n */\r\n/* is IERC721Receiver */\r\ncontract WebaverseERC721Proxy {\r\n    address internal signer; // signer oracle address\r\n    uint256 internal chainId; // unique chain id\r\n    WebaverseERC721 internal parent; // managed ERC721 contract\r\n    mapping(uint256 => bool) internal deposits; // whether the token has been deposited in this contract\r\n    mapping(bytes32 => bool) internal usedWithdrawHashes; // deposit hashes that have been used up (replay protection)\r\n\r\n    bytes internal prefix = \"\\x19Ethereum Signed Message:\\n32\";\r\n\r\n    event Withdrew(\r\n        address indexed from,\r\n        uint256 indexed tokenId,\r\n        uint256 indexed timestamp\r\n    ); // logs the fact that we withdrew an oracle-signed token\r\n    event Deposited(address indexed to, uint256 indexed tokenId); // used by the oracle when signing\r\n\r\n    /**\r\n     * @dev Construct the proxy with a managed parent and chain ID\r\n     * @param parentAddress Address of the managed ERC721 contract\r\n     * @param signerAddress Address of an authorized signer\r\n     * @param _chainId Chain ID this contract is attached to\r\n     * Default parent address: 0xd7523103ba15c1dfcf0f5ea1c553bc18179ac656\r\n     * Default signer address: 0xfa80e7480e9c42a9241e16d6c1e7518c1b1757e4\r\n     */\r\n    constructor(\r\n        address parentAddress,\r\n        address signerAddress,\r\n        uint256 _chainId\r\n    ) public {\r\n        signer = signerAddress;\r\n        chainId = _chainId;\r\n        parent = WebaverseERC721(parentAddress);\r\n    }\r\n\r\n    /** @dev Set the address for the signer oracle\r\n     * @param newSigner Address of the new signer\r\n     */\r\n    function setSigner(address newSigner) public {\r\n        require(\r\n            msg.sender == signer,\r\n            \"new signer can only be set by old signer\"\r\n        );\r\n        signer = newSigner;\r\n    }\r\n\r\n    /** @dev Set the parent contract that this proxy manages\r\n     * @param newParent Address of parent contract\r\n     */\r\n    function setERC721Parent(address newParent) public {\r\n        require(msg.sender == signer, \"must be signer\");\r\n        parent = WebaverseERC721(newParent);\r\n    }\r\n\r\n    /** @dev Withdraw an ERC721 token to an address\r\n     * @param to Address to withdraw to\r\n     * Example is 0x08E242bB06D85073e69222aF8273af419d19E4f6\r\n     * @param tokenId Token ID to withdraw\r\n     * @param timestamp Timestamp of the transaction\r\n     * @param r ECDSA output\r\n     * Example is 0xc336b0bb5cac4584d79e77b1680ab789171ebc95f44f68bb1cc0a7b1174058ad\r\n     * @param s ECDSA output\r\n     * Example is 0x72b888e952c0c39a8054f2b6dc41df645f5d4dc3d9cc6118535d88aa34945440\r\n     * @param v Recovery ID\r\n     * Example is 0x1c\r\n     */\r\n    function withdraw(\r\n        address to,\r\n        uint256 tokenId,\r\n        uint256 timestamp,\r\n        bytes32 r,\r\n        bytes32 s,\r\n        uint8 v\r\n    ) public {\r\n        bytes32 prefixedHash =\r\n            keccak256(\r\n                abi.encodePacked(\r\n                    prefix,\r\n                    keccak256(abi.encodePacked(to, tokenId, timestamp, chainId))\r\n                )\r\n            );\r\n        address contractAddress = address(this);\r\n        require(\r\n            ecrecover(prefixedHash, v, r, s) == signer,\r\n            \"invalid signature\"\r\n        );\r\n        require(!usedWithdrawHashes[prefixedHash], \"hash already used\");\r\n        usedWithdrawHashes[prefixedHash] = true;\r\n\r\n        bool oldDeposits = deposits[tokenId];\r\n\r\n        deposits[tokenId] = false;\r\n\r\n        emit Withdrew(to, tokenId, timestamp);\r\n\r\n        if (!oldDeposits) {\r\n            parent.mintTokenId(contractAddress, tokenId);\r\n        }\r\n\r\n        parent.transferFrom(contractAddress, to, tokenId);\r\n    }\r\n\r\n    /** @dev Deposit an ERC721 token to an address\r\n     * @param to Address to deposit to\r\n     * Example is 0x08E242bB06D85073e69222aF8273af419d19E4f6\r\n     * @param tokenId Token ID to withdraw\r\n     */\r\n    function deposit(address to, uint256 tokenId) public {\r\n        deposits[tokenId] = true;\r\n\r\n        emit Deposited(to, tokenId);\r\n\r\n        address from = msg.sender;\r\n        address contractAddress = address(this);\r\n        parent.transferFrom(from, contractAddress, tokenId);\r\n    }\r\n\r\n    /** @dev Check if this nonce has already been used on a withdraw (to prevent replay attack)\r\n     * @param to Address to deposit to\r\n     * Example is 0x08E242bB06D85073e69222aF8273af419d19E4f6\r\n     * @param tokenId Token ID to withdraw\r\n     * @param timestamp Timestamp of the transaction\r\n     * @return Returns true if the nonce has already been used to sign a transaction\r\n     */\r\n    function withdrawNonceUsed(\r\n        address to,\r\n        uint256 tokenId,\r\n        uint256 timestamp\r\n    ) public view returns (bool) {\r\n        bytes32 prefixedHash =\r\n            keccak256(\r\n                abi.encodePacked(\r\n                    prefix,\r\n                    keccak256(abi.encodePacked(to, tokenId, timestamp, chainId))\r\n                )\r\n            );\r\n        return usedWithdrawHashes[prefixedHash];\r\n    }\r\n}\r\n",
  "sourcePath": "D:\\Project\\webaverse - 19\\smart contract\\contracts\\ethereum\\WebaverseERC721Proxy.sol",
  "compiler": {
    "name": "solc",
    "version": "0.6.12+commit.27d51765.Emscripten.clang"
  },
  "schemaVersion": "3.4.7",
  "updatedAt": "2022-05-26T05:31:47.741Z",
  "networkType": "ethereum",
  "devdoc": {
    "details": "Manages ERC721 tokens using the Webaverse signing oracle for validation and cross-chain transfer",
    "kind": "dev",
    "methods": {
      "constructor": {
        "details": "Construct the proxy with a managed parent and chain ID",
        "params": {
          "_chainId": "Chain ID this contract is attached to Default parent address: 0xd7523103ba15c1dfcf0f5ea1c553bc18179ac656 Default signer address: 0xfa80e7480e9c42a9241e16d6c1e7518c1b1757e4",
          "parentAddress": "Address of the managed ERC721 contract",
          "signerAddress": "Address of an authorized signer"
        }
      },
      "deposit(address,uint256)": {
        "details": "Deposit an ERC721 token to an address",
        "params": {
          "to": "Address to deposit to Example is 0x08E242bB06D85073e69222aF8273af419d19E4f6",
          "tokenId": "Token ID to withdraw"
        }
      },
      "setERC721Parent(address)": {
        "details": "Set the parent contract that this proxy manages",
        "params": {
          "newParent": "Address of parent contract"
        }
      },
      "setSigner(address)": {
        "details": "Set the address for the signer oracle",
        "params": {
          "newSigner": "Address of the new signer"
        }
      },
      "withdraw(address,uint256,uint256,bytes32,bytes32,uint8)": {
        "details": "Withdraw an ERC721 token to an address",
        "params": {
          "r": "ECDSA output Example is 0xc336b0bb5cac4584d79e77b1680ab789171ebc95f44f68bb1cc0a7b1174058ad",
          "s": "ECDSA output Example is 0x72b888e952c0c39a8054f2b6dc41df645f5d4dc3d9cc6118535d88aa34945440",
          "timestamp": "Timestamp of the transaction",
          "to": "Address to withdraw to Example is 0x08E242bB06D85073e69222aF8273af419d19E4f6",
          "tokenId": "Token ID to withdraw",
          "v": "Recovery ID Example is 0x1c"
        }
      },
      "withdrawNonceUsed(address,uint256,uint256)": {
        "details": "Check if this nonce has already been used on a withdraw (to prevent replay attack)",
        "params": {
          "timestamp": "Timestamp of the transaction",
          "to": "Address to deposit to Example is 0x08E242bB06D85073e69222aF8273af419d19E4f6",
          "tokenId": "Token ID to withdraw"
        },
        "returns": {
          "_0": "Returns true if the nonce has already been used to sign a transaction"
        }
      }
    },
    "title": "ERC721 Proxy contract.",
    "version": 1
  },
  "userdoc": {
    "kind": "user",
    "methods": {},
    "version": 1
  }
}