{
  "contractName": "WebaverseVoucher",
  "abi": [
    {
      "anonymous": false,
      "inputs": [
        {
          "indexed": false,
          "internalType": "uint8",
          "name": "version",
          "type": "uint8"
        }
      ],
      "name": "Initialized",
      "type": "event"
    },
    {
      "inputs": [
        {
          "internalType": "uint256",
          "name": "",
          "type": "uint256"
        }
      ],
      "name": "burnedNonces",
      "outputs": [
        {
          "internalType": "bool",
          "name": "",
          "type": "bool"
        }
      ],
      "stateMutability": "view",
      "type": "function"
    },
    {
      "inputs": [],
      "name": "_webaverse_voucher_init",
      "outputs": [],
      "stateMutability": "nonpayable",
      "type": "function"
    },
    {
      "inputs": [
        {
          "components": [
            {
              "internalType": "uint256",
              "name": "tokenId",
              "type": "uint256"
            },
            {
              "internalType": "string",
              "name": "contentURL",
              "type": "string"
            },
            {
              "internalType": "uint256",
              "name": "balance",
              "type": "uint256"
            },
            {
              "internalType": "uint256",
              "name": "nonce",
              "type": "uint256"
            },
            {
              "internalType": "uint256",
              "name": "expiry",
              "type": "uint256"
            },
            {
              "internalType": "bytes",
              "name": "signature",
              "type": "bytes"
            }
          ],
          "internalType": "struct WebaverseVoucher.NFTVoucher",
          "name": "voucher",
          "type": "tuple"
        }
      ],
      "name": "verifyVoucher",
      "outputs": [
        {
          "internalType": "address",
          "name": "",
          "type": "address"
        }
      ],
      "stateMutability": "nonpayable",
      "type": "function"
    },
    {
      "inputs": [
        {
          "components": [
            {
              "internalType": "uint256",
              "name": "tokenId",
              "type": "uint256"
            },
            {
              "internalType": "string",
              "name": "contentURL",
              "type": "string"
            },
            {
              "internalType": "uint256",
              "name": "balance",
              "type": "uint256"
            },
            {
              "internalType": "uint256",
              "name": "nonce",
              "type": "uint256"
            },
            {
              "internalType": "uint256",
              "name": "expiry",
              "type": "uint256"
            },
            {
              "internalType": "bytes",
              "name": "signature",
              "type": "bytes"
            }
          ],
          "internalType": "struct WebaverseVoucher.NFTVoucher",
          "name": "voucher",
          "type": "tuple"
        }
      ],
      "name": "_verify",
      "outputs": [
        {
          "internalType": "address",
          "name": "",
          "type": "address"
        }
      ],
      "stateMutability": "view",
      "type": "function"
    }
  ],
  "bytecode": "0x608060405234801561001057600080fd5b50610bac806100206000396000f3fe608060405234801561001057600080fd5b506004361061004c5760003560e01c80634355e53b146100515780636d33a3771461005b578063754b3871146100985780637e2499cc146100ab575b600080fd5b6100596100de565b005b61006e610069366004610a7e565b6101f0565b60405173ffffffffffffffffffffffffffffffffffffffff90911681526020015b60405180910390f35b61006e6100a6366004610a7e565b610250565b6100ce6100b9366004610ab9565b60356020526000908152604090205460ff1681565b604051901515815260200161008f565b600054610100900460ff1661017a576040517f08c379a000000000000000000000000000000000000000000000000000000000815260206004820152602b60248201527f496e697469616c697a61626c653a20636f6e7472616374206973206e6f74206960448201527f6e697469616c697a696e6700000000000000000000000000000000000000000060648201526084015b60405180910390fd5b6101ee6040518060400160405280601181526020017f5765626176657273652d766f75636865720000000000000000000000000000008152506040518060400160405280600181526020017f3100000000000000000000000000000000000000000000000000000000000000815250610383565b565b6000806101fc83610428565b90506102498161020f60a0860186610ae2565b8080601f01602080910402602001604051908101604052809392919081815260200183838082843760009201919091525061050692505050565b9392505050565b600081608001354211156102c0576040517f08c379a000000000000000000000000000000000000000000000000000000000815260206004820152601b60248201527f566f75636865722068617320616c7265616479206578706972656400000000006044820152606401610171565b606082013560009081526035602052604090205460ff161561033e576040517f08c379a000000000000000000000000000000000000000000000000000000000815260206004820152601360248201527f496e76616c6964206e6f6e63652076616c7565000000000000000000000000006044820152606401610171565b6060820135600090815260356020526040812080547fffffffffffffffffffffffffffffffffffffffffffffffffffffffffffffff00166001179055610249836101f0565b600054610100900460ff1661041a576040517f08c379a000000000000000000000000000000000000000000000000000000000815260206004820152602b60248201527f496e697469616c697a61626c653a20636f6e7472616374206973206e6f74206960448201527f6e697469616c697a696e670000000000000000000000000000000000000000006064820152608401610171565b610424828261052a565b5050565b60006105007f5ffd6690a098e0cacfcb33dc84f9cd3cca7021192543b042c1896ee834cabb13833561045d6020860186610ae2565b60405160200161046e929190610ad2565b604080517fffffffffffffffffffffffffffffffffffffffffffffffffffffffffffffffe081840301815282825280516020918201206104e595949390928901359160608a01359160808b01359101958652602086019490945260408501929092526060840152608083015260a082015260c00190565b604051602081830303815290604052805190602001206105db565b92915050565b60008060006105158585610644565b915091506105228161068a565b509392505050565b600054610100900460ff166105c1576040517f08c379a000000000000000000000000000000000000000000000000000000000815260206004820152602b60248201527f496e697469616c697a61626c653a20636f6e7472616374206973206e6f74206960448201527f6e697469616c697a696e670000000000000000000000000000000000000000006064820152608401610171565b815160209283012081519190920120600191909155600255565b60006105006105e86108e6565b836040517f19010000000000000000000000000000000000000000000000000000000000006020820152602281018390526042810182905260009060620160405160208183030381529060405280519060200120905092915050565b60008082516041141561067b5760208301516040840151606085015160001a61066f87828585610966565b94509450505050610683565b506000905060025b9250929050565b600081600481111561069e5761069e610b47565b14156106a75750565b60018160048111156106bb576106bb610b47565b1415610723576040517f08c379a000000000000000000000000000000000000000000000000000000000815260206004820152601860248201527f45434453413a20696e76616c6964207369676e617475726500000000000000006044820152606401610171565b600281600481111561073757610737610b47565b141561079f576040517f08c379a000000000000000000000000000000000000000000000000000000000815260206004820152601f60248201527f45434453413a20696e76616c6964207369676e6174757265206c656e677468006044820152606401610171565b60038160048111156107b3576107b3610b47565b1415610841576040517f08c379a000000000000000000000000000000000000000000000000000000000815260206004820152602260248201527f45434453413a20696e76616c6964207369676e6174757265202773272076616c60448201527f75650000000000000000000000000000000000000000000000000000000000006064820152608401610171565b600481600481111561085557610855610b47565b14156108e3576040517f08c379a000000000000000000000000000000000000000000000000000000000815260206004820152602260248201527f45434453413a20696e76616c6964207369676e6174757265202776272076616c60448201527f75650000000000000000000000000000000000000000000000000000000000006064820152608401610171565b50565b60006109617f8b73c3c69bb8fe3d512ecc4cf759cc79239f7b179b0ffacaa9a75d522b39400f61091560015490565b6002546040805160208101859052908101839052606081018290524660808201523060a082015260009060c0016040516020818303038152906040528051906020012090509392505050565b905090565b6000807f7fffffffffffffffffffffffffffffff5d576e7357a4501ddfe92f46681b20a083111561099d5750600090506003610a75565b8460ff16601b141580156109b557508460ff16601c14155b156109c65750600090506004610a75565b6040805160008082526020820180845289905260ff881692820192909252606081018690526080810185905260019060a0016020604051602081039080840390855afa158015610a1a573d6000803e3d6000fd5b50506040517fffffffffffffffffffffffffffffffffffffffffffffffffffffffffffffffe0015191505073ffffffffffffffffffffffffffffffffffffffff8116610a6e57600060019250925050610a75565b9150600090505b94509492505050565b600060208284031215610a9057600080fd5b813567ffffffffffffffff811115610aa757600080fd5b820160c0818503121561024957600080fd5b600060208284031215610acb57600080fd5b5035919050565b8183823760009101908152919050565b60008083357fffffffffffffffffffffffffffffffffffffffffffffffffffffffffffffffe1843603018112610b1757600080fd5b83018035915067ffffffffffffffff821115610b3257600080fd5b60200191503681900382131561068357600080fd5b7f4e487b7100000000000000000000000000000000000000000000000000000000600052602160045260246000fdfea2646970667358221220fc647bfca7b9fc5bade94b144fe17b2417e840e23abc628f28361ae76abe646164736f6c63430008070033",
  "immutableReferences": {},
  "source": "//SPDX-License-Identifier: MIT\npragma solidity 0.8.7;\npragma abicoder v2; // required to accept structs as function parameters\n\nimport \"@openzeppelin/contracts-upgradeable/utils/cryptography/ECDSAUpgradeable.sol\";\nimport \"@openzeppelin/contracts-upgradeable/utils/cryptography/draft-EIP712Upgradeable.sol\";\n\ncontract WebaverseVoucher is EIP712Upgradeable {\n    string private constant SIGNING_DOMAIN = \"Webaverse-voucher\";\n    string private constant SIGNATURE_VERSION = \"1\";\n\n    // mapping to store the bunred nonces for the signers to prevent replay attacks\n    mapping(uint256 => bool) public burnedNonces;\n\n    function _webaverse_voucher_init() public onlyInitializing {\n        __EIP712_init(SIGNING_DOMAIN, SIGNATURE_VERSION);\n    }\n    // function _webaverse_voucher_init() public initializer {\n    //     __EIP712_init(SIGNING_DOMAIN, SIGNATURE_VERSION);\n    // }\n\n    /// @dev Represents a schema to claim an NFT, which has already been minted on blockchain. A signed voucher can be redeemed for a real NFT using the claim function.\n    struct NFTVoucher {\n        // The id of the token to be redeemed. Must be unique - if another token with this ID already exists, the claim function will revert.\n        uint256 tokenId;\n        // token's content URL\n        string contentURL;\n        // In case of ERC20 and ERC1155 the balance should be greater than 1. For ERC721 it must be set to 1.\n        uint256 balance;\n        // The valid nonce value of the NFT creator, fetched through _nonces mapping.\n        uint256 nonce;\n        // The time period for which the voucher is valid.\n        uint256 expiry;\n        // The EIP-712 signature of all other fields in the NFTVoucher struct. For a voucher to be valid, it must be signed by the owner account.\n        bytes signature;\n    }\n\n    /**\n     * @notice Verifies an NFTVoucher for an actual NFT, authorized by the owner.\n     * @param voucher A signed NFTVoucher that describes the NFT to be redeemed.\n     * @dev Verification through ECDSA signature of 'typed' data.\n     * @dev Voucher must contain valid signature, nonce, and expiry.\n     **/\n    function verifyVoucher(NFTVoucher calldata voucher)\n        public\n        returns (address)\n    {\n        require(\n            block.timestamp <= voucher.expiry,\n            \"Voucher has already expired\"\n        );\n\n        require(burnedNonces[voucher.nonce] == false, \"Invalid nonce value\");\n        // transfer the token to the claimer\n        burnedNonces[voucher.nonce] = true;\n\n        // make sure signature is valid and get the address of the signer\n        address signer = _verify(voucher);\n\n        return signer;\n    }\n\n    /**\n     * @notice Returns a hash of the given NFTVoucher, prepared using EIP712 typed data hashing rules.\n     * @param voucher An NFTVoucher to hash.\n     * @return bytes32 digest of the voucher used for the verification of the signature.\n     **/\n    function _hash(NFTVoucher calldata voucher)\n        internal\n        view\n        returns (bytes32)\n    {\n        return\n            _hashTypedDataV4(\n                keccak256(\n                    abi.encode(\n                        keccak256(\n                            \"NFTVoucher(uint256 tokenId,string contentURL,uint256 balance,uint256 nonce,uint256 expiry)\"\n                        ),\n                        voucher.tokenId,\n                        keccak256(abi.encodePacked(voucher.contentURL)),\n                        voucher.balance,\n                        voucher.nonce,\n                        voucher.expiry\n                    )\n                )\n            );\n    }\n\n    /**\n     * @notice Verifies the signature for a given NFTVoucher, returning the address of the signer.\n     * @param voucher An NFTVoucher describing an NFT.\n     * @dev Will revert if the signature is invalid. Does not verify that the signer is authorized to mint NFTs.\n     * @return returns the address of the signer on succesful verification.\n     **/\n    function _verify(NFTVoucher calldata voucher)\n        public\n        view\n        returns (address)\n    {\n        bytes32 digest = _hash(voucher);\n        return ECDSAUpgradeable.recover(digest, voucher.signature);\n    }\n}\n",
  "sourcePath": "/opt/hedera/game-contracts/ethereum/WebaverseVoucher.sol",
  "compiler": {
    "name": "solc",
    "version": "0.8.7+commit.e28d00a7.Emscripten.clang"
  },
  "schemaVersion": "3.4.10",
  "updatedAt": "2022-10-04T02:06:57.382Z",
  "devdoc": {
    "kind": "dev",
    "methods": {
      "_verify((uint256,string,uint256,uint256,uint256,bytes))": {
        "details": "Will revert if the signature is invalid. Does not verify that the signer is authorized to mint NFTs.",
        "params": {
          "voucher": "An NFTVoucher describing an NFT."
        },
        "returns": {
          "_0": "returns the address of the signer on succesful verification.*"
        }
      },
      "verifyVoucher((uint256,string,uint256,uint256,uint256,bytes))": {
        "details": "Verification through ECDSA signature of 'typed' data.Voucher must contain valid signature, nonce, and expiry.*",
        "params": {
          "voucher": "A signed NFTVoucher that describes the NFT to be redeemed."
        }
      }
    },
    "version": 1
  },
  "userdoc": {
    "kind": "user",
    "methods": {
      "_verify((uint256,string,uint256,uint256,uint256,bytes))": {
        "notice": "Verifies the signature for a given NFTVoucher, returning the address of the signer."
      },
      "verifyVoucher((uint256,string,uint256,uint256,uint256,bytes))": {
        "notice": "Verifies an NFTVoucher for an actual NFT, authorized by the owner."
      }
    },
    "version": 1
  }
}