{
  "contractName": "Webaverse",
  "abi": [
    {
      "anonymous": false,
      "inputs": [
        {
          "indexed": true,
          "internalType": "address",
          "name": "previousOwner",
          "type": "address"
        },
        {
          "indexed": true,
          "internalType": "address",
          "name": "newOwner",
          "type": "address"
        }
      ],
      "name": "OwnershipTransferred",
      "type": "event"
    },
    {
      "inputs": [],
      "name": "owner",
      "outputs": [
        {
          "internalType": "address",
          "name": "",
          "type": "address"
        }
      ],
      "stateMutability": "view",
      "type": "function"
    },
    {
      "inputs": [],
      "name": "renounceOwnership",
      "outputs": [],
      "stateMutability": "nonpayable",
      "type": "function"
    },
    {
      "inputs": [
        {
          "internalType": "address",
          "name": "newOwner",
          "type": "address"
        }
      ],
      "name": "transferOwnership",
      "outputs": [],
      "stateMutability": "nonpayable",
      "type": "function"
    },
    {
      "inputs": [
        {
          "internalType": "address",
          "name": "_nftAddress",
          "type": "address"
        },
        {
          "internalType": "address",
          "name": "_silkAddress",
          "type": "address"
        },
        {
          "internalType": "uint256",
          "name": "mintFee_",
          "type": "uint256"
        },
        {
          "internalType": "address",
          "name": "treasuryAddress_",
          "type": "address"
        }
      ],
      "name": "initialize",
      "outputs": [],
      "stateMutability": "nonpayable",
      "type": "function"
    },
    {
      "inputs": [],
      "name": "mintFee",
      "outputs": [
        {
          "internalType": "uint256",
          "name": "",
          "type": "uint256"
        }
      ],
      "stateMutability": "view",
      "type": "function"
    },
    {
      "inputs": [],
      "name": "nftContractAddress",
      "outputs": [
        {
          "internalType": "address",
          "name": "",
          "type": "address"
        }
      ],
      "stateMutability": "view",
      "type": "function"
    },
    {
      "inputs": [],
      "name": "silkContractAddress",
      "outputs": [
        {
          "internalType": "address",
          "name": "",
          "type": "address"
        }
      ],
      "stateMutability": "view",
      "type": "function"
    },
    {
      "inputs": [
        {
          "internalType": "address",
          "name": "_nftContractAddress",
          "type": "address"
        }
      ],
      "name": "setNftAddress",
      "outputs": [],
      "stateMutability": "nonpayable",
      "type": "function"
    },
    {
      "inputs": [
        {
          "internalType": "address",
          "name": "_silkAddress",
          "type": "address"
        }
      ],
      "name": "setSilkAddress",
      "outputs": [],
      "stateMutability": "nonpayable",
      "type": "function"
    },
    {
      "inputs": [
        {
          "internalType": "uint256",
          "name": "mintFee_",
          "type": "uint256"
        }
      ],
      "name": "setMintFee",
      "outputs": [],
      "stateMutability": "nonpayable",
      "type": "function"
    },
    {
      "inputs": [],
      "name": "treasuryAddress",
      "outputs": [
        {
          "internalType": "address",
          "name": "",
          "type": "address"
        }
      ],
      "stateMutability": "view",
      "type": "function"
    },
    {
      "inputs": [
        {
          "internalType": "address",
          "name": "treasuryAddress_",
          "type": "address"
        }
      ],
      "name": "setTreasuryAddress",
      "outputs": [],
      "stateMutability": "nonpayable",
      "type": "function"
    },
    {
      "inputs": [
        {
          "internalType": "address",
          "name": "to",
          "type": "address"
        },
        {
          "internalType": "uint256",
          "name": "balance",
          "type": "uint256"
        },
        {
          "internalType": "string",
          "name": "uri",
          "type": "string"
        },
        {
          "internalType": "bytes",
          "name": "data",
          "type": "bytes"
        }
      ],
      "name": "mint",
      "outputs": [],
      "stateMutability": "nonpayable",
      "type": "function"
    },
    {
      "inputs": [
        {
          "internalType": "uint256",
          "name": "tokenId",
          "type": "uint256"
        },
        {
          "internalType": "string",
          "name": "trait_type",
          "type": "string"
        },
        {
          "internalType": "string",
          "name": "value",
          "type": "string"
        },
        {
          "internalType": "string",
          "name": "display_type",
          "type": "string"
        }
      ],
      "name": "setAttribute",
      "outputs": [],
      "stateMutability": "nonpayable",
      "type": "function"
    }
  ],
  "bytecode": "0x608060405234801561001057600080fd5b50610d69806100206000396000f3fe608060405234801561001057600080fd5b50600436106100ea5760003560e01c8063aae282e11161008c578063c5f956af11610066578063c5f956af146101b5578063d2b04fd6146101c6578063eddd0d9c146101d9578063f2fde38b146101ec57600080fd5b8063aae282e114610180578063bc5350f314610191578063be203094146101a257600080fd5b80636605bfda116100c85780636605bfda1461012d578063715018a6146101405780638ad0686e146101485780638da5cb5b1461015b57600080fd5b80630b102d1a146100ef5780630dc575981461010457806313966db514610117575b600080fd5b6101026100fd3660046109f6565b6101ff565b005b610102610112366004610b44565b610254565b6067546040519081526020015b60405180910390f35b61010261013b3660046109f6565b61041c565b610102610468565b6101026101563660046109f6565b61049e565b6033546001600160a01b03165b6040516001600160a01b039091168152602001610124565b6065546001600160a01b0316610168565b6066546001600160a01b0316610168565b6101026101b0366004610a11565b6104ea565b6068546001600160a01b0316610168565b6101026101d4366004610a5e565b6105a4565b6101026101e7366004610b12565b6106dc565b6101026101fa3660046109f6565b61070b565b6033546001600160a01b031633146102325760405162461bcd60e51b815260040161022990610ca9565b60405180910390fd5b606580546001600160a01b0319166001600160a01b0392909216919091179055565b606554604051631220bae960e31b8152600481018690526001600160a01b0390911690639105d7489060240160206040518083038186803b15801561029857600080fd5b505afa1580156102ac573d6000803e3d6000fd5b505050506040513d601f19601f820116820180604052508101906102d09190610b2b565b606554604051627eeac760e11b8152336004820152602481018790526001600160a01b039091169062fdd58e9060440160206040518083038186803b15801561031857600080fd5b505afa15801561032c573d6000803e3d6000fd5b505050506040513d601f19601f820116820180604052508101906103509190610b2b565b146103ae5760405162461bcd60e51b815260206004820152602860248201527f5765626176657273653a204f6e6c79206f776e65722063616e20736574206174604482015267747269627574657360c01b6064820152608401610229565b6065546040516301b8aeb360e31b81526001600160a01b0390911690630dc57598906103e4908790879087908790600401610cde565b600060405180830381600087803b1580156103fe57600080fd5b505af1158015610412573d6000803e3d6000fd5b5050505050505050565b6033546001600160a01b031633146104465760405162461bcd60e51b815260040161022990610ca9565b606880546001600160a01b0319166001600160a01b0392909216919091179055565b6033546001600160a01b031633146104925760405162461bcd60e51b815260040161022990610ca9565b61049c60006107a6565b565b6033546001600160a01b031633146104c85760405162461bcd60e51b815260040161022990610ca9565b606680546001600160a01b0319166001600160a01b0392909216919091179055565b600054610100900460ff1680610503575060005460ff16155b61051f5760405162461bcd60e51b815260040161022990610c5b565b600054610100900460ff16158015610541576000805461ffff19166101011790555b6105496107f8565b606580546001600160a01b038088166001600160a01b0319928316179092556066805487841690831617905560678590556068805492851692909116919091179055801561059d576000805461ff00191690555b5050505050565b606754156106a6576066546001600160a01b03166323b872dd336105d06068546001600160a01b031690565b6067546040516001600160e01b031960e086901b1681526001600160a01b0393841660048201529290911660248301526044820152606401602060405180830381600087803b15801561062257600080fd5b505af1158015610636573d6000803e3d6000fd5b505050506040513d601f19601f8201168201806040525081019061065a9190610af0565b6106a65760405162461bcd60e51b815260206004820152601f60248201527f5765626176657273653a204d696e74207472616e73666572206661696c6564006044820152606401610229565b60655460405163695827eb60e11b81526001600160a01b039091169063d2b04fd6906103e4908790879087908790600401610c17565b6033546001600160a01b031633146107065760405162461bcd60e51b815260040161022990610ca9565b606755565b6033546001600160a01b031633146107355760405162461bcd60e51b815260040161022990610ca9565b6001600160a01b03811661079a5760405162461bcd60e51b815260206004820152602660248201527f4f776e61626c653a206e6577206f776e657220697320746865207a65726f206160448201526564647265737360d01b6064820152608401610229565b6107a3816107a6565b50565b603380546001600160a01b038381166001600160a01b0319831681179093556040519116919082907f8be0079c531659141344cd1fd0a4f28419497f9722a3daafe3b4186f6b6457e090600090a35050565b600054610100900460ff1680610811575060005460ff16155b61082d5760405162461bcd60e51b815260040161022990610c5b565b600054610100900460ff1615801561084f576000805461ffff19166101011790555b610857610873565b61085f6108dd565b80156107a3576000805461ff001916905550565b600054610100900460ff168061088c575060005460ff16155b6108a85760405162461bcd60e51b815260040161022990610c5b565b600054610100900460ff1615801561085f576000805461ffff191661010117905580156107a3576000805461ff001916905550565b600054610100900460ff16806108f6575060005460ff16155b6109125760405162461bcd60e51b815260040161022990610c5b565b600054610100900460ff16158015610934576000805461ffff19166101011790555b61085f336107a6565b600067ffffffffffffffff8084111561095857610958610d1d565b604051601f8501601f19908116603f0116810190828211818310171561098057610980610d1d565b8160405280935085815286868601111561099957600080fd5b858560208301376000602087830101525050509392505050565b80356001600160a01b03811681146109ca57600080fd5b919050565b600082601f8301126109e057600080fd5b6109ef8383356020850161093d565b9392505050565b600060208284031215610a0857600080fd5b6109ef826109b3565b60008060008060808587031215610a2757600080fd5b610a30856109b3565b9350610a3e602086016109b3565b925060408501359150610a53606086016109b3565b905092959194509250565b60008060008060808587031215610a7457600080fd5b610a7d856109b3565b935060208501359250604085013567ffffffffffffffff80821115610aa157600080fd5b610aad888389016109cf565b93506060870135915080821115610ac357600080fd5b508501601f81018713610ad557600080fd5b610ae48782356020840161093d565b91505092959194509250565b600060208284031215610b0257600080fd5b815180151581146109ef57600080fd5b600060208284031215610b2457600080fd5b5035919050565b600060208284031215610b3d57600080fd5b5051919050565b60008060008060808587031215610b5a57600080fd5b84359350602085013567ffffffffffffffff80821115610b7957600080fd5b610b85888389016109cf565b94506040870135915080821115610b9b57600080fd5b610ba7888389016109cf565b93506060870135915080821115610bbd57600080fd5b50610ae4878288016109cf565b6000815180845260005b81811015610bf057602081850181015186830182015201610bd4565b81811115610c02576000602083870101525b50601f01601f19169290920160200192915050565b60018060a01b0385168152836020820152608060408201526000610c3e6080830185610bca565b8281036060840152610c508185610bca565b979650505050505050565b6020808252602e908201527f496e697469616c697a61626c653a20636f6e747261637420697320616c72656160408201526d191e481a5b9a5d1a585b1a5e995960921b606082015260800190565b6020808252818101527f4f776e61626c653a2063616c6c6572206973206e6f7420746865206f776e6572604082015260600190565b848152608060208201526000610cf76080830186610bca565b8281036040840152610d098186610bca565b90508281036060840152610c508185610bca565b634e487b7160e01b600052604160045260246000fdfea26469706673582212208a84a1dd815d578aadf933cbdd9c80a2c4624d0a91174ca55f4527ce74da2e8464736f6c63430008070033",
  "immutableReferences": {},
  "source": "// SPDX-License-Identifier: MIT\n\npragma solidity ^0.8.7;\n\nimport \"@openzeppelin/contracts-upgradeable/access/OwnableUpgradeable.sol\";\nimport \"./WebaverseERC1155.sol\";\nimport \"./WebaverseERC20.sol\";\n\ncontract Webaverse is OwnableUpgradeable {\n    WebaverseERC1155 private _nftContract;\n    WebaverseERC20 private _silkContract;\n    uint256 private _mintFee; // ERC20 fee to mint ERC721\n    address private _treasuryAddress;\n\n    /**\n     * @dev Creates the Upgradeable Webaverse contract\n     * @param _nftAddress WebaverseERC721 contract address for Non-fungible tokens\n     * @param _silkAddress WebaverseERC20 contract address for fungible tokens\n     * @param mintFee_ The amount of WebaverseERC20 tokens required to mint a single NFT\n     * @param treasuryAddress_ Address of the treasury account\n     */\n    function initialize(\n        address _nftAddress,\n        address _silkAddress,\n        uint256 mintFee_,\n        address treasuryAddress_\n    ) public initializer {\n        __Ownable_init();\n        _nftContract = WebaverseERC1155(_nftAddress);\n        _silkContract = WebaverseERC20(_silkAddress);\n        _mintFee = mintFee_;\n        _treasuryAddress = treasuryAddress_;\n    }\n\n    /**\n     * @return The amount of ERC20 tokens required to mint the ERC721 NFT\n     */\n    function mintFee() public view returns (uint256) {\n        return _mintFee;\n    }\n\n    /**\n     * @return The address of Webaverse ERC721 contract\n     */\n    function nftContractAddress() public view returns (address) {\n        return address(_nftContract);\n    }\n\n    /**\n     * @return The address of Webaverse ERC20 contract\n     */\n    function silkContractAddress() public view returns (address) {\n        return address(_silkContract);\n    }\n\n    /**\n     * @dev Set the contract instance for ERC721\n     * @param _nftContractAddress The address of the ERC721 contract that needs to be set\n     */\n    function setNftAddress(address _nftContractAddress) public onlyOwner {\n        _nftContract = WebaverseERC1155(_nftContractAddress);\n    }\n\n    /**\n     * @dev Set the contract instance for ERC20\n     * @param _silkAddress The address of the ERC20 contract that needs to be set\n     */\n    function setSilkAddress(address _silkAddress) public onlyOwner {\n        _silkContract = WebaverseERC20(_silkAddress);\n    }\n\n    /**\n     * @dev Set the price to mint\n     * @param mintFee_ Minting fee, default is 10 FT\n     */\n    function setMintFee(uint256 mintFee_) public onlyOwner {\n        _mintFee = mintFee_;\n    }\n\n    /**\n     * @return The address that is used for receiving mint fee (ERC20 tokens)\n     */\n    function treasuryAddress() public view returns (address) {\n        return _treasuryAddress;\n    }\n\n    /**\n     * @dev Set the treasury address\n     * @param treasuryAddress_ Account address of the treasurer\n     */\n    function setTreasuryAddress(address treasuryAddress_) public onlyOwner {\n        _treasuryAddress = treasuryAddress_;\n    }\n\n    /**\n     * @notice Mints the a single NFT with given parameters.\n     * @param to The address on which the NFT will be minted.\n     * @param balance Total amount for the given token.\n     * @param uri URI of the NFT.\n     **/\n    function mint(\n        address to,\n        uint256 balance,\n        string memory uri,\n        bytes memory data\n    ) public {\n        if (mintFee() != 0) {\n            require(\n                _silkContract.transferFrom(\n                    msg.sender,\n                    treasuryAddress(),\n                    mintFee()\n                ),\n                \"Webaverse: Mint transfer failed\"\n            );\n        }\n        _nftContract.mint(to, balance, uri, data);\n    }\n\n    /**\n     * @notice Mints the a single NFT with given parameters.\n     * @param tokenId The id of the token.\n     * @param trait_type Name of the attribute (as per opensea metadata standard).\n     * @param value String value of the atrribute being added or set (as per opensea metadata standard).\n     * @param display_type Display type of the attribute (as per opensea metadata standard).\n     **/\n    function setAttribute(\n        uint256 tokenId,\n        string memory trait_type,\n        string memory value,\n        string memory display_type\n    ) public {\n        require(\n            _nftContract.balanceOf(msg.sender, tokenId) ==\n                _nftContract.getTokenBalance(tokenId),\n            \"Webaverse: Only owner can set attributes\"\n        );\n        _nftContract.setAttribute(tokenId, trait_type, value, display_type);\n    }\n}\n",
  "sourcePath": "/home/mohsin/Desktop/sidechain/contracts/main/Webaverse.sol",
  "compiler": {
    "name": "solc",
    "version": "0.8.7+commit.e28d00a7.Emscripten.clang"
  },
  "schemaVersion": "3.4.3",
  "updatedAt": "2022-01-25T23:47:22.158Z",
  "devdoc": {
    "kind": "dev",
    "methods": {
      "initialize(address,address,uint256,address)": {
        "details": "Creates the Upgradeable Webaverse contract",
        "params": {
          "_nftAddress": "WebaverseERC721 contract address for Non-fungible tokens",
          "_silkAddress": "WebaverseERC20 contract address for fungible tokens",
          "mintFee_": "The amount of WebaverseERC20 tokens required to mint a single NFT",
          "treasuryAddress_": "Address of the treasury account"
        }
      },
      "mint(address,uint256,string,bytes)": {
        "params": {
          "balance": "Total amount for the given token.",
          "to": "The address on which the NFT will be minted.",
          "uri": "URI of the NFT.*"
        }
      },
      "mintFee()": {
        "returns": {
          "_0": "The amount of ERC20 tokens required to mint the ERC721 NFT"
        }
      },
      "nftContractAddress()": {
        "returns": {
          "_0": "The address of Webaverse ERC721 contract"
        }
      },
      "owner()": {
        "details": "Returns the address of the current owner."
      },
      "renounceOwnership()": {
        "details": "Leaves the contract without owner. It will not be possible to call `onlyOwner` functions anymore. Can only be called by the current owner. NOTE: Renouncing ownership will leave the contract without an owner, thereby removing any functionality that is only available to the owner."
      },
      "setAttribute(uint256,string,string,string)": {
        "params": {
          "display_type": "Display type of the attribute (as per opensea metadata standard).*",
          "tokenId": "The id of the token.",
          "trait_type": "Name of the attribute (as per opensea metadata standard).",
          "value": "String value of the atrribute being added or set (as per opensea metadata standard)."
        }
      },
      "setMintFee(uint256)": {
        "details": "Set the price to mint",
        "params": {
          "mintFee_": "Minting fee, default is 10 FT"
        }
      },
      "setNftAddress(address)": {
        "details": "Set the contract instance for ERC721",
        "params": {
          "_nftContractAddress": "The address of the ERC721 contract that needs to be set"
        }
      },
      "setSilkAddress(address)": {
        "details": "Set the contract instance for ERC20",
        "params": {
          "_silkAddress": "The address of the ERC20 contract that needs to be set"
        }
      },
      "setTreasuryAddress(address)": {
        "details": "Set the treasury address",
        "params": {
          "treasuryAddress_": "Account address of the treasurer"
        }
      },
      "silkContractAddress()": {
        "returns": {
          "_0": "The address of Webaverse ERC20 contract"
        }
      },
      "transferOwnership(address)": {
        "details": "Transfers ownership of the contract to a new account (`newOwner`). Can only be called by the current owner."
      },
      "treasuryAddress()": {
        "returns": {
          "_0": "The address that is used for receiving mint fee (ERC20 tokens)"
        }
      }
    },
    "version": 1
  },
  "userdoc": {
    "kind": "user",
    "methods": {
      "mint(address,uint256,string,bytes)": {
        "notice": "Mints the a single NFT with given parameters."
      },
      "setAttribute(uint256,string,string,string)": {
        "notice": "Mints the a single NFT with given parameters."
      }
    },
    "version": 1
  }
}