{
  "contractName": "WebaverseERC20",
  "abi": [
    {
      "anonymous": false,
      "inputs": [
        {
          "indexed": true,
          "internalType": "address",
          "name": "owner",
          "type": "address"
        },
        {
          "indexed": true,
          "internalType": "address",
          "name": "spender",
          "type": "address"
        },
        {
          "indexed": false,
          "internalType": "uint256",
          "name": "value",
          "type": "uint256"
        }
      ],
      "name": "Approval",
      "type": "event"
    },
    {
      "anonymous": false,
      "inputs": [
        {
          "indexed": false,
          "internalType": "address",
          "name": "signer",
          "type": "address"
        },
        {
          "indexed": false,
          "internalType": "address",
          "name": "claimer",
          "type": "address"
        },
        {
          "indexed": false,
          "internalType": "uint256",
          "name": "balance",
          "type": "uint256"
        }
      ],
      "name": "Claim",
      "type": "event"
    },
    {
      "anonymous": false,
      "inputs": [
        {
          "indexed": true,
          "internalType": "address",
          "name": "externalContract",
          "type": "address"
        },
        {
          "indexed": false,
          "internalType": "address",
          "name": "signer",
          "type": "address"
        },
        {
          "indexed": false,
          "internalType": "address",
          "name": "claimer",
          "type": "address"
        },
        {
          "indexed": false,
          "internalType": "uint256",
          "name": "balance",
          "type": "uint256"
        }
      ],
      "name": "ExternalClaim",
      "type": "event"
    },
    {
      "anonymous": false,
      "inputs": [
        {
          "indexed": true,
          "internalType": "address",
          "name": "previousOwner",
          "type": "address"
        },
        {
          "indexed": true,
          "internalType": "address",
          "name": "newOwner",
          "type": "address"
        }
      ],
      "name": "OwnershipTransferred",
      "type": "event"
    },
    {
      "anonymous": false,
      "inputs": [
        {
          "indexed": true,
          "internalType": "address",
          "name": "from",
          "type": "address"
        },
        {
          "indexed": true,
          "internalType": "address",
          "name": "to",
          "type": "address"
        },
        {
          "indexed": false,
          "internalType": "uint256",
          "name": "value",
          "type": "uint256"
        }
      ],
      "name": "Transfer",
      "type": "event"
    },
    {
      "inputs": [],
      "name": "_webaverse_voucher_init",
      "outputs": [],
      "stateMutability": "nonpayable",
      "type": "function"
    },
    {
      "inputs": [
        {
          "internalType": "address",
          "name": "owner",
          "type": "address"
        },
        {
          "internalType": "address",
          "name": "spender",
          "type": "address"
        }
      ],
      "name": "allowance",
      "outputs": [
        {
          "internalType": "uint256",
          "name": "",
          "type": "uint256"
        }
      ],
      "stateMutability": "view",
      "type": "function"
    },
    {
      "inputs": [
        {
          "internalType": "address",
          "name": "spender",
          "type": "address"
        },
        {
          "internalType": "uint256",
          "name": "amount",
          "type": "uint256"
        }
      ],
      "name": "approve",
      "outputs": [
        {
          "internalType": "bool",
          "name": "",
          "type": "bool"
        }
      ],
      "stateMutability": "nonpayable",
      "type": "function"
    },
    {
      "inputs": [
        {
          "internalType": "address",
          "name": "account",
          "type": "address"
        }
      ],
      "name": "balanceOf",
      "outputs": [
        {
          "internalType": "uint256",
          "name": "",
          "type": "uint256"
        }
      ],
      "stateMutability": "view",
      "type": "function"
    },
    {
      "inputs": [
        {
          "internalType": "uint256",
          "name": "",
          "type": "uint256"
        }
      ],
      "name": "burnedNonces",
      "outputs": [
        {
          "internalType": "bool",
          "name": "",
          "type": "bool"
        }
      ],
      "stateMutability": "view",
      "type": "function"
    },
    {
      "inputs": [],
      "name": "decimals",
      "outputs": [
        {
          "internalType": "uint8",
          "name": "",
          "type": "uint8"
        }
      ],
      "stateMutability": "view",
      "type": "function"
    },
    {
      "inputs": [
        {
          "internalType": "address",
          "name": "spender",
          "type": "address"
        },
        {
          "internalType": "uint256",
          "name": "subtractedValue",
          "type": "uint256"
        }
      ],
      "name": "decreaseAllowance",
      "outputs": [
        {
          "internalType": "bool",
          "name": "",
          "type": "bool"
        }
      ],
      "stateMutability": "nonpayable",
      "type": "function"
    },
    {
      "inputs": [
        {
          "internalType": "address",
          "name": "spender",
          "type": "address"
        },
        {
          "internalType": "uint256",
          "name": "addedValue",
          "type": "uint256"
        }
      ],
      "name": "increaseAllowance",
      "outputs": [
        {
          "internalType": "bool",
          "name": "",
          "type": "bool"
        }
      ],
      "stateMutability": "nonpayable",
      "type": "function"
    },
    {
      "inputs": [],
      "name": "name",
      "outputs": [
        {
          "internalType": "string",
          "name": "",
          "type": "string"
        }
      ],
      "stateMutability": "view",
      "type": "function"
    },
    {
      "inputs": [],
      "name": "owner",
      "outputs": [
        {
          "internalType": "address",
          "name": "",
          "type": "address"
        }
      ],
      "stateMutability": "view",
      "type": "function"
    },
    {
      "inputs": [],
      "name": "renounceOwnership",
      "outputs": [],
      "stateMutability": "nonpayable",
      "type": "function"
    },
    {
      "inputs": [],
      "name": "symbol",
      "outputs": [
        {
          "internalType": "string",
          "name": "",
          "type": "string"
        }
      ],
      "stateMutability": "view",
      "type": "function"
    },
    {
      "inputs": [],
      "name": "totalSupply",
      "outputs": [
        {
          "internalType": "uint256",
          "name": "",
          "type": "uint256"
        }
      ],
      "stateMutability": "view",
      "type": "function"
    },
    {
      "inputs": [
        {
          "internalType": "address",
          "name": "recipient",
          "type": "address"
        },
        {
          "internalType": "uint256",
          "name": "amount",
          "type": "uint256"
        }
      ],
      "name": "transfer",
      "outputs": [
        {
          "internalType": "bool",
          "name": "",
          "type": "bool"
        }
      ],
      "stateMutability": "nonpayable",
      "type": "function"
    },
    {
      "inputs": [
        {
          "internalType": "address",
          "name": "sender",
          "type": "address"
        },
        {
          "internalType": "address",
          "name": "recipient",
          "type": "address"
        },
        {
          "internalType": "uint256",
          "name": "amount",
          "type": "uint256"
        }
      ],
      "name": "transferFrom",
      "outputs": [
        {
          "internalType": "bool",
          "name": "",
          "type": "bool"
        }
      ],
      "stateMutability": "nonpayable",
      "type": "function"
    },
    {
      "inputs": [
        {
          "internalType": "address",
          "name": "newOwner",
          "type": "address"
        }
      ],
      "name": "transferOwnership",
      "outputs": [],
      "stateMutability": "nonpayable",
      "type": "function"
    },
    {
      "inputs": [
        {
          "components": [
            {
              "internalType": "uint256",
              "name": "tokenId",
              "type": "uint256"
            },
            {
              "internalType": "uint256",
              "name": "balance",
              "type": "uint256"
            },
            {
              "internalType": "uint256",
              "name": "nonce",
              "type": "uint256"
            },
            {
              "internalType": "uint256",
              "name": "expiry",
              "type": "uint256"
            },
            {
              "internalType": "bytes",
              "name": "signature",
              "type": "bytes"
            }
          ],
          "internalType": "struct WebaverseVoucher.NFTVoucher",
          "name": "voucher",
          "type": "tuple"
        }
      ],
      "name": "verifyVoucher",
      "outputs": [
        {
          "internalType": "address",
          "name": "",
          "type": "address"
        }
      ],
      "stateMutability": "nonpayable",
      "type": "function"
    },
    {
      "inputs": [
        {
          "internalType": "string",
          "name": "name",
          "type": "string"
        },
        {
          "internalType": "string",
          "name": "symbol",
          "type": "string"
        },
        {
          "internalType": "uint256",
          "name": "maxSupply_",
          "type": "uint256"
        }
      ],
      "name": "initialize",
      "outputs": [],
      "stateMutability": "nonpayable",
      "type": "function"
    },
    {
      "inputs": [],
      "name": "maxSupply",
      "outputs": [
        {
          "internalType": "uint256",
          "name": "",
          "type": "uint256"
        }
      ],
      "stateMutability": "view",
      "type": "function"
    },
    {
      "inputs": [
        {
          "internalType": "address",
          "name": "to",
          "type": "address"
        },
        {
          "internalType": "uint256",
          "name": "amount",
          "type": "uint256"
        }
      ],
      "name": "mint",
      "outputs": [],
      "stateMutability": "nonpayable",
      "type": "function"
    },
    {
      "inputs": [
        {
          "internalType": "address",
          "name": "account",
          "type": "address"
        }
      ],
      "name": "isAllowedMinter",
      "outputs": [
        {
          "internalType": "bool",
          "name": "",
          "type": "bool"
        }
      ],
      "stateMutability": "view",
      "type": "function"
    },
    {
      "inputs": [
        {
          "internalType": "address",
          "name": "minter",
          "type": "address"
        }
      ],
      "name": "addMinter",
      "outputs": [],
      "stateMutability": "nonpayable",
      "type": "function"
    },
    {
      "inputs": [
        {
          "internalType": "address",
          "name": "minter",
          "type": "address"
        }
      ],
      "name": "removeMinter",
      "outputs": [],
      "stateMutability": "nonpayable",
      "type": "function"
    },
    {
      "inputs": [
        {
          "internalType": "address",
          "name": "claimer",
          "type": "address"
        },
        {
          "components": [
            {
              "internalType": "uint256",
              "name": "tokenId",
              "type": "uint256"
            },
            {
              "internalType": "uint256",
              "name": "balance",
              "type": "uint256"
            },
            {
              "internalType": "uint256",
              "name": "nonce",
              "type": "uint256"
            },
            {
              "internalType": "uint256",
              "name": "expiry",
              "type": "uint256"
            },
            {
              "internalType": "bytes",
              "name": "signature",
              "type": "bytes"
            }
          ],
          "internalType": "struct WebaverseVoucher.NFTVoucher",
          "name": "voucher",
          "type": "tuple"
        }
      ],
      "name": "claim",
      "outputs": [
        {
          "internalType": "uint256",
          "name": "",
          "type": "uint256"
        }
      ],
      "stateMutability": "nonpayable",
      "type": "function"
    },
    {
      "inputs": [
        {
          "internalType": "address",
          "name": "claimer",
          "type": "address"
        },
        {
          "internalType": "address",
          "name": "contractAddress",
          "type": "address"
        },
        {
          "components": [
            {
              "internalType": "uint256",
              "name": "tokenId",
              "type": "uint256"
            },
            {
              "internalType": "uint256",
              "name": "balance",
              "type": "uint256"
            },
            {
              "internalType": "uint256",
              "name": "nonce",
              "type": "uint256"
            },
            {
              "internalType": "uint256",
              "name": "expiry",
              "type": "uint256"
            },
            {
              "internalType": "bytes",
              "name": "signature",
              "type": "bytes"
            }
          ],
          "internalType": "struct WebaverseVoucher.NFTVoucher",
          "name": "voucher",
          "type": "tuple"
        }
      ],
      "name": "externalClaim",
      "outputs": [
        {
          "internalType": "uint256",
          "name": "",
          "type": "uint256"
        }
      ],
      "stateMutability": "nonpayable",
      "type": "function"
    }
  ],
  "bytecode": "0x608060405234801561001057600080fd5b5061205f806100206000396000f3fe608060405234801561001057600080fd5b50600436106101735760003560e01c80637e2499cc116100de578063a8689ce211610097578063b119490e11610071578063b119490e1461034f578063d5abeb0114610362578063dd62ed3e1461036a578063f2fde38b146103a357600080fd5b8063a8689ce214610316578063a9059cbb14610329578063ad637e671461033c57600080fd5b80637e2499cc1461028d5780638da5cb5b146102b05780639468f2ca146102d557806395d89b41146102e8578063983b2d56146102f0578063a457c2d71461030357600080fd5b8063313ce56711610130578063313ce5671461021f578063395093511461022e57806340c10f19146102415780634355e53b1461025457806370a082311461025c578063715018a61461028557600080fd5b806306fdde0314610178578063095ea7b31461019657806318160ddd146101b95780631f3b4c90146101cb57806323b872dd146101f75780633092afd51461020a575b600080fd5b6101806103b6565b60405161018d9190611e35565b60405180910390f35b6101a96101a4366004611d0d565b610448565b604051901515815260200161018d565b6035545b60405190815260200161018d565b6101a96101d9366004611bd7565b6001600160a01b0316600090815260cc602052604090205460ff1690565b6101a9610205366004611c83565b61045e565b61021d610218366004611bd7565b61050d565b005b6040516012815260200161018d565b6101a961023c366004611d0d565b6105c0565b61021d61024f366004611d0d565b6105fc565b61021d6106e1565b6101bd61026a366004611bd7565b6001600160a01b031660009081526033602052604090205490565b61021d610799565b6101a961029b366004611e03565b60996020526000908152604090205460ff1681565b609a546001600160a01b03165b6040516001600160a01b03909116815260200161018d565b6101bd6102e3366004611cbf565b6107cf565b610180610881565b61021d6102fe366004611bd7565b610890565b6101a9610311366004611d0d565b610947565b6101bd610324366004611c25565b6109e0565b6101a9610337366004611d0d565b610c58565b6102bd61034a366004611dc6565b610c65565b61021d61035d366004611d59565b610d41565b60cd546101bd565b6101bd610378366004611bf2565b6001600160a01b03918216600090815260346020908152604080832093909416825291909152205490565b61021d6103b1366004611bd7565b610de9565b6060603680546103c590611fc8565b80601f01602080910402602001604051908101604052809291908181526020018280546103f190611fc8565b801561043e5780601f106104135761010080835404028352916020019161043e565b820191906000526020600020905b81548152906001019060200180831161042157829003601f168201915b5050505050905090565b6000610455338484610e81565b50600192915050565b600061046b848484610fa5565b6001600160a01b0384166000908152603460209081526040808320338452909152902054828110156104f55760405162461bcd60e51b815260206004820152602860248201527f45524332303a207472616e7366657220616d6f756e74206578636565647320616044820152676c6c6f77616e636560c01b60648201526084015b60405180910390fd5b6105028533858403610e81565b506001949350505050565b609a546001600160a01b031633146105375760405162461bcd60e51b81526004016104ec90611f26565b6001600160a01b038116600090815260cc602052604090205460ff1661059f5760405162461bcd60e51b815260206004820152601c60248201527f45524332303a204d696e74657220646f6573206e6f742065786973740000000060448201526064016104ec565b6001600160a01b0316600090815260cc60205260409020805460ff19169055565b3360008181526034602090815260408083206001600160a01b038716845290915281205490916104559185906105f7908690611fa2565b610e81565b610605336101d9565b61066e5760405162461bcd60e51b815260206004820152603460248201527f45524332303a204f6e6c79207768697465206c6973746564206d696e7465727360448201527308185c9948185b1b1bddd959081d1bc81b5a5b9d60621b60648201526084016104ec565b60cd548161067b60355490565b6106859190611fa2565b11156106d35760405162461bcd60e51b815260206004820152601960248201527f45524332303a204d617820737570706c7920726561636865640000000000000060448201526064016104ec565b6106dd8282611173565b5050565b600054610100900460ff16806106fa575060005460ff16155b6107165760405162461bcd60e51b81526004016104ec90611e8a565b600054610100900460ff16158015610738576000805461ffff19166101011790555b610784604051806040016040528060118152602001702bb2b130bb32b939b296bb37bab1b432b960791b815250604051806040016040528060018152602001603160f81b815250611252565b8015610796576000805461ff00191690555b50565b609a546001600160a01b031633146107c35760405162461bcd60e51b81526004016104ec90611f26565b6107cd60006112ca565b565b6000806107db83610c65565b90506107fc816001600160a01b031660009081526033602052604090205490565b6108185760405162461bcd60e51b81526004016104ec90611ed8565b61082781858560200135610fa5565b604080516001600160a01b03838116825286166020808301919091528501358183015290517f70eb43c4a8ae8c40502dcf22436c509c28d6ff421cf07c491be56984bd9870689181900360600190a1505060200135919050565b6060603780546103c590611fc8565b609a546001600160a01b031633146108ba5760405162461bcd60e51b81526004016104ec90611f26565b6001600160a01b038116600090815260cc602052604090205460ff16156109235760405162461bcd60e51b815260206004820152601b60248201527f45524332303a204d696e74657220616c7265616479206164646564000000000060448201526064016104ec565b6001600160a01b0316600090815260cc60205260409020805460ff19166001179055565b3360009081526034602090815260408083206001600160a01b0386168452909152812054828110156109c95760405162461bcd60e51b815260206004820152602560248201527f45524332303a2064656372656173656420616c6c6f77616e63652062656c6f77604482015264207a65726f60d81b60648201526084016104ec565b6109d63385858403610e81565b5060019392505050565b600082816109ed84610c65565b6040516370a0823160e01b81526001600160a01b038083166004830152919250908316906370a082319060240160206040518083038186803b158015610a3257600080fd5b505afa158015610a46573d6000803e3d6000fd5b505050506040513d601f19601f82011682018060405250810190610a6a9190611e1c565b610a865760405162461bcd60e51b81526004016104ec90611ed8565b604051636eb1769f60e11b81526001600160a01b0382811660048301523060248301526000919084169063dd62ed3e9060440160206040518083038186803b158015610ad157600080fd5b505afa158015610ae5573d6000803e3d6000fd5b505050506040513d601f19601f82011682018060405250810190610b099190611e1c565b11610b695760405162461bcd60e51b815260206004820152602a60248201527f57425652533a20417072726f76616c206e6f742073657420666f7220576562616044820152690766572736545524332360b41b60648201526084016104ec565b6040516323b872dd60e01b81526001600160a01b0382811660048301528781166024830152602086013560448301528316906323b872dd90606401602060405180830381600087803b158015610bbe57600080fd5b505af1158015610bd2573d6000803e3d6000fd5b505050506040513d601f19601f82011682018060405250810190610bf69190611d37565b50604080516001600160a01b038381168252888116602080840191909152870135828401529151918716917f111ebfff7ae758e422941bfa7b90fc5ddafbb23589ebcdf6da904a05c3422ace9181900360600190a25050506020013592915050565b6000610455338484610fa5565b60008160600135421115610cbb5760405162461bcd60e51b815260206004820152601b60248201527f566f75636865722068617320616c72656164792065787069726564000000000060448201526064016104ec565b60408083013560009081526099602052205460ff1615610d135760405162461bcd60e51b8152602060048201526013602482015272496e76616c6964206e6f6e63652076616c756560681b60448201526064016104ec565b60408083013560009081526099602052908120805460ff19166001179055610d3a8361131c565b9392505050565b600054610100900460ff1680610d5a575060005460ff16155b610d765760405162461bcd60e51b81526004016104ec90611e8a565b600054610100900460ff16158015610d98576000805461ffff19166101011790555b610da0611375565b610daa84846113d5565b610db26106e1565b60cd82905533600090815260cc60205260409020805460ff191660011790558015610de3576000805461ff00191690555b50505050565b609a546001600160a01b03163314610e135760405162461bcd60e51b81526004016104ec90611f26565b6001600160a01b038116610e785760405162461bcd60e51b815260206004820152602660248201527f4f776e61626c653a206e6577206f776e657220697320746865207a65726f206160448201526564647265737360d01b60648201526084016104ec565b610796816112ca565b6001600160a01b038316610ee35760405162461bcd60e51b8152602060048201526024808201527f45524332303a20617070726f76652066726f6d20746865207a65726f206164646044820152637265737360e01b60648201526084016104ec565b6001600160a01b038216610f445760405162461bcd60e51b815260206004820152602260248201527f45524332303a20617070726f766520746f20746865207a65726f206164647265604482015261737360f01b60648201526084016104ec565b6001600160a01b0383811660008181526034602090815260408083209487168084529482529182902085905590518481527f8c5be1e5ebec7d5bd14f71427d1e84f3dd0314c0f7b2291e5b200ac8c7c3b925910160405180910390a3505050565b6001600160a01b0383166110095760405162461bcd60e51b815260206004820152602560248201527f45524332303a207472616e736665722066726f6d20746865207a65726f206164604482015264647265737360d81b60648201526084016104ec565b6001600160a01b03821661106b5760405162461bcd60e51b815260206004820152602360248201527f45524332303a207472616e7366657220746f20746865207a65726f206164647260448201526265737360e81b60648201526084016104ec565b6001600160a01b038316600090815260336020526040902054818110156110e35760405162461bcd60e51b815260206004820152602660248201527f45524332303a207472616e7366657220616d6f756e7420657863656564732062604482015265616c616e636560d01b60648201526084016104ec565b6001600160a01b0380851660009081526033602052604080822085850390559185168152908120805484929061111a908490611fa2565b92505081905550826001600160a01b0316846001600160a01b03167fddf252ad1be2c89b69c2b068fc378daa952ba7f163c4a11628f55a4df523b3ef8460405161116691815260200190565b60405180910390a3610de3565b6001600160a01b0382166111c95760405162461bcd60e51b815260206004820152601f60248201527f45524332303a206d696e7420746f20746865207a65726f20616464726573730060448201526064016104ec565b80603560008282546111db9190611fa2565b90915550506001600160a01b03821660009081526033602052604081208054839290611208908490611fa2565b90915550506040518181526001600160a01b038316906000907fddf252ad1be2c89b69c2b068fc378daa952ba7f163c4a11628f55a4df523b3ef9060200160405180910390a35050565b600054610100900460ff168061126b575060005460ff16155b6112875760405162461bcd60e51b81526004016104ec90611e8a565b600054610100900460ff161580156112a9576000805461ffff19166101011790555b6112b3838361143e565b80156112c5576000805461ff00191690555b505050565b609a80546001600160a01b038381166001600160a01b0319831681179093556040519116919082907f8be0079c531659141344cd1fd0a4f28419497f9722a3daafe3b4186f6b6457e090600090a35050565b600080611328836114c8565b9050610d3a8161133b6080860186611f5b565b8080601f01602080910402602001604051908101604052809392919081815260200183838082843760009201919091525061154592505050565b600054610100900460ff168061138e575060005460ff16155b6113aa5760405162461bcd60e51b81526004016104ec90611e8a565b600054610100900460ff161580156113cc576000805461ffff19166101011790555b610784336112ca565b600054610100900460ff16806113ee575060005460ff16155b61140a5760405162461bcd60e51b81526004016104ec90611e8a565b600054610100900460ff1615801561142c576000805461ffff19166101011790555b611434611569565b6112b383836115d3565b600054610100900460ff1680611457575060005460ff16155b6114735760405162461bcd60e51b81526004016104ec90611e8a565b600054610100900460ff16158015611495576000805461ffff19166101011790555b825160208085019190912083519184019190912060659190915560665580156112c5576000805461ff0019169055505050565b604080517f9351747b1e9d1d5ecc2259decffb60239f521e243e85645e0762ed1d775876776020828101919091528335828401528301356060828101919091529183013560808201529082013560a082015260009061153f9060c00160405160208183030381529060405280519060200120611668565b92915050565b600080600061155485856116b6565b9150915061156181611726565b509392505050565b600054610100900460ff1680611582575060005460ff16155b61159e5760405162461bcd60e51b81526004016104ec90611e8a565b600054610100900460ff16158015610784576000805461ffff19166101011790558015610796576000805461ff001916905550565b600054610100900460ff16806115ec575060005460ff16155b6116085760405162461bcd60e51b81526004016104ec90611e8a565b600054610100900460ff1615801561162a576000805461ffff19166101011790555b825161163d906036906020860190611a7d565b508151611651906037906020850190611a7d565b5080156112c5576000805461ff0019169055505050565b600061153f6116756118e1565b8360405161190160f01b6020820152602281018390526042810182905260009060620160405160208183030381529060405280519060200120905092915050565b6000808251604114156116ed5760208301516040840151606085015160001a6116e187828585611961565b9450945050505061171f565b825160401415611717576020830151604084015161170c868383611a4e565b93509350505061171f565b506000905060025b9250929050565b600081600481111561173a5761173a611ffd565b14156117435750565b600181600481111561175757611757611ffd565b14156117a55760405162461bcd60e51b815260206004820152601860248201527f45434453413a20696e76616c6964207369676e6174757265000000000000000060448201526064016104ec565b60028160048111156117b9576117b9611ffd565b14156118075760405162461bcd60e51b815260206004820152601f60248201527f45434453413a20696e76616c6964207369676e6174757265206c656e6774680060448201526064016104ec565b600381600481111561181b5761181b611ffd565b14156118745760405162461bcd60e51b815260206004820152602260248201527f45434453413a20696e76616c6964207369676e6174757265202773272076616c604482015261756560f01b60648201526084016104ec565b600481600481111561188857611888611ffd565b14156107965760405162461bcd60e51b815260206004820152602260248201527f45434453413a20696e76616c6964207369676e6174757265202776272076616c604482015261756560f01b60648201526084016104ec565b600061195c7f8b73c3c69bb8fe3d512ecc4cf759cc79239f7b179b0ffacaa9a75d522b39400f61191060655490565b6066546040805160208101859052908101839052606081018290524660808201523060a082015260009060c0016040516020818303038152906040528051906020012090509392505050565b905090565b6000807f7fffffffffffffffffffffffffffffff5d576e7357a4501ddfe92f46681b20a08311156119985750600090506003611a45565b8460ff16601b141580156119b057508460ff16601c14155b156119c15750600090506004611a45565b6040805160008082526020820180845289905260ff881692820192909252606081018690526080810185905260019060a0016020604051602081039080840390855afa158015611a15573d6000803e3d6000fd5b5050604051601f1901519150506001600160a01b038116611a3e57600060019250925050611a45565b9150600090505b94509492505050565b6000806001600160ff1b03831660ff84901c601b01611a6f87828885611961565b935093505050935093915050565b828054611a8990611fc8565b90600052602060002090601f016020900481019282611aab5760008555611af1565b82601f10611ac457805160ff1916838001178555611af1565b82800160010185558215611af1579182015b82811115611af1578251825591602001919060010190611ad6565b50611afd929150611b01565b5090565b5b80821115611afd5760008155600101611b02565b80356001600160a01b0381168114611b2d57600080fd5b919050565b600082601f830112611b4357600080fd5b813567ffffffffffffffff80821115611b5e57611b5e612013565b604051601f8301601f19908116603f01168101908282118183101715611b8657611b86612013565b81604052838152866020858801011115611b9f57600080fd5b836020870160208301376000602085830101528094505050505092915050565b600060a08284031215611bd157600080fd5b50919050565b600060208284031215611be957600080fd5b610d3a82611b16565b60008060408385031215611c0557600080fd5b611c0e83611b16565b9150611c1c60208401611b16565b90509250929050565b600080600060608486031215611c3a57600080fd5b611c4384611b16565b9250611c5160208501611b16565b9150604084013567ffffffffffffffff811115611c6d57600080fd5b611c7986828701611bbf565b9150509250925092565b600080600060608486031215611c9857600080fd5b611ca184611b16565b9250611caf60208501611b16565b9150604084013590509250925092565b60008060408385031215611cd257600080fd5b611cdb83611b16565b9150602083013567ffffffffffffffff811115611cf757600080fd5b611d0385828601611bbf565b9150509250929050565b60008060408385031215611d2057600080fd5b611d2983611b16565b946020939093013593505050565b600060208284031215611d4957600080fd5b81518015158114610d3a57600080fd5b600080600060608486031215611d6e57600080fd5b833567ffffffffffffffff80821115611d8657600080fd5b611d9287838801611b32565b94506020860135915080821115611da857600080fd5b50611db586828701611b32565b925050604084013590509250925092565b600060208284031215611dd857600080fd5b813567ffffffffffffffff811115611def57600080fd5b611dfb84828501611bbf565b949350505050565b600060208284031215611e1557600080fd5b5035919050565b600060208284031215611e2e57600080fd5b5051919050565b600060208083528351808285015260005b81811015611e6257858101830151858201604001528201611e46565b81811115611e74576000604083870101525b50601f01601f1916929092016040019392505050565b6020808252602e908201527f496e697469616c697a61626c653a20636f6e747261637420697320616c72656160408201526d191e481a5b9a5d1a585b1a5e995960921b606082015260800190565b6020808252602e908201527f57425652533a20417574686f72697a6174696f6e206661696c65643a20496e7660408201526d616c6964207369676e617475726560901b606082015260800190565b6020808252818101527f4f776e61626c653a2063616c6c6572206973206e6f7420746865206f776e6572604082015260600190565b6000808335601e19843603018112611f7257600080fd5b83018035915067ffffffffffffffff821115611f8d57600080fd5b60200191503681900382131561171f57600080fd5b60008219821115611fc357634e487b7160e01b600052601160045260246000fd5b500190565b600181811c90821680611fdc57607f821691505b60208210811415611bd157634e487b7160e01b600052602260045260246000fd5b634e487b7160e01b600052602160045260246000fd5b634e487b7160e01b600052604160045260246000fdfea264697066735822122067ad0363123806063f1bcec8e15f5a9658d43d6c32e078f1205c2a10fd107b3864736f6c63430008070033",
  "immutableReferences": {},
  "source": "// SPDX-License-Identifier: MIT\n\npragma solidity ^0.8.7;\n\nimport \"@openzeppelin/contracts-upgradeable/token/ERC20/ERC20Upgradeable.sol\";\nimport \"@openzeppelin/contracts-upgradeable/access/OwnableUpgradeable.sol\";\nimport \"../utils/WebaverseVoucher.sol\";\n\ncontract WebaverseERC20 is\n    ERC20Upgradeable,\n    WebaverseVoucher,\n    OwnableUpgradeable\n{\n    // Mapping of addresses that are allowed to mint tokens\n    mapping(address => bool) private _whitelistedMinters;\n\n    // Max supply of tokens\n    uint256 private _maxSupply;\n\n    // Event occuring when a token is redeemed by a user in the webaverse world for the native smart contract\n    event Claim(address signer, address claimer, uint256 balance);\n\n    // Event occuring when a token is redeemed by a user in the webaverse world for the external smart contract\n    event ExternalClaim(\n        address indexed externalContract,\n        address signer,\n        address claimer,\n        uint256 balance\n    );\n\n    modifier onlyMinter() {\n        require(\n            isAllowedMinter(_msgSender()),\n            \"ERC20: Only white listed minters are allowed to mint\"\n        );\n        _;\n    }\n\n    /**\n     * @dev Create a new fungible token\n     * @param name Name of the token\n     * @param symbol Token identifier\n     * @param maxSupply_ Sets the token market cap. This value is immutable, it can only be\n     * set once during construction.\n     * Default cap: 2147483648000000000000000000 or (2**31) + '000000000000000000'\n     */\n    function initialize(\n        string memory name,\n        string memory symbol,\n        uint256 maxSupply_\n    ) public initializer {\n        __Ownable_init_unchained();\n        __ERC20_init(name, symbol);\n        _webaverse_voucher_init();\n        _maxSupply = maxSupply_;\n        _whitelistedMinters[msg.sender] = true;\n    }\n\n    /**\n     * @return Maximum number of tokens that can be minted\n     */\n    function maxSupply() public view returns (uint256) {\n        return _maxSupply;\n    }\n\n    /**\n     * @dev Mint ERC20 tokens\n     * @param to Tokens created for this account\n     * @param amount Number of tokens to mint for this call\n     */\n    function mint(address to, uint256 amount) public onlyMinter {\n        require(\n            totalSupply() + amount <= maxSupply(),\n            \"ERC20: Max supply reached\"\n        );\n        _mint(to, amount);\n    }\n\n    /**\n     * @dev Checks if an address is allowed to mint ERC20 tokens\n     * @param account address to check for the white listing for\n     * @return true if address is allowed to mint\n     */\n    function isAllowedMinter(address account) public view returns (bool) {\n        return _whitelistedMinters[account];\n    }\n\n    /**\n     * @dev Add an account to the list of accounts allowed to create ERC20 tokens\n     * @param minter address to whitelist\n     */\n    function addMinter(address minter) public onlyOwner {\n        require(!isAllowedMinter(minter), \"ERC20: Minter already added\");\n        _whitelistedMinters[minter] = true;\n    }\n\n    /**\n     * @dev Remove an account from the list of accounts allowed to create ERC20 tokens\n     * @param minter address to remove from whitelist\n     */\n    function removeMinter(address minter) public onlyOwner {\n        require(isAllowedMinter(minter), \"ERC20: Minter does not exist\");\n        _whitelistedMinters[minter] = false;\n    }\n\n    /**\n     * @notice Redeems an NFTVoucher for an actual NFT, authorized by the owner.\n     * @param claimer The address of the account which will receive the NFT upon success.\n     * @param voucher A signed NFTVoucher that describes the NFT to be redeemed.\n     * @dev Verification through ECDSA signature of 'typed' data.\n     * @dev Voucher must contain valid signature, nonce, and expiry.\n     */\n    function claim(address claimer, NFTVoucher calldata voucher)\n        public\n        virtual\n        returns (uint256)\n    {\n        // make sure signature is valid and get the address of the signer\n        address signer = verifyVoucher(voucher);\n\n        require(\n            balanceOf(signer) != 0,\n            \"WBVRS: Authorization failed: Invalid signature\"\n        );\n\n        // transfer the token to the claimer\n        _transfer(signer, claimer, voucher.balance);\n        emit Claim(signer, claimer, voucher.balance);\n        return voucher.balance;\n    }\n\n    /**\n     * @notice Redeems an Voucher for actual ERC20 tokens, authorized by the owner from an external contract.\n     * @param claimer The address of the account which will receive the balance upon success.\n     * @param contractAddress The address of the contract from which the token is being transferred\n     * @param voucher A signed Voucher that describes the ERC20 tokens to be redeemed.\n     * @dev Verification through ECDSA signature of 'typed' data.\n     * @dev Voucher must contain valid signature, nonce, and expiry.\n     */\n    function externalClaim(\n        address claimer,\n        address contractAddress,\n        NFTVoucher calldata voucher\n    ) public returns (uint256) {\n        IERC20Upgradeable externalContract = IERC20Upgradeable(contractAddress);\n        // make sure signature is valid and get the address of the signer\n        address signer = verifyVoucher(voucher);\n\n        require(\n            externalContract.balanceOf(signer) != 0,\n            \"WBVRS: Authorization failed: Invalid signature\"\n        );\n        require(\n            externalContract.allowance(signer, address(this)) > 0,\n            \"WBVRS: Aprroval not set for WebaverseERC20\"\n        );\n\n        // transfer the token to the claimer\n        externalContract.transferFrom(signer, claimer, voucher.balance);\n        emit ExternalClaim(contractAddress, signer, claimer, voucher.balance);\n        return voucher.balance;\n    }\n}\n",
  "sourcePath": "/home/mohsin/Desktop/sidechain/contracts/main/WebaverseERC20.sol",
  "compiler": {
    "name": "solc",
    "version": "0.8.7+commit.e28d00a7.Emscripten.clang"
  },
  "schemaVersion": "3.4.3",
  "updatedAt": "2022-01-25T23:47:22.184Z",
  "devdoc": {
    "kind": "dev",
    "methods": {
      "addMinter(address)": {
        "details": "Add an account to the list of accounts allowed to create ERC20 tokens",
        "params": {
          "minter": "address to whitelist"
        }
      },
      "allowance(address,address)": {
        "details": "See {IERC20-allowance}."
      },
      "approve(address,uint256)": {
        "details": "See {IERC20-approve}. Requirements: - `spender` cannot be the zero address."
      },
      "balanceOf(address)": {
        "details": "See {IERC20-balanceOf}."
      },
      "claim(address,(uint256,uint256,uint256,uint256,bytes))": {
        "details": "Verification through ECDSA signature of 'typed' data.Voucher must contain valid signature, nonce, and expiry.",
        "params": {
          "claimer": "The address of the account which will receive the NFT upon success.",
          "voucher": "A signed NFTVoucher that describes the NFT to be redeemed."
        }
      },
      "decimals()": {
        "details": "Returns the number of decimals used to get its user representation. For example, if `decimals` equals `2`, a balance of `505` tokens should be displayed to a user as `5.05` (`505 / 10 ** 2`). Tokens usually opt for a value of 18, imitating the relationship between Ether and Wei. This is the value {ERC20} uses, unless this function is overridden; NOTE: This information is only used for _display_ purposes: it in no way affects any of the arithmetic of the contract, including {IERC20-balanceOf} and {IERC20-transfer}."
      },
      "decreaseAllowance(address,uint256)": {
        "details": "Atomically decreases the allowance granted to `spender` by the caller. This is an alternative to {approve} that can be used as a mitigation for problems described in {IERC20-approve}. Emits an {Approval} event indicating the updated allowance. Requirements: - `spender` cannot be the zero address. - `spender` must have allowance for the caller of at least `subtractedValue`."
      },
      "externalClaim(address,address,(uint256,uint256,uint256,uint256,bytes))": {
        "details": "Verification through ECDSA signature of 'typed' data.Voucher must contain valid signature, nonce, and expiry.",
        "params": {
          "claimer": "The address of the account which will receive the balance upon success.",
          "contractAddress": "The address of the contract from which the token is being transferred",
          "voucher": "A signed Voucher that describes the ERC20 tokens to be redeemed."
        }
      },
      "increaseAllowance(address,uint256)": {
        "details": "Atomically increases the allowance granted to `spender` by the caller. This is an alternative to {approve} that can be used as a mitigation for problems described in {IERC20-approve}. Emits an {Approval} event indicating the updated allowance. Requirements: - `spender` cannot be the zero address."
      },
      "initialize(string,string,uint256)": {
        "details": "Create a new fungible token",
        "params": {
          "maxSupply_": "Sets the token market cap. This value is immutable, it can only be set once during construction. Default cap: 2147483648000000000000000000 or (2**31) + '000000000000000000'",
          "name": "Name of the token",
          "symbol": "Token identifier"
        }
      },
      "isAllowedMinter(address)": {
        "details": "Checks if an address is allowed to mint ERC20 tokens",
        "params": {
          "account": "address to check for the white listing for"
        },
        "returns": {
          "_0": "true if address is allowed to mint"
        }
      },
      "maxSupply()": {
        "returns": {
          "_0": "Maximum number of tokens that can be minted"
        }
      },
      "mint(address,uint256)": {
        "details": "Mint ERC20 tokens",
        "params": {
          "amount": "Number of tokens to mint for this call",
          "to": "Tokens created for this account"
        }
      },
      "name()": {
        "details": "Returns the name of the token."
      },
      "owner()": {
        "details": "Returns the address of the current owner."
      },
      "removeMinter(address)": {
        "details": "Remove an account from the list of accounts allowed to create ERC20 tokens",
        "params": {
          "minter": "address to remove from whitelist"
        }
      },
      "renounceOwnership()": {
        "details": "Leaves the contract without owner. It will not be possible to call `onlyOwner` functions anymore. Can only be called by the current owner. NOTE: Renouncing ownership will leave the contract without an owner, thereby removing any functionality that is only available to the owner."
      },
      "symbol()": {
        "details": "Returns the symbol of the token, usually a shorter version of the name."
      },
      "totalSupply()": {
        "details": "See {IERC20-totalSupply}."
      },
      "transfer(address,uint256)": {
        "details": "See {IERC20-transfer}. Requirements: - `recipient` cannot be the zero address. - the caller must have a balance of at least `amount`."
      },
      "transferFrom(address,address,uint256)": {
        "details": "See {IERC20-transferFrom}. Emits an {Approval} event indicating the updated allowance. This is not required by the EIP. See the note at the beginning of {ERC20}. Requirements: - `sender` and `recipient` cannot be the zero address. - `sender` must have a balance of at least `amount`. - the caller must have allowance for ``sender``'s tokens of at least `amount`."
      },
      "transferOwnership(address)": {
        "details": "Transfers ownership of the contract to a new account (`newOwner`). Can only be called by the current owner."
      },
      "verifyVoucher((uint256,uint256,uint256,uint256,bytes))": {
        "details": "Verification through ECDSA signature of 'typed' data.Voucher must contain valid signature, nonce, and expiry.*",
        "params": {
          "voucher": "A signed NFTVoucher that describes the NFT to be redeemed."
        }
      }
    },
    "version": 1
  },
  "userdoc": {
    "kind": "user",
    "methods": {
      "claim(address,(uint256,uint256,uint256,uint256,bytes))": {
        "notice": "Redeems an NFTVoucher for an actual NFT, authorized by the owner."
      },
      "externalClaim(address,address,(uint256,uint256,uint256,uint256,bytes))": {
        "notice": "Redeems an Voucher for actual ERC20 tokens, authorized by the owner from an external contract."
      },
      "verifyVoucher((uint256,uint256,uint256,uint256,bytes))": {
        "notice": "Verifies an NFTVoucher for an actual NFT, authorized by the owner."
      }
    },
    "version": 1
  }
}