{
  "contractName": "WebaverseERC1155",
  "abi": [
    {
      "anonymous": false,
      "inputs": [
        {
          "indexed": true,
          "internalType": "address",
          "name": "account",
          "type": "address"
        },
        {
          "indexed": true,
          "internalType": "address",
          "name": "operator",
          "type": "address"
        },
        {
          "indexed": false,
          "internalType": "bool",
          "name": "approved",
          "type": "bool"
        }
      ],
      "name": "ApprovalForAll",
      "type": "event"
    },
    {
      "anonymous": false,
      "inputs": [
        {
          "indexed": false,
          "internalType": "uint256",
          "name": "tokenId",
          "type": "uint256"
        },
        {
          "indexed": false,
          "internalType": "string",
          "name": "trait_type",
          "type": "string"
        },
        {
          "indexed": false,
          "internalType": "string",
          "name": "value",
          "type": "string"
        },
        {
          "indexed": false,
          "internalType": "string",
          "name": "display_type",
          "type": "string"
        }
      ],
      "name": "AttributeSet",
      "type": "event"
    },
    {
      "anonymous": false,
      "inputs": [
        {
          "indexed": false,
          "internalType": "address",
          "name": "signer",
          "type": "address"
        },
        {
          "indexed": false,
          "internalType": "address",
          "name": "claimer",
          "type": "address"
        },
        {
          "indexed": true,
          "internalType": "uint256",
          "name": "id",
          "type": "uint256"
        }
      ],
      "name": "Claim",
      "type": "event"
    },
    {
      "anonymous": false,
      "inputs": [
        {
          "indexed": true,
          "internalType": "address",
          "name": "externalContract",
          "type": "address"
        },
        {
          "indexed": false,
          "internalType": "address",
          "name": "signer",
          "type": "address"
        },
        {
          "indexed": false,
          "internalType": "address",
          "name": "claimer",
          "type": "address"
        },
        {
          "indexed": true,
          "internalType": "uint256",
          "name": "id",
          "type": "uint256"
        }
      ],
      "name": "ExternalClaim",
      "type": "event"
    },
    {
      "anonymous": false,
      "inputs": [
        {
          "indexed": true,
          "internalType": "address",
          "name": "previousOwner",
          "type": "address"
        },
        {
          "indexed": true,
          "internalType": "address",
          "name": "newOwner",
          "type": "address"
        }
      ],
      "name": "OwnershipTransferred",
      "type": "event"
    },
    {
      "anonymous": false,
      "inputs": [
        {
          "indexed": true,
          "internalType": "address",
          "name": "operator",
          "type": "address"
        },
        {
          "indexed": true,
          "internalType": "address",
          "name": "from",
          "type": "address"
        },
        {
          "indexed": true,
          "internalType": "address",
          "name": "to",
          "type": "address"
        },
        {
          "indexed": false,
          "internalType": "uint256[]",
          "name": "ids",
          "type": "uint256[]"
        },
        {
          "indexed": false,
          "internalType": "uint256[]",
          "name": "values",
          "type": "uint256[]"
        }
      ],
      "name": "TransferBatch",
      "type": "event"
    },
    {
      "anonymous": false,
      "inputs": [
        {
          "indexed": true,
          "internalType": "address",
          "name": "operator",
          "type": "address"
        },
        {
          "indexed": true,
          "internalType": "address",
          "name": "from",
          "type": "address"
        },
        {
          "indexed": true,
          "internalType": "address",
          "name": "to",
          "type": "address"
        },
        {
          "indexed": false,
          "internalType": "uint256",
          "name": "id",
          "type": "uint256"
        },
        {
          "indexed": false,
          "internalType": "uint256",
          "name": "value",
          "type": "uint256"
        }
      ],
      "name": "TransferSingle",
      "type": "event"
    },
    {
      "anonymous": false,
      "inputs": [
        {
          "indexed": false,
          "internalType": "string",
          "name": "value",
          "type": "string"
        },
        {
          "indexed": true,
          "internalType": "uint256",
          "name": "id",
          "type": "uint256"
        }
      ],
      "name": "URI",
      "type": "event"
    },
    {
      "inputs": [],
      "name": "_webaverse_voucher_init",
      "outputs": [],
      "stateMutability": "nonpayable",
      "type": "function"
    },
    {
      "inputs": [
        {
          "internalType": "address",
          "name": "account",
          "type": "address"
        },
        {
          "internalType": "uint256",
          "name": "id",
          "type": "uint256"
        }
      ],
      "name": "balanceOf",
      "outputs": [
        {
          "internalType": "uint256",
          "name": "",
          "type": "uint256"
        }
      ],
      "stateMutability": "view",
      "type": "function"
    },
    {
      "inputs": [
        {
          "internalType": "address[]",
          "name": "accounts",
          "type": "address[]"
        },
        {
          "internalType": "uint256[]",
          "name": "ids",
          "type": "uint256[]"
        }
      ],
      "name": "balanceOfBatch",
      "outputs": [
        {
          "internalType": "uint256[]",
          "name": "",
          "type": "uint256[]"
        }
      ],
      "stateMutability": "view",
      "type": "function"
    },
    {
      "inputs": [
        {
          "internalType": "uint256",
          "name": "",
          "type": "uint256"
        }
      ],
      "name": "burnedNonces",
      "outputs": [
        {
          "internalType": "bool",
          "name": "",
          "type": "bool"
        }
      ],
      "stateMutability": "view",
      "type": "function"
    },
    {
      "inputs": [],
      "name": "currentTokenId",
      "outputs": [
        {
          "internalType": "uint256",
          "name": "",
          "type": "uint256"
        }
      ],
      "stateMutability": "view",
      "type": "function"
    },
    {
      "inputs": [
        {
          "internalType": "address",
          "name": "account",
          "type": "address"
        },
        {
          "internalType": "address",
          "name": "operator",
          "type": "address"
        }
      ],
      "name": "isApprovedForAll",
      "outputs": [
        {
          "internalType": "bool",
          "name": "",
          "type": "bool"
        }
      ],
      "stateMutability": "view",
      "type": "function"
    },
    {
      "inputs": [],
      "name": "owner",
      "outputs": [
        {
          "internalType": "address",
          "name": "",
          "type": "address"
        }
      ],
      "stateMutability": "view",
      "type": "function"
    },
    {
      "inputs": [],
      "name": "renounceOwnership",
      "outputs": [],
      "stateMutability": "nonpayable",
      "type": "function"
    },
    {
      "inputs": [
        {
          "internalType": "address",
          "name": "from",
          "type": "address"
        },
        {
          "internalType": "address",
          "name": "to",
          "type": "address"
        },
        {
          "internalType": "uint256[]",
          "name": "ids",
          "type": "uint256[]"
        },
        {
          "internalType": "uint256[]",
          "name": "amounts",
          "type": "uint256[]"
        },
        {
          "internalType": "bytes",
          "name": "data",
          "type": "bytes"
        }
      ],
      "name": "safeBatchTransferFrom",
      "outputs": [],
      "stateMutability": "nonpayable",
      "type": "function"
    },
    {
      "inputs": [
        {
          "internalType": "address",
          "name": "from",
          "type": "address"
        },
        {
          "internalType": "address",
          "name": "to",
          "type": "address"
        },
        {
          "internalType": "uint256",
          "name": "id",
          "type": "uint256"
        },
        {
          "internalType": "uint256",
          "name": "amount",
          "type": "uint256"
        },
        {
          "internalType": "bytes",
          "name": "data",
          "type": "bytes"
        }
      ],
      "name": "safeTransferFrom",
      "outputs": [],
      "stateMutability": "nonpayable",
      "type": "function"
    },
    {
      "inputs": [
        {
          "internalType": "address",
          "name": "operator",
          "type": "address"
        },
        {
          "internalType": "bool",
          "name": "approved",
          "type": "bool"
        }
      ],
      "name": "setApprovalForAll",
      "outputs": [],
      "stateMutability": "nonpayable",
      "type": "function"
    },
    {
      "inputs": [
        {
          "internalType": "address",
          "name": "newOwner",
          "type": "address"
        }
      ],
      "name": "transferOwnership",
      "outputs": [],
      "stateMutability": "nonpayable",
      "type": "function"
    },
    {
      "inputs": [
        {
          "components": [
            {
              "internalType": "uint256",
              "name": "tokenId",
              "type": "uint256"
            },
            {
              "internalType": "uint256",
              "name": "balance",
              "type": "uint256"
            },
            {
              "internalType": "uint256",
              "name": "nonce",
              "type": "uint256"
            },
            {
              "internalType": "uint256",
              "name": "expiry",
              "type": "uint256"
            },
            {
              "internalType": "bytes",
              "name": "signature",
              "type": "bytes"
            }
          ],
          "internalType": "struct WebaverseVoucher.NFTVoucher",
          "name": "voucher",
          "type": "tuple"
        }
      ],
      "name": "verifyVoucher",
      "outputs": [
        {
          "internalType": "address",
          "name": "",
          "type": "address"
        }
      ],
      "stateMutability": "nonpayable",
      "type": "function"
    },
    {
      "inputs": [
        {
          "internalType": "string",
          "name": "name_",
          "type": "string"
        },
        {
          "internalType": "string",
          "name": "symbol_",
          "type": "string"
        },
        {
          "internalType": "string",
          "name": "baseURI_",
          "type": "string"
        },
        {
          "internalType": "address",
          "name": "minter",
          "type": "address"
        }
      ],
      "name": "initialize",
      "outputs": [],
      "stateMutability": "nonpayable",
      "type": "function"
    },
    {
      "inputs": [],
      "name": "name",
      "outputs": [
        {
          "internalType": "string",
          "name": "",
          "type": "string"
        }
      ],
      "stateMutability": "view",
      "type": "function"
    },
    {
      "inputs": [],
      "name": "symbol",
      "outputs": [
        {
          "internalType": "string",
          "name": "",
          "type": "string"
        }
      ],
      "stateMutability": "view",
      "type": "function"
    },
    {
      "inputs": [],
      "name": "baseURI",
      "outputs": [
        {
          "internalType": "string",
          "name": "",
          "type": "string"
        }
      ],
      "stateMutability": "view",
      "type": "function"
    },
    {
      "inputs": [
        {
          "internalType": "string",
          "name": "baseURI_",
          "type": "string"
        }
      ],
      "name": "setBaseURI",
      "outputs": [],
      "stateMutability": "nonpayable",
      "type": "function"
    },
    {
      "inputs": [
        {
          "internalType": "uint256",
          "name": "tokenId",
          "type": "uint256"
        }
      ],
      "name": "getTokenBalance",
      "outputs": [
        {
          "internalType": "uint256",
          "name": "",
          "type": "uint256"
        }
      ],
      "stateMutability": "view",
      "type": "function"
    },
    {
      "inputs": [
        {
          "internalType": "uint256",
          "name": "_id",
          "type": "uint256"
        }
      ],
      "name": "uri",
      "outputs": [
        {
          "internalType": "string",
          "name": "",
          "type": "string"
        }
      ],
      "stateMutability": "view",
      "type": "function"
    },
    {
      "inputs": [
        {
          "internalType": "uint256",
          "name": "tokenId",
          "type": "uint256"
        },
        {
          "internalType": "string",
          "name": "_uri",
          "type": "string"
        }
      ],
      "name": "setTokenURI",
      "outputs": [],
      "stateMutability": "nonpayable",
      "type": "function"
    },
    {
      "inputs": [
        {
          "internalType": "address",
          "name": "to",
          "type": "address"
        },
        {
          "internalType": "uint256",
          "name": "balance",
          "type": "uint256"
        },
        {
          "internalType": "string",
          "name": "_uri",
          "type": "string"
        },
        {
          "internalType": "bytes",
          "name": "data",
          "type": "bytes"
        }
      ],
      "name": "mint",
      "outputs": [],
      "stateMutability": "nonpayable",
      "type": "function"
    },
    {
      "inputs": [
        {
          "internalType": "address",
          "name": "to",
          "type": "address"
        },
        {
          "internalType": "string[]",
          "name": "uris",
          "type": "string[]"
        },
        {
          "internalType": "uint256[]",
          "name": "balances",
          "type": "uint256[]"
        },
        {
          "internalType": "bytes",
          "name": "data",
          "type": "bytes"
        }
      ],
      "name": "mintBatch",
      "outputs": [],
      "stateMutability": "nonpayable",
      "type": "function"
    },
    {
      "inputs": [
        {
          "internalType": "uint256",
          "name": "tokenId",
          "type": "uint256"
        },
        {
          "internalType": "string",
          "name": "trait_type",
          "type": "string"
        }
      ],
      "name": "getAttribute",
      "outputs": [
        {
          "internalType": "string",
          "name": "",
          "type": "string"
        }
      ],
      "stateMutability": "view",
      "type": "function"
    },
    {
      "inputs": [
        {
          "internalType": "uint256",
          "name": "tokenId",
          "type": "uint256"
        },
        {
          "internalType": "string",
          "name": "trait_type",
          "type": "string"
        },
        {
          "internalType": "string",
          "name": "value",
          "type": "string"
        },
        {
          "internalType": "string",
          "name": "display_type",
          "type": "string"
        }
      ],
      "name": "setAttribute",
      "outputs": [],
      "stateMutability": "nonpayable",
      "type": "function"
    },
    {
      "inputs": [
        {
          "internalType": "address",
          "name": "claimer",
          "type": "address"
        },
        {
          "components": [
            {
              "internalType": "uint256",
              "name": "tokenId",
              "type": "uint256"
            },
            {
              "internalType": "uint256",
              "name": "balance",
              "type": "uint256"
            },
            {
              "internalType": "uint256",
              "name": "nonce",
              "type": "uint256"
            },
            {
              "internalType": "uint256",
              "name": "expiry",
              "type": "uint256"
            },
            {
              "internalType": "bytes",
              "name": "signature",
              "type": "bytes"
            }
          ],
          "internalType": "struct WebaverseVoucher.NFTVoucher",
          "name": "voucher",
          "type": "tuple"
        }
      ],
      "name": "claim",
      "outputs": [
        {
          "internalType": "uint256",
          "name": "",
          "type": "uint256"
        }
      ],
      "stateMutability": "nonpayable",
      "type": "function"
    },
    {
      "inputs": [
        {
          "internalType": "address",
          "name": "claimer",
          "type": "address"
        },
        {
          "internalType": "address",
          "name": "contractAddress",
          "type": "address"
        },
        {
          "components": [
            {
              "internalType": "uint256",
              "name": "tokenId",
              "type": "uint256"
            },
            {
              "internalType": "uint256",
              "name": "balance",
              "type": "uint256"
            },
            {
              "internalType": "uint256",
              "name": "nonce",
              "type": "uint256"
            },
            {
              "internalType": "uint256",
              "name": "expiry",
              "type": "uint256"
            },
            {
              "internalType": "bytes",
              "name": "signature",
              "type": "bytes"
            }
          ],
          "internalType": "struct WebaverseVoucher.NFTVoucher",
          "name": "voucher",
          "type": "tuple"
        }
      ],
      "name": "externalClaim",
      "outputs": [
        {
          "internalType": "uint256",
          "name": "",
          "type": "uint256"
        }
      ],
      "stateMutability": "nonpayable",
      "type": "function"
    },
    {
      "inputs": [
        {
          "internalType": "address",
          "name": "to",
          "type": "address"
        },
        {
          "internalType": "uint256",
          "name": "id",
          "type": "uint256"
        },
        {
          "internalType": "uint256",
          "name": "amount",
          "type": "uint256"
        },
        {
          "internalType": "bytes",
          "name": "data",
          "type": "bytes"
        }
      ],
      "name": "safeTransfer",
      "outputs": [],
      "stateMutability": "nonpayable",
      "type": "function"
    },
    {
      "inputs": [
        {
          "internalType": "address",
          "name": "account",
          "type": "address"
        }
      ],
      "name": "isAllowedMinter",
      "outputs": [
        {
          "internalType": "bool",
          "name": "",
          "type": "bool"
        }
      ],
      "stateMutability": "view",
      "type": "function"
    },
    {
      "inputs": [
        {
          "internalType": "address",
          "name": "minter",
          "type": "address"
        }
      ],
      "name": "addMinter",
      "outputs": [],
      "stateMutability": "nonpayable",
      "type": "function"
    },
    {
      "inputs": [
        {
          "internalType": "address",
          "name": "minter",
          "type": "address"
        }
      ],
      "name": "removeMinter",
      "outputs": [],
      "stateMutability": "nonpayable",
      "type": "function"
    },
    {
      "inputs": [],
      "name": "getNextTokenId",
      "outputs": [
        {
          "internalType": "uint256",
          "name": "",
          "type": "uint256"
        }
      ],
      "stateMutability": "view",
      "type": "function"
    },
    {
      "inputs": [],
      "name": "getChainID",
      "outputs": [
        {
          "internalType": "uint256",
          "name": "",
          "type": "uint256"
        }
      ],
      "stateMutability": "view",
      "type": "function"
    },
    {
      "inputs": [
        {
          "internalType": "bytes4",
          "name": "interfaceId",
          "type": "bytes4"
        }
      ],
      "name": "supportsInterface",
      "outputs": [
        {
          "internalType": "bool",
          "name": "",
          "type": "bool"
        }
      ],
      "stateMutability": "view",
      "type": "function"
    }
  ],
  "bytecode": "0x608060405234801561001057600080fd5b50613e42806100206000396000f3fe608060405234801561001057600080fd5b50600436106102045760003560e01c8063715018a61161011a578063a8689ce2116100ad578063d2b04fd61161007c578063d2b04fd614610447578063e985e9c51461045a578063eaf1c6d314610496578063f242432a146104a9578063f2fde38b146104bc57600080fd5b8063a8689ce214610406578063ad637e6714610419578063ae28b68c1461042c578063caa0f92a1461043f57600080fd5b80639468f2ca116100e95780639468f2ca146103c557806395d89b41146103d8578063983b2d56146103e0578063a22cb465146103f357600080fd5b8063715018a6146103545780637e2499cc1461035c5780638da5cb5b1461037f5780639105d748146103a457600080fd5b80632eb2c2d61161019d5780634e1273f41161016c5780634e1273f41461030057806355f804b314610320578063564b81ef146103335780635c6d8da1146103395780636c0360eb1461034c57600080fd5b80632eb2c2d6146102bf5780633092afd5146102d2578063428a328b146102e55780634355e53b146102f857600080fd5b80630dc57598116101d95780630dc57598146102715780630e89341c14610286578063162094c4146102995780631f3b4c90146102ac57600080fd5b80629a9b7b14610209578062fdd58e1461022657806301ffc9a71461023957806306fdde031461025c575b600080fd5b6102136101045481565b6040519081526020015b60405180910390f35b6102136102343660046130f7565b6104cf565b61024c6102473660046132c9565b61056b565b604051901515815260200161021d565b610264610576565b60405161021d91906138f1565b61028461027f366004613479565b610608565b005b61026461029436600461340b565b6109ae565b6102846102a736600461343d565b610cc7565b61024c6102ba366004612da1565b610d62565b6102846102cd366004612def565b610d81565b6102846102e0366004612da1565b610e18565b6102846102f3366004612f59565b610eb9565b610284611021565b61031361030e3660046131e6565b6110d9565b60405161021d91906138b9565b61028461032e366004613303565b611202565b46610213565b61028461034736600461333f565b61123f565b610264611328565b610284611338565b61024c61036a36600461340b565b60cb6020526000908152604090205460ff1681565b60cc546001600160a01b03165b6040516001600160a01b03909116815260200161021d565b6102136103b236600461340b565b6000908152610101602052604090205490565b6102136103d33660046130aa565b61136e565b6102646113dc565b6102846103ee366004612da1565b6113eb565b610284610401366004613073565b611490565b610213610414366004612e98565b611567565b61038c6104273660046133d7565b61178e565b61028461043a366004613192565b61186a565b61021361187d565b610284610455366004613121565b611894565b61024c610468366004612dbc565b6001600160a01b03918216600090815260666020908152604080832093909416825291909152205460ff1690565b6102646104a436600461343d565b6118fb565b6102846104b7366004612ef5565b611a9b565b6102846104ca366004612da1565b611b22565b60006001600160a01b0383166105405760405162461bcd60e51b815260206004820152602b60248201527f455243313135353a2062616c616e636520717565727920666f7220746865207a60448201526a65726f206164647265737360a81b60648201526084015b60405180910390fd5b5060008181526065602090815260408083206001600160a01b03861684529091529020545b92915050565b600061056582611bba565b606060fe805461058590613c6f565b80601f01602080910402602001604051908101604052809291908181526020018280546105b190613c6f565b80156105fe5780601f106105d3576101008083540402835291602001916105fe565b820191906000526020600020905b8154815290600101906020018083116105e157829003601f168201915b5050505050905090565b61061133610d62565b61062d5760405162461bcd60e51b815260040161053790613991565b6000841161067d5760405162461bcd60e51b815260206004820152601960248201527f455243313135353a20696e76616c696420746f6b656e206964000000000000006044820152606401610537565b60008351116106e05760405162461bcd60e51b815260206004820152602960248201527f455243313135353a20417474726962757465206e616d65206d757374206e6f7460448201526820626520656d70747960b81b6064820152608401610537565b60008251116107445760405162461bcd60e51b815260206004820152602a60248201527f455243313135353a204174747269627574652076616c7565206d757374206e6f6044820152697420626520656d70747960b01b6064820152608401610537565b6000805b600086815261010660205260409020548110156108d757600086815261010660205260409020805461082591908390811061078557610785613d17565b906000526020600020906003020160000180546107a190613c6f565b80601f01602080910402602001604051908101604052809291908181526020018280546107cd90613c6f565b801561081a5780601f106107ef5761010080835404028352916020019161081a565b820191906000526020600020905b8154815290600101906020018083116107fd57829003601f168201915b505050505086611c0a565b156108c55760008681526101066020526040902080548591908390811061084e5761084e613d17565b90600052602060002090600302016001019080519060200190610872929190612bea565b5060008681526101066020526040902080548491908390811061089757610897613d17565b906000526020600020906003020160020190805190602001906108bb929190612bea565b50600191506108d7565b806108cf81613cd0565b915050610748565b508061096a5760008581526101066020908152604080832081516060810183528881528084018890529182018690528054600181018255908452928290208151805192946003029091019261093192849290910190612bea565b50602082810151805161094a9260018501920190612bea565b5060408201518051610966916002840191602090910190612bea565b5050505b7fa1dd486c7e3db1375af7183ba001b984979d07176f12d96f437650c4ac3e9acb8585858560405161099f9493929190613b6c565b60405180910390a15050505050565b606060006109ba611328565b600084815261010060205260408120805492935090916109d990613c6f565b80601f0160208091040260200160405190810160405280929190818152602001828054610a0590613c6f565b8015610a525780601f10610a2757610100808354040283529160200191610a52565b820191906000526020600020905b815481529060010190602001808311610a3557829003601f168201915b50505060008781526101066020526040902054929350606092839250159050610ca157604051806040016040528060018152602001605b60f81b815250915060005b60008781526101066020526040902054811015610c5b57600087815261010660205260409020805484919083908110610acf57610acf613d17565b906000526020600020906003020160000161010660008a81526020019081526020016000208381548110610b0557610b05613d17565b9060005260206000209060030201600101604051602001610b28939291906136d4565b6040516020818303038152906040529250600061010660008981526020019081526020016000208281548110610b6057610b60613d17565b90600052602060002090600302016002018054610b7c90613c6f565b90501115610bdc57600087815261010660205260409020805484919083908110610ba857610ba8613d17565b9060005260206000209060030201600201604051602001610bca929190613612565b60405160208183030381529060405292505b60008781526101066020526040902054610bf890600190613c2c565b811015610c265782604051602001610c1091906135ec565b6040516020818303038152906040529250610c49565b82604051602001610c3791906136ae565b60405160208183030381529060405292505b80610c5381613cd0565b915050610a94565b50835115610c8e57838383604051602001610c789392919061378e565b6040516020818303038152906040529050610cbe565b8282604051602001610c7892919061365e565b835115610cbb578383604051602001610c78929190613752565b50815b95945050505050565b610cd033610d62565b610cec5760405162461bcd60e51b815260040161053790613991565b6000815111610d3d5760405162461bcd60e51b815260206004820152601e60248201527f455243313135353a20555249206d757374206e6f7420626520656d70747900006044820152606401610537565b6000828152610100602090815260409091208251610d5d92840190612bea565b505050565b6001600160a01b03166000908152610102602052604090205460ff1690565b6001600160a01b038516331480610d9d5750610d9d8533610468565b610e045760405162461bcd60e51b815260206004820152603260248201527f455243313135353a207472616e736665722063616c6c6572206973206e6f74206044820152711bdddb995c881b9bdc88185c1c1c9bdd995960721b6064820152608401610537565b610e118585858585611c63565b5050505050565b60cc546001600160a01b03163314610e425760405162461bcd60e51b815260040161053790613aae565b610e4b81610d62565b610e975760405162461bcd60e51b815260206004820152601c60248201527f45524332303a204d696e74657220646f6573206e6f74206578697374000000006044820152606401610537565b6001600160a01b0316600090815261010260205260409020805460ff19169055565b610ec233610d62565b610ede5760405162461bcd60e51b815260040161053790613991565b8151835114610f475760405162461bcd60e51b815260206004820152602f60248201527f5742565253455243313135353a205552497320616e642062616c616e6365732060448201526e0d8cadccee8d040dad2e6dac2e8c6d608b1b6064820152608401610537565b600083516001600160401b03811115610f6257610f62613d2d565b604051908082528060200260200182016040528015610f8b578160200160208202803683370190505b50905060005b8151811015611014576000610fa461187d565b905080838381518110610fb957610fb9613d17565b602002602001018181525050611001838381518110610fda57610fda613d17565b6020026020010151878481518110610ff457610ff4613d17565b6020026020010151610cc7565b508061100c81613cd0565b915050610f91565b50610e1185828585611e02565b600054610100900460ff168061103a575060005460ff16155b6110565760405162461bcd60e51b8152600401610537906139c8565b600054610100900460ff16158015611078576000805461ffff19166101011790555b6110c4604051806040016040528060118152602001702bb2b130bb32b939b296bb37bab1b432b960791b815250604051806040016040528060018152602001603160f81b815250611f4e565b80156110d6576000805461ff00191690555b50565b6060815183511461113e5760405162461bcd60e51b815260206004820152602960248201527f455243313135353a206163636f756e747320616e6420696473206c656e677468604482015268040dad2e6dac2e8c6d60bb1b6064820152608401610537565b600083516001600160401b0381111561115957611159613d2d565b604051908082528060200260200182016040528015611182578160200160208202803683370190505b50905060005b84518110156111fa576111cd8582815181106111a6576111a6613d17565b60200260200101518583815181106111c0576111c0613d17565b60200260200101516104cf565b8282815181106111df576111df613d17565b60209081029190910101526111f381613cd0565b9050611188565b509392505050565b61120b33610d62565b6112275760405162461bcd60e51b815260040161053790613991565b805161123b90610103906020840190612bea565b5050565b600054610100900460ff1680611258575060005460ff16155b6112745760405162461bcd60e51b8152600401610537906139c8565b600054610100900460ff16158015611296576000805461ffff19166101011790555b84516112a99060fe906020880190612bea565b5083516112bd9060ff906020870190612bea565b506112c6611fc5565b6112cf83612025565b82516112e390610103906020860190612bea565b506112ec611021565b6001600160a01b038216600090815261010260205260409020805460ff191660011790558015610e11576000805461ff00191690555050505050565b6060610103805461058590613c6f565b60cc546001600160a01b031633146113625760405162461bcd60e51b815260040161053790613aae565b61136c60006120aa565b565b60008061137a8361178e565b90506113878184356104cf565b6113a35760405162461bcd60e51b815260040161053790613a16565b6113d4818585600001358660200135604051806040016040528060048152602001633078303160e01b8152506120fc565b505035919050565b606060ff805461058590613c6f565b60cc546001600160a01b031633146114155760405162461bcd60e51b815260040161053790613aae565b61141e81610d62565b1561146b5760405162461bcd60e51b815260206004820152601b60248201527f45524332303a204d696e74657220616c726561647920616464656400000000006044820152606401610537565b6001600160a01b0316600090815261010260205260409020805460ff19166001179055565b336001600160a01b03831614156114fb5760405162461bcd60e51b815260206004820152602960248201527f455243313135353a2073657474696e6720617070726f76616c20737461747573604482015268103337b91039b2b63360b91b6064820152608401610537565b3360008181526066602090815260408083206001600160a01b03871680855290835292819020805460ff191686151590811790915590519081529192917f17307eab39ab6107e8899845ad3d59bd9653f200f220920489ca2b5937696c31910160405180910390a35050565b600082816115748461178e565b604051627eeac760e11b81526001600160a01b038083166004830152863560248301529192509083169062fdd58e9060440160206040518083038186803b1580156115be57600080fd5b505afa1580156115d2573d6000803e3d6000fd5b505050506040513d601f19601f820116820180604052508101906115f69190613424565b6116125760405162461bcd60e51b815260040161053790613a16565b60405163e985e9c560e01b81526001600160a01b03828116600483015230602483015283169063e985e9c59060440160206040518083038186803b15801561165957600080fd5b505afa15801561166d573d6000803e3d6000fd5b505050506040513d601f19601f8201168201806040525081019061169191906132ac565b6116f25760405162461bcd60e51b815260206004820152602c60248201527f57425652533a20417072726f76616c206e6f742073657420666f72205765626160448201526b76657273654552433131353560a01b6064820152608401610537565b604051637921219560e11b81526001600160a01b038281166004808401919091528882166024840152863560448401526020870135606484015260a0608484015260a4830152633078303160e01b60c483015283169063f242432a9060e401600060405180830381600087803b15801561176b57600080fd5b505af115801561177f573d6000803e3d6000fd5b50509435979650505050505050565b600081606001354211156117e45760405162461bcd60e51b815260206004820152601b60248201527f566f75636865722068617320616c7265616479206578706972656400000000006044820152606401610537565b604080830135600090815260cb602052205460ff161561183c5760405162461bcd60e51b8152602060048201526013602482015272496e76616c6964206e6f6e63652076616c756560681b6044820152606401610537565b604080830135600090815260cb602052908120805460ff1916600117905561186383612226565b9392505050565b6118773385858585611a9b565b50505050565b600061010454600161188f9190613c14565b905090565b61189d33610d62565b6118b95760405162461bcd60e51b815260040161053790613991565b60006118c361187d565b90506118d18582868561227f565b6118db8184610cc7565b6118e3612348565b60009081526101016020526040902092909255505050565b606060005b60008481526101066020526040902054811015611a845760008481526101066020526040902080546119dd91908390811061193d5761193d613d17565b9060005260206000209060030201600001805461195990613c6f565b80601f016020809104026020016040519081016040528092919081815260200182805461198590613c6f565b80156119d25780601f106119a7576101008083540402835291602001916119d2565b820191906000526020600020905b8154815290600101906020018083116119b557829003601f168201915b505050505084611c0a565b15611a7257600084815261010660205260409020805482908110611a0357611a03613d17565b906000526020600020906003020160010161010660008681526020019081526020016000208281548110611a3957611a39613d17565b9060005260206000209060030201600201604051602001611a5b929190613801565b604051602081830303815290604052915050610565565b80611a7c81613cd0565b915050611900565b505060408051602081019091526000815292915050565b6001600160a01b038516331480611ab75750611ab78533610468565b611b155760405162461bcd60e51b815260206004820152602960248201527f455243313135353a2063616c6c6572206973206e6f74206f776e6572206e6f7260448201526808185c1c1c9bdd995960ba1b6064820152608401610537565b610e1185858585856120fc565b60cc546001600160a01b03163314611b4c5760405162461bcd60e51b815260040161053790613aae565b6001600160a01b038116611bb15760405162461bcd60e51b815260206004820152602660248201527f4f776e61626c653a206e6577206f776e657220697320746865207a65726f206160448201526564647265737360d01b6064820152608401610537565b6110d6816120aa565b60006001600160e01b03198216636cdb3d1360e11b1480611beb57506001600160e01b031982166303a24d0760e21b145b8061056557506301ffc9a760e01b6001600160e01b0319831614610565565b600081604051602001611c1d91906135d0565b6040516020818303038152906040528051906020012083604051602001611c4491906135d0565b6040516020818303038152906040528051906020012014905092915050565b8151835114611c845760405162461bcd60e51b815260040161053790613ae3565b6001600160a01b038416611caa5760405162461bcd60e51b81526004016105379061394c565b3360005b8451811015611d94576000858281518110611ccb57611ccb613d17565b602002602001015190506000858381518110611ce957611ce9613d17565b60209081029190910181015160008481526065835260408082206001600160a01b038e168352909352919091205490915081811015611d3a5760405162461bcd60e51b815260040161053790613a64565b60008381526065602090815260408083206001600160a01b038e8116855292528083208585039055908b16825281208054849290611d79908490613c14565b9250508190555050505080611d8d90613cd0565b9050611cae565b50846001600160a01b0316866001600160a01b0316826001600160a01b03167f4a39dc06d4c0dbc64b70af90fd698a233a518aa5d07e595d983b8c0526c8f7fb8787604051611de49291906138cc565b60405180910390a4611dfa818787878787612360565b505050505050565b6001600160a01b038416611e285760405162461bcd60e51b815260040161053790613b2b565b8151835114611e495760405162461bcd60e51b815260040161053790613ae3565b3360005b8451811015611ee657838181518110611e6857611e68613d17565b602002602001015160656000878481518110611e8657611e86613d17565b602002602001015181526020019081526020016000206000886001600160a01b03166001600160a01b031681526020019081526020016000206000828254611ece9190613c14565b90915550819050611ede81613cd0565b915050611e4d565b50846001600160a01b031660006001600160a01b0316826001600160a01b03167f4a39dc06d4c0dbc64b70af90fd698a233a518aa5d07e595d983b8c0526c8f7fb8787604051611f379291906138cc565b60405180910390a4610e1181600087878787612360565b600054610100900460ff1680611f67575060005460ff16155b611f835760405162461bcd60e51b8152600401610537906139c8565b600054610100900460ff16158015611fa5576000805461ffff19166101011790555b611faf83836124cb565b8015610d5d576000805461ff0019169055505050565b600054610100900460ff1680611fde575060005460ff16155b611ffa5760405162461bcd60e51b8152600401610537906139c8565b600054610100900460ff1615801561201c576000805461ffff19166101011790555b6110c4336120aa565b600054610100900460ff168061203e575060005460ff16155b61205a5760405162461bcd60e51b8152600401610537906139c8565b600054610100900460ff1615801561207c576000805461ffff19166101011790555b612084612555565b61208c612555565b612095826125bf565b801561123b576000805461ff00191690555050565b60cc80546001600160a01b038381166001600160a01b0319831681179093556040519116919082907f8be0079c531659141344cd1fd0a4f28419497f9722a3daafe3b4186f6b6457e090600090a35050565b6001600160a01b0384166121225760405162461bcd60e51b81526004016105379061394c565b3361213b8187876121328861261f565b610e118861261f565b60008481526065602090815260408083206001600160a01b038a1684529091529020548381101561217e5760405162461bcd60e51b815260040161053790613a64565b60008581526065602090815260408083206001600160a01b038b81168552925280832087850390559088168252812080548692906121bd908490613c14565b909155505060408051868152602081018690526001600160a01b03808916928a821692918616917fc3d58168c5ae7397731d063d5bbf3d657854427343f4c083240f7aacaa2d0f62910160405180910390a461221d82888888888861266a565b50505050505050565b60008061223283612734565b9050611863816122456080860186613bab565b8080601f0160208091040260200160405190810160405280939291908181526020018383808284376000920191909152506127ab92505050565b6001600160a01b0384166122a55760405162461bcd60e51b815260040161053790613b2b565b336122b6816000876121328861261f565b60008481526065602090815260408083206001600160a01b0389168452909152812080548592906122e8908490613c14565b909155505060408051858152602081018590526001600160a01b0380881692600092918516917fc3d58168c5ae7397731d063d5bbf3d657854427343f4c083240f7aacaa2d0f62910160405180910390a4610e118160008787878761266a565b610104805490600061235983613cd0565b9190505550565b6001600160a01b0384163b15611dfa5760405163bc197c8160e01b81526001600160a01b0385169063bc197c81906123a49089908990889088908890600401613816565b602060405180830381600087803b1580156123be57600080fd5b505af19250505080156123ee575060408051601f3d908101601f191682019092526123eb918101906132e6565b60015b61249b576123fa613d43565b806308c379a01415612434575061240f613d5f565b8061241a5750612436565b8060405162461bcd60e51b815260040161053791906138f1565b505b60405162461bcd60e51b815260206004820152603460248201527f455243313135353a207472616e7366657220746f206e6f6e20455243313135356044820152732932b1b2b4bb32b91034b6b83632b6b2b73a32b960611b6064820152608401610537565b6001600160e01b0319811663bc197c8160e01b1461221d5760405162461bcd60e51b815260040161053790613904565b600054610100900460ff16806124e4575060005460ff16155b6125005760405162461bcd60e51b8152600401610537906139c8565b600054610100900460ff16158015612522576000805461ffff19166101011790555b82516020808501919091208351918401919091206097919091556098558015610d5d576000805461ff0019169055505050565b600054610100900460ff168061256e575060005460ff16155b61258a5760405162461bcd60e51b8152600401610537906139c8565b600054610100900460ff161580156110c4576000805461ffff191661010117905580156110d6576000805461ff001916905550565b600054610100900460ff16806125d8575060005460ff16155b6125f45760405162461bcd60e51b8152600401610537906139c8565b600054610100900460ff16158015612616576000805461ffff19166101011790555b612095826127c7565b6040805160018082528183019092526060916000919060208083019080368337019050509050828160008151811061265957612659613d17565b602090810291909101015292915050565b6001600160a01b0384163b15611dfa5760405163f23a6e6160e01b81526001600160a01b0385169063f23a6e61906126ae9089908990889088908890600401613874565b602060405180830381600087803b1580156126c857600080fd5b505af19250505080156126f8575060408051601f3d908101601f191682019092526126f5918101906132e6565b60015b612704576123fa613d43565b6001600160e01b0319811663f23a6e6160e01b1461221d5760405162461bcd60e51b815260040161053790613904565b604080517f9351747b1e9d1d5ecc2259decffb60239f521e243e85645e0762ed1d775876776020828101919091528335828401528301356060828101919091529183013560808201529082013560a08201526000906105659060c001604051602081830303815290604052805190602001206127da565b60008060006127ba8585612828565b915091506111fa81612898565b805161123b906067906020840190612bea565b60006105656127e7612a53565b8360405161190160f01b6020820152602281018390526042810182905260009060620160405160208183030381529060405280519060200120905092915050565b60008082516041141561285f5760208301516040840151606085015160001a61285387828585612ace565b94509450505050612891565b825160401415612889576020830151604084015161287e868383612bbb565b935093505050612891565b506000905060025b9250929050565b60008160048111156128ac576128ac613d01565b14156128b55750565b60018160048111156128c9576128c9613d01565b14156129175760405162461bcd60e51b815260206004820152601860248201527f45434453413a20696e76616c6964207369676e617475726500000000000000006044820152606401610537565b600281600481111561292b5761292b613d01565b14156129795760405162461bcd60e51b815260206004820152601f60248201527f45434453413a20696e76616c6964207369676e6174757265206c656e677468006044820152606401610537565b600381600481111561298d5761298d613d01565b14156129e65760405162461bcd60e51b815260206004820152602260248201527f45434453413a20696e76616c6964207369676e6174757265202773272076616c604482015261756560f01b6064820152608401610537565b60048160048111156129fa576129fa613d01565b14156110d65760405162461bcd60e51b815260206004820152602260248201527f45434453413a20696e76616c6964207369676e6174757265202776272076616c604482015261756560f01b6064820152608401610537565b600061188f7f8b73c3c69bb8fe3d512ecc4cf759cc79239f7b179b0ffacaa9a75d522b39400f612a8260975490565b6098546040805160208101859052908101839052606081018290524660808201523060a082015260009060c0016040516020818303038152906040528051906020012090509392505050565b6000807f7fffffffffffffffffffffffffffffff5d576e7357a4501ddfe92f46681b20a0831115612b055750600090506003612bb2565b8460ff16601b14158015612b1d57508460ff16601c14155b15612b2e5750600090506004612bb2565b6040805160008082526020820180845289905260ff881692820192909252606081018690526080810185905260019060a0016020604051602081039080840390855afa158015612b82573d6000803e3d6000fd5b5050604051601f1901519150506001600160a01b038116612bab57600060019250925050612bb2565b9150600090505b94509492505050565b6000806001600160ff1b03831660ff84901c601b01612bdc87828885612ace565b935093505050935093915050565b828054612bf690613c6f565b90600052602060002090601f016020900481019282612c185760008555612c5e565b82601f10612c3157805160ff1916838001178555612c5e565b82800160010185558215612c5e579182015b82811115612c5e578251825591602001919060010190612c43565b50612c6a929150612c6e565b5090565b5b80821115612c6a5760008155600101612c6f565b80356001600160a01b0381168114612c9a57600080fd5b919050565b600082601f830112612cb057600080fd5b81356020612cbd82613bf1565b604051612cca8282613ca4565b8381528281019150858301600585901b87018401881015612cea57600080fd5b60005b85811015612d0957813584529284019290840190600101612ced565b5090979650505050505050565b600082601f830112612d2757600080fd5b81356001600160401b03811115612d4057612d40613d2d565b604051612d57601f8301601f191660200182613ca4565b818152846020838601011115612d6c57600080fd5b816020850160208301376000918101602001919091529392505050565b600060a08284031215612d9b57600080fd5b50919050565b600060208284031215612db357600080fd5b61186382612c83565b60008060408385031215612dcf57600080fd5b612dd883612c83565b9150612de660208401612c83565b90509250929050565b600080600080600060a08688031215612e0757600080fd5b612e1086612c83565b9450612e1e60208701612c83565b935060408601356001600160401b0380821115612e3a57600080fd5b612e4689838a01612c9f565b94506060880135915080821115612e5c57600080fd5b612e6889838a01612c9f565b93506080880135915080821115612e7e57600080fd5b50612e8b88828901612d16565b9150509295509295909350565b600080600060608486031215612ead57600080fd5b612eb684612c83565b9250612ec460208501612c83565b915060408401356001600160401b03811115612edf57600080fd5b612eeb86828701612d89565b9150509250925092565b600080600080600060a08688031215612f0d57600080fd5b612f1686612c83565b9450612f2460208701612c83565b9350604086013592506060860135915060808601356001600160401b03811115612f4d57600080fd5b612e8b88828901612d16565b60008060008060808587031215612f6f57600080fd5b612f7885612c83565b93506020808601356001600160401b0380821115612f9557600080fd5b818801915088601f830112612fa957600080fd5b8135612fb481613bf1565b604051612fc18282613ca4565b8281528581019150848601600584901b860187018d1015612fe157600080fd5b60005b8481101561301c57813586811115612ffb57600080fd5b6130098f8a838b0101612d16565b8552509287019290870190600101612fe4565b50909850505050604088013592508083111561303757600080fd5b61304389848a01612c9f565b9450606088013592508083111561305957600080fd5b505061306787828801612d16565b91505092959194509250565b6000806040838503121561308657600080fd5b61308f83612c83565b9150602083013561309f81613de8565b809150509250929050565b600080604083850312156130bd57600080fd5b6130c683612c83565b915060208301356001600160401b038111156130e157600080fd5b6130ed85828601612d89565b9150509250929050565b6000806040838503121561310a57600080fd5b61311383612c83565b946020939093013593505050565b6000806000806080858703121561313757600080fd5b61314085612c83565b93506020850135925060408501356001600160401b038082111561316357600080fd5b61316f88838901612d16565b9350606087013591508082111561318557600080fd5b5061306787828801612d16565b600080600080608085870312156131a857600080fd5b6131b185612c83565b9350602085013592506040850135915060608501356001600160401b038111156131da57600080fd5b61306787828801612d16565b600080604083850312156131f957600080fd5b82356001600160401b038082111561321057600080fd5b818501915085601f83011261322457600080fd5b8135602061323182613bf1565b60405161323e8282613ca4565b8381528281019150858301600585901b870184018b101561325e57600080fd5b600096505b848710156132885761327481612c83565b835260019690960195918301918301613263565b509650508601359250508082111561329f57600080fd5b506130ed85828601612c9f565b6000602082840312156132be57600080fd5b815161186381613de8565b6000602082840312156132db57600080fd5b813561186381613df6565b6000602082840312156132f857600080fd5b815161186381613df6565b60006020828403121561331557600080fd5b81356001600160401b0381111561332b57600080fd5b61333784828501612d16565b949350505050565b6000806000806080858703121561335557600080fd5b84356001600160401b038082111561336c57600080fd5b61337888838901612d16565b9550602087013591508082111561338e57600080fd5b61339a88838901612d16565b945060408701359150808211156133b057600080fd5b506133bd87828801612d16565b9250506133cc60608601612c83565b905092959194509250565b6000602082840312156133e957600080fd5b81356001600160401b038111156133ff57600080fd5b61333784828501612d89565b60006020828403121561341d57600080fd5b5035919050565b60006020828403121561343657600080fd5b5051919050565b6000806040838503121561345057600080fd5b8235915060208301356001600160401b0381111561346d57600080fd5b6130ed85828601612d16565b6000806000806080858703121561348f57600080fd5b8435935060208501356001600160401b03808211156134ad57600080fd5b6134b988838901612d16565b9450604087013591508082111561316357600080fd5b600081518084526020808501945080840160005b838110156134ff578151875295820195908201906001016134e3565b509495945050505050565b60008151808452613522816020860160208601613c43565b601f01601f19169290920160200192915050565b8054600090600181811c908083168061355057607f831692505b602080841082141561357257634e487b7160e01b600052602260045260246000fd5b8180156135865760018114613597576135c4565b60ff198616895284890196506135c4565b60008881526020902060005b868110156135bc5781548b8201529085019083016135a3565b505084890196505b50505050505092915050565b600082516135e2818460208701613c43565b9190910192915050565b600082516135fe818460208701613c43565b611f4b60f21b920191825250600201919050565b60008351613624818460208801613c43565b6f16113234b9b83630bcafba3cb832911d60811b90830190815261364b6010820185613536565b607d60f81b815260010195945050505050565b60008351613670818460208801613c43565b603f60f81b9083019081526a617474726962757465733d60a81b600182015283516136a281600c840160208801613c43565b01600c01949350505050565b600082516136c0818460208701613c43565b617d5d60f01b920191825250600201919050565b600084516136e6818460208901613c43565b6d3d913a3930b4ba2fba3cb832911d60911b908301908152601160f91b600e8201819052613717600f830187613536565b8181526816113b30b63ab2911d60b91b6001820152600a81018290529150613742600b830186613536565b9081526001019695505050505050565b60008351613764818460208801613c43565b602f60f81b9083019081528351613782816001840160208801613c43565b01600101949350505050565b600084516137a0818460208901613c43565b602f60f81b90830190815284516137be816001840160208901613c43565b603f60f81b600192909101918201526a617474726962757465733d60a81b600282015283516137f481600d840160208801613c43565b01600d0195945050505050565b60006133376138108386613536565b84613536565b6001600160a01b0386811682528516602082015260a060408201819052600090613842908301866134cf565b828103606084015261385481866134cf565b90508281036080840152613868818561350a565b98975050505050505050565b6001600160a01b03868116825285166020820152604081018490526060810183905260a0608082018190526000906138ae9083018461350a565b979650505050505050565b60208152600061186360208301846134cf565b6040815260006138df60408301856134cf565b8281036020840152610cbe81856134cf565b602081526000611863602083018461350a565b60208082526028908201527f455243313135353a204552433131353552656365697665722072656a656374656040820152676420746f6b656e7360c01b606082015260800190565b60208082526025908201527f455243313135353a207472616e7366657220746f20746865207a65726f206164604082015264647265737360d81b606082015260800190565b6020808252601a908201527f455243313135353a20756e617574686f72697a65642063616c6c000000000000604082015260600190565b6020808252602e908201527f496e697469616c697a61626c653a20636f6e747261637420697320616c72656160408201526d191e481a5b9a5d1a585b1a5e995960921b606082015260800190565b6020808252602e908201527f57425652533a20417574686f72697a6174696f6e206661696c65643a20496e7660408201526d616c6964207369676e617475726560901b606082015260800190565b6020808252602a908201527f455243313135353a20696e73756666696369656e742062616c616e636520666f60408201526939103a3930b739b332b960b11b606082015260800190565b6020808252818101527f4f776e61626c653a2063616c6c6572206973206e6f7420746865206f776e6572604082015260600190565b60208082526028908201527f455243313135353a2069647320616e6420616d6f756e7473206c656e677468206040820152670dad2e6dac2e8c6d60c31b606082015260800190565b60208082526021908201527f455243313135353a206d696e7420746f20746865207a65726f206164647265736040820152607360f81b606082015260800190565b848152608060208201526000613b85608083018661350a565b8281036040840152613b97818661350a565b905082810360608401526138ae818561350a565b6000808335601e19843603018112613bc257600080fd5b8301803591506001600160401b03821115613bdc57600080fd5b60200191503681900382131561289157600080fd5b60006001600160401b03821115613c0a57613c0a613d2d565b5060051b60200190565b60008219821115613c2757613c27613ceb565b500190565b600082821015613c3e57613c3e613ceb565b500390565b60005b83811015613c5e578181015183820152602001613c46565b838111156118775750506000910152565b600181811c90821680613c8357607f821691505b60208210811415612d9b57634e487b7160e01b600052602260045260246000fd5b601f8201601f191681016001600160401b0381118282101715613cc957613cc9613d2d565b6040525050565b6000600019821415613ce457613ce4613ceb565b5060010190565b634e487b7160e01b600052601160045260246000fd5b634e487b7160e01b600052602160045260246000fd5b634e487b7160e01b600052603260045260246000fd5b634e487b7160e01b600052604160045260246000fd5b600060033d1115613d5c5760046000803e5060005160e01c5b90565b600060443d1015613d6d5790565b6040516003193d81016004833e81513d6001600160401b038160248401118184111715613d9c57505050505090565b8285019150815181811115613db45750505050505090565b843d8701016020828501011115613dce5750505050505090565b613ddd60208286010187613ca4565b509095945050505050565b80151581146110d657600080fd5b6001600160e01b0319811681146110d657600080fdfea26469706673582212201fb77fa7374de8a07775d4101107c95fcf6a58ccb40d76e77b370206ad6cd3e464736f6c63430008070033",
  "immutableReferences": {},
  "source": "// SPDX-License-Identifier: MIT\npragma solidity ^0.8.7;\n\nimport \"@openzeppelin/contracts-upgradeable/token/ERC1155/ERC1155Upgradeable.sol\";\nimport \"@openzeppelin/contracts-upgradeable/access/OwnableUpgradeable.sol\";\nimport \"../utils/WebaverseVoucher.sol\";\n\ncontract WebaverseERC1155 is\n    ERC1155Upgradeable,\n    WebaverseVoucher,\n    OwnableUpgradeable\n{\n    string private _name;\n    string private _symbol;\n    mapping(uint256 => string) private _tokenURIs;\n    mapping(uint256 => uint256) private _tokenBalances;\n    mapping(address => bool) private _allowedMinters; // Mapping of white listed minters\n    string private _webaBaseURI; // Base URI of the collection for Webaverse\n    uint256 public currentTokenId; // State variable for storing the latest minted token id\n    bool internal isPublicallyMintable; // whether anyone can mint tokens in this copy of the contract\n    mapping(uint256 => attribute[]) internal tokenIdToAttributes; // map of token id to attributes (additional attributes) key-value store\n    mapping(uint256 => address) internal minters; // map of tokens to minters\n\n    struct attribute {\n        string trait_type;\n        string value;\n        string display_type;\n    }\n\n    event AttributeSet(\n        uint256 tokenId,\n        string trait_type,\n        string value,\n        string display_type\n    );\n    event Claim(address signer, address claimer, uint256 indexed id);\n    event ExternalClaim(\n        address indexed externalContract,\n        address signer,\n        address claimer,\n        uint256 indexed id\n    );\n\n    modifier onlyMinter() {\n        require(isAllowedMinter(msg.sender), \"ERC1155: unauthorized call\");\n        _;\n    }\n\n    function initialize(\n        string memory name_,\n        string memory symbol_,\n        string memory baseURI_,\n        address minter\n    ) public initializer {\n        _name = name_;\n        _symbol = symbol_;\n        __Ownable_init_unchained();\n        __ERC1155_init(baseURI_);\n        _webaBaseURI = baseURI_;\n        _webaverse_voucher_init();\n        _allowedMinters[minter] = true;\n    }\n\n    // constructor() ERC1155(\"\") {}\n\n    /**\n     * @return Returns the name of the collection.\n     */\n    function name() public view returns (string memory) {\n        return _name;\n    }\n\n    /**\n     * @return Returns the symbol of the collection.\n     */\n    function symbol() public view returns (string memory) {\n        return _symbol;\n    }\n\n    /**\n     * @return Returns the base URI of the host to fetch the attributes from (default empty).\n     */\n    function baseURI() public view returns (string memory) {\n        return _webaBaseURI;\n    }\n\n    /**\n     * @dev Update or change the Base URI of the collection for Webaverse NFTs\n     * @param baseURI_ The base URI of the host to fetch the attributes from e.g. https://ipfs.io/ipfs/.\n     */\n    function setBaseURI(string memory baseURI_) public onlyMinter {\n        _webaBaseURI = baseURI_;\n    }\n\n    /**\n     * @param tokenId The id of the token for which the balance is being fetched.\n     * @return Returns the total balance of the token.\n     */\n    function getTokenBalance(uint256 tokenId) public view returns (uint256) {\n        return _tokenBalances[tokenId];\n    }\n\n    /**\n     * @return Returns the token URI against a particular token id.\n     * e.g. [baseURI]/[cid]?attributes=[{\"trait_type\": \"power\", \"display_type\": \"boost_number\", \"value\": \"100\"}]\n     */\n    function uri(uint256 _id) public view override returns (string memory) {\n        string memory _baseURI = baseURI();\n        string memory _cid = _tokenURIs[_id];\n        string memory attributes;\n        string memory _uri;\n        if (tokenIdToAttributes[_id].length > 0) {\n            attributes = \"[\";\n            for (uint256 i = 0; i < tokenIdToAttributes[_id].length; i++) {\n                attributes = string(\n                    abi.encodePacked(\n                        attributes,\n                        '{\"trait_type\":',\n                        '\"',\n                        tokenIdToAttributes[_id][i].trait_type,\n                        '\"',\n                        ',\"value\":',\n                        '\"',\n                        tokenIdToAttributes[_id][i].value,\n                        '\"'\n                    )\n                );\n                if (\n                    bytes(tokenIdToAttributes[_id][i].display_type).length > 0\n                ) {\n                    attributes = string(\n                        abi.encodePacked(\n                            attributes,\n                            ',\"display_type\":',\n                            tokenIdToAttributes[_id][i].display_type,\n                            \"}\"\n                        )\n                    );\n                }\n                if (i < tokenIdToAttributes[_id].length - 1) {\n                    attributes = string(abi.encodePacked(attributes, \"},\"));\n                } else {\n                    attributes = string(abi.encodePacked(attributes, \"}]\"));\n                }\n            }\n            if (bytes(_baseURI).length > 0) {\n                _uri = string(\n                    abi.encodePacked(\n                        _baseURI,\n                        \"/\",\n                        _cid,\n                        \"?\",\n                        \"attributes=\",\n                        attributes\n                    )\n                );\n            } else {\n                _uri = string(\n                    abi.encodePacked(_cid, \"?\", \"attributes=\", attributes)\n                );\n            }\n        } else {\n            if (bytes(_baseURI).length > 0) {\n                _uri = string(abi.encodePacked(_baseURI, \"/\", _cid));\n            } else {\n                _uri = _cid;\n            }\n        }\n        return _uri;\n    }\n\n    /**\n     * @dev Set attributes for the token. attributes is a key-value store that can be set by owners and collaborators\n     * @param tokenId Token id to set the uri to\n     * @param _uri The uri to set for the token\n     */\n    /// _uri === [cid] or https://[linktofile]\n    function setTokenURI(uint256 tokenId, string memory _uri)\n        public\n        onlyMinter\n    {\n        require(bytes(_uri).length > 0, \"ERC1155: URI must not be empty\");\n        _tokenURIs[tokenId] = _uri;\n    }\n\n    /**\n     * @notice Mints a single NFT with given parameters.\n     * @param to The address on which the NFT will be minted.\n     **/\n    function mint(\n        address to,\n        uint256 balance,\n        string memory _uri,\n        bytes memory data\n    ) public onlyMinter {\n        uint256 tokenId = getNextTokenId();\n        _mint(to, tokenId, balance, data);\n        setTokenURI(tokenId, _uri);\n        _incrementTokenId();\n        _tokenBalances[tokenId] = balance;\n    }\n\n    /**\n     * @notice Mints batch of NFTs with given parameters.\n     * @param to The address to which the NFTs will be minted in batch.\n     * @param uris The URIs of all the the NFTs.\n     * @param balances The balances of all the NFTs as per the ERC1155 standard.\n     **/\n    function mintBatch(\n        address to,\n        string[] memory uris,\n        uint256[] memory balances,\n        bytes memory data\n    ) public onlyMinter {\n        require(\n            uris.length == balances.length,\n            \"WBVRSERC1155: URIs and balances length mismatch\"\n        );\n        uint256[] memory ids = new uint256[](uris.length);\n        for (uint256 i = 0; i < ids.length; i++) {\n            uint256 tokenId = getNextTokenId();\n            ids[i] = tokenId;\n            setTokenURI(ids[i], uris[i]);\n        }\n        _mintBatch(to, ids, balances, data);\n    }\n\n    /**\n     * @dev Get attributes for the token. attribute is a key-value store that can be set by owners and collaborators\n     * @param tokenId Token id to query for attribute\n     * @param trait_type Key to query for a value\n     * @return Value corresponding to attribute key\n     */\n    function getAttribute(uint256 tokenId, string memory trait_type)\n        public\n        view\n        returns (string memory)\n    {\n        for (uint256 i = 0; i < tokenIdToAttributes[tokenId].length; i++) {\n            if (streq(tokenIdToAttributes[tokenId][i].trait_type, trait_type)) {\n                return\n                    string(\n                        abi.encodePacked(\n                            tokenIdToAttributes[tokenId][i].value,\n                            tokenIdToAttributes[tokenId][i].display_type\n                        )\n                    );\n            }\n        }\n        return \"\";\n    }\n\n    /**\n     * @dev Set attributes for the token. attributes is a key-value store that can be set by owners and collaborators\n     * @param trait_type Key to store value at\n     * @param value Value to store\n     */\n    function setAttribute(\n        uint256 tokenId,\n        string memory trait_type,\n        string memory value,\n        string memory display_type\n    ) public onlyMinter {\n        require(tokenId > 0, \"ERC1155: invalid token id\");\n        require(\n            bytes(trait_type).length > 0,\n            \"ERC1155: Attribute name must not be empty\"\n        );\n        require(\n            bytes(value).length > 0,\n            \"ERC1155: Attribute value must not be empty\"\n        );\n        bool keyFound = false;\n        for (uint256 i = 0; i < tokenIdToAttributes[tokenId].length; i++) {\n            if (streq(tokenIdToAttributes[tokenId][i].trait_type, trait_type)) {\n                tokenIdToAttributes[tokenId][i].value = value;\n                tokenIdToAttributes[tokenId][i].display_type = display_type;\n                keyFound = true;\n                break;\n            }\n        }\n        if (!keyFound) {\n            tokenIdToAttributes[tokenId].push(\n                attribute(trait_type, value, display_type)\n            );\n        }\n        emit AttributeSet(tokenId, trait_type, value, display_type);\n    }\n\n    /**\n     * @notice Redeems an NFTVoucher for an actual NFT, authorized by the owner.\n     * @param claimer The address of the account which will receive the NFT upon success.\n     * @param voucher A signed NFTVoucher that describes the NFT to be redeemed.\n     * @dev Verification through ECDSA signature of 'typed' data.\n     * @dev Voucher must contain valid signature, nonce, and expiry.\n     **/\n    function claim(address claimer, NFTVoucher calldata voucher)\n        public\n        virtual\n        returns (uint256)\n    {\n        // make sure signature is valid and get the address of the signer\n        address signer = verifyVoucher(voucher);\n\n        require(\n            balanceOf(signer, voucher.tokenId) != 0,\n            \"WBVRS: Authorization failed: Invalid signature\"\n        );\n\n        // transfer the token to the claimer\n        _safeTransferFrom(\n            signer,\n            claimer,\n            voucher.tokenId,\n            voucher.balance,\n            \"0x01\"\n        );\n        return voucher.tokenId;\n    }\n\n    /**\n     * @notice Redeems an NFTVoucher for an actual NFT, authorized by the owner from an external contract.\n     * @param claimer The address of the account which will receive the NFT upon success.\n     * @param contractAddress The address of the contract from which the token is being transferred\n     * @param voucher A signed NFTVoucher that describes the NFT to be redeemed.\n     * @dev Verification through ECDSA signature of 'typed' data.\n     * @dev Voucher must contain valid signature, nonce, and expiry.\n     **/\n    function externalClaim(\n        address claimer,\n        address contractAddress,\n        NFTVoucher calldata voucher\n    ) public returns (uint256) {\n        IERC1155Upgradeable externalContract = IERC1155Upgradeable(\n            contractAddress\n        );\n        // make sure signature is valid and get the address of the signer\n        address signer = verifyVoucher(voucher);\n\n        require(\n            externalContract.balanceOf(signer, voucher.tokenId) != 0,\n            \"WBVRS: Authorization failed: Invalid signature\"\n        );\n        require(\n            externalContract.isApprovedForAll(signer, address(this)),\n            \"WBVRS: Aprroval not set for WebaverseERC1155\"\n        );\n\n        // transfer the token to the claimer\n        externalContract.safeTransferFrom(\n            signer,\n            claimer,\n            voucher.tokenId,\n            voucher.balance,\n            \"0x01\"\n        );\n        return voucher.tokenId;\n    }\n\n    /**\n     * @notice Redeems an NFTVoucher for an actual NFT, authorized by the owner from an external contract.\n     * @param to The address of the account which will receive the NFT.\n     * @param id The token id of the NFT to be transferred.\n     * @param amount The balance of the token to be transffered.\n     **/\n    function safeTransfer(\n        address to,\n        uint256 id,\n        uint256 amount,\n        bytes memory data\n    ) public {\n        safeTransferFrom(_msgSender(), to, id, amount, data);\n    }\n\n    /**\n     * @dev Checks if an address is allowed to mint ERC20 tokens\n     * @param account address to check for the white listing for\n     * @return true if address is allowed to mint\n     */\n    function isAllowedMinter(address account) public view returns (bool) {\n        return _allowedMinters[account];\n    }\n\n    /**\n     * @dev Add an account to the list of accounts allowed to create ERC20 tokens\n     * @param minter address to whitelist\n     */\n    function addMinter(address minter) public onlyOwner {\n        require(!isAllowedMinter(minter), \"ERC20: Minter already added\");\n        _allowedMinters[minter] = true;\n    }\n\n    /**\n     * @dev Remove an account from the list of accounts allowed to create ERC20 tokens\n     * @param minter address to remove from whitelist\n     */\n    function removeMinter(address minter) public onlyOwner {\n        require(isAllowedMinter(minter), \"ERC20: Minter does not exist\");\n        _allowedMinters[minter] = false;\n    }\n\n    /**\n     * @dev returns the next token id to be minted\n     */\n    function getNextTokenId() public view returns (uint256) {\n        return currentTokenId + 1;\n    }\n\n    /**\n     * @dev increments the value of _currentTokenId\n     */\n    function _incrementTokenId() internal {\n        currentTokenId++;\n    }\n\n    /**@dev Helper function to convert a uint to a string\n     * @param _i uint to convert\n     * @return _uintAsString string converted from uint\n     */\n    function uint2str(uint256 _i)\n        internal\n        pure\n        returns (string memory _uintAsString)\n    {\n        if (_i == 0) {\n            return \"0\";\n        }\n        uint256 j = _i;\n        uint256 len;\n        while (j != 0) {\n            len++;\n            j /= 10;\n        }\n        bytes memory bstr = new bytes(len);\n        uint256 k = len - 1;\n        while (_i != 0) {\n            bstr[k--] = bytes1(uint8(48 + (_i % 10)));\n            _i /= 10;\n        }\n        return string(bstr);\n    }\n\n    /**\n     * @dev Check if two strings are equal\n     * @param a First string to compare\n     * @param b Second string to compare\n     * @return Returns true if strings are equal\n     */\n    function streq(string memory a, string memory b)\n        internal\n        pure\n        returns (bool)\n    {\n        return (keccak256(abi.encodePacked((a))) ==\n            keccak256(abi.encodePacked((b))));\n    }\n\n    /**\n     * @notice Using low level assembly call to fetch the chain id of the blockchain.\n     * @return Returns the chain id of the current blockchain.\n     **/\n    function getChainID() external view returns (uint256) {\n        uint256 id;\n        assembly {\n            id := chainid()\n        }\n        return id;\n    }\n\n    function supportsInterface(bytes4 interfaceId)\n        public\n        view\n        virtual\n        override(ERC1155Upgradeable)\n        returns (bool)\n    {\n        return ERC1155Upgradeable.supportsInterface(interfaceId);\n    }\n}\n",
  "sourcePath": "/home/mohsin/Desktop/sidechain/contracts/main/WebaverseERC1155.sol",
  "compiler": {
    "name": "solc",
    "version": "0.8.7+commit.e28d00a7.Emscripten.clang"
  },
  "schemaVersion": "3.4.3",
  "updatedAt": "2022-01-25T23:47:22.164Z",
  "devdoc": {
    "kind": "dev",
    "methods": {
      "addMinter(address)": {
        "details": "Add an account to the list of accounts allowed to create ERC20 tokens",
        "params": {
          "minter": "address to whitelist"
        }
      },
      "balanceOf(address,uint256)": {
        "details": "See {IERC1155-balanceOf}. Requirements: - `account` cannot be the zero address."
      },
      "balanceOfBatch(address[],uint256[])": {
        "details": "See {IERC1155-balanceOfBatch}. Requirements: - `accounts` and `ids` must have the same length."
      },
      "baseURI()": {
        "returns": {
          "_0": "Returns the base URI of the host to fetch the attributes from (default empty)."
        }
      },
      "claim(address,(uint256,uint256,uint256,uint256,bytes))": {
        "details": "Verification through ECDSA signature of 'typed' data.Voucher must contain valid signature, nonce, and expiry.*",
        "params": {
          "claimer": "The address of the account which will receive the NFT upon success.",
          "voucher": "A signed NFTVoucher that describes the NFT to be redeemed."
        }
      },
      "externalClaim(address,address,(uint256,uint256,uint256,uint256,bytes))": {
        "details": "Verification through ECDSA signature of 'typed' data.Voucher must contain valid signature, nonce, and expiry.*",
        "params": {
          "claimer": "The address of the account which will receive the NFT upon success.",
          "contractAddress": "The address of the contract from which the token is being transferred",
          "voucher": "A signed NFTVoucher that describes the NFT to be redeemed."
        }
      },
      "getAttribute(uint256,string)": {
        "details": "Get attributes for the token. attribute is a key-value store that can be set by owners and collaborators",
        "params": {
          "tokenId": "Token id to query for attribute",
          "trait_type": "Key to query for a value"
        },
        "returns": {
          "_0": "Value corresponding to attribute key"
        }
      },
      "getChainID()": {
        "returns": {
          "_0": "Returns the chain id of the current blockchain.*"
        }
      },
      "getNextTokenId()": {
        "details": "returns the next token id to be minted"
      },
      "getTokenBalance(uint256)": {
        "params": {
          "tokenId": "The id of the token for which the balance is being fetched."
        },
        "returns": {
          "_0": "Returns the total balance of the token."
        }
      },
      "isAllowedMinter(address)": {
        "details": "Checks if an address is allowed to mint ERC20 tokens",
        "params": {
          "account": "address to check for the white listing for"
        },
        "returns": {
          "_0": "true if address is allowed to mint"
        }
      },
      "isApprovedForAll(address,address)": {
        "details": "See {IERC1155-isApprovedForAll}."
      },
      "mint(address,uint256,string,bytes)": {
        "params": {
          "to": "The address on which the NFT will be minted.*"
        }
      },
      "mintBatch(address,string[],uint256[],bytes)": {
        "params": {
          "balances": "The balances of all the NFTs as per the ERC1155 standard.*",
          "to": "The address to which the NFTs will be minted in batch.",
          "uris": "The URIs of all the the NFTs."
        }
      },
      "name()": {
        "returns": {
          "_0": "Returns the name of the collection."
        }
      },
      "owner()": {
        "details": "Returns the address of the current owner."
      },
      "removeMinter(address)": {
        "details": "Remove an account from the list of accounts allowed to create ERC20 tokens",
        "params": {
          "minter": "address to remove from whitelist"
        }
      },
      "renounceOwnership()": {
        "details": "Leaves the contract without owner. It will not be possible to call `onlyOwner` functions anymore. Can only be called by the current owner. NOTE: Renouncing ownership will leave the contract without an owner, thereby removing any functionality that is only available to the owner."
      },
      "safeBatchTransferFrom(address,address,uint256[],uint256[],bytes)": {
        "details": "See {IERC1155-safeBatchTransferFrom}."
      },
      "safeTransfer(address,uint256,uint256,bytes)": {
        "params": {
          "amount": "The balance of the token to be transffered.*",
          "id": "The token id of the NFT to be transferred.",
          "to": "The address of the account which will receive the NFT."
        }
      },
      "safeTransferFrom(address,address,uint256,uint256,bytes)": {
        "details": "See {IERC1155-safeTransferFrom}."
      },
      "setApprovalForAll(address,bool)": {
        "details": "See {IERC1155-setApprovalForAll}."
      },
      "setAttribute(uint256,string,string,string)": {
        "details": "Set attributes for the token. attributes is a key-value store that can be set by owners and collaborators",
        "params": {
          "trait_type": "Key to store value at",
          "value": "Value to store"
        }
      },
      "setBaseURI(string)": {
        "details": "Update or change the Base URI of the collection for Webaverse NFTs",
        "params": {
          "baseURI_": "The base URI of the host to fetch the attributes from e.g. https://ipfs.io/ipfs/."
        }
      },
      "supportsInterface(bytes4)": {
        "details": "See {IERC165-supportsInterface}."
      },
      "symbol()": {
        "returns": {
          "_0": "Returns the symbol of the collection."
        }
      },
      "transferOwnership(address)": {
        "details": "Transfers ownership of the contract to a new account (`newOwner`). Can only be called by the current owner."
      },
      "uri(uint256)": {
        "returns": {
          "_0": "Returns the token URI against a particular token id. e.g. [baseURI]/[cid]?attributes=[{\"trait_type\": \"power\", \"display_type\": \"boost_number\", \"value\": \"100\"}]"
        }
      },
      "verifyVoucher((uint256,uint256,uint256,uint256,bytes))": {
        "details": "Verification through ECDSA signature of 'typed' data.Voucher must contain valid signature, nonce, and expiry.*",
        "params": {
          "voucher": "A signed NFTVoucher that describes the NFT to be redeemed."
        }
      }
    },
    "version": 1
  },
  "userdoc": {
    "kind": "user",
    "methods": {
      "claim(address,(uint256,uint256,uint256,uint256,bytes))": {
        "notice": "Redeems an NFTVoucher for an actual NFT, authorized by the owner."
      },
      "externalClaim(address,address,(uint256,uint256,uint256,uint256,bytes))": {
        "notice": "Redeems an NFTVoucher for an actual NFT, authorized by the owner from an external contract."
      },
      "getChainID()": {
        "notice": "Using low level assembly call to fetch the chain id of the blockchain."
      },
      "mint(address,uint256,string,bytes)": {
        "notice": "Mints a single NFT with given parameters."
      },
      "mintBatch(address,string[],uint256[],bytes)": {
        "notice": "Mints batch of NFTs with given parameters."
      },
      "safeTransfer(address,uint256,uint256,bytes)": {
        "notice": "Redeems an NFTVoucher for an actual NFT, authorized by the owner from an external contract."
      },
      "setTokenURI(uint256,string)": {
        "notice": "_uri === [cid] or https://[linktofile]"
      },
      "verifyVoucher((uint256,uint256,uint256,uint256,bytes))": {
        "notice": "Verifies an NFTVoucher for an actual NFT, authorized by the owner."
      }
    },
    "version": 1
  }
}