{
  "_format": "hh-sol-artifact-1",
  "contractName": "WebaverseERC721",
  "sourceName": "contracts/main/WebaversERC721.sol",
  "abi": [
    {
      "inputs": [],
      "stateMutability": "nonpayable",
      "type": "constructor"
    },
    {
      "anonymous": false,
      "inputs": [
        {
          "indexed": true,
          "internalType": "address",
          "name": "owner",
          "type": "address"
        },
        {
          "indexed": true,
          "internalType": "address",
          "name": "approved",
          "type": "address"
        },
        {
          "indexed": true,
          "internalType": "uint256",
          "name": "tokenId",
          "type": "uint256"
        }
      ],
      "name": "Approval",
      "type": "event"
    },
    {
      "anonymous": false,
      "inputs": [
        {
          "indexed": true,
          "internalType": "address",
          "name": "owner",
          "type": "address"
        },
        {
          "indexed": true,
          "internalType": "address",
          "name": "operator",
          "type": "address"
        },
        {
          "indexed": false,
          "internalType": "bool",
          "name": "approved",
          "type": "bool"
        }
      ],
      "name": "ApprovalForAll",
      "type": "event"
    },
    {
      "anonymous": false,
      "inputs": [
        {
          "indexed": true,
          "internalType": "address",
          "name": "previousOwner",
          "type": "address"
        },
        {
          "indexed": true,
          "internalType": "address",
          "name": "newOwner",
          "type": "address"
        }
      ],
      "name": "OwnershipTransferred",
      "type": "event"
    },
    {
      "anonymous": false,
      "inputs": [
        {
          "indexed": true,
          "internalType": "address",
          "name": "from",
          "type": "address"
        },
        {
          "indexed": true,
          "internalType": "address",
          "name": "to",
          "type": "address"
        },
        {
          "indexed": true,
          "internalType": "uint256",
          "name": "tokenId",
          "type": "uint256"
        }
      ],
      "name": "Transfer",
      "type": "event"
    },
    {
      "inputs": [
        {
          "internalType": "address",
          "name": "to",
          "type": "address"
        },
        {
          "internalType": "uint256",
          "name": "tokenId",
          "type": "uint256"
        }
      ],
      "name": "approve",
      "outputs": [],
      "stateMutability": "nonpayable",
      "type": "function"
    },
    {
      "inputs": [
        {
          "internalType": "address",
          "name": "owner",
          "type": "address"
        }
      ],
      "name": "balanceOf",
      "outputs": [
        {
          "internalType": "uint256",
          "name": "",
          "type": "uint256"
        }
      ],
      "stateMutability": "view",
      "type": "function"
    },
    {
      "inputs": [
        {
          "internalType": "uint256",
          "name": "",
          "type": "uint256"
        }
      ],
      "name": "burnedNonces",
      "outputs": [
        {
          "internalType": "bool",
          "name": "",
          "type": "bool"
        }
      ],
      "stateMutability": "view",
      "type": "function"
    },
    {
      "inputs": [
        {
          "internalType": "address",
          "name": "claimer",
          "type": "address"
        },
        {
          "components": [
            {
              "internalType": "uint256",
              "name": "tokenId",
              "type": "uint256"
            },
            {
              "internalType": "uint256",
              "name": "balance",
              "type": "uint256"
            },
            {
              "internalType": "uint256",
              "name": "nonce",
              "type": "uint256"
            },
            {
              "internalType": "uint256",
              "name": "expiry",
              "type": "uint256"
            },
            {
              "internalType": "bytes",
              "name": "signature",
              "type": "bytes"
            }
          ],
          "internalType": "struct WBVRSVoucher.NFTVoucher",
          "name": "voucher",
          "type": "tuple"
        }
      ],
      "name": "claim",
      "outputs": [
        {
          "internalType": "uint256",
          "name": "",
          "type": "uint256"
        }
      ],
      "stateMutability": "nonpayable",
      "type": "function"
    },
    {
      "inputs": [],
      "name": "currentTokenID",
      "outputs": [
        {
          "internalType": "uint256",
          "name": "",
          "type": "uint256"
        }
      ],
      "stateMutability": "view",
      "type": "function"
    },
    {
      "inputs": [
        {
          "internalType": "address",
          "name": "claimer",
          "type": "address"
        },
        {
          "internalType": "address",
          "name": "contractAddress",
          "type": "address"
        },
        {
          "components": [
            {
              "internalType": "uint256",
              "name": "tokenId",
              "type": "uint256"
            },
            {
              "internalType": "uint256",
              "name": "balance",
              "type": "uint256"
            },
            {
              "internalType": "uint256",
              "name": "nonce",
              "type": "uint256"
            },
            {
              "internalType": "uint256",
              "name": "expiry",
              "type": "uint256"
            },
            {
              "internalType": "bytes",
              "name": "signature",
              "type": "bytes"
            }
          ],
          "internalType": "struct WBVRSVoucher.NFTVoucher",
          "name": "voucher",
          "type": "tuple"
        }
      ],
      "name": "externalClaim",
      "outputs": [
        {
          "internalType": "uint256",
          "name": "",
          "type": "uint256"
        }
      ],
      "stateMutability": "nonpayable",
      "type": "function"
    },
    {
      "inputs": [
        {
          "internalType": "uint256",
          "name": "tokenId",
          "type": "uint256"
        }
      ],
      "name": "getApproved",
      "outputs": [
        {
          "internalType": "address",
          "name": "",
          "type": "address"
        }
      ],
      "stateMutability": "view",
      "type": "function"
    },
    {
      "inputs": [],
      "name": "getChainID",
      "outputs": [
        {
          "internalType": "uint256",
          "name": "",
          "type": "uint256"
        }
      ],
      "stateMutability": "view",
      "type": "function"
    },
    {
      "inputs": [],
      "name": "getNextTokenId",
      "outputs": [
        {
          "internalType": "uint256",
          "name": "",
          "type": "uint256"
        }
      ],
      "stateMutability": "view",
      "type": "function"
    },
    {
      "inputs": [
        {
          "internalType": "address",
          "name": "owner",
          "type": "address"
        },
        {
          "internalType": "address",
          "name": "operator",
          "type": "address"
        }
      ],
      "name": "isApprovedForAll",
      "outputs": [
        {
          "internalType": "bool",
          "name": "",
          "type": "bool"
        }
      ],
      "stateMutability": "view",
      "type": "function"
    },
    {
      "inputs": [
        {
          "internalType": "address",
          "name": "account",
          "type": "address"
        },
        {
          "internalType": "uint256",
          "name": "tokenId",
          "type": "uint256"
        },
        {
          "internalType": "string",
          "name": "uri",
          "type": "string"
        }
      ],
      "name": "mint",
      "outputs": [
        {
          "internalType": "uint256",
          "name": "",
          "type": "uint256"
        }
      ],
      "stateMutability": "nonpayable",
      "type": "function"
    },
    {
      "inputs": [],
      "name": "name",
      "outputs": [
        {
          "internalType": "string",
          "name": "",
          "type": "string"
        }
      ],
      "stateMutability": "view",
      "type": "function"
    },
    {
      "inputs": [],
      "name": "owner",
      "outputs": [
        {
          "internalType": "address",
          "name": "",
          "type": "address"
        }
      ],
      "stateMutability": "view",
      "type": "function"
    },
    {
      "inputs": [
        {
          "internalType": "uint256",
          "name": "tokenId",
          "type": "uint256"
        }
      ],
      "name": "ownerOf",
      "outputs": [
        {
          "internalType": "address",
          "name": "",
          "type": "address"
        }
      ],
      "stateMutability": "view",
      "type": "function"
    },
    {
      "inputs": [],
      "name": "renounceOwnership",
      "outputs": [],
      "stateMutability": "nonpayable",
      "type": "function"
    },
    {
      "inputs": [
        {
          "internalType": "address",
          "name": "from",
          "type": "address"
        },
        {
          "internalType": "address",
          "name": "to",
          "type": "address"
        },
        {
          "internalType": "uint256",
          "name": "tokenId",
          "type": "uint256"
        }
      ],
      "name": "safeTransferFrom",
      "outputs": [],
      "stateMutability": "nonpayable",
      "type": "function"
    },
    {
      "inputs": [
        {
          "internalType": "address",
          "name": "from",
          "type": "address"
        },
        {
          "internalType": "address",
          "name": "to",
          "type": "address"
        },
        {
          "internalType": "uint256",
          "name": "tokenId",
          "type": "uint256"
        },
        {
          "internalType": "bytes",
          "name": "_data",
          "type": "bytes"
        }
      ],
      "name": "safeTransferFrom",
      "outputs": [],
      "stateMutability": "nonpayable",
      "type": "function"
    },
    {
      "inputs": [
        {
          "internalType": "address",
          "name": "operator",
          "type": "address"
        },
        {
          "internalType": "bool",
          "name": "approved",
          "type": "bool"
        }
      ],
      "name": "setApprovalForAll",
      "outputs": [],
      "stateMutability": "nonpayable",
      "type": "function"
    },
    {
      "inputs": [
        {
          "internalType": "bytes4",
          "name": "interfaceId",
          "type": "bytes4"
        }
      ],
      "name": "supportsInterface",
      "outputs": [
        {
          "internalType": "bool",
          "name": "",
          "type": "bool"
        }
      ],
      "stateMutability": "view",
      "type": "function"
    },
    {
      "inputs": [],
      "name": "symbol",
      "outputs": [
        {
          "internalType": "string",
          "name": "",
          "type": "string"
        }
      ],
      "stateMutability": "view",
      "type": "function"
    },
    {
      "inputs": [
        {
          "internalType": "uint256",
          "name": "tokenId",
          "type": "uint256"
        }
      ],
      "name": "tokenURI",
      "outputs": [
        {
          "internalType": "string",
          "name": "",
          "type": "string"
        }
      ],
      "stateMutability": "view",
      "type": "function"
    },
    {
      "inputs": [
        {
          "internalType": "address",
          "name": "from",
          "type": "address"
        },
        {
          "internalType": "address",
          "name": "to",
          "type": "address"
        },
        {
          "internalType": "uint256",
          "name": "tokenId",
          "type": "uint256"
        }
      ],
      "name": "transferFrom",
      "outputs": [],
      "stateMutability": "nonpayable",
      "type": "function"
    },
    {
      "inputs": [
        {
          "internalType": "address",
          "name": "newOwner",
          "type": "address"
        }
      ],
      "name": "transferOwnership",
      "outputs": [],
      "stateMutability": "nonpayable",
      "type": "function"
    },
    {
      "inputs": [
        {
          "components": [
            {
              "internalType": "uint256",
              "name": "tokenId",
              "type": "uint256"
            },
            {
              "internalType": "uint256",
              "name": "balance",
              "type": "uint256"
            },
            {
              "internalType": "uint256",
              "name": "nonce",
              "type": "uint256"
            },
            {
              "internalType": "uint256",
              "name": "expiry",
              "type": "uint256"
            },
            {
              "internalType": "bytes",
              "name": "signature",
              "type": "bytes"
            }
          ],
          "internalType": "struct WBVRSVoucher.NFTVoucher",
          "name": "voucher",
          "type": "tuple"
        }
      ],
      "name": "verifyVoucher",
      "outputs": [
        {
          "internalType": "address",
          "name": "",
          "type": "address"
        }
      ],
      "stateMutability": "nonpayable",
      "type": "function"
    }
  ],
  "bytecode": "0x61012060405260006009553480156200001757600080fd5b506040518060400160405280600c81526020017f5765626176657273654e465400000000000000000000000000000000000000008152506040518060400160405280600581526020017f57425652530000000000000000000000000000000000000000000000000000008152506040518060400160405280601181526020017f5765626176657273652d766f75636865720000000000000000000000000000008152506040518060400160405280600181526020017f310000000000000000000000000000000000000000000000000000000000000081525060008280519060200120905060008280519060200120905060007f8b73c3c69bb8fe3d512ecc4cf759cc79239f7b179b0ffacaa9a75d522b39400f90508260c081815250508160e081815250504660a0818152505062000158818484620001c760201b60201c565b608081815250508061010081815250505050505050816001908051906020019062000185929190620002d1565b5080600290805190602001906200019e929190620002d1565b505050620001c1620001b56200020360201b60201c565b6200020b60201b60201c565b620004be565b60008383834630604051602001620001e4959493929190620003b4565b6040516020818303038152906040528051906020012090509392505050565b600033905090565b6000600760009054906101000a900473ffffffffffffffffffffffffffffffffffffffff16905081600760006101000a81548173ffffffffffffffffffffffffffffffffffffffff021916908373ffffffffffffffffffffffffffffffffffffffff1602179055508173ffffffffffffffffffffffffffffffffffffffff168173ffffffffffffffffffffffffffffffffffffffff167f8be0079c531659141344cd1fd0a4f28419497f9722a3daafe3b4186f6b6457e060405160405180910390a35050565b828054620002df9062000459565b90600052602060002090601f0160209004810192826200030357600085556200034f565b82601f106200031e57805160ff19168380011785556200034f565b828001600101855582156200034f579182015b828111156200034e57825182559160200191906001019062000331565b5b5090506200035e919062000362565b5090565b5b808211156200037d57600081600090555060010162000363565b5090565b6200038c8162000411565b82525050565b6200039d8162000425565b82525050565b620003ae816200044f565b82525050565b600060a082019050620003cb600083018862000392565b620003da602083018762000392565b620003e9604083018662000392565b620003f86060830185620003a3565b62000407608083018462000381565b9695505050505050565b60006200041e826200042f565b9050919050565b6000819050919050565b600073ffffffffffffffffffffffffffffffffffffffff82169050919050565b6000819050919050565b600060028204905060018216806200047257607f821691505b602082108114156200048957620004886200048f565b5b50919050565b7f4e487b7100000000000000000000000000000000000000000000000000000000600052602260045260246000fd5b60805160a05160c05160e05161010051613fe86200050360003960006124140152600061245601526000612435015260006123c1015260006123e90152613fe86000f3fe608060405234801561001057600080fd5b50600436106101585760003560e01c80639468f2ca116100c3578063bb62115e1161007c578063bb62115e146103eb578063c87b56dd14610409578063caa0f92a14610439578063d3fc986414610457578063e985e9c514610487578063f2fde38b146104b757610158565b80639468f2ca1461030557806395d89b4114610335578063a22cb46514610353578063a8689ce21461036f578063ad637e671461039f578063b88d4fde146103cf57610158565b8063564b81ef11610115578063564b81ef1461022f5780636352211e1461024d57806370a082311461027d578063715018a6146102ad5780637e2499cc146102b75780638da5cb5b146102e757610158565b806301ffc9a71461015d57806306fdde031461018d578063081812fc146101ab578063095ea7b3146101db57806323b872dd146101f757806342842e0e14610213575b600080fd5b61017760048036038101906101729190612b46565b6104d3565b6040516101849190613757565b60405180910390f35b6101956104e5565b6040516101a2919061385d565b60405180910390f35b6101c560048036038101906101c09190612bd9565b610577565b6040516101d291906136b9565b60405180910390f35b6101f560048036038101906101f09190612aa3565b6105fc565b005b610211600480360381019061020c9190612949565b610714565b005b61022d60048036038101906102289190612949565b610774565b005b610237610794565b6040516102449190613bdf565b60405180910390f35b61026760048036038101906102629190612bd9565b6107a1565b60405161027491906136b9565b60405180910390f35b61029760048036038101906102929190612854565b610853565b6040516102a49190613bdf565b60405180910390f35b6102b561090b565b005b6102d160048036038101906102cc9190612bd9565b610993565b6040516102de9190613757565b60405180910390f35b6102ef6109b3565b6040516102fc91906136b9565b60405180910390f35b61031f600480360381019061031a9190612a4f565b6109dd565b60405161032c9190613bdf565b60405180910390f35b61033d610a90565b60405161034a919061385d565b60405180910390f35b61036d60048036038101906103689190612a13565b610b22565b005b610389600480360381019061038491906128e2565b610ca3565b6040516103969190613bdf565b60405180910390f35b6103b960048036038101906103b49190612b98565b610f2d565b6040516103c691906136b9565b60405180910390f35b6103e960048036038101906103e49190612998565b611025565b005b6103f3611087565b6040516104009190613bdf565b60405180910390f35b610423600480360381019061041e9190612bd9565b61108d565b604051610430919061385d565b60405180910390f35b6104416111dc565b60405161044e9190613bdf565b60405180910390f35b610471600480360381019061046c9190612adf565b6111f2565b60405161047e9190613bdf565b60405180910390f35b6104a1600480360381019061049c91906128a6565b611212565b6040516104ae9190613757565b60405180910390f35b6104d160048036038101906104cc9190612854565b6112a6565b005b60006104de8261139e565b9050919050565b6060600180546104f490613e7c565b80601f016020809104026020016040519081016040528092919081815260200182805461052090613e7c565b801561056d5780601f106105425761010080835404028352916020019161056d565b820191906000526020600020905b81548152906001019060200180831161055057829003601f168201915b5050505050905090565b600061058282611480565b6105c1576040517f08c379a00000000000000000000000000000000000000000000000000000000081526004016105b890613aff565b60405180910390fd5b6005600083815260200190815260200160002060009054906101000a900473ffffffffffffffffffffffffffffffffffffffff169050919050565b6000610607826107a1565b90508073ffffffffffffffffffffffffffffffffffffffff168373ffffffffffffffffffffffffffffffffffffffff161415610678576040517f08c379a000000000000000000000000000000000000000000000000000000000815260040161066f90613b7f565b60405180910390fd5b8073ffffffffffffffffffffffffffffffffffffffff166106976114ec565b73ffffffffffffffffffffffffffffffffffffffff1614806106c657506106c5816106c06114ec565b611212565b5b610705576040517f08c379a00000000000000000000000000000000000000000000000000000000081526004016106fc90613a5f565b60405180910390fd5b61070f83836114f4565b505050565b61072561071f6114ec565b826115ad565b610764576040517f08c379a000000000000000000000000000000000000000000000000000000000815260040161075b90613bbf565b60405180910390fd5b61076f83838361168b565b505050565b61078f83838360405180602001604052806000815250611025565b505050565b6000804690508091505090565b6000806003600084815260200190815260200160002060009054906101000a900473ffffffffffffffffffffffffffffffffffffffff169050600073ffffffffffffffffffffffffffffffffffffffff168173ffffffffffffffffffffffffffffffffffffffff16141561084a576040517f08c379a000000000000000000000000000000000000000000000000000000000815260040161084190613a9f565b60405180910390fd5b80915050919050565b60008073ffffffffffffffffffffffffffffffffffffffff168273ffffffffffffffffffffffffffffffffffffffff1614156108c4576040517f08c379a00000000000000000000000000000000000000000000000000000000081526004016108bb90613a7f565b60405180910390fd5b600460008373ffffffffffffffffffffffffffffffffffffffff1673ffffffffffffffffffffffffffffffffffffffff168152602001908152602001600020549050919050565b6109136114ec565b73ffffffffffffffffffffffffffffffffffffffff166109316109b3565b73ffffffffffffffffffffffffffffffffffffffff1614610987576040517f08c379a000000000000000000000000000000000000000000000000000000000815260040161097e90613b1f565b60405180910390fd5b61099160006118e7565b565b60006020528060005260406000206000915054906101000a900460ff1681565b6000600760009054906101000a900473ffffffffffffffffffffffffffffffffffffffff16905090565b6000806109e983610f2d565b90506109f883600001356107a1565b73ffffffffffffffffffffffffffffffffffffffff168173ffffffffffffffffffffffffffffffffffffffff1614610a65576040517f08c379a0000000000000000000000000000000000000000000000000000000008152600401610a5c90613b9f565b60405180910390fd5b610a733084600001356114f4565b610a828185856000013561168b565b826000013591505092915050565b606060028054610a9f90613e7c565b80601f0160208091040260200160405190810160405280929190818152602001828054610acb90613e7c565b8015610b185780601f10610aed57610100808354040283529160200191610b18565b820191906000526020600020905b815481529060010190602001808311610afb57829003601f168201915b5050505050905090565b610b2a6114ec565b73ffffffffffffffffffffffffffffffffffffffff168273ffffffffffffffffffffffffffffffffffffffff161415610b98576040517f08c379a0000000000000000000000000000000000000000000000000000000008152600401610b8f9061399f565b60405180910390fd5b8060066000610ba56114ec565b73ffffffffffffffffffffffffffffffffffffffff1673ffffffffffffffffffffffffffffffffffffffff16815260200190815260200160002060008473ffffffffffffffffffffffffffffffffffffffff1673ffffffffffffffffffffffffffffffffffffffff16815260200190815260200160002060006101000a81548160ff0219169083151502179055508173ffffffffffffffffffffffffffffffffffffffff16610c526114ec565b73ffffffffffffffffffffffffffffffffffffffff167f17307eab39ab6107e8899845ad3d59bd9653f200f220920489ca2b5937696c3183604051610c979190613757565b60405180910390a35050565b6000808390506000610cb484610f2d565b90508173ffffffffffffffffffffffffffffffffffffffff16636352211e85600001356040518263ffffffff1660e01b8152600401610cf39190613bdf565b60206040518083038186803b158015610d0b57600080fd5b505afa158015610d1f573d6000803e3d6000fd5b505050506040513d601f19601f82011682018060405250810190610d43919061287d565b73ffffffffffffffffffffffffffffffffffffffff168173ffffffffffffffffffffffffffffffffffffffff1614610db0576040517f08c379a0000000000000000000000000000000000000000000000000000000008152600401610da790613b9f565b60405180910390fd5b3073ffffffffffffffffffffffffffffffffffffffff168273ffffffffffffffffffffffffffffffffffffffff1663081812fc86600001356040518263ffffffff1660e01b8152600401610e049190613bdf565b60206040518083038186803b158015610e1c57600080fd5b505afa158015610e30573d6000803e3d6000fd5b505050506040513d601f19601f82011682018060405250810190610e54919061287d565b73ffffffffffffffffffffffffffffffffffffffff1614610eaa576040517f08c379a0000000000000000000000000000000000000000000000000000000008152600401610ea190613b5f565b60405180910390fd5b8173ffffffffffffffffffffffffffffffffffffffff166323b872dd828887600001356040518463ffffffff1660e01b8152600401610eeb939291906136d4565b600060405180830381600087803b158015610f0557600080fd5b505af1158015610f19573d6000803e3d6000fd5b505050508360000135925050509392505050565b60008160600135421115610f76576040517f08c379a0000000000000000000000000000000000000000000000000000000008152600401610f6d906138ff565b60405180910390fd5b600015156000808460400135815260200190815260200160002060009054906101000a900460ff16151514610fe0576040517f08c379a0000000000000000000000000000000000000000000000000000000008152600401610fd790613a3f565b60405180910390fd5b60016000808460400135815260200190815260200160002060006101000a81548160ff021916908315150217905550600061101a836119ad565b905080915050919050565b6110366110306114ec565b836115ad565b611075576040517f08c379a000000000000000000000000000000000000000000000000000000000815260040161106c90613bbf565b60405180910390fd5b61108184848484611a1f565b50505050565b60095481565b606061109882611480565b6110d7576040517f08c379a00000000000000000000000000000000000000000000000000000000081526004016110ce906138bf565b60405180910390fd5b60006008600084815260200190815260200160002080546110f790613e7c565b905011611139576040517f08c379a0000000000000000000000000000000000000000000000000000000008152600401611130906139bf565b60405180910390fd5b60086000838152602001908152602001600020805461115790613e7c565b80601f016020809104026020016040519081016040528092919081815260200182805461118390613e7c565b80156111d05780601f106111a5576101008083540402835291602001916111d0565b820191906000526020600020905b8154815290600101906020018083116111b357829003601f168201915b50505050509050919050565b600060016009546111ed9190613d25565b905090565b60006111fe8484611a7b565b6112088383611c49565b8290509392505050565b6000600660008473ffffffffffffffffffffffffffffffffffffffff1673ffffffffffffffffffffffffffffffffffffffff16815260200190815260200160002060008373ffffffffffffffffffffffffffffffffffffffff1673ffffffffffffffffffffffffffffffffffffffff16815260200190815260200160002060009054906101000a900460ff16905092915050565b6112ae6114ec565b73ffffffffffffffffffffffffffffffffffffffff166112cc6109b3565b73ffffffffffffffffffffffffffffffffffffffff1614611322576040517f08c379a000000000000000000000000000000000000000000000000000000000815260040161131990613b1f565b60405180910390fd5b600073ffffffffffffffffffffffffffffffffffffffff168173ffffffffffffffffffffffffffffffffffffffff161415611392576040517f08c379a00000000000000000000000000000000000000000000000000000000081526004016113899061391f565b60405180910390fd5b61139b816118e7565b50565b60007f80ac58cd000000000000000000000000000000000000000000000000000000007bffffffffffffffffffffffffffffffffffffffffffffffffffffffff1916827bffffffffffffffffffffffffffffffffffffffffffffffffffffffff1916148061146957507f5b5e139f000000000000000000000000000000000000000000000000000000007bffffffffffffffffffffffffffffffffffffffffffffffffffffffff1916827bffffffffffffffffffffffffffffffffffffffffffffffffffffffff1916145b80611479575061147882611d1f565b5b9050919050565b60008073ffffffffffffffffffffffffffffffffffffffff166003600084815260200190815260200160002060009054906101000a900473ffffffffffffffffffffffffffffffffffffffff1673ffffffffffffffffffffffffffffffffffffffff1614159050919050565b600033905090565b816005600083815260200190815260200160002060006101000a81548173ffffffffffffffffffffffffffffffffffffffff021916908373ffffffffffffffffffffffffffffffffffffffff160217905550808273ffffffffffffffffffffffffffffffffffffffff16611567836107a1565b73ffffffffffffffffffffffffffffffffffffffff167f8c5be1e5ebec7d5bd14f71427d1e84f3dd0314c0f7b2291e5b200ac8c7c3b92560405160405180910390a45050565b60006115b882611480565b6115f7576040517f08c379a00000000000000000000000000000000000000000000000000000000081526004016115ee906139ff565b60405180910390fd5b6000611602836107a1565b90508073ffffffffffffffffffffffffffffffffffffffff168473ffffffffffffffffffffffffffffffffffffffff16148061167157508373ffffffffffffffffffffffffffffffffffffffff1661165984610577565b73ffffffffffffffffffffffffffffffffffffffff16145b8061168257506116818185611212565b5b91505092915050565b8273ffffffffffffffffffffffffffffffffffffffff166116ab826107a1565b73ffffffffffffffffffffffffffffffffffffffff1614611701576040517f08c379a00000000000000000000000000000000000000000000000000000000081526004016116f890613b3f565b60405180910390fd5b600073ffffffffffffffffffffffffffffffffffffffff168273ffffffffffffffffffffffffffffffffffffffff161415611771576040517f08c379a00000000000000000000000000000000000000000000000000000000081526004016117689061397f565b60405180910390fd5b61177c838383611d89565b6117876000826114f4565b6001600460008573ffffffffffffffffffffffffffffffffffffffff1673ffffffffffffffffffffffffffffffffffffffff16815260200190815260200160002060008282546117d79190613d7b565b925050819055506001600460008473ffffffffffffffffffffffffffffffffffffffff1673ffffffffffffffffffffffffffffffffffffffff168152602001908152602001600020600082825461182e9190613d25565b92505081905550816003600083815260200190815260200160002060006101000a81548173ffffffffffffffffffffffffffffffffffffffff021916908373ffffffffffffffffffffffffffffffffffffffff160217905550808273ffffffffffffffffffffffffffffffffffffffff168473ffffffffffffffffffffffffffffffffffffffff167fddf252ad1be2c89b69c2b068fc378daa952ba7f163c4a11628f55a4df523b3ef60405160405180910390a4505050565b6000600760009054906101000a900473ffffffffffffffffffffffffffffffffffffffff16905081600760006101000a81548173ffffffffffffffffffffffffffffffffffffffff021916908373ffffffffffffffffffffffffffffffffffffffff1602179055508173ffffffffffffffffffffffffffffffffffffffff168173ffffffffffffffffffffffffffffffffffffffff167f8be0079c531659141344cd1fd0a4f28419497f9722a3daafe3b4186f6b6457e060405160405180910390a35050565b6000806119b983611d8e565b9050611a17818480608001906119cf9190613bfa565b8080601f016020809104026020016040519081016040528093929190818152602001838380828437600081840152601f19601f82011690508083019250505050505050611dfe565b915050919050565b611a2a84848461168b565b611a3684848484611e25565b611a75576040517f08c379a0000000000000000000000000000000000000000000000000000000008152600401611a6c906138df565b60405180910390fd5b50505050565b600073ffffffffffffffffffffffffffffffffffffffff168273ffffffffffffffffffffffffffffffffffffffff161415611aeb576040517f08c379a0000000000000000000000000000000000000000000000000000000008152600401611ae290613adf565b60405180910390fd5b611af481611480565b15611b34576040517f08c379a0000000000000000000000000000000000000000000000000000000008152600401611b2b9061393f565b60405180910390fd5b611b4060008383611d89565b6001600460008473ffffffffffffffffffffffffffffffffffffffff1673ffffffffffffffffffffffffffffffffffffffff1681526020019081526020016000206000828254611b909190613d25565b92505081905550816003600083815260200190815260200160002060006101000a81548173ffffffffffffffffffffffffffffffffffffffff021916908373ffffffffffffffffffffffffffffffffffffffff160217905550808273ffffffffffffffffffffffffffffffffffffffff16600073ffffffffffffffffffffffffffffffffffffffff167fddf252ad1be2c89b69c2b068fc378daa952ba7f163c4a11628f55a4df523b3ef60405160405180910390a45050565b611c5282611480565b611c91576040517f08c379a0000000000000000000000000000000000000000000000000000000008152600401611c889061395f565b60405180910390fd5b6000600860008481526020019081526020016000208054611cb190613e7c565b905014611cf3576040517f08c379a0000000000000000000000000000000000000000000000000000000008152600401611cea90613a1f565b60405180910390fd5b80600860008481526020019081526020016000209080519060200190611d1a929190612648565b505050565b60007f01ffc9a7000000000000000000000000000000000000000000000000000000007bffffffffffffffffffffffffffffffffffffffffffffffffffffffff1916827bffffffffffffffffffffffffffffffffffffffffffffffffffffffff1916149050919050565b505050565b6000611df77f9351747b1e9d1d5ecc2259decffb60239f521e243e85645e0762ed1d775876778360000135846020013585604001358660600135604051602001611ddc9594939291906137c5565b60405160208183030381529060405280519060200120611fbc565b9050919050565b6000806000611e0d8585611fd6565b91509150611e1a81612059565b819250505092915050565b6000611e468473ffffffffffffffffffffffffffffffffffffffff166123aa565b15611faf578373ffffffffffffffffffffffffffffffffffffffff1663150b7a02611e6f6114ec565b8786866040518563ffffffff1660e01b8152600401611e91949392919061370b565b602060405180830381600087803b158015611eab57600080fd5b505af1925050508015611edc57506040513d601f19601f82011682018060405250810190611ed99190612b6f565b60015b611f5f573d8060008114611f0c576040519150601f19603f3d011682016040523d82523d6000602084013e611f11565b606091505b50600081511415611f57576040517f08c379a0000000000000000000000000000000000000000000000000000000008152600401611f4e906138df565b60405180910390fd5b805181602001fd5b63150b7a0260e01b7bffffffffffffffffffffffffffffffffffffffffffffffffffffffff1916817bffffffffffffffffffffffffffffffffffffffffffffffffffffffff191614915050611fb4565b600190505b949350505050565b6000611fcf611fc96123bd565b83612480565b9050919050565b6000806041835114156120185760008060006020860151925060408601519150606086015160001a905061200c878285856124b3565b94509450505050612052565b60408351141561204957600080602085015191506040850151905061203e8683836125c0565b935093505050612052565b60006002915091505b9250929050565b60006004811115612093577f4e487b7100000000000000000000000000000000000000000000000000000000600052602160045260246000fd5b8160048111156120cc577f4e487b7100000000000000000000000000000000000000000000000000000000600052602160045260246000fd5b14156120d7576123a7565b60016004811115612111577f4e487b7100000000000000000000000000000000000000000000000000000000600052602160045260246000fd5b81600481111561214a577f4e487b7100000000000000000000000000000000000000000000000000000000600052602160045260246000fd5b141561218b576040517f08c379a00000000000000000000000000000000000000000000000000000000081526004016121829061387f565b60405180910390fd5b600260048111156121c5577f4e487b7100000000000000000000000000000000000000000000000000000000600052602160045260246000fd5b8160048111156121fe577f4e487b7100000000000000000000000000000000000000000000000000000000600052602160045260246000fd5b141561223f576040517f08c379a00000000000000000000000000000000000000000000000000000000081526004016122369061389f565b60405180910390fd5b60036004811115612279577f4e487b7100000000000000000000000000000000000000000000000000000000600052602160045260246000fd5b8160048111156122b2577f4e487b7100000000000000000000000000000000000000000000000000000000600052602160045260246000fd5b14156122f3576040517f08c379a00000000000000000000000000000000000000000000000000000000081526004016122ea906139df565b60405180910390fd5b60048081111561232c577f4e487b7100000000000000000000000000000000000000000000000000000000600052602160045260246000fd5b816004811115612365577f4e487b7100000000000000000000000000000000000000000000000000000000600052602160045260246000fd5b14156123a6576040517f08c379a000000000000000000000000000000000000000000000000000000000815260040161239d90613abf565b60405180910390fd5b5b50565b600080823b905060008111915050919050565b60007f000000000000000000000000000000000000000000000000000000000000000046141561240f577f0000000000000000000000000000000000000000000000000000000000000000905061247d565b61247a7f00000000000000000000000000000000000000000000000000000000000000007f00000000000000000000000000000000000000000000000000000000000000007f000000000000000000000000000000000000000000000000000000000000000061260e565b90505b90565b60008282604051602001612495929190613682565b60405160208183030381529060405280519060200120905092915050565b6000807f7fffffffffffffffffffffffffffffff5d576e7357a4501ddfe92f46681b20a08360001c11156124ee5760006003915091506125b7565b601b8560ff16141580156125065750601c8560ff1614155b156125185760006004915091506125b7565b60006001878787876040516000815260200160405260405161253d9493929190613818565b6020604051602081039080840390855afa15801561255f573d6000803e3d6000fd5b505050602060405103519050600073ffffffffffffffffffffffffffffffffffffffff168173ffffffffffffffffffffffffffffffffffffffff1614156125ae576000600192509250506125b7565b80600092509250505b94509492505050565b6000806000807f7fffffffffffffffffffffffffffffffffffffffffffffffffffffffffffffff85169150601b8560ff1c019050612600878288856124b3565b935093505050935093915050565b60008383834630604051602001612629959493929190613772565b6040516020818303038152906040528051906020012090509392505050565b82805461265490613e7c565b90600052602060002090601f01602090048101928261267657600085556126bd565b82601f1061268f57805160ff19168380011785556126bd565b828001600101855582156126bd579182015b828111156126bc5782518255916020019190600101906126a1565b5b5090506126ca91906126ce565b5090565b5b808211156126e75760008160009055506001016126cf565b5090565b60006126fe6126f984613c82565b613c51565b90508281526020810184848401111561271657600080fd5b612721848285613e3a565b509392505050565b600061273c61273784613cb2565b613c51565b90508281526020810184848401111561275457600080fd5b61275f848285613e3a565b509392505050565b60008135905061277681613f56565b92915050565b60008151905061278b81613f56565b92915050565b6000813590506127a081613f6d565b92915050565b6000813590506127b581613f84565b92915050565b6000815190506127ca81613f84565b92915050565b600082601f8301126127e157600080fd5b81356127f18482602086016126eb565b91505092915050565b600082601f83011261280b57600080fd5b813561281b848260208601612729565b91505092915050565b600060a0828403121561283657600080fd5b81905092915050565b60008135905061284e81613f9b565b92915050565b60006020828403121561286657600080fd5b600061287484828501612767565b91505092915050565b60006020828403121561288f57600080fd5b600061289d8482850161277c565b91505092915050565b600080604083850312156128b957600080fd5b60006128c785828601612767565b92505060206128d885828601612767565b9150509250929050565b6000806000606084860312156128f757600080fd5b600061290586828701612767565b935050602061291686828701612767565b925050604084013567ffffffffffffffff81111561293357600080fd5b61293f86828701612824565b9150509250925092565b60008060006060848603121561295e57600080fd5b600061296c86828701612767565b935050602061297d86828701612767565b925050604061298e8682870161283f565b9150509250925092565b600080600080608085870312156129ae57600080fd5b60006129bc87828801612767565b94505060206129cd87828801612767565b93505060406129de8782880161283f565b925050606085013567ffffffffffffffff8111156129fb57600080fd5b612a07878288016127d0565b91505092959194509250565b60008060408385031215612a2657600080fd5b6000612a3485828601612767565b9250506020612a4585828601612791565b9150509250929050565b60008060408385031215612a6257600080fd5b6000612a7085828601612767565b925050602083013567ffffffffffffffff811115612a8d57600080fd5b612a9985828601612824565b9150509250929050565b60008060408385031215612ab657600080fd5b6000612ac485828601612767565b9250506020612ad58582860161283f565b9150509250929050565b600080600060608486031215612af457600080fd5b6000612b0286828701612767565b9350506020612b138682870161283f565b925050604084013567ffffffffffffffff811115612b3057600080fd5b612b3c868287016127fa565b9150509250925092565b600060208284031215612b5857600080fd5b6000612b66848285016127a6565b91505092915050565b600060208284031215612b8157600080fd5b6000612b8f848285016127bb565b91505092915050565b600060208284031215612baa57600080fd5b600082013567ffffffffffffffff811115612bc457600080fd5b612bd084828501612824565b91505092915050565b600060208284031215612beb57600080fd5b6000612bf98482850161283f565b91505092915050565b612c0b81613daf565b82525050565b612c1a81613dc1565b82525050565b612c2981613dcd565b82525050565b612c40612c3b82613dcd565b613eae565b82525050565b6000612c5182613ce2565b612c5b8185613cf8565b9350612c6b818560208601613e49565b612c7481613f45565b840191505092915050565b6000612c8a82613ced565b612c948185613d09565b9350612ca4818560208601613e49565b612cad81613f45565b840191505092915050565b6000612cc5601883613d09565b91507f45434453413a20696e76616c6964207369676e617475726500000000000000006000830152602082019050919050565b6000612d05601f83613d09565b91507f45434453413a20696e76616c6964207369676e6174757265206c656e677468006000830152602082019050919050565b6000612d45602683613d09565b91507f746f6b656e5552493a20517565727920666f72206e6f6e206578697374656e7460008301527f20746f6b656e00000000000000000000000000000000000000000000000000006020830152604082019050919050565b6000612dab603283613d09565b91507f4552433732313a207472616e7366657220746f206e6f6e20455243373231526560008301527f63656976657220696d706c656d656e74657200000000000000000000000000006020830152604082019050919050565b6000612e11601b83613d09565b91507f566f75636865722068617320616c7265616479206578706972656400000000006000830152602082019050919050565b6000612e51602683613d09565b91507f4f776e61626c653a206e6577206f776e657220697320746865207a65726f206160008301527f64647265737300000000000000000000000000000000000000000000000000006020830152604082019050919050565b6000612eb7601c83613d09565b91507f4552433732313a20746f6b656e20616c7265616479206d696e746564000000006000830152602082019050919050565b6000612ef7600283613d1a565b91507f19010000000000000000000000000000000000000000000000000000000000006000830152600282019050919050565b6000612f37602e83613d09565b91507f53657474696e672055524920666f72206e6f6e2d6578697374656e7420746f6b60008301527f656e206e6f7420616c6c6f7765640000000000000000000000000000000000006020830152604082019050919050565b6000612f9d602483613d09565b91507f4552433732313a207472616e7366657220746f20746865207a65726f2061646460008301527f72657373000000000000000000000000000000000000000000000000000000006020830152604082019050919050565b6000613003601983613d09565b91507f4552433732313a20617070726f766520746f2063616c6c6572000000000000006000830152602082019050919050565b6000613043602383613d09565b91507f4572726f723a20555249206f66207468697320746f6b656e206973206e6f742060008301527f73657400000000000000000000000000000000000000000000000000000000006020830152604082019050919050565b60006130a9602283613d09565b91507f45434453413a20696e76616c6964207369676e6174757265202773272076616c60008301527f75650000000000000000000000000000000000000000000000000000000000006020830152604082019050919050565b600061310f602c83613d09565b91507f4552433732313a206f70657261746f7220717565727920666f72206e6f6e657860008301527f697374656e7420746f6b656e00000000000000000000000000000000000000006020830152604082019050919050565b6000613175601f83613d09565b91507f5468697320746f6b656e27732055524920616c726561647920657869737473006000830152602082019050919050565b60006131b5601383613d09565b91507f496e76616c6964206e6f6e63652076616c7565000000000000000000000000006000830152602082019050919050565b60006131f5603883613d09565b91507f4552433732313a20617070726f76652063616c6c6572206973206e6f74206f7760008301527f6e6572206e6f7220617070726f76656420666f7220616c6c00000000000000006020830152604082019050919050565b600061325b602a83613d09565b91507f4552433732313a2062616c616e636520717565727920666f7220746865207a6560008301527f726f2061646472657373000000000000000000000000000000000000000000006020830152604082019050919050565b60006132c1602983613d09565b91507f4552433732313a206f776e657220717565727920666f72206e6f6e657869737460008301527f656e7420746f6b656e00000000000000000000000000000000000000000000006020830152604082019050919050565b6000613327602283613d09565b91507f45434453413a20696e76616c6964207369676e6174757265202776272076616c60008301527f75650000000000000000000000000000000000000000000000000000000000006020830152604082019050919050565b600061338d602083613d09565b91507f4552433732313a206d696e7420746f20746865207a65726f20616464726573736000830152602082019050919050565b60006133cd602c83613d09565b91507f4552433732313a20617070726f76656420717565727920666f72206e6f6e657860008301527f697374656e7420746f6b656e00000000000000000000000000000000000000006020830152604082019050919050565b6000613433602083613d09565b91507f4f776e61626c653a2063616c6c6572206973206e6f7420746865206f776e65726000830152602082019050919050565b6000613473602983613d09565b91507f4552433732313a207472616e73666572206f6620746f6b656e2074686174206960008301527f73206e6f74206f776e00000000000000000000000000000000000000000000006020830152604082019050919050565b60006134d9602c83613d09565b91507f5468697320636f6e747261637420686173206e6f20617070726f76616c20666f60008301527f72207468697320746f6b656e00000000000000000000000000000000000000006020830152604082019050919050565b600061353f602183613d09565b91507f4552433732313a20617070726f76616c20746f2063757272656e74206f776e6560008301527f72000000000000000000000000000000000000000000000000000000000000006020830152604082019050919050565b60006135a5602783613d09565b91507f417574686f72697a6174696f6e206661696c65643a20496e76616c696420736960008301527f676e6174757265000000000000000000000000000000000000000000000000006020830152604082019050919050565b600061360b603183613d09565b91507f4552433732313a207472616e736665722063616c6c6572206973206e6f74206f60008301527f776e6572206e6f7220617070726f7665640000000000000000000000000000006020830152604082019050919050565b61366d81613e23565b82525050565b61367c81613e2d565b82525050565b600061368d82612eea565b91506136998285612c2f565b6020820191506136a98284612c2f565b6020820191508190509392505050565b60006020820190506136ce6000830184612c02565b92915050565b60006060820190506136e96000830186612c02565b6136f66020830185612c02565b6137036040830184613664565b949350505050565b60006080820190506137206000830187612c02565b61372d6020830186612c02565b61373a6040830185613664565b818103606083015261374c8184612c46565b905095945050505050565b600060208201905061376c6000830184612c11565b92915050565b600060a0820190506137876000830188612c20565b6137946020830187612c20565b6137a16040830186612c20565b6137ae6060830185613664565b6137bb6080830184612c02565b9695505050505050565b600060a0820190506137da6000830188612c20565b6137e76020830187613664565b6137f46040830186613664565b6138016060830185613664565b61380e6080830184613664565b9695505050505050565b600060808201905061382d6000830187612c20565b61383a6020830186613673565b6138476040830185612c20565b6138546060830184612c20565b95945050505050565b600060208201905081810360008301526138778184612c7f565b905092915050565b6000602082019050818103600083015261389881612cb8565b9050919050565b600060208201905081810360008301526138b881612cf8565b9050919050565b600060208201905081810360008301526138d881612d38565b9050919050565b600060208201905081810360008301526138f881612d9e565b9050919050565b6000602082019050818103600083015261391881612e04565b9050919050565b6000602082019050818103600083015261393881612e44565b9050919050565b6000602082019050818103600083015261395881612eaa565b9050919050565b6000602082019050818103600083015261397881612f2a565b9050919050565b6000602082019050818103600083015261399881612f90565b9050919050565b600060208201905081810360008301526139b881612ff6565b9050919050565b600060208201905081810360008301526139d881613036565b9050919050565b600060208201905081810360008301526139f88161309c565b9050919050565b60006020820190508181036000830152613a1881613102565b9050919050565b60006020820190508181036000830152613a3881613168565b9050919050565b60006020820190508181036000830152613a58816131a8565b9050919050565b60006020820190508181036000830152613a78816131e8565b9050919050565b60006020820190508181036000830152613a988161324e565b9050919050565b60006020820190508181036000830152613ab8816132b4565b9050919050565b60006020820190508181036000830152613ad88161331a565b9050919050565b60006020820190508181036000830152613af881613380565b9050919050565b60006020820190508181036000830152613b18816133c0565b9050919050565b60006020820190508181036000830152613b3881613426565b9050919050565b60006020820190508181036000830152613b5881613466565b9050919050565b60006020820190508181036000830152613b78816134cc565b9050919050565b60006020820190508181036000830152613b9881613532565b9050919050565b60006020820190508181036000830152613bb881613598565b9050919050565b60006020820190508181036000830152613bd8816135fe565b9050919050565b6000602082019050613bf46000830184613664565b92915050565b60008083356001602003843603038112613c1357600080fd5b80840192508235915067ffffffffffffffff821115613c3157600080fd5b602083019250600182023603831315613c4957600080fd5b509250929050565b6000604051905081810181811067ffffffffffffffff82111715613c7857613c77613f16565b5b8060405250919050565b600067ffffffffffffffff821115613c9d57613c9c613f16565b5b601f19601f8301169050602081019050919050565b600067ffffffffffffffff821115613ccd57613ccc613f16565b5b601f19601f8301169050602081019050919050565b600081519050919050565b600081519050919050565b600082825260208201905092915050565b600082825260208201905092915050565b600081905092915050565b6000613d3082613e23565b9150613d3b83613e23565b9250827fffffffffffffffffffffffffffffffffffffffffffffffffffffffffffffffff03821115613d7057613d6f613eb8565b5b828201905092915050565b6000613d8682613e23565b9150613d9183613e23565b925082821015613da457613da3613eb8565b5b828203905092915050565b6000613dba82613e03565b9050919050565b60008115159050919050565b6000819050919050565b60007fffffffff0000000000000000000000000000000000000000000000000000000082169050919050565b600073ffffffffffffffffffffffffffffffffffffffff82169050919050565b6000819050919050565b600060ff82169050919050565b82818337600083830152505050565b60005b83811015613e67578082015181840152602081019050613e4c565b83811115613e76576000848401525b50505050565b60006002820490506001821680613e9457607f821691505b60208210811415613ea857613ea7613ee7565b5b50919050565b6000819050919050565b7f4e487b7100000000000000000000000000000000000000000000000000000000600052601160045260246000fd5b7f4e487b7100000000000000000000000000000000000000000000000000000000600052602260045260246000fd5b7f4e487b7100000000000000000000000000000000000000000000000000000000600052604160045260246000fd5b6000601f19601f8301169050919050565b613f5f81613daf565b8114613f6a57600080fd5b50565b613f7681613dc1565b8114613f8157600080fd5b50565b613f8d81613dd7565b8114613f9857600080fd5b50565b613fa481613e23565b8114613faf57600080fd5b5056fea2646970667358221220467ae88c0f4b517f86e42bfed0334e96813bd11229bc051683e433df126444e364736f6c63430008000033",
  "linkReferences": {},
  "deployedLinkReferences": {}
}