{
  "_format": "hh-sol-artifact-1",
  "contractName": "WebaverseERC721",
  "sourceName": "contracts/main/WebaversERC721.sol",
  "abi": [
    {
      "inputs": [],
      "stateMutability": "nonpayable",
      "type": "constructor"
    },
    {
      "anonymous": false,
      "inputs": [
        {
          "indexed": true,
          "internalType": "address",
          "name": "owner",
          "type": "address"
        },
        {
          "indexed": true,
          "internalType": "address",
          "name": "approved",
          "type": "address"
        },
        {
          "indexed": true,
          "internalType": "uint256",
          "name": "tokenId",
          "type": "uint256"
        }
      ],
      "name": "Approval",
      "type": "event"
    },
    {
      "anonymous": false,
      "inputs": [
        {
          "indexed": true,
          "internalType": "address",
          "name": "owner",
          "type": "address"
        },
        {
          "indexed": true,
          "internalType": "address",
          "name": "operator",
          "type": "address"
        },
        {
          "indexed": false,
          "internalType": "bool",
          "name": "approved",
          "type": "bool"
        }
      ],
      "name": "ApprovalForAll",
      "type": "event"
    },
    {
      "anonymous": false,
      "inputs": [
        {
          "indexed": true,
          "internalType": "address",
          "name": "previousOwner",
          "type": "address"
        },
        {
          "indexed": true,
          "internalType": "address",
          "name": "newOwner",
          "type": "address"
        }
      ],
      "name": "OwnershipTransferred",
      "type": "event"
    },
    {
      "anonymous": false,
      "inputs": [
        {
          "indexed": true,
          "internalType": "address",
          "name": "from",
          "type": "address"
        },
        {
          "indexed": true,
          "internalType": "address",
          "name": "to",
          "type": "address"
        },
        {
          "indexed": true,
          "internalType": "uint256",
          "name": "tokenId",
          "type": "uint256"
        }
      ],
      "name": "Transfer",
      "type": "event"
    },
    {
      "inputs": [
        {
          "internalType": "address",
          "name": "to",
          "type": "address"
        },
        {
          "internalType": "uint256",
          "name": "tokenId",
          "type": "uint256"
        }
      ],
      "name": "approve",
      "outputs": [],
      "stateMutability": "nonpayable",
      "type": "function"
    },
    {
      "inputs": [
        {
          "internalType": "address",
          "name": "owner",
          "type": "address"
        }
      ],
      "name": "balanceOf",
      "outputs": [
        {
          "internalType": "uint256",
          "name": "",
          "type": "uint256"
        }
      ],
      "stateMutability": "view",
      "type": "function"
    },
    {
      "inputs": [
        {
          "internalType": "uint256",
          "name": "",
          "type": "uint256"
        }
      ],
      "name": "burnedNonces",
      "outputs": [
        {
          "internalType": "bool",
          "name": "",
          "type": "bool"
        }
      ],
      "stateMutability": "view",
      "type": "function"
    },
    {
      "inputs": [
        {
          "internalType": "address",
          "name": "claimer",
          "type": "address"
        },
        {
          "components": [
            {
              "internalType": "uint256",
              "name": "tokenId",
              "type": "uint256"
            },
            {
              "internalType": "uint256",
              "name": "balance",
              "type": "uint256"
            },
            {
              "internalType": "uint256",
              "name": "nonce",
              "type": "uint256"
            },
            {
              "internalType": "uint256",
              "name": "expiry",
              "type": "uint256"
            },
            {
              "internalType": "bytes",
              "name": "signature",
              "type": "bytes"
            }
          ],
          "internalType": "struct WBVRSVoucher.NFTVoucher",
          "name": "voucher",
          "type": "tuple"
        }
      ],
      "name": "claim",
      "outputs": [
        {
          "internalType": "uint256",
          "name": "",
          "type": "uint256"
        }
      ],
      "stateMutability": "nonpayable",
      "type": "function"
    },
    {
      "inputs": [],
      "name": "currentTokenID",
      "outputs": [
        {
          "internalType": "uint256",
          "name": "",
          "type": "uint256"
        }
      ],
      "stateMutability": "view",
      "type": "function"
    },
    {
      "inputs": [
        {
          "internalType": "address",
          "name": "claimer",
          "type": "address"
        },
        {
          "internalType": "address",
          "name": "contractAddress",
          "type": "address"
        },
        {
          "components": [
            {
              "internalType": "uint256",
              "name": "tokenId",
              "type": "uint256"
            },
            {
              "internalType": "uint256",
              "name": "balance",
              "type": "uint256"
            },
            {
              "internalType": "uint256",
              "name": "nonce",
              "type": "uint256"
            },
            {
              "internalType": "uint256",
              "name": "expiry",
              "type": "uint256"
            },
            {
              "internalType": "bytes",
              "name": "signature",
              "type": "bytes"
            }
          ],
          "internalType": "struct WBVRSVoucher.NFTVoucher",
          "name": "voucher",
          "type": "tuple"
        }
      ],
      "name": "externalClaim",
      "outputs": [
        {
          "internalType": "uint256",
          "name": "",
          "type": "uint256"
        }
      ],
      "stateMutability": "nonpayable",
      "type": "function"
    },
    {
      "inputs": [
        {
          "internalType": "uint256",
          "name": "tokenId",
          "type": "uint256"
        }
      ],
      "name": "getApproved",
      "outputs": [
        {
          "internalType": "address",
          "name": "",
          "type": "address"
        }
      ],
      "stateMutability": "view",
      "type": "function"
    },
    {
      "inputs": [],
      "name": "getChainID",
      "outputs": [
        {
          "internalType": "uint256",
          "name": "",
          "type": "uint256"
        }
      ],
      "stateMutability": "view",
      "type": "function"
    },
    {
      "inputs": [],
      "name": "getNextTokenId",
      "outputs": [
        {
          "internalType": "uint256",
          "name": "",
          "type": "uint256"
        }
      ],
      "stateMutability": "view",
      "type": "function"
    },
    {
      "inputs": [
        {
          "internalType": "address",
          "name": "owner",
          "type": "address"
        },
        {
          "internalType": "address",
          "name": "operator",
          "type": "address"
        }
      ],
      "name": "isApprovedForAll",
      "outputs": [
        {
          "internalType": "bool",
          "name": "",
          "type": "bool"
        }
      ],
      "stateMutability": "view",
      "type": "function"
    },
    {
      "inputs": [
        {
          "internalType": "address",
          "name": "account",
          "type": "address"
        },
        {
          "internalType": "string",
          "name": "uri",
          "type": "string"
        }
      ],
      "name": "mint",
      "outputs": [
        {
          "internalType": "uint256",
          "name": "",
          "type": "uint256"
        }
      ],
      "stateMutability": "nonpayable",
      "type": "function"
    },
    {
      "inputs": [],
      "name": "name",
      "outputs": [
        {
          "internalType": "string",
          "name": "",
          "type": "string"
        }
      ],
      "stateMutability": "view",
      "type": "function"
    },
    {
      "inputs": [],
      "name": "owner",
      "outputs": [
        {
          "internalType": "address",
          "name": "",
          "type": "address"
        }
      ],
      "stateMutability": "view",
      "type": "function"
    },
    {
      "inputs": [
        {
          "internalType": "uint256",
          "name": "tokenId",
          "type": "uint256"
        }
      ],
      "name": "ownerOf",
      "outputs": [
        {
          "internalType": "address",
          "name": "",
          "type": "address"
        }
      ],
      "stateMutability": "view",
      "type": "function"
    },
    {
      "inputs": [],
      "name": "renounceOwnership",
      "outputs": [],
      "stateMutability": "nonpayable",
      "type": "function"
    },
    {
      "inputs": [
        {
          "internalType": "address",
          "name": "from",
          "type": "address"
        },
        {
          "internalType": "address",
          "name": "to",
          "type": "address"
        },
        {
          "internalType": "uint256",
          "name": "tokenId",
          "type": "uint256"
        }
      ],
      "name": "safeTransferFrom",
      "outputs": [],
      "stateMutability": "nonpayable",
      "type": "function"
    },
    {
      "inputs": [
        {
          "internalType": "address",
          "name": "from",
          "type": "address"
        },
        {
          "internalType": "address",
          "name": "to",
          "type": "address"
        },
        {
          "internalType": "uint256",
          "name": "tokenId",
          "type": "uint256"
        },
        {
          "internalType": "bytes",
          "name": "_data",
          "type": "bytes"
        }
      ],
      "name": "safeTransferFrom",
      "outputs": [],
      "stateMutability": "nonpayable",
      "type": "function"
    },
    {
      "inputs": [
        {
          "internalType": "address",
          "name": "operator",
          "type": "address"
        },
        {
          "internalType": "bool",
          "name": "approved",
          "type": "bool"
        }
      ],
      "name": "setApprovalForAll",
      "outputs": [],
      "stateMutability": "nonpayable",
      "type": "function"
    },
    {
      "inputs": [
        {
          "internalType": "bytes4",
          "name": "interfaceId",
          "type": "bytes4"
        }
      ],
      "name": "supportsInterface",
      "outputs": [
        {
          "internalType": "bool",
          "name": "",
          "type": "bool"
        }
      ],
      "stateMutability": "view",
      "type": "function"
    },
    {
      "inputs": [],
      "name": "symbol",
      "outputs": [
        {
          "internalType": "string",
          "name": "",
          "type": "string"
        }
      ],
      "stateMutability": "view",
      "type": "function"
    },
    {
      "inputs": [
        {
          "internalType": "uint256",
          "name": "tokenId",
          "type": "uint256"
        }
      ],
      "name": "tokenURI",
      "outputs": [
        {
          "internalType": "string",
          "name": "",
          "type": "string"
        }
      ],
      "stateMutability": "view",
      "type": "function"
    },
    {
      "inputs": [
        {
          "internalType": "address",
          "name": "from",
          "type": "address"
        },
        {
          "internalType": "address",
          "name": "to",
          "type": "address"
        },
        {
          "internalType": "uint256",
          "name": "tokenId",
          "type": "uint256"
        }
      ],
      "name": "transferFrom",
      "outputs": [],
      "stateMutability": "nonpayable",
      "type": "function"
    },
    {
      "inputs": [
        {
          "internalType": "address",
          "name": "newOwner",
          "type": "address"
        }
      ],
      "name": "transferOwnership",
      "outputs": [],
      "stateMutability": "nonpayable",
      "type": "function"
    },
    {
      "inputs": [
        {
          "components": [
            {
              "internalType": "uint256",
              "name": "tokenId",
              "type": "uint256"
            },
            {
              "internalType": "uint256",
              "name": "balance",
              "type": "uint256"
            },
            {
              "internalType": "uint256",
              "name": "nonce",
              "type": "uint256"
            },
            {
              "internalType": "uint256",
              "name": "expiry",
              "type": "uint256"
            },
            {
              "internalType": "bytes",
              "name": "signature",
              "type": "bytes"
            }
          ],
          "internalType": "struct WBVRSVoucher.NFTVoucher",
          "name": "voucher",
          "type": "tuple"
        }
      ],
      "name": "verifyVoucher",
      "outputs": [
        {
          "internalType": "address",
          "name": "",
          "type": "address"
        }
      ],
      "stateMutability": "nonpayable",
      "type": "function"
    }
  ],
  "bytecode": "0x61012060405260006009553480156200001757600080fd5b506040518060400160405280600c81526020017f5765626176657273654e465400000000000000000000000000000000000000008152506040518060400160405280600581526020017f57425652530000000000000000000000000000000000000000000000000000008152506040518060400160405280601181526020017f5765626176657273652d766f75636865720000000000000000000000000000008152506040518060400160405280600181526020017f310000000000000000000000000000000000000000000000000000000000000081525060008280519060200120905060008280519060200120905060007f8b73c3c69bb8fe3d512ecc4cf759cc79239f7b179b0ffacaa9a75d522b39400f90508260c081815250508160e081815250504660a0818152505062000158818484620001c760201b60201c565b608081815250508061010081815250505050505050816001908051906020019062000185929190620002d1565b5080600290805190602001906200019e929190620002d1565b505050620001c1620001b56200020360201b60201c565b6200020b60201b60201c565b620004be565b60008383834630604051602001620001e4959493929190620003b4565b6040516020818303038152906040528051906020012090509392505050565b600033905090565b6000600760009054906101000a900473ffffffffffffffffffffffffffffffffffffffff16905081600760006101000a81548173ffffffffffffffffffffffffffffffffffffffff021916908373ffffffffffffffffffffffffffffffffffffffff1602179055508173ffffffffffffffffffffffffffffffffffffffff168173ffffffffffffffffffffffffffffffffffffffff167f8be0079c531659141344cd1fd0a4f28419497f9722a3daafe3b4186f6b6457e060405160405180910390a35050565b828054620002df9062000459565b90600052602060002090601f0160209004810192826200030357600085556200034f565b82601f106200031e57805160ff19168380011785556200034f565b828001600101855582156200034f579182015b828111156200034e57825182559160200191906001019062000331565b5b5090506200035e919062000362565b5090565b5b808211156200037d57600081600090555060010162000363565b5090565b6200038c8162000411565b82525050565b6200039d8162000425565b82525050565b620003ae816200044f565b82525050565b600060a082019050620003cb600083018862000392565b620003da602083018762000392565b620003e9604083018662000392565b620003f86060830185620003a3565b62000407608083018462000381565b9695505050505050565b60006200041e826200042f565b9050919050565b6000819050919050565b600073ffffffffffffffffffffffffffffffffffffffff82169050919050565b6000819050919050565b600060028204905060018216806200047257607f821691505b602082108114156200048957620004886200048f565b5b50919050565b7f4e487b7100000000000000000000000000000000000000000000000000000000600052602260045260246000fd5b60805160a05160c05160e0516101005161404b6200050360003960006124410152600061248301526000612462015260006123ee01526000612416015261404b6000f3fe608060405234801561001057600080fd5b50600436106101585760003560e01c80639468f2ca116100c3578063bb62115e1161007c578063bb62115e146103eb578063c87b56dd14610409578063caa0f92a14610439578063d0def52114610457578063e985e9c514610487578063f2fde38b146104b757610158565b80639468f2ca1461030557806395d89b4114610335578063a22cb46514610353578063a8689ce21461036f578063ad637e671461039f578063b88d4fde146103cf57610158565b8063564b81ef11610115578063564b81ef1461022f5780636352211e1461024d57806370a082311461027d578063715018a6146102ad5780637e2499cc146102b75780638da5cb5b146102e757610158565b806301ffc9a71461015d57806306fdde031461018d578063081812fc146101ab578063095ea7b3146101db57806323b872dd146101f757806342842e0e14610213575b600080fd5b61017760048036038101906101729190612b60565b6104d3565b6040516101849190613771565b60405180910390f35b6101956104e5565b6040516101a29190613877565b60405180910390f35b6101c560048036038101906101c09190612bf3565b610577565b6040516101d291906136d3565b60405180910390f35b6101f560048036038101906101f09190612b24565b6105fc565b005b610211600480360381019061020c9190612976565b610714565b005b61022d60048036038101906102289190612976565b610774565b005b610237610794565b6040516102449190613bf9565b60405180910390f35b61026760048036038101906102629190612bf3565b6107a1565b60405161027491906136d3565b60405180910390f35b61029760048036038101906102929190612881565b610853565b6040516102a49190613bf9565b60405180910390f35b6102b561090b565b005b6102d160048036038101906102cc9190612bf3565b610993565b6040516102de9190613771565b60405180910390f35b6102ef6109b3565b6040516102fc91906136d3565b60405180910390f35b61031f600480360381019061031a9190612ad0565b6109dd565b60405161032c9190613bf9565b60405180910390f35b61033d610a90565b60405161034a9190613877565b60405180910390f35b61036d60048036038101906103689190612a40565b610b22565b005b6103896004803603810190610384919061290f565b610ca3565b6040516103969190613bf9565b60405180910390f35b6103b960048036038101906103b49190612bb2565b610f2d565b6040516103c691906136d3565b60405180910390f35b6103e960048036038101906103e491906129c5565b611025565b005b6103f3611087565b6040516104009190613bf9565b60405180910390f35b610423600480360381019061041e9190612bf3565b61108d565b6040516104309190613877565b60405180910390f35b6104416111dc565b60405161044e9190613bf9565b60405180910390f35b610471600480360381019061046c9190612a7c565b6111f2565b60405161047e9190613bf9565b60405180910390f35b6104a1600480360381019061049c91906128d3565b611225565b6040516104ae9190613771565b60405180910390f35b6104d160048036038101906104cc9190612881565b6112b9565b005b60006104de826113b1565b9050919050565b6060600180546104f490613e96565b80601f016020809104026020016040519081016040528092919081815260200182805461052090613e96565b801561056d5780601f106105425761010080835404028352916020019161056d565b820191906000526020600020905b81548152906001019060200180831161055057829003601f168201915b5050505050905090565b600061058282611493565b6105c1576040517f08c379a00000000000000000000000000000000000000000000000000000000081526004016105b890613b19565b60405180910390fd5b6005600083815260200190815260200160002060009054906101000a900473ffffffffffffffffffffffffffffffffffffffff169050919050565b6000610607826107a1565b90508073ffffffffffffffffffffffffffffffffffffffff168373ffffffffffffffffffffffffffffffffffffffff161415610678576040517f08c379a000000000000000000000000000000000000000000000000000000000815260040161066f90613b99565b60405180910390fd5b8073ffffffffffffffffffffffffffffffffffffffff166106976114ff565b73ffffffffffffffffffffffffffffffffffffffff1614806106c657506106c5816106c06114ff565b611225565b5b610705576040517f08c379a00000000000000000000000000000000000000000000000000000000081526004016106fc90613a79565b60405180910390fd5b61070f8383611507565b505050565b61072561071f6114ff565b826115c0565b610764576040517f08c379a000000000000000000000000000000000000000000000000000000000815260040161075b90613bd9565b60405180910390fd5b61076f83838361169e565b505050565b61078f83838360405180602001604052806000815250611025565b505050565b6000804690508091505090565b6000806003600084815260200190815260200160002060009054906101000a900473ffffffffffffffffffffffffffffffffffffffff169050600073ffffffffffffffffffffffffffffffffffffffff168173ffffffffffffffffffffffffffffffffffffffff16141561084a576040517f08c379a000000000000000000000000000000000000000000000000000000000815260040161084190613ab9565b60405180910390fd5b80915050919050565b60008073ffffffffffffffffffffffffffffffffffffffff168273ffffffffffffffffffffffffffffffffffffffff1614156108c4576040517f08c379a00000000000000000000000000000000000000000000000000000000081526004016108bb90613a99565b60405180910390fd5b600460008373ffffffffffffffffffffffffffffffffffffffff1673ffffffffffffffffffffffffffffffffffffffff168152602001908152602001600020549050919050565b6109136114ff565b73ffffffffffffffffffffffffffffffffffffffff166109316109b3565b73ffffffffffffffffffffffffffffffffffffffff1614610987576040517f08c379a000000000000000000000000000000000000000000000000000000000815260040161097e90613b39565b60405180910390fd5b61099160006118fa565b565b60006020528060005260406000206000915054906101000a900460ff1681565b6000600760009054906101000a900473ffffffffffffffffffffffffffffffffffffffff16905090565b6000806109e983610f2d565b90506109f883600001356107a1565b73ffffffffffffffffffffffffffffffffffffffff168173ffffffffffffffffffffffffffffffffffffffff1614610a65576040517f08c379a0000000000000000000000000000000000000000000000000000000008152600401610a5c90613bb9565b60405180910390fd5b610a73308460000135611507565b610a828185856000013561169e565b826000013591505092915050565b606060028054610a9f90613e96565b80601f0160208091040260200160405190810160405280929190818152602001828054610acb90613e96565b8015610b185780601f10610aed57610100808354040283529160200191610b18565b820191906000526020600020905b815481529060010190602001808311610afb57829003601f168201915b5050505050905090565b610b2a6114ff565b73ffffffffffffffffffffffffffffffffffffffff168273ffffffffffffffffffffffffffffffffffffffff161415610b98576040517f08c379a0000000000000000000000000000000000000000000000000000000008152600401610b8f906139b9565b60405180910390fd5b8060066000610ba56114ff565b73ffffffffffffffffffffffffffffffffffffffff1673ffffffffffffffffffffffffffffffffffffffff16815260200190815260200160002060008473ffffffffffffffffffffffffffffffffffffffff1673ffffffffffffffffffffffffffffffffffffffff16815260200190815260200160002060006101000a81548160ff0219169083151502179055508173ffffffffffffffffffffffffffffffffffffffff16610c526114ff565b73ffffffffffffffffffffffffffffffffffffffff167f17307eab39ab6107e8899845ad3d59bd9653f200f220920489ca2b5937696c3183604051610c979190613771565b60405180910390a35050565b6000808390506000610cb484610f2d565b90508173ffffffffffffffffffffffffffffffffffffffff16636352211e85600001356040518263ffffffff1660e01b8152600401610cf39190613bf9565b60206040518083038186803b158015610d0b57600080fd5b505afa158015610d1f573d6000803e3d6000fd5b505050506040513d601f19601f82011682018060405250810190610d4391906128aa565b73ffffffffffffffffffffffffffffffffffffffff168173ffffffffffffffffffffffffffffffffffffffff1614610db0576040517f08c379a0000000000000000000000000000000000000000000000000000000008152600401610da790613bb9565b60405180910390fd5b3073ffffffffffffffffffffffffffffffffffffffff168273ffffffffffffffffffffffffffffffffffffffff1663081812fc86600001356040518263ffffffff1660e01b8152600401610e049190613bf9565b60206040518083038186803b158015610e1c57600080fd5b505afa158015610e30573d6000803e3d6000fd5b505050506040513d601f19601f82011682018060405250810190610e5491906128aa565b73ffffffffffffffffffffffffffffffffffffffff1614610eaa576040517f08c379a0000000000000000000000000000000000000000000000000000000008152600401610ea190613b79565b60405180910390fd5b8173ffffffffffffffffffffffffffffffffffffffff166323b872dd828887600001356040518463ffffffff1660e01b8152600401610eeb939291906136ee565b600060405180830381600087803b158015610f0557600080fd5b505af1158015610f19573d6000803e3d6000fd5b505050508360000135925050509392505050565b60008160600135421115610f76576040517f08c379a0000000000000000000000000000000000000000000000000000000008152600401610f6d90613919565b60405180910390fd5b600015156000808460400135815260200190815260200160002060009054906101000a900460ff16151514610fe0576040517f08c379a0000000000000000000000000000000000000000000000000000000008152600401610fd790613a59565b60405180910390fd5b60016000808460400135815260200190815260200160002060006101000a81548160ff021916908315150217905550600061101a836119c0565b905080915050919050565b6110366110306114ff565b836115c0565b611075576040517f08c379a000000000000000000000000000000000000000000000000000000000815260040161106c90613bd9565b60405180910390fd5b61108184848484611a32565b50505050565b60095481565b606061109882611493565b6110d7576040517f08c379a00000000000000000000000000000000000000000000000000000000081526004016110ce906138d9565b60405180910390fd5b60006008600084815260200190815260200160002080546110f790613e96565b905011611139576040517f08c379a0000000000000000000000000000000000000000000000000000000008152600401611130906139d9565b60405180910390fd5b60086000838152602001908152602001600020805461115790613e96565b80601f016020809104026020016040519081016040528092919081815260200182805461118390613e96565b80156111d05780601f106111a5576101008083540402835291602001916111d0565b820191906000526020600020905b8154815290600101906020018083116111b357829003601f168201915b50505050509050919050565b600060016009546111ed9190613d3f565b905090565b6000806111fd6111dc565b90506112098482611a8e565b6112138184611c5c565b61121b611d32565b8091505092915050565b6000600660008473ffffffffffffffffffffffffffffffffffffffff1673ffffffffffffffffffffffffffffffffffffffff16815260200190815260200160002060008373ffffffffffffffffffffffffffffffffffffffff1673ffffffffffffffffffffffffffffffffffffffff16815260200190815260200160002060009054906101000a900460ff16905092915050565b6112c16114ff565b73ffffffffffffffffffffffffffffffffffffffff166112df6109b3565b73ffffffffffffffffffffffffffffffffffffffff1614611335576040517f08c379a000000000000000000000000000000000000000000000000000000000815260040161132c90613b39565b60405180910390fd5b600073ffffffffffffffffffffffffffffffffffffffff168173ffffffffffffffffffffffffffffffffffffffff1614156113a5576040517f08c379a000000000000000000000000000000000000000000000000000000000815260040161139c90613939565b60405180910390fd5b6113ae816118fa565b50565b60007f80ac58cd000000000000000000000000000000000000000000000000000000007bffffffffffffffffffffffffffffffffffffffffffffffffffffffff1916827bffffffffffffffffffffffffffffffffffffffffffffffffffffffff1916148061147c57507f5b5e139f000000000000000000000000000000000000000000000000000000007bffffffffffffffffffffffffffffffffffffffffffffffffffffffff1916827bffffffffffffffffffffffffffffffffffffffffffffffffffffffff1916145b8061148c575061148b82611d4c565b5b9050919050565b60008073ffffffffffffffffffffffffffffffffffffffff166003600084815260200190815260200160002060009054906101000a900473ffffffffffffffffffffffffffffffffffffffff1673ffffffffffffffffffffffffffffffffffffffff1614159050919050565b600033905090565b816005600083815260200190815260200160002060006101000a81548173ffffffffffffffffffffffffffffffffffffffff021916908373ffffffffffffffffffffffffffffffffffffffff160217905550808273ffffffffffffffffffffffffffffffffffffffff1661157a836107a1565b73ffffffffffffffffffffffffffffffffffffffff167f8c5be1e5ebec7d5bd14f71427d1e84f3dd0314c0f7b2291e5b200ac8c7c3b92560405160405180910390a45050565b60006115cb82611493565b61160a576040517f08c379a000000000000000000000000000000000000000000000000000000000815260040161160190613a19565b60405180910390fd5b6000611615836107a1565b90508073ffffffffffffffffffffffffffffffffffffffff168473ffffffffffffffffffffffffffffffffffffffff16148061168457508373ffffffffffffffffffffffffffffffffffffffff1661166c84610577565b73ffffffffffffffffffffffffffffffffffffffff16145b8061169557506116948185611225565b5b91505092915050565b8273ffffffffffffffffffffffffffffffffffffffff166116be826107a1565b73ffffffffffffffffffffffffffffffffffffffff1614611714576040517f08c379a000000000000000000000000000000000000000000000000000000000815260040161170b90613b59565b60405180910390fd5b600073ffffffffffffffffffffffffffffffffffffffff168273ffffffffffffffffffffffffffffffffffffffff161415611784576040517f08c379a000000000000000000000000000000000000000000000000000000000815260040161177b90613999565b60405180910390fd5b61178f838383611db6565b61179a600082611507565b6001600460008573ffffffffffffffffffffffffffffffffffffffff1673ffffffffffffffffffffffffffffffffffffffff16815260200190815260200160002060008282546117ea9190613d95565b925050819055506001600460008473ffffffffffffffffffffffffffffffffffffffff1673ffffffffffffffffffffffffffffffffffffffff16815260200190815260200160002060008282546118419190613d3f565b92505081905550816003600083815260200190815260200160002060006101000a81548173ffffffffffffffffffffffffffffffffffffffff021916908373ffffffffffffffffffffffffffffffffffffffff160217905550808273ffffffffffffffffffffffffffffffffffffffff168473ffffffffffffffffffffffffffffffffffffffff167fddf252ad1be2c89b69c2b068fc378daa952ba7f163c4a11628f55a4df523b3ef60405160405180910390a4505050565b6000600760009054906101000a900473ffffffffffffffffffffffffffffffffffffffff16905081600760006101000a81548173ffffffffffffffffffffffffffffffffffffffff021916908373ffffffffffffffffffffffffffffffffffffffff1602179055508173ffffffffffffffffffffffffffffffffffffffff168173ffffffffffffffffffffffffffffffffffffffff167f8be0079c531659141344cd1fd0a4f28419497f9722a3daafe3b4186f6b6457e060405160405180910390a35050565b6000806119cc83611dbb565b9050611a2a818480608001906119e29190613c14565b8080601f016020809104026020016040519081016040528093929190818152602001838380828437600081840152601f19601f82011690508083019250505050505050611e2b565b915050919050565b611a3d84848461169e565b611a4984848484611e52565b611a88576040517f08c379a0000000000000000000000000000000000000000000000000000000008152600401611a7f906138f9565b60405180910390fd5b50505050565b600073ffffffffffffffffffffffffffffffffffffffff168273ffffffffffffffffffffffffffffffffffffffff161415611afe576040517f08c379a0000000000000000000000000000000000000000000000000000000008152600401611af590613af9565b60405180910390fd5b611b0781611493565b15611b47576040517f08c379a0000000000000000000000000000000000000000000000000000000008152600401611b3e90613959565b60405180910390fd5b611b5360008383611db6565b6001600460008473ffffffffffffffffffffffffffffffffffffffff1673ffffffffffffffffffffffffffffffffffffffff1681526020019081526020016000206000828254611ba39190613d3f565b92505081905550816003600083815260200190815260200160002060006101000a81548173ffffffffffffffffffffffffffffffffffffffff021916908373ffffffffffffffffffffffffffffffffffffffff160217905550808273ffffffffffffffffffffffffffffffffffffffff16600073ffffffffffffffffffffffffffffffffffffffff167fddf252ad1be2c89b69c2b068fc378daa952ba7f163c4a11628f55a4df523b3ef60405160405180910390a45050565b611c6582611493565b611ca4576040517f08c379a0000000000000000000000000000000000000000000000000000000008152600401611c9b90613979565b60405180910390fd5b6000600860008481526020019081526020016000208054611cc490613e96565b905014611d06576040517f08c379a0000000000000000000000000000000000000000000000000000000008152600401611cfd90613a39565b60405180910390fd5b80600860008481526020019081526020016000209080519060200190611d2d929190612675565b505050565b60096000815480929190611d4590613ec8565b9190505550565b60007f01ffc9a7000000000000000000000000000000000000000000000000000000007bffffffffffffffffffffffffffffffffffffffffffffffffffffffff1916827bffffffffffffffffffffffffffffffffffffffffffffffffffffffff1916149050919050565b505050565b6000611e247f9351747b1e9d1d5ecc2259decffb60239f521e243e85645e0762ed1d775876778360000135846020013585604001358660600135604051602001611e099594939291906137df565b60405160208183030381529060405280519060200120611fe9565b9050919050565b6000806000611e3a8585612003565b91509150611e4781612086565b819250505092915050565b6000611e738473ffffffffffffffffffffffffffffffffffffffff166123d7565b15611fdc578373ffffffffffffffffffffffffffffffffffffffff1663150b7a02611e9c6114ff565b8786866040518563ffffffff1660e01b8152600401611ebe9493929190613725565b602060405180830381600087803b158015611ed857600080fd5b505af1925050508015611f0957506040513d601f19601f82011682018060405250810190611f069190612b89565b60015b611f8c573d8060008114611f39576040519150601f19603f3d011682016040523d82523d6000602084013e611f3e565b606091505b50600081511415611f84576040517f08c379a0000000000000000000000000000000000000000000000000000000008152600401611f7b906138f9565b60405180910390fd5b805181602001fd5b63150b7a0260e01b7bffffffffffffffffffffffffffffffffffffffffffffffffffffffff1916817bffffffffffffffffffffffffffffffffffffffffffffffffffffffff191614915050611fe1565b600190505b949350505050565b6000611ffc611ff66123ea565b836124ad565b9050919050565b6000806041835114156120455760008060006020860151925060408601519150606086015160001a9050612039878285856124e0565b9450945050505061207f565b60408351141561207657600080602085015191506040850151905061206b8683836125ed565b93509350505061207f565b60006002915091505b9250929050565b600060048111156120c0577f4e487b7100000000000000000000000000000000000000000000000000000000600052602160045260246000fd5b8160048111156120f9577f4e487b7100000000000000000000000000000000000000000000000000000000600052602160045260246000fd5b1415612104576123d4565b6001600481111561213e577f4e487b7100000000000000000000000000000000000000000000000000000000600052602160045260246000fd5b816004811115612177577f4e487b7100000000000000000000000000000000000000000000000000000000600052602160045260246000fd5b14156121b8576040517f08c379a00000000000000000000000000000000000000000000000000000000081526004016121af90613899565b60405180910390fd5b600260048111156121f2577f4e487b7100000000000000000000000000000000000000000000000000000000600052602160045260246000fd5b81600481111561222b577f4e487b7100000000000000000000000000000000000000000000000000000000600052602160045260246000fd5b141561226c576040517f08c379a0000000000000000000000000000000000000000000000000000000008152600401612263906138b9565b60405180910390fd5b600360048111156122a6577f4e487b7100000000000000000000000000000000000000000000000000000000600052602160045260246000fd5b8160048111156122df577f4e487b7100000000000000000000000000000000000000000000000000000000600052602160045260246000fd5b1415612320576040517f08c379a0000000000000000000000000000000000000000000000000000000008152600401612317906139f9565b60405180910390fd5b600480811115612359577f4e487b7100000000000000000000000000000000000000000000000000000000600052602160045260246000fd5b816004811115612392577f4e487b7100000000000000000000000000000000000000000000000000000000600052602160045260246000fd5b14156123d3576040517f08c379a00000000000000000000000000000000000000000000000000000000081526004016123ca90613ad9565b60405180910390fd5b5b50565b600080823b905060008111915050919050565b60007f000000000000000000000000000000000000000000000000000000000000000046141561243c577f000000000000000000000000000000000000000000000000000000000000000090506124aa565b6124a77f00000000000000000000000000000000000000000000000000000000000000007f00000000000000000000000000000000000000000000000000000000000000007f000000000000000000000000000000000000000000000000000000000000000061263b565b90505b90565b600082826040516020016124c292919061369c565b60405160208183030381529060405280519060200120905092915050565b6000807f7fffffffffffffffffffffffffffffff5d576e7357a4501ddfe92f46681b20a08360001c111561251b5760006003915091506125e4565b601b8560ff16141580156125335750601c8560ff1614155b156125455760006004915091506125e4565b60006001878787876040516000815260200160405260405161256a9493929190613832565b6020604051602081039080840390855afa15801561258c573d6000803e3d6000fd5b505050602060405103519050600073ffffffffffffffffffffffffffffffffffffffff168173ffffffffffffffffffffffffffffffffffffffff1614156125db576000600192509250506125e4565b80600092509250505b94509492505050565b6000806000807f7fffffffffffffffffffffffffffffffffffffffffffffffffffffffffffffff85169150601b8560ff1c01905061262d878288856124e0565b935093505050935093915050565b6000838383463060405160200161265695949392919061378c565b6040516020818303038152906040528051906020012090509392505050565b82805461268190613e96565b90600052602060002090601f0160209004810192826126a357600085556126ea565b82601f106126bc57805160ff19168380011785556126ea565b828001600101855582156126ea579182015b828111156126e95782518255916020019190600101906126ce565b5b5090506126f791906126fb565b5090565b5b808211156127145760008160009055506001016126fc565b5090565b600061272b61272684613c9c565b613c6b565b90508281526020810184848401111561274357600080fd5b61274e848285613e54565b509392505050565b600061276961276484613ccc565b613c6b565b90508281526020810184848401111561278157600080fd5b61278c848285613e54565b509392505050565b6000813590506127a381613fb9565b92915050565b6000815190506127b881613fb9565b92915050565b6000813590506127cd81613fd0565b92915050565b6000813590506127e281613fe7565b92915050565b6000815190506127f781613fe7565b92915050565b600082601f83011261280e57600080fd5b813561281e848260208601612718565b91505092915050565b600082601f83011261283857600080fd5b8135612848848260208601612756565b91505092915050565b600060a0828403121561286357600080fd5b81905092915050565b60008135905061287b81613ffe565b92915050565b60006020828403121561289357600080fd5b60006128a184828501612794565b91505092915050565b6000602082840312156128bc57600080fd5b60006128ca848285016127a9565b91505092915050565b600080604083850312156128e657600080fd5b60006128f485828601612794565b925050602061290585828601612794565b9150509250929050565b60008060006060848603121561292457600080fd5b600061293286828701612794565b935050602061294386828701612794565b925050604084013567ffffffffffffffff81111561296057600080fd5b61296c86828701612851565b9150509250925092565b60008060006060848603121561298b57600080fd5b600061299986828701612794565b93505060206129aa86828701612794565b92505060406129bb8682870161286c565b9150509250925092565b600080600080608085870312156129db57600080fd5b60006129e987828801612794565b94505060206129fa87828801612794565b9350506040612a0b8782880161286c565b925050606085013567ffffffffffffffff811115612a2857600080fd5b612a34878288016127fd565b91505092959194509250565b60008060408385031215612a5357600080fd5b6000612a6185828601612794565b9250506020612a72858286016127be565b9150509250929050565b60008060408385031215612a8f57600080fd5b6000612a9d85828601612794565b925050602083013567ffffffffffffffff811115612aba57600080fd5b612ac685828601612827565b9150509250929050565b60008060408385031215612ae357600080fd5b6000612af185828601612794565b925050602083013567ffffffffffffffff811115612b0e57600080fd5b612b1a85828601612851565b9150509250929050565b60008060408385031215612b3757600080fd5b6000612b4585828601612794565b9250506020612b568582860161286c565b9150509250929050565b600060208284031215612b7257600080fd5b6000612b80848285016127d3565b91505092915050565b600060208284031215612b9b57600080fd5b6000612ba9848285016127e8565b91505092915050565b600060208284031215612bc457600080fd5b600082013567ffffffffffffffff811115612bde57600080fd5b612bea84828501612851565b91505092915050565b600060208284031215612c0557600080fd5b6000612c138482850161286c565b91505092915050565b612c2581613dc9565b82525050565b612c3481613ddb565b82525050565b612c4381613de7565b82525050565b612c5a612c5582613de7565b613f11565b82525050565b6000612c6b82613cfc565b612c758185613d12565b9350612c85818560208601613e63565b612c8e81613fa8565b840191505092915050565b6000612ca482613d07565b612cae8185613d23565b9350612cbe818560208601613e63565b612cc781613fa8565b840191505092915050565b6000612cdf601883613d23565b91507f45434453413a20696e76616c6964207369676e617475726500000000000000006000830152602082019050919050565b6000612d1f601f83613d23565b91507f45434453413a20696e76616c6964207369676e6174757265206c656e677468006000830152602082019050919050565b6000612d5f602683613d23565b91507f746f6b656e5552493a20517565727920666f72206e6f6e206578697374656e7460008301527f20746f6b656e00000000000000000000000000000000000000000000000000006020830152604082019050919050565b6000612dc5603283613d23565b91507f4552433732313a207472616e7366657220746f206e6f6e20455243373231526560008301527f63656976657220696d706c656d656e74657200000000000000000000000000006020830152604082019050919050565b6000612e2b601b83613d23565b91507f566f75636865722068617320616c7265616479206578706972656400000000006000830152602082019050919050565b6000612e6b602683613d23565b91507f4f776e61626c653a206e6577206f776e657220697320746865207a65726f206160008301527f64647265737300000000000000000000000000000000000000000000000000006020830152604082019050919050565b6000612ed1601c83613d23565b91507f4552433732313a20746f6b656e20616c7265616479206d696e746564000000006000830152602082019050919050565b6000612f11600283613d34565b91507f19010000000000000000000000000000000000000000000000000000000000006000830152600282019050919050565b6000612f51602e83613d23565b91507f53657474696e672055524920666f72206e6f6e2d6578697374656e7420746f6b60008301527f656e206e6f7420616c6c6f7765640000000000000000000000000000000000006020830152604082019050919050565b6000612fb7602483613d23565b91507f4552433732313a207472616e7366657220746f20746865207a65726f2061646460008301527f72657373000000000000000000000000000000000000000000000000000000006020830152604082019050919050565b600061301d601983613d23565b91507f4552433732313a20617070726f766520746f2063616c6c6572000000000000006000830152602082019050919050565b600061305d602383613d23565b91507f4572726f723a20555249206f66207468697320746f6b656e206973206e6f742060008301527f73657400000000000000000000000000000000000000000000000000000000006020830152604082019050919050565b60006130c3602283613d23565b91507f45434453413a20696e76616c6964207369676e6174757265202773272076616c60008301527f75650000000000000000000000000000000000000000000000000000000000006020830152604082019050919050565b6000613129602c83613d23565b91507f4552433732313a206f70657261746f7220717565727920666f72206e6f6e657860008301527f697374656e7420746f6b656e00000000000000000000000000000000000000006020830152604082019050919050565b600061318f601f83613d23565b91507f5468697320746f6b656e27732055524920616c726561647920657869737473006000830152602082019050919050565b60006131cf601383613d23565b91507f496e76616c6964206e6f6e63652076616c7565000000000000000000000000006000830152602082019050919050565b600061320f603883613d23565b91507f4552433732313a20617070726f76652063616c6c6572206973206e6f74206f7760008301527f6e6572206e6f7220617070726f76656420666f7220616c6c00000000000000006020830152604082019050919050565b6000613275602a83613d23565b91507f4552433732313a2062616c616e636520717565727920666f7220746865207a6560008301527f726f2061646472657373000000000000000000000000000000000000000000006020830152604082019050919050565b60006132db602983613d23565b91507f4552433732313a206f776e657220717565727920666f72206e6f6e657869737460008301527f656e7420746f6b656e00000000000000000000000000000000000000000000006020830152604082019050919050565b6000613341602283613d23565b91507f45434453413a20696e76616c6964207369676e6174757265202776272076616c60008301527f75650000000000000000000000000000000000000000000000000000000000006020830152604082019050919050565b60006133a7602083613d23565b91507f4552433732313a206d696e7420746f20746865207a65726f20616464726573736000830152602082019050919050565b60006133e7602c83613d23565b91507f4552433732313a20617070726f76656420717565727920666f72206e6f6e657860008301527f697374656e7420746f6b656e00000000000000000000000000000000000000006020830152604082019050919050565b600061344d602083613d23565b91507f4f776e61626c653a2063616c6c6572206973206e6f7420746865206f776e65726000830152602082019050919050565b600061348d602983613d23565b91507f4552433732313a207472616e73666572206f6620746f6b656e2074686174206960008301527f73206e6f74206f776e00000000000000000000000000000000000000000000006020830152604082019050919050565b60006134f3602c83613d23565b91507f5468697320636f6e747261637420686173206e6f20617070726f76616c20666f60008301527f72207468697320746f6b656e00000000000000000000000000000000000000006020830152604082019050919050565b6000613559602183613d23565b91507f4552433732313a20617070726f76616c20746f2063757272656e74206f776e6560008301527f72000000000000000000000000000000000000000000000000000000000000006020830152604082019050919050565b60006135bf602783613d23565b91507f417574686f72697a6174696f6e206661696c65643a20496e76616c696420736960008301527f676e6174757265000000000000000000000000000000000000000000000000006020830152604082019050919050565b6000613625603183613d23565b91507f4552433732313a207472616e736665722063616c6c6572206973206e6f74206f60008301527f776e6572206e6f7220617070726f7665640000000000000000000000000000006020830152604082019050919050565b61368781613e3d565b82525050565b61369681613e47565b82525050565b60006136a782612f04565b91506136b38285612c49565b6020820191506136c38284612c49565b6020820191508190509392505050565b60006020820190506136e86000830184612c1c565b92915050565b60006060820190506137036000830186612c1c565b6137106020830185612c1c565b61371d604083018461367e565b949350505050565b600060808201905061373a6000830187612c1c565b6137476020830186612c1c565b613754604083018561367e565b81810360608301526137668184612c60565b905095945050505050565b60006020820190506137866000830184612c2b565b92915050565b600060a0820190506137a16000830188612c3a565b6137ae6020830187612c3a565b6137bb6040830186612c3a565b6137c8606083018561367e565b6137d56080830184612c1c565b9695505050505050565b600060a0820190506137f46000830188612c3a565b613801602083018761367e565b61380e604083018661367e565b61381b606083018561367e565b613828608083018461367e565b9695505050505050565b60006080820190506138476000830187612c3a565b613854602083018661368d565b6138616040830185612c3a565b61386e6060830184612c3a565b95945050505050565b600060208201905081810360008301526138918184612c99565b905092915050565b600060208201905081810360008301526138b281612cd2565b9050919050565b600060208201905081810360008301526138d281612d12565b9050919050565b600060208201905081810360008301526138f281612d52565b9050919050565b6000602082019050818103600083015261391281612db8565b9050919050565b6000602082019050818103600083015261393281612e1e565b9050919050565b6000602082019050818103600083015261395281612e5e565b9050919050565b6000602082019050818103600083015261397281612ec4565b9050919050565b6000602082019050818103600083015261399281612f44565b9050919050565b600060208201905081810360008301526139b281612faa565b9050919050565b600060208201905081810360008301526139d281613010565b9050919050565b600060208201905081810360008301526139f281613050565b9050919050565b60006020820190508181036000830152613a12816130b6565b9050919050565b60006020820190508181036000830152613a328161311c565b9050919050565b60006020820190508181036000830152613a5281613182565b9050919050565b60006020820190508181036000830152613a72816131c2565b9050919050565b60006020820190508181036000830152613a9281613202565b9050919050565b60006020820190508181036000830152613ab281613268565b9050919050565b60006020820190508181036000830152613ad2816132ce565b9050919050565b60006020820190508181036000830152613af281613334565b9050919050565b60006020820190508181036000830152613b128161339a565b9050919050565b60006020820190508181036000830152613b32816133da565b9050919050565b60006020820190508181036000830152613b5281613440565b9050919050565b60006020820190508181036000830152613b7281613480565b9050919050565b60006020820190508181036000830152613b92816134e6565b9050919050565b60006020820190508181036000830152613bb28161354c565b9050919050565b60006020820190508181036000830152613bd2816135b2565b9050919050565b60006020820190508181036000830152613bf281613618565b9050919050565b6000602082019050613c0e600083018461367e565b92915050565b60008083356001602003843603038112613c2d57600080fd5b80840192508235915067ffffffffffffffff821115613c4b57600080fd5b602083019250600182023603831315613c6357600080fd5b509250929050565b6000604051905081810181811067ffffffffffffffff82111715613c9257613c91613f79565b5b8060405250919050565b600067ffffffffffffffff821115613cb757613cb6613f79565b5b601f19601f8301169050602081019050919050565b600067ffffffffffffffff821115613ce757613ce6613f79565b5b601f19601f8301169050602081019050919050565b600081519050919050565b600081519050919050565b600082825260208201905092915050565b600082825260208201905092915050565b600081905092915050565b6000613d4a82613e3d565b9150613d5583613e3d565b9250827fffffffffffffffffffffffffffffffffffffffffffffffffffffffffffffffff03821115613d8a57613d89613f1b565b5b828201905092915050565b6000613da082613e3d565b9150613dab83613e3d565b925082821015613dbe57613dbd613f1b565b5b828203905092915050565b6000613dd482613e1d565b9050919050565b60008115159050919050565b6000819050919050565b60007fffffffff0000000000000000000000000000000000000000000000000000000082169050919050565b600073ffffffffffffffffffffffffffffffffffffffff82169050919050565b6000819050919050565b600060ff82169050919050565b82818337600083830152505050565b60005b83811015613e81578082015181840152602081019050613e66565b83811115613e90576000848401525b50505050565b60006002820490506001821680613eae57607f821691505b60208210811415613ec257613ec1613f4a565b5b50919050565b6000613ed382613e3d565b91507fffffffffffffffffffffffffffffffffffffffffffffffffffffffffffffffff821415613f0657613f05613f1b565b5b600182019050919050565b6000819050919050565b7f4e487b7100000000000000000000000000000000000000000000000000000000600052601160045260246000fd5b7f4e487b7100000000000000000000000000000000000000000000000000000000600052602260045260246000fd5b7f4e487b7100000000000000000000000000000000000000000000000000000000600052604160045260246000fd5b6000601f19601f8301169050919050565b613fc281613dc9565b8114613fcd57600080fd5b50565b613fd981613ddb565b8114613fe457600080fd5b50565b613ff081613df1565b8114613ffb57600080fd5b50565b61400781613e3d565b811461401257600080fd5b5056fea26469706673582212207900d96406353b43c1b160d6b7458768f9c60c792a200cb6af469bc9813b124f64736f6c63430008000033",
  "linkReferences": {},
  "deployedLinkReferences": {}
}